{
    "contractName": "OCT_Convert",
    "abi": [
        {
            "inputs": [
                {
                    "internalType": "address",
                    "name": "DAO",
                    "type": "address"
                },
                {
                    "internalType": "address",
                    "name": "_GBL",
                    "type": "address"
                }
            ],
            "stateMutability": "nonpayable",
            "type": "constructor"
        },
        {
            "anonymous": false,
            "inputs": [
                {
                    "indexed": true,
                    "internalType": "address",
                    "name": "previousOwner",
                    "type": "address"
                },
                {
                    "indexed": true,
                    "internalType": "address",
                    "name": "newOwner",
                    "type": "address"
                }
            ],
            "name": "OwnershipTransferred",
            "type": "event"
        },
        {
            "anonymous": false,
            "inputs": [],
            "name": "TrancheConverted",
            "type": "event"
        },
        {
            "anonymous": false,
            "inputs": [],
            "name": "TrancheWithdrawn",
            "type": "event"
        },
        {
            "inputs": [],
            "name": "GBL",
            "outputs": [
                {
                    "internalType": "address",
                    "name": "",
                    "type": "address"
                }
            ],
            "stateMutability": "view",
            "type": "function"
        },
        {
            "inputs": [],
            "name": "canPull",
            "outputs": [
                {
                    "internalType": "bool",
                    "name": "",
                    "type": "bool"
                }
            ],
            "stateMutability": "pure",
            "type": "function"
        },
        {
            "inputs": [],
            "name": "canPullERC1155",
            "outputs": [
                {
                    "internalType": "bool",
                    "name": "",
                    "type": "bool"
                }
            ],
            "stateMutability": "view",
            "type": "function"
        },
        {
            "inputs": [],
            "name": "canPullERC721",
            "outputs": [
                {
                    "internalType": "bool",
                    "name": "",
                    "type": "bool"
                }
            ],
            "stateMutability": "view",
            "type": "function"
        },
        {
            "inputs": [],
            "name": "canPullMulti",
            "outputs": [
                {
                    "internalType": "bool",
                    "name": "",
                    "type": "bool"
                }
            ],
            "stateMutability": "pure",
            "type": "function"
        },
        {
            "inputs": [],
            "name": "canPullMultiERC721",
            "outputs": [
                {
                    "internalType": "bool",
                    "name": "",
                    "type": "bool"
                }
            ],
            "stateMutability": "view",
            "type": "function"
        },
        {
            "inputs": [],
            "name": "canPullMultiPartial",
            "outputs": [
                {
                    "internalType": "bool",
                    "name": "",
                    "type": "bool"
                }
            ],
            "stateMutability": "pure",
            "type": "function"
        },
        {
            "inputs": [],
            "name": "canPullPartial",
            "outputs": [
                {
                    "internalType": "bool",
                    "name": "",
                    "type": "bool"
                }
            ],
            "stateMutability": "pure",
            "type": "function"
        },
        {
            "inputs": [],
            "name": "canPush",
            "outputs": [
                {
                    "internalType": "bool",
                    "name": "",
                    "type": "bool"
                }
            ],
            "stateMutability": "pure",
            "type": "function"
        },
        {
            "inputs": [],
            "name": "canPushERC1155",
            "outputs": [
                {
                    "internalType": "bool",
                    "name": "",
                    "type": "bool"
                }
            ],
            "stateMutability": "view",
            "type": "function"
        },
        {
            "inputs": [],
            "name": "canPushERC721",
            "outputs": [
                {
                    "internalType": "bool",
                    "name": "",
                    "type": "bool"
                }
            ],
            "stateMutability": "view",
            "type": "function"
        },
        {
            "inputs": [],
            "name": "canPushMulti",
            "outputs": [
                {
                    "internalType": "bool",
                    "name": "",
                    "type": "bool"
                }
            ],
            "stateMutability": "pure",
            "type": "function"
        },
        {
            "inputs": [],
            "name": "canPushMultiERC721",
            "outputs": [
                {
                    "internalType": "bool",
                    "name": "",
                    "type": "bool"
                }
            ],
            "stateMutability": "view",
            "type": "function"
        },
        {
            "inputs": [
                {
                    "internalType": "address",
                    "name": "stablecoin",
                    "type": "address"
                },
                {
                    "internalType": "uint256",
                    "name": "amount",
                    "type": "uint256"
                }
            ],
            "name": "convertTranche",
            "outputs": [],
            "stateMutability": "nonpayable",
            "type": "function"
        },
        {
            "inputs": [],
            "name": "locked",
            "outputs": [
                {
                    "internalType": "bool",
                    "name": "",
                    "type": "bool"
                }
            ],
            "stateMutability": "view",
            "type": "function"
        },
        {
            "inputs": [
                {
                    "internalType": "address",
                    "name": "",
                    "type": "address"
                },
                {
                    "internalType": "address",
                    "name": "",
                    "type": "address"
                },
                {
                    "internalType": "uint256[]",
                    "name": "",
                    "type": "uint256[]"
                },
                {
                    "internalType": "uint256[]",
                    "name": "",
                    "type": "uint256[]"
                },
                {
                    "internalType": "bytes",
                    "name": "",
                    "type": "bytes"
                }
            ],
            "name": "onERC1155BatchReceived",
            "outputs": [
                {
                    "internalType": "bytes4",
                    "name": "",
                    "type": "bytes4"
                }
            ],
            "stateMutability": "nonpayable",
            "type": "function"
        },
        {
            "inputs": [
                {
                    "internalType": "address",
                    "name": "",
                    "type": "address"
                },
                {
                    "internalType": "address",
                    "name": "",
                    "type": "address"
                },
                {
                    "internalType": "uint256",
                    "name": "",
                    "type": "uint256"
                },
                {
                    "internalType": "uint256",
                    "name": "",
                    "type": "uint256"
                },
                {
                    "internalType": "bytes",
                    "name": "",
                    "type": "bytes"
                }
            ],
            "name": "onERC1155Received",
            "outputs": [
                {
                    "internalType": "bytes4",
                    "name": "",
                    "type": "bytes4"
                }
            ],
            "stateMutability": "nonpayable",
            "type": "function"
        },
        {
            "inputs": [
                {
                    "internalType": "address",
                    "name": "",
                    "type": "address"
                },
                {
                    "internalType": "address",
                    "name": "",
                    "type": "address"
                },
                {
                    "internalType": "uint256",
                    "name": "",
                    "type": "uint256"
                },
                {
                    "internalType": "bytes",
                    "name": "",
                    "type": "bytes"
                }
            ],
            "name": "onERC721Received",
            "outputs": [
                {
                    "internalType": "bytes4",
                    "name": "",
                    "type": "bytes4"
                }
            ],
            "stateMutability": "nonpayable",
            "type": "function"
        },
        {
            "inputs": [],
            "name": "owner",
            "outputs": [
                {
                    "internalType": "address",
                    "name": "",
                    "type": "address"
                }
            ],
            "stateMutability": "view",
            "type": "function"
        },
        {
            "inputs": [
                {
                    "internalType": "address",
                    "name": "asset",
                    "type": "address"
                },
                {
                    "internalType": "bytes",
                    "name": "data",
                    "type": "bytes"
                }
            ],
            "name": "pullFromLocker",
            "outputs": [],
            "stateMutability": "nonpayable",
            "type": "function"
        },
        {
            "inputs": [
                {
                    "internalType": "address",
                    "name": "asset",
                    "type": "address"
                },
                {
                    "internalType": "uint256[]",
                    "name": "ids",
                    "type": "uint256[]"
                },
                {
                    "internalType": "uint256[]",
                    "name": "amounts",
                    "type": "uint256[]"
                },
                {
                    "internalType": "bytes",
                    "name": "data",
                    "type": "bytes"
                }
            ],
            "name": "pullFromLockerERC1155",
            "outputs": [],
            "stateMutability": "nonpayable",
            "type": "function"
        },
        {
            "inputs": [
                {
                    "internalType": "address",
                    "name": "asset",
                    "type": "address"
                },
                {
                    "internalType": "uint256",
                    "name": "tokenId",
                    "type": "uint256"
                },
                {
                    "internalType": "bytes",
                    "name": "data",
                    "type": "bytes"
                }
            ],
            "name": "pullFromLockerERC721",
            "outputs": [],
            "stateMutability": "nonpayable",
            "type": "function"
        },
        {
            "inputs": [
                {
                    "internalType": "address[]",
                    "name": "assets",
                    "type": "address[]"
                },
                {
                    "internalType": "bytes[]",
                    "name": "data",
                    "type": "bytes[]"
                }
            ],
            "name": "pullFromLockerMulti",
            "outputs": [],
            "stateMutability": "nonpayable",
            "type": "function"
        },
        {
            "inputs": [
                {
                    "internalType": "address[]",
                    "name": "assets",
                    "type": "address[]"
                },
                {
                    "internalType": "uint256[]",
                    "name": "tokenIds",
                    "type": "uint256[]"
                },
                {
                    "internalType": "bytes[]",
                    "name": "data",
                    "type": "bytes[]"
                }
            ],
            "name": "pullFromLockerMultiERC721",
            "outputs": [],
            "stateMutability": "nonpayable",
            "type": "function"
        },
        {
            "inputs": [
                {
                    "internalType": "address[]",
                    "name": "assets",
                    "type": "address[]"
                },
                {
                    "internalType": "uint256[]",
                    "name": "amounts",
                    "type": "uint256[]"
                },
                {
                    "internalType": "bytes[]",
                    "name": "data",
                    "type": "bytes[]"
                }
            ],
            "name": "pullFromLockerMultiPartial",
            "outputs": [],
            "stateMutability": "nonpayable",
            "type": "function"
        },
        {
            "inputs": [
                {
                    "internalType": "address",
                    "name": "asset",
                    "type": "address"
                },
                {
                    "internalType": "uint256",
                    "name": "amount",
                    "type": "uint256"
                },
                {
                    "internalType": "bytes",
                    "name": "data",
                    "type": "bytes"
                }
            ],
            "name": "pullFromLockerPartial",
            "outputs": [],
            "stateMutability": "nonpayable",
            "type": "function"
        },
        {
            "inputs": [
                {
                    "internalType": "address",
                    "name": "asset",
                    "type": "address"
                },
                {
                    "internalType": "uint256",
                    "name": "amount",
                    "type": "uint256"
                },
                {
                    "internalType": "bytes",
                    "name": "data",
                    "type": "bytes"
                }
            ],
            "name": "pushToLocker",
            "outputs": [],
            "stateMutability": "nonpayable",
            "type": "function"
        },
        {
            "inputs": [
                {
                    "internalType": "address",
                    "name": "asset",
                    "type": "address"
                },
                {
                    "internalType": "uint256[]",
                    "name": "ids",
                    "type": "uint256[]"
                },
                {
                    "internalType": "uint256[]",
                    "name": "amounts",
                    "type": "uint256[]"
                },
                {
                    "internalType": "bytes",
                    "name": "data",
                    "type": "bytes"
                }
            ],
            "name": "pushToLockerERC1155",
            "outputs": [],
            "stateMutability": "nonpayable",
            "type": "function"
        },
        {
            "inputs": [
                {
                    "internalType": "address",
                    "name": "asset",
                    "type": "address"
                },
                {
                    "internalType": "uint256",
                    "name": "tokenId",
                    "type": "uint256"
                },
                {
                    "internalType": "bytes",
                    "name": "data",
                    "type": "bytes"
                }
            ],
            "name": "pushToLockerERC721",
            "outputs": [],
            "stateMutability": "nonpayable",
            "type": "function"
        },
        {
            "inputs": [
                {
                    "internalType": "address[]",
                    "name": "assets",
                    "type": "address[]"
                },
                {
                    "internalType": "uint256[]",
                    "name": "amounts",
                    "type": "uint256[]"
                },
                {
                    "internalType": "bytes[]",
                    "name": "data",
                    "type": "bytes[]"
                }
            ],
            "name": "pushToLockerMulti",
            "outputs": [],
            "stateMutability": "nonpayable",
            "type": "function"
        },
        {
            "inputs": [
                {
                    "internalType": "address[]",
                    "name": "assets",
                    "type": "address[]"
                },
                {
                    "internalType": "uint256[]",
                    "name": "tokenIds",
                    "type": "uint256[]"
                },
                {
                    "internalType": "bytes[]",
                    "name": "data",
                    "type": "bytes[]"
                }
            ],
            "name": "pushToLockerMultiERC721",
            "outputs": [],
            "stateMutability": "nonpayable",
            "type": "function"
        },
        {
            "inputs": [],
            "name": "renounceOwnership",
            "outputs": [],
            "stateMutability": "nonpayable",
            "type": "function"
        },
        {
            "inputs": [
                {
                    "internalType": "bytes4",
                    "name": "interfaceId",
                    "type": "bytes4"
                }
            ],
            "name": "supportsInterface",
            "outputs": [
                {
                    "internalType": "bool",
                    "name": "",
                    "type": "bool"
                }
            ],
            "stateMutability": "view",
            "type": "function"
        },
        {
            "inputs": [
                {
                    "internalType": "address",
                    "name": "newOwner",
                    "type": "address"
                }
            ],
            "name": "transferOwnership",
            "outputs": [],
            "stateMutability": "nonpayable",
            "type": "function"
        },
        {
            "inputs": [
                {
                    "internalType": "address",
                    "name": "newOwner",
                    "type": "address"
                }
            ],
            "name": "transferOwnershipAndLock",
            "outputs": [],
            "stateMutability": "nonpayable",
            "type": "function"
        },
        {
            "inputs": [
                {
                    "internalType": "address",
                    "name": "stablecoin",
                    "type": "address"
                },
                {
                    "internalType": "uint256",
                    "name": "amount",
                    "type": "uint256"
                }
            ],
            "name": "withdrawTranche",
            "outputs": [],
            "stateMutability": "nonpayable",
            "type": "function"
        }
    ],
    "bytecode": "60a0346101b457601f6114f638819003918201601f19168301916001600160401b038311848410176101b85780849260409485528339810103126101b457610052602061004b836101cc565b92016101cc565b9061005c336101e0565b600180555f5490336001600160a01b038316036101705760ff8260a01c1661012c576001600160a01b038116156100c25760ff60a01b19909116600160a01b175f556100a7906101e0565b6080526040516112cf908161022782396080518161088d0152f35b608460405162461bcd60e51b815260206004820152604060248201527f4f776e61626c654c6f636b65643a3a7472616e736665724f776e65727368697060448201527f416e644c6f636b2829206e65774f776e6572203d3d20616464726573732830296064820152fd5b606460405162461bcd60e51b815260206004820152602060248201527f4f776e61626c654c6f636b65643a3a756e6c6f636b65642829206c6f636b65646044820152fd5b606460405162461bcd60e51b815260206004820152602060248201527f4f776e61626c653a2063616c6c6572206973206e6f7420746865206f776e65726044820152fd5b5f80fd5b634e487b7160e01b5f52604160045260245ffd5b51906001600160a01b03821682036101b457565b5f80546001600160a01b039283166001600160a01b03198216811783559216907f8be0079c531659141344cd1fd0a4f28419497f9722a3daafe3b4186f6b6457e09080a356fe6080806040526004361015610012575f80fd5b5f3560e01c90816301ffc9a714610b9e575080631205217614610b22578063150b7a0214610acd57806315e9874414610a465780631852b3831461033c57806319165874146109365780631d9389e9146108bc578063215cccdd146103375780632f08d48b146103375780633c1172441461033c5780633ce8d432146108785780633eda81ad14610337578063422b2018146107f757806342315632146107c557806358289c7e146106fe57806364c77735146103375780636a7ab9af14610698578063715018a6146106305780638b648ee21461033c5780638da5cb5b146106095780639cf423c814610371578063a4a3e79d14610337578063b0607cf81461033c578063b892bcc014610582578063bc197c81146104ed578063cd45e1fb14610426578063cf10b7ab1461033c578063cf30901214610402578063d284af9414610399578063d842fa7b14610371578063d8f2a78b14610341578063dd913bdb1461033c578063e7f4462914610337578063f23a6e61146102e2578063f2fde38b1461022b5763fd76f59d146101a8575f80fd5b34610227576101b636610df9565b505050505050506101c5610f66565b60405162461bcd60e51b815260206004820152603460248201527f5a69766f654c6f636b65723a3a70757368546f4c6f636b6572455243313135356044820152732829202163616e5075736845524331313535282960601b6064820152608490fd5b5f80fd5b3461022757602036600319011261022757610244610bf1565b61024c610f66565b61025d60ff5f5460a01c1615610f1b565b6001600160a01b038116156102775761027590611043565b005b60405162461bcd60e51b815260206004820152603960248201527f4f776e61626c654c6f636b65643a3a7472616e736665724f776e65727368697060448201527f2829206e65774f776e6572203d3d2061646472657373283029000000000000006064820152608490fd5b346102275760a0366003190112610227576102fb610bf1565b50610304610c07565b506084356001600160401b03811161022757610324903690600401610ce0565b5060405163f23a6e6160e01b8152602090f35b610dde565b610dc4565b346102275761027561035236610c4a565b50509061035d610f66565b5f546001600160a01b039081169116610fbd565b346102275760403660031901126102275761038a610bf1565b50610393611089565b60018055005b34610227576103a736610d56565b50506103b4929192610f66565b5f5b8281106103bf57005b6001906103fc6001600160a01b036103e06103db84888b610ee3565b610f07565b16838060a01b035f54166103f584878a610ee3565b3591610fbd565b016103b6565b34610227575f36600319011261022757602060ff5f5460a01c166040519015158152f35b346102275760403660031901126102275761043f610bf1565b6024356001600160401b0381116102275761045e903690600401610c1d565b5050610468610f66565b5f546040516370a0823160e01b8152306004820152916001600160a01b039081169116602083602481855afa9182156104e2575f926104ac575b6102759350610fbd565b91506020833d6020116104da575b816104c760209383610c90565b81010312610227576102759251916104a2565b3d91506104ba565b6040513d5f823e3d90fd5b346102275760a036600319011261022757610506610bf1565b5061050f610c07565b506044356001600160401b0381116102275761052f903690600401610e7c565b506064356001600160401b0381116102275761054f903690600401610e7c565b506084356001600160401b0381116102275761056f903690600401610ce0565b5060405163bc197c8160e01b8152602090f35b346102275761059036610d56565b50505050505061059e610f66565b60405162461bcd60e51b815260206004820152603c60248201527f5a69766f654c6f636b65723a3a70757368546f4c6f636b65724d756c7469455260448201527f433732312829202163616e507573684d756c74694552433732312829000000006064820152608490fd5b34610227575f366003190112610227575f546040516001600160a01b039091168152602090f35b34610227575f36600319011261022757610648610f66565b61065960ff5f5460a01c1615610f1b565b5f80546001600160a01b0319811682556001600160a01b03167f8be0079c531659141344cd1fd0a4f28419497f9722a3daafe3b4186f6b6457e08280a3005b34610227576106a636610d56565b505091906106b2610f66565b5f5b8281106106bd57005b6001906106f86001600160a01b036106d96103db84888b610ee3565b16838060a01b035f5416906106ef848988610ee3565b35913091610fff565b016106b4565b3461022757602036600319011261022757610717610bf1565b61071f610f66565b5f549061073260ff8360a01c1615610f1b565b6001600160a01b0381161561075b5760ff60a01b19909116600160a01b175f5561027590611043565b608460405162461bcd60e51b815260206004820152604060248201527f4f776e61626c654c6f636b65643a3a7472616e736665724f776e65727368697060448201527f416e644c6f636b2829206e65774f776e6572203d3d20616464726573732830296064820152fd5b34610227576102756107d636610c4a565b5050906107e1610f66565b5f5430916001600160a01b039182169116610fff565b346102275761080536610df9565b50505050505050610814610f66565b60405162461bcd60e51b815260206004820152603660248201527f5a69766f654c6f636b65723a3a70756c6c46726f6d4c6f636b6572455243313160448201527535352829202163616e50756c6c45524331313535282960501b6064820152608490fd5b34610227575f366003190112610227576040517f00000000000000000000000000000000000000000000000000000000000000006001600160a01b03168152602090f35b34610227576108ca36610c4a565b505050506108d6610f66565b60405162461bcd60e51b815260206004820152603260248201527f5a69766f654c6f636b65723a3a70757368546f4c6f636b65724552433732312860448201527129202163616e50757368455243373231282960701b6064820152608490fd5b34610227576040366003190112610227576004356001600160401b03811161022757610966903690600401610d26565b906024356001600160401b03811161022757610986903690600401610d26565b5050610990610f66565b5f5b82811061099b57005b6001600160a01b036109b16103db838686610ee3565b5f546001600160a01b03908116939260249216906020906109d66103db868a8a610ee3565b16604051938480926370a0823160e01b82523060048301525afa9182156104e2575f92610a12575b5090600193610a0c92610fbd565b01610992565b91506020823d8211610a3e575b81610a2c60209383610c90565b810103126102275790519060016109fe565b3d9150610a1f565b3461022757610a5436610d56565b505050505050610a62610f66565b60405162461bcd60e51b815260206004820152603e60248201527f5a69766f654c6f636b65723a3a70756c6c46726f6d4c6f636b65724d756c746960448201527f4552433732312829202163616e50756c6c4d756c7469455243373231282900006064820152608490fd5b3461022757608036600319011261022757610ae6610bf1565b50610aef610c07565b506064356001600160401b03811161022757610b0f903690600401610ce0565b50604051630a85bd0160e11b8152602090f35b3461022757610b3036610c4a565b50505050610b3c610f66565b60405162461bcd60e51b815260206004820152603460248201527f5a69766f654c6f636b65723a3a70756c6c46726f6d4c6f636b65724552433732604482015273312829202163616e50756c6c455243373231282960601b6064820152608490fd5b34610227576020366003190112610227576004359063ffffffff60e01b821680920361022757602091630271189760e51b8114908115610be0575b5015158152f35b6301ffc9a760e01b14905083610bd9565b600435906001600160a01b038216820361022757565b602435906001600160a01b038216820361022757565b9181601f84011215610227578235916001600160401b038311610227576020838186019501011161022757565b6060600319820112610227576004356001600160a01b0381168103610227579160243591604435906001600160401b03821161022757610c8c91600401610c1d565b9091565b90601f801991011681019081106001600160401b03821117610cb157604052565b634e487b7160e01b5f52604160045260245ffd5b6001600160401b038111610cb157601f01601f191660200190565b81601f8201121561022757803590610cf782610cc5565b92610d056040519485610c90565b8284526020838301011161022757815f926020809301838601378301015290565b9181601f84011215610227578235916001600160401b038311610227576020808501948460051b01011161022757565b6060600319820112610227576004356001600160401b0381116102275781610d8091600401610d26565b929092916024356001600160401b0381116102275781610da291600401610d26565b92909291604435906001600160401b03821161022757610c8c91600401610d26565b34610227575f3660031901126102275760206040515f8152f35b34610227575f36600319011261022757602060405160018152f35b906080600319830112610227576004356001600160a01b038116810361022757916024356001600160401b0381116102275781610e3891600401610d26565b929092916044356001600160401b0381116102275781610e5a91600401610d26565b92909291606435906001600160401b03821161022757610c8c91600401610c1d565b9080601f83011215610227578135916001600160401b038311610cb1578260051b9060405193610eaf6020840186610c90565b845260208085019282010192831161022757602001905b828210610ed35750505090565b8135815260209182019101610ec6565b9190811015610ef35760051b0190565b634e487b7160e01b5f52603260045260245ffd5b356001600160a01b03811681036102275790565b15610f2257565b606460405162461bcd60e51b815260206004820152602060248201527f4f776e61626c654c6f636b65643a3a756e6c6f636b65642829206c6f636b65646044820152fd5b5f546001600160a01b03163303610f7957565b606460405162461bcd60e51b815260206004820152602060248201527f4f776e61626c653a2063616c6c6572206973206e6f7420746865206f776e65726044820152fd5b60405163a9059cbb60e01b60208201526001600160a01b039092166024830152604480830193909352918152610ffd91610ff8606483610c90565b6110df565b565b6040516323b872dd60e01b60208201526001600160a01b039283166024820152929091166044830152606480830193909352918152610ffd91610ff8608483610c90565b5f80546001600160a01b039283166001600160a01b03198216811783559216907f8be0079c531659141344cd1fd0a4f28419497f9722a3daafe3b4186f6b6457e09080a3565b60026001541461109a576002600155565b60405162461bcd60e51b815260206004820152601f60248201527f5265656e7472616e637947756172643a207265656e7472616e742063616c6c006044820152606490fd5b9061115e9160018060a01b03165f80604051936110fd604086610c90565b602085527f5361666545524332303a206c6f772d6c6576656c2063616c6c206661696c6564602086015260208151910182855af13d156111e1573d9161114283610cc5565b926111506040519485610c90565b83523d5f602085013e6111e5565b805180611169575050565b816020918101031261022757602001518015908115036102275761118957565b60405162461bcd60e51b815260206004820152602a60248201527f5361666545524332303a204552433230206f7065726174696f6e20646964206e6044820152691bdd081cdd58d8d9595960b21b6064820152608490fd5b6060915b9192901561124757508151156111f9575090565b3b156112025790565b60405162461bcd60e51b815260206004820152601d60248201527f416464726573733a2063616c6c20746f206e6f6e2d636f6e74726163740000006044820152606490fd5b82519091501561125a5750805190602001fd5b604460209160405192839162461bcd60e51b83528160048401528051918291826024860152018484015e5f828201840152601f01601f19168101030190fdfea2646970667358221220feb928da82e867c37dd214800766a3ac9450816c3bbae6c622a2d95481622c7864736f6c634300081c0033",
    "sourcePath": "/Users/johnnyq/Code/zivoe/zivoe-core-testing/lib/zivoe-core-foundry/src/lockers/OCT/OCT_Convert.sol",
    "compiler": {
        "name": "solc",
        "version": "0.8.28+commit.7893614a"
    },
    "functionHashes": {
        "GBL()": "3ce8d432",
        "canPull()": "215cccdd",
        "canPullERC1155()": "b0607cf8",
        "canPullERC721()": "3c117244",
        "canPullMulti()": "3eda81ad",
        "canPullMultiERC721()": "1852b383",
        "canPullMultiPartial()": "2f08d48b",
        "canPullPartial()": "64c77735",
        "canPush()": "e7f44629",
        "canPushERC1155()": "cf10b7ab",
        "canPushERC721()": "8b648ee2",
        "canPushMulti()": "a4a3e79d",
        "canPushMultiERC721()": "dd913bdb",
        "convertTranche(address,uint256)": "9cf423c8",
        "locked()": "cf309012",
        "onERC1155BatchReceived(address,address,uint256[],uint256[],bytes)": "bc197c81",
        "onERC1155Received(address,address,uint256,uint256,bytes)": "f23a6e61",
        "onERC721Received(address,address,uint256,bytes)": "150b7a02",
        "owner()": "8da5cb5b",
        "pullFromLocker(address,bytes)": "cd45e1fb",
        "pullFromLockerERC1155(address,uint256[],uint256[],bytes)": "422b2018",
        "pullFromLockerERC721(address,uint256,bytes)": "12052176",
        "pullFromLockerMulti(address[],bytes[])": "19165874",
        "pullFromLockerMultiERC721(address[],uint256[],bytes[])": "15e98744",
        "pullFromLockerMultiPartial(address[],uint256[],bytes[])": "d284af94",
        "pullFromLockerPartial(address,uint256,bytes)": "d8f2a78b",
        "pushToLocker(address,uint256,bytes)": "42315632",
        "pushToLockerERC1155(address,uint256[],uint256[],bytes)": "fd76f59d",
        "pushToLockerERC721(address,uint256,bytes)": "1d9389e9",
        "pushToLockerMulti(address[],uint256[],bytes[])": "6a7ab9af",
        "pushToLockerMultiERC721(address[],uint256[],bytes[])": "b892bcc0",
        "renounceOwnership()": "715018a6",
        "supportsInterface(bytes4)": "01ffc9a7",
        "transferOwnership(address)": "f2fde38b",
        "transferOwnershipAndLock(address)": "58289c7e",
        "withdrawTranche(address,uint256)": "d842fa7b"
    },
    "gasEstimates": {
        "creation": {
            "codeDepositCost": "963000",
            "executionCost": "infinite",
            "totalCost": "infinite"
        },
        "external": {
            "GBL()": "infinite",
            "canPull()": "319",
            "canPullERC1155()": "648",
            "canPullERC721()": "362",
            "canPullMulti()": "407",
            "canPullMultiERC721()": "252",
            "canPullMultiPartial()": "341",
            "canPullPartial()": "495",
            "canPush()": "869",
            "canPushERC1155()": "736",
            "canPushERC721()": "560",
            "canPushMulti()": "627",
            "canPushMultiERC721()": "846",
            "convertTranche(address,uint256)": "29903",
            "locked()": "2867",
            "onERC1155BatchReceived(address,address,uint256[],uint256[],bytes)": "infinite",
            "onERC1155Received(address,address,uint256,uint256,bytes)": "infinite",
            "onERC721Received(address,address,uint256,bytes)": "infinite",
            "owner()": "2697",
            "pullFromLocker(address,bytes)": "infinite",
            "pullFromLockerERC1155(address,uint256[],uint256[],bytes)": "infinite",
            "pullFromLockerERC721(address,uint256,bytes)": "2717",
            "pullFromLockerMulti(address[],bytes[])": "infinite",
            "pullFromLockerMultiERC721(address[],uint256[],bytes[])": "infinite",
            "pullFromLockerMultiPartial(address[],uint256[],bytes[])": "infinite",
            "pullFromLockerPartial(address,uint256,bytes)": "infinite",
            "pushToLocker(address,uint256,bytes)": "infinite",
            "pushToLockerERC1155(address,uint256[],uint256[],bytes)": "infinite",
            "pushToLockerERC721(address,uint256,bytes)": "2827",
            "pushToLockerMulti(address[],uint256[],bytes[])": "infinite",
            "pushToLockerMultiERC721(address[],uint256[],bytes[])": "infinite",
            "renounceOwnership()": "30581",
            "supportsInterface(bytes4)": "270",
            "transferOwnership(address)": "31114",
            "transferOwnershipAndLock(address)": "52815",
            "withdrawTranche(address,uint256)": "30101"
        }
    }
}