{
  "abi": [
    {
      "inputs": [
        {
          "internalType": "address",
          "name": "DAO",
          "type": "address"
        },
        {
          "internalType": "address",
          "name": "_GBL",
          "type": "address"
        }
      ],
      "stateMutability": "nonpayable",
      "type": "constructor"
    },
    {
      "anonymous": false,
      "inputs": [
        {
          "indexed": true,
          "internalType": "address",
          "name": "previousOwner",
          "type": "address"
        },
        {
          "indexed": true,
          "internalType": "address",
          "name": "newOwner",
          "type": "address"
        }
      ],
      "name": "OwnershipTransferred",
      "type": "event"
    },
    {
      "anonymous": false,
      "inputs": [
        {
          "indexed": true,
          "internalType": "address",
          "name": "previousOwner",
          "type": "address"
        },
        {
          "indexed": true,
          "internalType": "address",
          "name": "newOwner",
          "type": "address"
        }
      ],
      "name": "OwnershipTransferredAndLocked",
      "type": "event"
    },
    {
      "inputs": [],
      "name": "CRV_Deployer",
      "outputs": [
        {
          "internalType": "address",
          "name": "",
          "type": "address"
        }
      ],
      "stateMutability": "view",
      "type": "function"
    },
    {
      "inputs": [],
      "name": "DAI",
      "outputs": [
        {
          "internalType": "address",
          "name": "",
          "type": "address"
        }
      ],
      "stateMutability": "view",
      "type": "function"
    },
    {
      "inputs": [],
      "name": "FRAX",
      "outputs": [
        {
          "internalType": "address",
          "name": "",
          "type": "address"
        }
      ],
      "stateMutability": "view",
      "type": "function"
    },
    {
      "inputs": [],
      "name": "FRAXConvertible",
      "outputs": [
        {
          "internalType": "uint256",
          "name": "amount",
          "type": "uint256"
        },
        {
          "internalType": "uint256",
          "name": "lp",
          "type": "uint256"
        }
      ],
      "stateMutability": "view",
      "type": "function"
    },
    {
      "inputs": [],
      "name": "FRAX_3CRV_MP",
      "outputs": [
        {
          "internalType": "address",
          "name": "",
          "type": "address"
        }
      ],
      "stateMutability": "view",
      "type": "function"
    },
    {
      "inputs": [],
      "name": "GBL",
      "outputs": [
        {
          "internalType": "address",
          "name": "",
          "type": "address"
        }
      ],
      "stateMutability": "view",
      "type": "function"
    },
    {
      "inputs": [],
      "name": "USDC",
      "outputs": [
        {
          "internalType": "address",
          "name": "",
          "type": "address"
        }
      ],
      "stateMutability": "view",
      "type": "function"
    },
    {
      "inputs": [],
      "name": "USDT",
      "outputs": [
        {
          "internalType": "address",
          "name": "",
          "type": "address"
        }
      ],
      "stateMutability": "view",
      "type": "function"
    },
    {
      "inputs": [],
      "name": "ZVE_MP",
      "outputs": [
        {
          "internalType": "address",
          "name": "",
          "type": "address"
        }
      ],
      "stateMutability": "view",
      "type": "function"
    },
    {
      "inputs": [],
      "name": "_3CRV_BP",
      "outputs": [
        {
          "internalType": "address",
          "name": "",
          "type": "address"
        }
      ],
      "stateMutability": "view",
      "type": "function"
    },
    {
      "inputs": [],
      "name": "_3CRV_TOKEN",
      "outputs": [
        {
          "internalType": "address",
          "name": "",
          "type": "address"
        }
      ],
      "stateMutability": "view",
      "type": "function"
    },
    {
      "inputs": [],
      "name": "baseline",
      "outputs": [
        {
          "internalType": "uint256",
          "name": "",
          "type": "uint256"
        }
      ],
      "stateMutability": "view",
      "type": "function"
    },
    {
      "inputs": [],
      "name": "canPull",
      "outputs": [
        {
          "internalType": "bool",
          "name": "",
          "type": "bool"
        }
      ],
      "stateMutability": "view",
      "type": "function"
    },
    {
      "inputs": [],
      "name": "canPullERC1155",
      "outputs": [
        {
          "internalType": "bool",
          "name": "",
          "type": "bool"
        }
      ],
      "stateMutability": "view",
      "type": "function"
    },
    {
      "inputs": [],
      "name": "canPullERC721",
      "outputs": [
        {
          "internalType": "bool",
          "name": "",
          "type": "bool"
        }
      ],
      "stateMutability": "view",
      "type": "function"
    },
    {
      "inputs": [],
      "name": "canPullMulti",
      "outputs": [
        {
          "internalType": "bool",
          "name": "",
          "type": "bool"
        }
      ],
      "stateMutability": "pure",
      "type": "function"
    },
    {
      "inputs": [],
      "name": "canPullMultiERC721",
      "outputs": [
        {
          "internalType": "bool",
          "name": "",
          "type": "bool"
        }
      ],
      "stateMutability": "view",
      "type": "function"
    },
    {
      "inputs": [],
      "name": "canPullMultiPartial",
      "outputs": [
        {
          "internalType": "bool",
          "name": "",
          "type": "bool"
        }
      ],
      "stateMutability": "view",
      "type": "function"
    },
    {
      "inputs": [],
      "name": "canPullPartial",
      "outputs": [
        {
          "internalType": "bool",
          "name": "",
          "type": "bool"
        }
      ],
      "stateMutability": "pure",
      "type": "function"
    },
    {
      "inputs": [],
      "name": "canPush",
      "outputs": [
        {
          "internalType": "bool",
          "name": "",
          "type": "bool"
        }
      ],
      "stateMutability": "view",
      "type": "function"
    },
    {
      "inputs": [],
      "name": "canPushERC1155",
      "outputs": [
        {
          "internalType": "bool",
          "name": "",
          "type": "bool"
        }
      ],
      "stateMutability": "view",
      "type": "function"
    },
    {
      "inputs": [],
      "name": "canPushERC721",
      "outputs": [
        {
          "internalType": "bool",
          "name": "",
          "type": "bool"
        }
      ],
      "stateMutability": "view",
      "type": "function"
    },
    {
      "inputs": [],
      "name": "canPushMulti",
      "outputs": [
        {
          "internalType": "bool",
          "name": "",
          "type": "bool"
        }
      ],
      "stateMutability": "pure",
      "type": "function"
    },
    {
      "inputs": [],
      "name": "canPushMultiERC721",
      "outputs": [
        {
          "internalType": "bool",
          "name": "",
          "type": "bool"
        }
      ],
      "stateMutability": "view",
      "type": "function"
    },
    {
      "inputs": [],
      "name": "forwardYield",
      "outputs": [],
      "stateMutability": "nonpayable",
      "type": "function"
    },
    {
      "inputs": [],
      "name": "locked",
      "outputs": [
        {
          "internalType": "bool",
          "name": "",
          "type": "bool"
        }
      ],
      "stateMutability": "view",
      "type": "function"
    },
    {
      "inputs": [],
      "name": "nextYieldDistribution",
      "outputs": [
        {
          "internalType": "uint256",
          "name": "",
          "type": "uint256"
        }
      ],
      "stateMutability": "view",
      "type": "function"
    },
    {
      "inputs": [
        {
          "internalType": "address",
          "name": "",
          "type": "address"
        },
        {
          "internalType": "address",
          "name": "",
          "type": "address"
        },
        {
          "internalType": "uint256[]",
          "name": "",
          "type": "uint256[]"
        },
        {
          "internalType": "uint256[]",
          "name": "",
          "type": "uint256[]"
        },
        {
          "internalType": "bytes",
          "name": "",
          "type": "bytes"
        }
      ],
      "name": "onERC1155BatchReceived",
      "outputs": [
        {
          "internalType": "bytes4",
          "name": "",
          "type": "bytes4"
        }
      ],
      "stateMutability": "nonpayable",
      "type": "function"
    },
    {
      "inputs": [
        {
          "internalType": "address",
          "name": "",
          "type": "address"
        },
        {
          "internalType": "address",
          "name": "",
          "type": "address"
        },
        {
          "internalType": "uint256",
          "name": "",
          "type": "uint256"
        },
        {
          "internalType": "uint256",
          "name": "",
          "type": "uint256"
        },
        {
          "internalType": "bytes",
          "name": "",
          "type": "bytes"
        }
      ],
      "name": "onERC1155Received",
      "outputs": [
        {
          "internalType": "bytes4",
          "name": "",
          "type": "bytes4"
        }
      ],
      "stateMutability": "nonpayable",
      "type": "function"
    },
    {
      "inputs": [
        {
          "internalType": "address",
          "name": "",
          "type": "address"
        },
        {
          "internalType": "address",
          "name": "",
          "type": "address"
        },
        {
          "internalType": "uint256",
          "name": "",
          "type": "uint256"
        },
        {
          "internalType": "bytes",
          "name": "",
          "type": "bytes"
        }
      ],
      "name": "onERC721Received",
      "outputs": [
        {
          "internalType": "bytes4",
          "name": "",
          "type": "bytes4"
        }
      ],
      "stateMutability": "nonpayable",
      "type": "function"
    },
    {
      "inputs": [],
      "name": "owner",
      "outputs": [
        {
          "internalType": "address",
          "name": "",
          "type": "address"
        }
      ],
      "stateMutability": "view",
      "type": "function"
    },
    {
      "inputs": [
        {
          "internalType": "address",
          "name": "asset",
          "type": "address"
        }
      ],
      "name": "pullFromLocker",
      "outputs": [],
      "stateMutability": "nonpayable",
      "type": "function"
    },
    {
      "inputs": [
        {
          "internalType": "address",
          "name": "asset",
          "type": "address"
        },
        {
          "internalType": "uint256[]",
          "name": "ids",
          "type": "uint256[]"
        },
        {
          "internalType": "uint256[]",
          "name": "amounts",
          "type": "uint256[]"
        },
        {
          "internalType": "bytes",
          "name": "data",
          "type": "bytes"
        }
      ],
      "name": "pullFromLockerERC1155",
      "outputs": [],
      "stateMutability": "nonpayable",
      "type": "function"
    },
    {
      "inputs": [
        {
          "internalType": "address",
          "name": "asset",
          "type": "address"
        },
        {
          "internalType": "uint256",
          "name": "tokenId",
          "type": "uint256"
        },
        {
          "internalType": "bytes",
          "name": "data",
          "type": "bytes"
        }
      ],
      "name": "pullFromLockerERC721",
      "outputs": [],
      "stateMutability": "nonpayable",
      "type": "function"
    },
    {
      "inputs": [
        {
          "internalType": "address[]",
          "name": "assets",
          "type": "address[]"
        }
      ],
      "name": "pullFromLockerMulti",
      "outputs": [],
      "stateMutability": "nonpayable",
      "type": "function"
    },
    {
      "inputs": [
        {
          "internalType": "address[]",
          "name": "assets",
          "type": "address[]"
        },
        {
          "internalType": "uint256[]",
          "name": "tokenIds",
          "type": "uint256[]"
        },
        {
          "internalType": "bytes[]",
          "name": "data",
          "type": "bytes[]"
        }
      ],
      "name": "pullFromLockerMultiERC721",
      "outputs": [],
      "stateMutability": "nonpayable",
      "type": "function"
    },
    {
      "inputs": [
        {
          "internalType": "address[]",
          "name": "assets",
          "type": "address[]"
        },
        {
          "internalType": "uint256[]",
          "name": "amounts",
          "type": "uint256[]"
        }
      ],
      "name": "pullFromLockerMultiPartial",
      "outputs": [],
      "stateMutability": "nonpayable",
      "type": "function"
    },
    {
      "inputs": [
        {
          "internalType": "address",
          "name": "asset",
          "type": "address"
        },
        {
          "internalType": "uint256",
          "name": "amount",
          "type": "uint256"
        }
      ],
      "name": "pullFromLockerPartial",
      "outputs": [],
      "stateMutability": "nonpayable",
      "type": "function"
    },
    {
      "inputs": [
        {
          "internalType": "address",
          "name": "asset",
          "type": "address"
        },
        {
          "internalType": "uint256",
          "name": "amount",
          "type": "uint256"
        }
      ],
      "name": "pushToLocker",
      "outputs": [],
      "stateMutability": "nonpayable",
      "type": "function"
    },
    {
      "inputs": [
        {
          "internalType": "address",
          "name": "asset",
          "type": "address"
        },
        {
          "internalType": "uint256[]",
          "name": "ids",
          "type": "uint256[]"
        },
        {
          "internalType": "uint256[]",
          "name": "amounts",
          "type": "uint256[]"
        },
        {
          "internalType": "bytes",
          "name": "data",
          "type": "bytes"
        }
      ],
      "name": "pushToLockerERC1155",
      "outputs": [],
      "stateMutability": "nonpayable",
      "type": "function"
    },
    {
      "inputs": [
        {
          "internalType": "address",
          "name": "asset",
          "type": "address"
        },
        {
          "internalType": "uint256",
          "name": "tokenId",
          "type": "uint256"
        },
        {
          "internalType": "bytes",
          "name": "data",
          "type": "bytes"
        }
      ],
      "name": "pushToLockerERC721",
      "outputs": [],
      "stateMutability": "nonpayable",
      "type": "function"
    },
    {
      "inputs": [
        {
          "internalType": "address[]",
          "name": "assets",
          "type": "address[]"
        },
        {
          "internalType": "uint256[]",
          "name": "amounts",
          "type": "uint256[]"
        }
      ],
      "name": "pushToLockerMulti",
      "outputs": [],
      "stateMutability": "nonpayable",
      "type": "function"
    },
    {
      "inputs": [
        {
          "internalType": "address[]",
          "name": "assets",
          "type": "address[]"
        },
        {
          "internalType": "uint256[]",
          "name": "tokenIds",
          "type": "uint256[]"
        },
        {
          "internalType": "bytes[]",
          "name": "data",
          "type": "bytes[]"
        }
      ],
      "name": "pushToLockerMultiERC721",
      "outputs": [],
      "stateMutability": "nonpayable",
      "type": "function"
    },
    {
      "inputs": [],
      "name": "renounceOwnership",
      "outputs": [],
      "stateMutability": "nonpayable",
      "type": "function"
    },
    {
      "inputs": [
        {
          "internalType": "bytes4",
          "name": "interfaceId",
          "type": "bytes4"
        }
      ],
      "name": "supportsInterface",
      "outputs": [
        {
          "internalType": "bool",
          "name": "",
          "type": "bool"
        }
      ],
      "stateMutability": "view",
      "type": "function"
    },
    {
      "inputs": [
        {
          "internalType": "address",
          "name": "newOwner",
          "type": "address"
        }
      ],
      "name": "transferOwnership",
      "outputs": [],
      "stateMutability": "nonpayable",
      "type": "function"
    },
    {
      "inputs": [
        {
          "internalType": "address",
          "name": "newOwner",
          "type": "address"
        }
      ],
      "name": "transferOwnershipAndLock",
      "outputs": [],
      "stateMutability": "nonpayable",
      "type": "function"
    }
  ],
  "bytecode": {
    "object": "0x60a06040523480156200001157600080fd5b5060405162003e1e38038062003e1e8339810160408190526200003491620003ef565b6200003f33620001fa565b6200004a826200024a565b806001600160a01b03166080816001600160a01b03168152505073b9fc157394af804a3578134a6585c0dc9cc990d46001600160a01b031663e339eb4f73bebc44782c7db0a1a60cb6fe97d0b483032ff1c7836001600160a01b0316639af6c40e6040518163ffffffff1660e01b8152600401602060405180830381865afa158015620000db573d6000803e3d6000fd5b505050506040513d601f19601f8201168201806040525081019062000101919062000427565b6040516001600160e01b031960e085901b1681526001600160a01b03928316600482015260c06024820152601160c4820152702d2b22afa6b2ba30a837b7b62f99a1a92b60791b60e482015261010060448201526008610104820152672d2b229799a1a92b60c11b6101248201529116606482015260fa60848201526301312d0060a4820152610144016020604051808303816000875af1158015620001ab573d6000803e3d6000fd5b505050506040513d601f19601f82011682018060405250810190620001d1919062000427565b600180546001600160a01b0319166001600160a01b0392909216919091179055506200044c9050565b600080546001600160a01b038381166001600160a01b0319831681178455604051919092169283917f8be0079c531659141344cd1fd0a4f28419497f9722a3daafe3b4186f6b6457e09190a35050565b620002546200034e565b600054600160a01b900460ff1615620002c25760405162461bcd60e51b815260206004820152602560248201527f5a69766f654f776e61626c654c6f636b65643a3a756e6c6f636b65642829206c6044820152641bd8dad95960da1b60648201526084015b60405180910390fd5b6001600160a01b038116620003405760405162461bcd60e51b815260206004820152603e60248201527f5a69766f654f776e61626c654c6f636b65643a3a7472616e736665724f776e6560448201527f72736869702829206e65774f776e6572203d3d206164647265737328302900006064820152608401620002b9565b6200034b81620001fa565b50565b6000546001600160a01b03163314620003d05760405162461bcd60e51b815260206004820152603760248201527f5a69766f654f776e61626c654c6f636b65643a3a5f636865636b4f776e65722060448201527f6f776e6572282920213d205f6d736753656e64657228290000000000000000006064820152608401620002b9565b565b80516001600160a01b0381168114620003ea57600080fd5b919050565b600080604083850312156200040357600080fd5b6200040e83620003d2565b91506200041e60208401620003d2565b90509250929050565b6000602082840312156200043a57600080fd5b6200044582620003d2565b9392505050565b608051613977620004a76000396000818161038501528181610c2501528181611177015281816112630152818161165601528181611e4d01528181611f3901528181611fd30152818161252f0152612c0201526139776000f3fe608060405234801561001057600080fd5b50600436106102955760003560e01c80638da5cb5b11610167578063d9821e3b116100ce578063f23a6e6111610087578063f23a6e6114610579578063f2fde38b14610598578063f988dc3f146105ab578063fd76f59d146105b4578063ff0459ba146105c7578063ff4a6761146105da57600080fd5b8063d9821e3b1461051d578063dd913bdb14610316578063e0bab4c414610530578063e296a6431461054b578063e550ce1c1461055e578063e7f446291461031657600080fd5b8063b892bcc011610120578063b892bcc0146104a9578063bc197c81146104bc578063c54e44eb146104db578063c9c6a414146104f6578063cf10b7ab14610316578063cf3090121461050957600080fd5b80638da5cb5b1461044b578063a4a3e79d146103a7578063a615310c1461045c578063ab2637af14610477578063b0607cf814610316578063b0e4556f1461048e57600080fd5b80633ce8d4321161020b578063715018a6116101c4578063715018a6146103e75780637dbcdbc1146103ef57806381a93fe214610402578063844765911461041d57806389a30271146104305780638b648ee21461031657600080fd5b80633ce8d432146103805780633eda81ad146103a7578063422b2018146103ae57806358289c7e146103c1578063607cd649146103d457806364c77735146103a757600080fd5b80631d9389e91161025d5780631d9389e91461031d57806321041a2114610330578063215cccdd146103165780632f08d48b146103165780633a24d885146103635780633c1172441461031657600080fd5b806301ffc9a71461029a57806312052176146102c2578063150b7a02146102d757806315e98744146103035780631852b38314610316575b600080fd5b6102ad6102a8366004612fc2565b6105e2565b60405190151581526020015b60405180910390f35b6102d56102d0366004613049565b610619565b005b6102ea6102e5366004613159565b61068b565b6040516001600160e01b031990911681526020016102b9565b6102d5610311366004613208565b61069c565b60006102ad565b6102d561032b366004613049565b61080d565b61034b73d632f22692fac7611d2aa1c0d552930d43caed3b81565b6040516001600160a01b0390911681526020016102b9565b61036b610878565b604080519283526020830191909152016102b9565b61034b7f000000000000000000000000000000000000000000000000000000000000000081565b60016102ad565b6102d56103bc3660046132a1565b6109e7565b6102d56103cf36600461334d565b610a56565b6102d56103e236600461336a565b610b31565b6102d56112fe565b6102d56103fd36600461334d565b61133c565b61034b73bebc44782c7db0a1a60cb6fe97d0b483032ff1c781565b6102d561042b3660046133ab565b61139d565b61034b73a0b86991c6218b36c1d19d4a2e9eb0ce3606eb4881565b6000546001600160a01b031661034b565b61034b73b9fc157394af804a3578134a6585c0dc9cc990d481565b61048060025481565b6040519081526020016102b9565b61034b73853d955acef822db058eb8505911ed77f175b99e81565b6102d56104b7366004613208565b611400565b6102ea6104ca36600461344b565b63bc197c8160e01b95945050505050565b61034b73dac17f958d2ee523a2206206994597c13d831ec781565b6102d56105043660046134f8565b611568565b6000546102ad90600160a01b900460ff1681565b6102d561052b3660046133ab565b612246565b61034b736b175474e89094c44da98b954eedeac495271d0f81565b60015461034b906001600160a01b031681565b61034b736c3f90f043a72fa612cbac8115ee7e52bde6e49081565b6102ea610587366004613557565b63f23a6e6160e01b95945050505050565b6102d56105a636600461334d565b612313565b61048060035481565b6102d56105c23660046132a1565b6123ca565b6102d56105d53660046134f8565b612437565b6102d5612525565b60006001600160e01b03198216630271189760e51b148061061357506301ffc9a760e01b6001600160e01b03198316145b92915050565b61062161277e565b60405162461bcd60e51b815260206004820152603460248201527f5a69766f654c6f636b65723a3a70756c6c46726f6d4c6f636b65724552433732604482015273312829202163616e50756c6c455243373231282960601b60648201526084015b60405180910390fd5b630a85bd0160e11b5b949350505050565b6106a461277e565b60405162461bcd60e51b815260206004820152603e60248201527f5a69766f654c6f636b65723a3a70756c6c46726f6d4c6f636b65724d756c746960448201527f4552433732312829202163616e50756c6c4d756c7469455243373231282900006064820152608401610682565b858110156108045786868281811061072c5761072c61361c565b9050602002016020810190610741919061334d565b6001600160a01b031663b88d4fde306107626000546001600160a01b031690565b8888868181106107745761077461361c565b9050602002013587878781811061078d5761078d61361c565b905060200281019061079f9190613632565b6040518663ffffffff1660e01b81526004016107bf9594939291906135e8565b600060405180830381600087803b1580156107d957600080fd5b505af11580156107ed573d6000803e3d6000fd5b5050505080806107fc9061368e565b915050610712565b50505050505050565b61081561277e565b60405162461bcd60e51b815260206004820152603260248201527f5a69766f654c6f636b65723a3a70757368546f4c6f636b65724552433732312860448201527129202163616e50757368455243373231282960701b6064820152608401610682565b6001546040516370a0823160e01b815230600482015260009182916001600160a01b03909116906370a0823190602401602060405180830381865afa1580156108c5573d6000803e3d6000fd5b505050506040513d601f19601f820116820180604052508101906108e991906136a7565b6001805460405163cc2b27d760e01b815260048101849052602481019290925291925073d632f22692fac7611d2aa1c0d552930d43caed3b9163cc2b27d7916001600160a01b03909116908290604401602060405180830381865afa158015610956573d6000803e3d6000fd5b505050506040513d601f19601f8201168201806040525081019061097a91906136a7565b6040516001600160e01b031960e084901b168152600481019190915260006024820152604401602060405180830381865afa1580156109bd573d6000803e3d6000fd5b505050506040513d601f19601f820116820180604052508101906109e191906136a7565b91509091565b6109ef61277e565b60405162461bcd60e51b815260206004820152603660248201527f5a69766f654c6f636b65723a3a70756c6c46726f6d4c6f636b6572455243313160448201527535352829202163616e50756c6c45524331313535282960501b6064820152608401610682565b610a5e61277e565b600054600160a01b900460ff1615610a885760405162461bcd60e51b8152600401610682906136c0565b6001600160a01b038116610b125760405162461bcd60e51b815260206004820152604560248201527f5a69766f654f776e61626c654c6f636b65643a3a7472616e736665724f776e6560448201527f7273686970416e644c6f636b2829206e65774f776e6572203d3d206164647265606482015264737328302960d81b608482015260a401610682565b6000805460ff60a01b1916600160a01b179055610b2e816127fe565b50565b610b3961277e565b736b175474e89094c44da98b954eedeac495271d0f8282600081610b5f57610b5f61361c565b9050602002016020810190610b74919061334d565b6001600160a01b0316148015610bcd575073a0b86991c6218b36c1d19d4a2e9eb0ce3606eb4882826001818110610bad57610bad61361c565b9050602002016020810190610bc2919061334d565b6001600160a01b0316145b8015610c1c575073dac17f958d2ee523a2206206994597c13d831ec782826002818110610bfc57610bfc61361c565b9050602002016020810190610c11919061334d565b6001600160a01b0316145b8015610ce157507f00000000000000000000000000000000000000000000000000000000000000006001600160a01b0316639af6c40e6040518163ffffffff1660e01b8152600401602060405180830381865afa158015610c81573d6000803e3d6000fd5b505050506040513d601f19601f82011682018060405250810190610ca59190613705565b6001600160a01b031682826003818110610cc157610cc161361c565b9050602002016020810190610cd6919061334d565b6001600160a01b0316145b610db05760405162461bcd60e51b815260206004820152608860248201527f4f434c5f5a56455f4352565f313a3a70756c6c46726f6d4c6f636b65724d756c60448201527f74692829206173736574735b305d20213d20444149207c7c206173736574735b60648201527f315d20213d2055534443207c7c206173736574735b325d20213d20555344542060848201527f7c7c206173736574735b335d20213d20495a69766f65476c6f62616c7328474260a4820152674c292e5a5645282960c01b60c482015260e401610682565b610db8612f86565b610dc0612fa4565b6001546040516370a0823160e01b81523060048201526001600160a01b0390911690635b36389c9082906370a0823190602401602060405180830381865afa158015610e10573d6000803e3d6000fd5b505050506040513d601f19601f82011682018060405250810190610e3491906136a7565b846040518363ffffffff1660e01b8152600401610e52929190613745565b60408051808303816000875af1158015610e70573d6000803e3d6000fd5b505050506040513d601f19601f82011682018060405250810190610e949190613759565b506040516370a0823160e01b815230600482015273bebc44782c7db0a1a60cb6fe97d0b483032ff1c79063ecb586a590736c3f90f043a72fa612cbac8115ee7e52bde6e490906370a0823190602401602060405180830381865afa158015610f00573d6000803e3d6000fd5b505050506040513d601f19601f82011682018060405250810190610f2491906136a7565b836040518363ffffffff1660e01b8152600401610f429291906137fb565b600060405180830381600087803b158015610f5c57600080fd5b505af1158015610f70573d6000803e3d6000fd5b50505050611018610f896000546001600160a01b031690565b6040516370a0823160e01b8152306004820152736b175474e89094c44da98b954eedeac495271d0f906370a0823190602401602060405180830381865afa158015610fd8573d6000803e3d6000fd5b505050506040513d601f19601f82011682018060405250810190610ffc91906136a7565b736b175474e89094c44da98b954eedeac495271d0f919061284e565b6110bc61102d6000546001600160a01b031690565b6040516370a0823160e01b815230600482015273a0b86991c6218b36c1d19d4a2e9eb0ce3606eb48906370a0823190602401602060405180830381865afa15801561107c573d6000803e3d6000fd5b505050506040513d601f19601f820116820180604052508101906110a091906136a7565b73a0b86991c6218b36c1d19d4a2e9eb0ce3606eb48919061284e565b6111606110d16000546001600160a01b031690565b6040516370a0823160e01b815230600482015273dac17f958d2ee523a2206206994597c13d831ec7906370a0823190602401602060405180830381865afa158015611120573d6000803e3d6000fd5b505050506040513d601f19601f8201168201806040525081019061114491906136a7565b73dac17f958d2ee523a2206206994597c13d831ec7919061284e565b6112f36111756000546001600160a01b031690565b7f00000000000000000000000000000000000000000000000000000000000000006001600160a01b0316639af6c40e6040518163ffffffff1660e01b8152600401602060405180830381865afa1580156111d3573d6000803e3d6000fd5b505050506040513d601f19601f820116820180604052508101906111f79190613705565b6040516370a0823160e01b81523060048201526001600160a01b0391909116906370a0823190602401602060405180830381865afa15801561123d573d6000803e3d6000fd5b505050506040513d601f19601f8201168201806040525081019061126191906136a7565b7f00000000000000000000000000000000000000000000000000000000000000006001600160a01b0316639af6c40e6040518163ffffffff1660e01b8152600401602060405180830381865afa1580156112bf573d6000803e3d6000fd5b505050506040513d601f19601f820116820180604052508101906112e39190613705565b6001600160a01b0316919061284e565b505060006002555050565b61130661277e565b600054600160a01b900460ff16156113305760405162461bcd60e51b8152600401610682906136c0565b61133a60006127fe565b565b61134461277e565b60405162461bcd60e51b815260206004820152602860248201527f5a69766f654c6f636b65723a3a70756c6c46726f6d4c6f636b65722829202163604482015267616e50756c6c282960c01b6064820152608401610682565b6113a561277e565b60405162461bcd60e51b815260206004820152602660248201527f5a69766f654c6f636b65723a3a70757368546f4c6f636b65722829202163616e60448201526550757368282960d01b6064820152608401610682565b5050565b61140861277e565b60405162461bcd60e51b815260206004820152603c60248201527f5a69766f654c6f636b65723a3a70757368546f4c6f636b65724d756c7469455260448201527f433732312829202163616e507573684d756c74694552433732312829000000006064820152608401610682565b85811015610804578686828181106114905761149061361c565b90506020020160208101906114a5919061334d565b6001600160a01b031663b88d4fde6114c56000546001600160a01b031690565b308888868181106114d8576114d861361c565b905060200201358787878181106114f1576114f161361c565b90506020028101906115039190613632565b6040518663ffffffff1660e01b81526004016115239594939291906135e8565b600060405180830381600087803b15801561153d57600080fd5b505af1158015611551573d6000803e3d6000fd5b5050505080806115609061368e565b915050611476565b61157061277e565b736b175474e89094c44da98b954eedeac495271d0f84846000816115965761159661361c565b90506020020160208101906115ab919061334d565b6001600160a01b03161480611601575073a0b86991c6218b36c1d19d4a2e9eb0ce3606eb4884846000816115e1576115e161361c565b90506020020160208101906115f6919061334d565b6001600160a01b0316145b8061164d575073dac17f958d2ee523a2206206994597c13d831ec7848460008161162d5761162d61361c565b9050602002016020810190611642919061334d565b6001600160a01b0316145b801561171257507f00000000000000000000000000000000000000000000000000000000000000006001600160a01b0316639af6c40e6040518163ffffffff1660e01b8152600401602060405180830381865afa1580156116b2573d6000803e3d6000fd5b505050506040513d601f19601f820116820180604052508101906116d69190613705565b6001600160a01b0316848460018181106116f2576116f261361c565b9050602002016020810190611707919061334d565b6001600160a01b0316145b6117e15760405162461bcd60e51b815260206004820152608860248201527f4f434c5f5a56455f4352565f313a3a70757368546f4c6f636b65724d756c746960448201527f282920286173736574735b305d20213d20444149202626206173736574735b3060648201527f5d203d3d2055534443202626206173736574735b305d203d3d2055534454292060848201527f7c7c206173736574735b315d20213d20495a69766f65476c6f62616c7328474260a4820152674c292e5a5645282960c01b60c482015260e401610682565b60005b6002811015611866576118546118026000546001600160a01b031690565b308585858181106118155761181561361c565b9050602002013588888681811061182e5761182e61361c565b9050602002016020810190611843919061334d565b6001600160a01b03169291906128b6565b8061185e8161368e565b9150506117e4565b506003546000036118825761187e4262278d0061380f565b6003555b600060025460001461189a57611896610878565b5090505b736b175474e89094c44da98b954eedeac495271d0f85856000816118c0576118c061361c565b90506020020160208101906118d5919061334d565b6001600160a01b031603611a82576040516370a0823160e01b815230600482015261198c9073bebc44782c7db0a1a60cb6fe97d0b483032ff1c790736b175474e89094c44da98b954eedeac495271d0f906370a0823190602401602060405180830381865afa15801561194c573d6000803e3d6000fd5b505050506040513d601f19601f8201168201806040525081019061197091906136a7565b736b175474e89094c44da98b954eedeac495271d0f91906128f4565b611994612fa4565b6040516370a0823160e01b8152306004820152736b175474e89094c44da98b954eedeac495271d0f906370a0823190602401602060405180830381865afa1580156119e3573d6000803e3d6000fd5b505050506040513d601f19601f82011682018060405250810190611a0791906136a7565b8160005b6020020152604051634515cef360e01b815273bebc44782c7db0a1a60cb6fe97d0b483032ff1c790634515cef390611a4a908490600090600401613822565b600060405180830381600087803b158015611a6457600080fd5b505af1158015611a78573d6000803e3d6000fd5b5050505050611d91565b73a0b86991c6218b36c1d19d4a2e9eb0ce3606eb488585600081611aa857611aa861361c565b9050602002016020810190611abd919061334d565b6001600160a01b031603611bf7576040516370a0823160e01b8152306004820152611b749073bebc44782c7db0a1a60cb6fe97d0b483032ff1c79073a0b86991c6218b36c1d19d4a2e9eb0ce3606eb48906370a0823190602401602060405180830381865afa158015611b34573d6000803e3d6000fd5b505050506040513d601f19601f82011682018060405250810190611b5891906136a7565b73a0b86991c6218b36c1d19d4a2e9eb0ce3606eb4891906128f4565b611b7c612fa4565b6040516370a0823160e01b815230600482015273a0b86991c6218b36c1d19d4a2e9eb0ce3606eb48906370a0823190602401602060405180830381865afa158015611bcb573d6000803e3d6000fd5b505050506040513d601f19601f82011682018060405250810190611bef91906136a7565b816001611a0b565b6040516370a0823160e01b8152306004820152611ca09073bebc44782c7db0a1a60cb6fe97d0b483032ff1c79073dac17f958d2ee523a2206206994597c13d831ec7906370a0823190602401602060405180830381865afa158015611c60573d6000803e3d6000fd5b505050506040513d601f19601f82011682018060405250810190611c8491906136a7565b73dac17f958d2ee523a2206206994597c13d831ec791906128f4565b611ca8612fa4565b6040516370a0823160e01b815230600482015273dac17f958d2ee523a2206206994597c13d831ec7906370a0823190602401602060405180830381865afa158015611cf7573d6000803e3d6000fd5b505050506040513d601f19601f82011682018060405250810190611d1b91906136a7565b8160026020020152604051634515cef360e01b815273bebc44782c7db0a1a60cb6fe97d0b483032ff1c790634515cef390611d5d908490600090600401613822565b600060405180830381600087803b158015611d7757600080fd5b505af1158015611d8b573d6000803e3d6000fd5b50505050505b6001546040516370a0823160e01b8152306004820152611e32916001600160a01b031690736c3f90f043a72fa612cbac8115ee7e52bde6e490906370a08231906024015b602060405180830381865afa158015611df2573d6000803e3d6000fd5b505050506040513d601f19601f82011682018060405250810190611e1691906136a7565b736c3f90f043a72fa612cbac8115ee7e52bde6e49091906128f4565b611fc9600160009054906101000a90046001600160a01b03167f00000000000000000000000000000000000000000000000000000000000000006001600160a01b0316639af6c40e6040518163ffffffff1660e01b8152600401602060405180830381865afa158015611ea9573d6000803e3d6000fd5b505050506040513d601f19601f82011682018060405250810190611ecd9190613705565b6040516370a0823160e01b81523060048201526001600160a01b0391909116906370a0823190602401602060405180830381865afa158015611f13573d6000803e3d6000fd5b505050506040513d601f19601f82011682018060405250810190611f3791906136a7565b7f00000000000000000000000000000000000000000000000000000000000000006001600160a01b0316639af6c40e6040518163ffffffff1660e01b8152600401602060405180830381865afa158015611f95573d6000803e3d6000fd5b505050506040513d601f19601f82011682018060405250810190611fb99190613705565b6001600160a01b031691906128f4565b611fd1612f86565b7f00000000000000000000000000000000000000000000000000000000000000006001600160a01b0316639af6c40e6040518163ffffffff1660e01b8152600401602060405180830381865afa15801561202f573d6000803e3d6000fd5b505050506040513d601f19601f820116820180604052508101906120539190613705565b6040516370a0823160e01b81523060048201526001600160a01b0391909116906370a0823190602401602060405180830381865afa158015612099573d6000803e3d6000fd5b505050506040513d601f19601f820116820180604052508101906120bd91906136a7565b81526040516370a0823160e01b8152306004820152736c3f90f043a72fa612cbac8115ee7e52bde6e490906370a0823190602401602060405180830381865afa15801561210e573d6000803e3d6000fd5b505050506040513d601f19601f8201168201806040525081019061213291906136a7565b6020820152600154604051630b4c7e4d60e01b81526001600160a01b0390911690630b4c7e4d9061216a90849060009060040161383d565b6020604051808303816000875af1158015612189573d6000803e3d6000fd5b505050506040513d601f19601f820116820180604052508101906121ad91906136a7565b5060006121b8610878565b5090508281116122305760405162461bcd60e51b815260206004820152603d60248201527f4f434c5f5a56455f4352565f313a3a70757368546f4c6f636b65724d756c746960448201527f282920706f7374426173656c696e65203c20707265426173656c696e650000006064820152608401610682565b61223a8382613858565b60025550505050505050565b61224e61277e565b6001546001600160a01b038381169116146122d15760405162461bcd60e51b815260206004820152603760248201527f4f434c5f5a56455f4352565f303a3a70756c6c46726f6d4c6f636b657250617260448201527f7469616c28292061737365747320213d205a56455f4d500000000000000000006064820152608401610682565b6122d9612f86565b6122e1612fa4565b6001546040516316cd8e2760e21b81526001600160a01b0390911690635b36389c90610e529086908690600401613745565b61231b61277e565b600054600160a01b900460ff16156123455760405162461bcd60e51b8152600401610682906136c0565b6001600160a01b0381166123c15760405162461bcd60e51b815260206004820152603e60248201527f5a69766f654f776e61626c654c6f636b65643a3a7472616e736665724f776e6560448201527f72736869702829206e65774f776e6572203d3d206164647265737328302900006064820152608401610682565b610b2e816127fe565b6123d261277e565b60405162461bcd60e51b815260206004820152603460248201527f5a69766f654c6f636b65723a3a70757368546f4c6f636b6572455243313135356044820152732829202163616e5075736845524331313535282960601b6064820152608401610682565b61243f61277e565b6040805162461bcd60e51b81526020600482015260248101919091527f5a69766f654c6f636b65723a3a70756c6c46726f6d4c6f636b65724d756c746960448201527f5061727469616c2829202163616e50756c6c4d756c74695061727469616c28296064820152608401610682565b8381101561251e5761250c6124cc6000546001600160a01b031690565b8484848181106124de576124de61361c565b905060200201358787858181106124f7576124f761361c565b90506020020160208101906112e3919061334d565b806125168161368e565b9150506124af565b5050505050565b6001600160a01b037f000000000000000000000000000000000000000000000000000000000000000016636ba42aaa336040516001600160e01b031960e084901b1681526001600160a01b039091166004820152602401602060405180830381865afa158015612599573d6000803e3d6000fd5b505050506040513d601f19601f820116820180604052508101906125bd919061386b565b156126655761a8c06003546125d29190613858565b42116126605760405162461bcd60e51b815260206004820152605160248201527f4f434c5f5a56455f4352565f313a3a666f72776172645969656c64282920626c60448201527f6f636b2e74696d657374616d70203c3d206e6578745969656c64446973747269606482015270627574696f6e202d20313220686f75727360781b608482015260a401610682565b6126eb565b60035442116126eb5760405162461bcd60e51b815260206004820152604660248201527f4f434c5f5a56455f4352565f313a3a666f72776172645969656c64282920626c60448201527f6f636b2e74696d657374616d70203c3d206e6578745969656c64446973747269606482015265313aba34b7b760d11b608482015260a401610682565b6000806126f6610878565b9150915060025482116127645760405162461bcd60e51b815260206004820152603060248201527f4f434c5f5a56455f4352565f313a3a666f72776172645969656c64282920616d60448201526f6f756e74203c3d20626173656c696e6560801b6064820152608401610682565b6127714262278d0061380f565b6003556113fc8282612a09565b6000546001600160a01b0316331461133a5760405162461bcd60e51b815260206004820152603760248201527f5a69766f654f776e61626c654c6f636b65643a3a5f636865636b4f776e65722060448201527f6f776e6572282920213d205f6d736753656e64657228290000000000000000006064820152608401610682565b600080546001600160a01b038381166001600160a01b0319831681178455604051919092169283917f8be0079c531659141344cd1fd0a4f28419497f9722a3daafe3b4186f6b6457e09190a35050565b6040516001600160a01b0383166024820152604481018290526128b190849063a9059cbb60e01b906064015b60408051601f198184030181529190526020810180516001600160e01b03166001600160e01b031990931692909217909152612d22565b505050565b6040516001600160a01b03808516602483015283166044820152606481018290526128ee9085906323b872dd60e01b9060840161287a565b50505050565b80158061296e5750604051636eb1769f60e11b81523060048201526001600160a01b03838116602483015284169063dd62ed3e90604401602060405180830381865afa158015612948573d6000803e3d6000fd5b505050506040513d601f19601f8201168201806040525081019061296c91906136a7565b155b6129d95760405162461bcd60e51b815260206004820152603660248201527f5361666545524332303a20617070726f76652066726f6d206e6f6e2d7a65726f60448201527520746f206e6f6e2d7a65726f20616c6c6f77616e636560501b6064820152608401610682565b6040516001600160a01b0383166024820152604481018290526128b190849063095ea7b360e01b9060640161287a565b60006002838360025486612a1d9190613858565b612a27919061388d565b612a3191906138ac565b612a3b91906138ac565b60018054604051630d2680e960e11b8152600481018490526024810192909252600060448301529192506001600160a01b0390911690631a4d01d290606401600060405180830381600087803b158015612a9457600080fd5b505af1158015612aa8573d6000803e3d6000fd5b50506040516370a0823160e01b8152306004820152612afd925073d632f22692fac7611d2aa1c0d552930d43caed3b9150736c3f90f043a72fa612cbac8115ee7e52bde6e490906370a0823190602401611dd5565b6040516370a0823160e01b815230600482015273d632f22692fac7611d2aa1c0d552930d43caed3b90633df0212490600190600090736c3f90f043a72fa612cbac8115ee7e52bde6e490906370a0823190602401602060405180830381865afa158015612b6e573d6000803e3d6000fd5b505050506040513d601f19601f82011682018060405250810190612b9291906136a7565b6040516001600160e01b031960e086901b168152600f93840b60048201529190920b6024820152604481019190915260006064820152608401600060405180830381600087803b158015612be557600080fd5b505af1158015612bf9573d6000803e3d6000fd5b50505050612d117f00000000000000000000000000000000000000000000000000000000000000006001600160a01b03166372d6724a6040518163ffffffff1660e01b8152600401602060405180830381865afa158015612c5e573d6000803e3d6000fd5b505050506040513d601f19601f82011682018060405250810190612c829190613705565b6040516370a0823160e01b815230600482015273853d955acef822db058eb8505911ed77f175b99e906370a0823190602401602060405180830381865afa158015612cd1573d6000803e3d6000fd5b505050506040513d601f19601f82011682018060405250810190612cf591906136a7565b73853d955acef822db058eb8505911ed77f175b99e919061284e565b612d19610878565b50600255505050565b6000612d77826040518060400160405280602081526020017f5361666545524332303a206c6f772d6c6576656c2063616c6c206661696c6564815250856001600160a01b0316612df49092919063ffffffff16565b8051909150156128b15780806020019051810190612d95919061386b565b6128b15760405162461bcd60e51b815260206004820152602a60248201527f5361666545524332303a204552433230206f7065726174696f6e20646964206e6044820152691bdd081cdd58d8d9595960b21b6064820152608401610682565b6060612e038484600085612e0d565b90505b9392505050565b606082471015612e6e5760405162461bcd60e51b815260206004820152602660248201527f416464726573733a20696e73756666696369656e742062616c616e636520666f6044820152651c8818d85b1b60d21b6064820152608401610682565b600080866001600160a01b03168587604051612e8a91906138f2565b60006040518083038185875af1925050503d8060008114612ec7576040519150601f19603f3d011682016040523d82523d6000602084013e612ecc565b606091505b5091509150612edd87838387612ee8565b979650505050505050565b60608315612f57578251600003612f50576001600160a01b0385163b612f505760405162461bcd60e51b815260206004820152601d60248201527f416464726573733a2063616c6c20746f206e6f6e2d636f6e74726163740000006044820152606401610682565b5081610694565b6106948383815115612f6c5781518083602001fd5b8060405162461bcd60e51b8152600401610682919061390e565b60405180604001604052806002906020820280368337509192915050565b60405180606001604052806003906020820280368337509192915050565b600060208284031215612fd457600080fd5b81356001600160e01b031981168114612e0657600080fd5b6001600160a01b0381168114610b2e57600080fd5b60008083601f84011261301357600080fd5b5081356001600160401b0381111561302a57600080fd5b60208301915083602082850101111561304257600080fd5b9250929050565b6000806000806060858703121561305f57600080fd5b843561306a81612fec565b93506020850135925060408501356001600160401b0381111561308c57600080fd5b61309887828801613001565b95989497509550505050565b634e487b7160e01b600052604160045260246000fd5b604051601f8201601f191681016001600160401b03811182821017156130e2576130e26130a4565b604052919050565b600082601f8301126130fb57600080fd5b81356001600160401b03811115613114576131146130a4565b613127601f8201601f19166020016130ba565b81815284602083860101111561313c57600080fd5b816020850160208301376000918101602001919091529392505050565b6000806000806080858703121561316f57600080fd5b843561317a81612fec565b9350602085013561318a81612fec565b92506040850135915060608501356001600160401b038111156131ac57600080fd5b6131b8878288016130ea565b91505092959194509250565b60008083601f8401126131d657600080fd5b5081356001600160401b038111156131ed57600080fd5b6020830191508360208260051b850101111561304257600080fd5b6000806000806000806060878903121561322157600080fd5b86356001600160401b038082111561323857600080fd5b6132448a838b016131c4565b9098509650602089013591508082111561325d57600080fd5b6132698a838b016131c4565b9096509450604089013591508082111561328257600080fd5b5061328f89828a016131c4565b979a9699509497509295939492505050565b60008060008060008060006080888a0312156132bc57600080fd5b87356132c781612fec565b965060208801356001600160401b03808211156132e357600080fd5b6132ef8b838c016131c4565b909850965060408a013591508082111561330857600080fd5b6133148b838c016131c4565b909650945060608a013591508082111561332d57600080fd5b5061333a8a828b01613001565b989b979a50959850939692959293505050565b60006020828403121561335f57600080fd5b8135612e0681612fec565b6000806020838503121561337d57600080fd5b82356001600160401b0381111561339357600080fd5b61339f858286016131c4565b90969095509350505050565b600080604083850312156133be57600080fd5b82356133c981612fec565b946020939093013593505050565b600082601f8301126133e857600080fd5b813560206001600160401b03821115613403576134036130a4565b8160051b6134128282016130ba565b928352848101820192828101908785111561342c57600080fd5b83870192505b84831015612edd57823582529183019190830190613432565b600080600080600060a0868803121561346357600080fd5b853561346e81612fec565b9450602086013561347e81612fec565b935060408601356001600160401b038082111561349a57600080fd5b6134a689838a016133d7565b945060608801359150808211156134bc57600080fd5b6134c889838a016133d7565b935060808801359150808211156134de57600080fd5b506134eb888289016130ea565b9150509295509295909350565b6000806000806040858703121561350e57600080fd5b84356001600160401b038082111561352557600080fd5b613531888389016131c4565b9096509450602087013591508082111561354a57600080fd5b50613098878288016131c4565b600080600080600060a0868803121561356f57600080fd5b853561357a81612fec565b9450602086013561358a81612fec565b9350604086013592506060860135915060808601356001600160401b038111156135b357600080fd5b6134eb888289016130ea565b81835281816020850137506000828201602090810191909152601f909101601f19169091010190565b6001600160a01b0386811682528516602082015260408101849052608060608201819052600090612edd90830184866135bf565b634e487b7160e01b600052603260045260246000fd5b6000808335601e1984360301811261364957600080fd5b8301803591506001600160401b0382111561366357600080fd5b60200191503681900382131561304257600080fd5b634e487b7160e01b600052601160045260246000fd5b6000600182016136a0576136a0613678565b5060010190565b6000602082840312156136b957600080fd5b5051919050565b60208082526025908201527f5a69766f654f776e61626c654c6f636b65643a3a756e6c6f636b65642829206c6040820152641bd8dad95960da1b606082015260800190565b60006020828403121561371757600080fd5b8151612e0681612fec565b8060005b60028110156128ee578151845260209384019390910190600101613726565b82815260608101612e066020830184613722565b60006040828403121561376b57600080fd5b82601f83011261377a57600080fd5b604051604081018181106001600160401b038211171561379c5761379c6130a4565b80604052508060408401858111156137b357600080fd5b845b818110156137cd5780518352602092830192016137b5565b509195945050505050565b8060005b60038110156128ee5781518452602093840193909101906001016137dc565b82815260808101612e0660208301846137d8565b8082018082111561061357610613613678565b6080810161383082856137d8565b8260608301529392505050565b6060810161384b8285613722565b8260408301529392505050565b8181038181111561061357610613613678565b60006020828403121561387d57600080fd5b81518015158114612e0657600080fd5b60008160001904831182151516156138a7576138a7613678565b500290565b6000826138c957634e487b7160e01b600052601260045260246000fd5b500490565b60005b838110156138e95781810151838201526020016138d1565b50506000910152565b600082516139048184602087016138ce565b9190910192915050565b602081526000825180602084015261392d8160408501602087016138ce565b601f01601f1916919091016040019291505056fea264697066735822122028f351c33bc15496c8fb8264895ccebbc41fe048a063090743a84aef37bfab7664736f6c63430008100033",
    "linkReferences": {}
  },
  "methodIdentifiers": {
    "CRV_Deployer()": "a615310c",
    "DAI()": "e0bab4c4",
    "FRAX()": "b0e4556f",
    "FRAXConvertible()": "3a24d885",
    "FRAX_3CRV_MP()": "21041a21",
    "GBL()": "3ce8d432",
    "USDC()": "89a30271",
    "USDT()": "c54e44eb",
    "ZVE_MP()": "e296a643",
    "_3CRV_BP()": "81a93fe2",
    "_3CRV_TOKEN()": "e550ce1c",
    "baseline()": "ab2637af",
    "canPull()": "215cccdd",
    "canPullERC1155()": "b0607cf8",
    "canPullERC721()": "3c117244",
    "canPullMulti()": "3eda81ad",
    "canPullMultiERC721()": "1852b383",
    "canPullMultiPartial()": "2f08d48b",
    "canPullPartial()": "64c77735",
    "canPush()": "e7f44629",
    "canPushERC1155()": "cf10b7ab",
    "canPushERC721()": "8b648ee2",
    "canPushMulti()": "a4a3e79d",
    "canPushMultiERC721()": "dd913bdb",
    "forwardYield()": "ff4a6761",
    "locked()": "cf309012",
    "nextYieldDistribution()": "f988dc3f",
    "onERC1155BatchReceived(address,address,uint256[],uint256[],bytes)": "bc197c81",
    "onERC1155Received(address,address,uint256,uint256,bytes)": "f23a6e61",
    "onERC721Received(address,address,uint256,bytes)": "150b7a02",
    "owner()": "8da5cb5b",
    "pullFromLocker(address)": "7dbcdbc1",
    "pullFromLockerERC1155(address,uint256[],uint256[],bytes)": "422b2018",
    "pullFromLockerERC721(address,uint256,bytes)": "12052176",
    "pullFromLockerMulti(address[])": "607cd649",
    "pullFromLockerMultiERC721(address[],uint256[],bytes[])": "15e98744",
    "pullFromLockerMultiPartial(address[],uint256[])": "ff0459ba",
    "pullFromLockerPartial(address,uint256)": "d9821e3b",
    "pushToLocker(address,uint256)": "84476591",
    "pushToLockerERC1155(address,uint256[],uint256[],bytes)": "fd76f59d",
    "pushToLockerERC721(address,uint256,bytes)": "1d9389e9",
    "pushToLockerMulti(address[],uint256[])": "c9c6a414",
    "pushToLockerMultiERC721(address[],uint256[],bytes[])": "b892bcc0",
    "renounceOwnership()": "715018a6",
    "supportsInterface(bytes4)": "01ffc9a7",
    "transferOwnership(address)": "f2fde38b",
    "transferOwnershipAndLock(address)": "58289c7e"
  },
  "id": 74
}