{
  "abi": [
    {
      "inputs": [
        {
          "internalType": "address[]",
          "name": "_ZivoeAddresses",
          "type": "address[]"
        },
        {
          "internalType": "bool[]",
          "name": "_boolMetaOrPlainAndRewards",
          "type": "bool[]"
        },
        {
          "internalType": "address",
          "name": "_curvePool",
          "type": "address"
        },
        {
          "internalType": "address",
          "name": "_CVX_Deposit_Address",
          "type": "address"
        },
        {
          "internalType": "address[]",
          "name": "_rewardsAddresses",
          "type": "address[]"
        },
        {
          "internalType": "address",
          "name": "_BASE_TOKEN_MP",
          "type": "address"
        },
        {
          "internalType": "address",
          "name": "_MP_UNDERLYING_LP_POOL",
          "type": "address"
        },
        {
          "internalType": "uint8",
          "name": "_numberOfTokensUnderlyingLPPool",
          "type": "uint8"
        },
        {
          "internalType": "uint8",
          "name": "_numberOfTokensPP",
          "type": "uint8"
        },
        {
          "internalType": "uint256",
          "name": "_convexPoolID",
          "type": "uint256"
        },
        {
          "internalType": "address[]",
          "name": "_chainlinkPriceFeeds",
          "type": "address[]"
        }
      ],
      "stateMutability": "nonpayable",
      "type": "constructor"
    },
    {
      "anonymous": false,
      "inputs": [
        {
          "indexed": true,
          "internalType": "address",
          "name": "previousOwner",
          "type": "address"
        },
        {
          "indexed": true,
          "internalType": "address",
          "name": "newOwner",
          "type": "address"
        }
      ],
      "name": "OwnershipTransferred",
      "type": "event"
    },
    {
      "anonymous": false,
      "inputs": [
        {
          "indexed": true,
          "internalType": "address",
          "name": "previousOwner",
          "type": "address"
        },
        {
          "indexed": true,
          "internalType": "address",
          "name": "newOwner",
          "type": "address"
        }
      ],
      "name": "OwnershipTransferredAndLocked",
      "type": "event"
    },
    {
      "anonymous": false,
      "inputs": [
        {
          "indexed": false,
          "internalType": "uint256",
          "name": "returnAmount",
          "type": "uint256"
        },
        {
          "indexed": false,
          "internalType": "address",
          "name": "srcToken",
          "type": "address"
        },
        {
          "indexed": false,
          "internalType": "uint256",
          "name": "amount",
          "type": "uint256"
        },
        {
          "indexed": false,
          "internalType": "uint256",
          "name": "minReturn",
          "type": "uint256"
        },
        {
          "indexed": false,
          "internalType": "bytes32[]",
          "name": "pools",
          "type": "bytes32[]"
        }
      ],
      "name": "SwapExecuted_2e95b6c8",
      "type": "event"
    },
    {
      "anonymous": false,
      "inputs": [
        {
          "indexed": false,
          "internalType": "uint256",
          "name": "returnAmount",
          "type": "uint256"
        },
        {
          "indexed": false,
          "internalType": "uint256",
          "name": "spentAmount",
          "type": "uint256"
        },
        {
          "indexed": false,
          "internalType": "uint256",
          "name": "gasLeft",
          "type": "uint256"
        },
        {
          "indexed": false,
          "internalType": "address",
          "name": "assetToSwap",
          "type": "address"
        },
        {
          "components": [
            {
              "internalType": "contract IERC20",
              "name": "srcToken",
              "type": "address"
            },
            {
              "internalType": "contract IERC20",
              "name": "dstToken",
              "type": "address"
            },
            {
              "internalType": "address",
              "name": "srcReceiver",
              "type": "address"
            },
            {
              "internalType": "address",
              "name": "dstReceiver",
              "type": "address"
            },
            {
              "internalType": "uint256",
              "name": "amount",
              "type": "uint256"
            },
            {
              "internalType": "uint256",
              "name": "minReturnAmount",
              "type": "uint256"
            },
            {
              "internalType": "uint256",
              "name": "flags",
              "type": "uint256"
            },
            {
              "internalType": "bytes",
              "name": "permit",
              "type": "bytes"
            }
          ],
          "indexed": false,
          "internalType": "struct ZivoeSwapper.SwapDescription",
          "name": "info",
          "type": "tuple"
        },
        {
          "indexed": false,
          "internalType": "bytes",
          "name": "data",
          "type": "bytes"
        }
      ],
      "name": "SwapExecuted_7c025200",
      "type": "event"
    },
    {
      "anonymous": false,
      "inputs": [
        {
          "indexed": false,
          "internalType": "uint256",
          "name": "returnAmount",
          "type": "uint256"
        },
        {
          "indexed": false,
          "internalType": "address",
          "name": "srcToken",
          "type": "address"
        },
        {
          "indexed": false,
          "internalType": "address",
          "name": "dstToken",
          "type": "address"
        },
        {
          "indexed": false,
          "internalType": "uint256",
          "name": "amount",
          "type": "uint256"
        },
        {
          "indexed": false,
          "internalType": "uint256",
          "name": "minReturn",
          "type": "uint256"
        }
      ],
      "name": "SwapExecuted_b0431182",
      "type": "event"
    },
    {
      "anonymous": false,
      "inputs": [
        {
          "indexed": false,
          "internalType": "uint256",
          "name": "actualMakingAmount",
          "type": "uint256"
        },
        {
          "indexed": false,
          "internalType": "uint256",
          "name": "actualTakingAmount",
          "type": "uint256"
        },
        {
          "components": [
            {
              "internalType": "uint256",
              "name": "info",
              "type": "uint256"
            },
            {
              "internalType": "contract IERC20",
              "name": "makerAsset",
              "type": "address"
            },
            {
              "internalType": "contract IERC20",
              "name": "takerAsset",
              "type": "address"
            },
            {
              "internalType": "address",
              "name": "maker",
              "type": "address"
            },
            {
              "internalType": "address",
              "name": "allowedSender",
              "type": "address"
            },
            {
              "internalType": "uint256",
              "name": "makingAmount",
              "type": "uint256"
            },
            {
              "internalType": "uint256",
              "name": "takingAmount",
              "type": "uint256"
            }
          ],
          "indexed": false,
          "internalType": "struct ZivoeSwapper.OrderRFQ",
          "name": "order",
          "type": "tuple"
        },
        {
          "indexed": false,
          "internalType": "bytes",
          "name": "signature",
          "type": "bytes"
        },
        {
          "indexed": false,
          "internalType": "uint256",
          "name": "makingAmount",
          "type": "uint256"
        },
        {
          "indexed": false,
          "internalType": "uint256",
          "name": "takingAmount",
          "type": "uint256"
        }
      ],
      "name": "SwapExecuted_d0a3b665",
      "type": "event"
    },
    {
      "anonymous": false,
      "inputs": [
        {
          "indexed": false,
          "internalType": "uint256",
          "name": "returnAmount",
          "type": "uint256"
        },
        {
          "indexed": false,
          "internalType": "uint256",
          "name": "amount",
          "type": "uint256"
        },
        {
          "indexed": false,
          "internalType": "uint256",
          "name": "minReturn",
          "type": "uint256"
        },
        {
          "indexed": false,
          "internalType": "uint256[]",
          "name": "pools",
          "type": "uint256[]"
        }
      ],
      "name": "SwapExecuted_e449022e",
      "type": "event"
    },
    {
      "inputs": [],
      "name": "BASE_TOKEN",
      "outputs": [
        {
          "internalType": "address",
          "name": "",
          "type": "address"
        }
      ],
      "stateMutability": "view",
      "type": "function"
    },
    {
      "inputs": [],
      "name": "CRV",
      "outputs": [
        {
          "internalType": "address",
          "name": "",
          "type": "address"
        }
      ],
      "stateMutability": "view",
      "type": "function"
    },
    {
      "inputs": [],
      "name": "CVX",
      "outputs": [
        {
          "internalType": "address",
          "name": "",
          "type": "address"
        }
      ],
      "stateMutability": "view",
      "type": "function"
    },
    {
      "inputs": [],
      "name": "CVX_Deposit_Address",
      "outputs": [
        {
          "internalType": "address",
          "name": "",
          "type": "address"
        }
      ],
      "stateMutability": "view",
      "type": "function"
    },
    {
      "inputs": [],
      "name": "CVX_Reward_Address",
      "outputs": [
        {
          "internalType": "address",
          "name": "",
          "type": "address"
        }
      ],
      "stateMutability": "view",
      "type": "function"
    },
    {
      "inputs": [],
      "name": "GBL",
      "outputs": [
        {
          "internalType": "address",
          "name": "",
          "type": "address"
        }
      ],
      "stateMutability": "view",
      "type": "function"
    },
    {
      "inputs": [],
      "name": "MP_UNDERLYING_LP_POOL",
      "outputs": [
        {
          "internalType": "address",
          "name": "",
          "type": "address"
        }
      ],
      "stateMutability": "view",
      "type": "function"
    },
    {
      "inputs": [],
      "name": "MP_UNDERLYING_LP_TOKEN",
      "outputs": [
        {
          "internalType": "address",
          "name": "",
          "type": "address"
        }
      ],
      "stateMutability": "view",
      "type": "function"
    },
    {
      "inputs": [],
      "name": "POOL_LP_TOKEN",
      "outputs": [
        {
          "internalType": "address",
          "name": "",
          "type": "address"
        }
      ],
      "stateMutability": "view",
      "type": "function"
    },
    {
      "inputs": [
        {
          "internalType": "uint256",
          "name": "",
          "type": "uint256"
        }
      ],
      "name": "PP_TOKENS",
      "outputs": [
        {
          "internalType": "address",
          "name": "",
          "type": "address"
        }
      ],
      "stateMutability": "view",
      "type": "function"
    },
    {
      "inputs": [],
      "name": "USD_Convertible",
      "outputs": [
        {
          "internalType": "uint256",
          "name": "_amount",
          "type": "uint256"
        }
      ],
      "stateMutability": "view",
      "type": "function"
    },
    {
      "inputs": [],
      "name": "baseline",
      "outputs": [
        {
          "internalType": "uint256",
          "name": "",
          "type": "uint256"
        }
      ],
      "stateMutability": "view",
      "type": "function"
    },
    {
      "inputs": [],
      "name": "canPull",
      "outputs": [
        {
          "internalType": "bool",
          "name": "",
          "type": "bool"
        }
      ],
      "stateMutability": "view",
      "type": "function"
    },
    {
      "inputs": [],
      "name": "canPullERC1155",
      "outputs": [
        {
          "internalType": "bool",
          "name": "",
          "type": "bool"
        }
      ],
      "stateMutability": "view",
      "type": "function"
    },
    {
      "inputs": [],
      "name": "canPullERC721",
      "outputs": [
        {
          "internalType": "bool",
          "name": "",
          "type": "bool"
        }
      ],
      "stateMutability": "view",
      "type": "function"
    },
    {
      "inputs": [],
      "name": "canPullMulti",
      "outputs": [
        {
          "internalType": "bool",
          "name": "",
          "type": "bool"
        }
      ],
      "stateMutability": "pure",
      "type": "function"
    },
    {
      "inputs": [],
      "name": "canPullMultiERC721",
      "outputs": [
        {
          "internalType": "bool",
          "name": "",
          "type": "bool"
        }
      ],
      "stateMutability": "view",
      "type": "function"
    },
    {
      "inputs": [],
      "name": "canPullMultiPartial",
      "outputs": [
        {
          "internalType": "bool",
          "name": "",
          "type": "bool"
        }
      ],
      "stateMutability": "view",
      "type": "function"
    },
    {
      "inputs": [],
      "name": "canPullPartial",
      "outputs": [
        {
          "internalType": "bool",
          "name": "",
          "type": "bool"
        }
      ],
      "stateMutability": "pure",
      "type": "function"
    },
    {
      "inputs": [],
      "name": "canPush",
      "outputs": [
        {
          "internalType": "bool",
          "name": "",
          "type": "bool"
        }
      ],
      "stateMutability": "view",
      "type": "function"
    },
    {
      "inputs": [],
      "name": "canPushERC1155",
      "outputs": [
        {
          "internalType": "bool",
          "name": "",
          "type": "bool"
        }
      ],
      "stateMutability": "view",
      "type": "function"
    },
    {
      "inputs": [],
      "name": "canPushERC721",
      "outputs": [
        {
          "internalType": "bool",
          "name": "",
          "type": "bool"
        }
      ],
      "stateMutability": "view",
      "type": "function"
    },
    {
      "inputs": [],
      "name": "canPushMulti",
      "outputs": [
        {
          "internalType": "bool",
          "name": "",
          "type": "bool"
        }
      ],
      "stateMutability": "pure",
      "type": "function"
    },
    {
      "inputs": [],
      "name": "canPushMultiERC721",
      "outputs": [
        {
          "internalType": "bool",
          "name": "",
          "type": "bool"
        }
      ],
      "stateMutability": "view",
      "type": "function"
    },
    {
      "inputs": [
        {
          "internalType": "uint256",
          "name": "",
          "type": "uint256"
        }
      ],
      "name": "chainlinkPriceFeeds",
      "outputs": [
        {
          "internalType": "address",
          "name": "",
          "type": "address"
        }
      ],
      "stateMutability": "view",
      "type": "function"
    },
    {
      "inputs": [],
      "name": "convexPoolID",
      "outputs": [
        {
          "internalType": "uint256",
          "name": "",
          "type": "uint256"
        }
      ],
      "stateMutability": "view",
      "type": "function"
    },
    {
      "inputs": [],
      "name": "extraRewards",
      "outputs": [
        {
          "internalType": "bool",
          "name": "",
          "type": "bool"
        }
      ],
      "stateMutability": "view",
      "type": "function"
    },
    {
      "inputs": [
        {
          "internalType": "address",
          "name": "asset",
          "type": "address"
        },
        {
          "internalType": "bytes",
          "name": "data",
          "type": "bytes"
        }
      ],
      "name": "forwardYieldKeeperCRV_CVX",
      "outputs": [],
      "stateMutability": "nonpayable",
      "type": "function"
    },
    {
      "inputs": [],
      "name": "harvestYield",
      "outputs": [],
      "stateMutability": "nonpayable",
      "type": "function"
    },
    {
      "inputs": [],
      "name": "indexBASE_TOKEN",
      "outputs": [
        {
          "internalType": "int128",
          "name": "",
          "type": "int128"
        }
      ],
      "stateMutability": "view",
      "type": "function"
    },
    {
      "inputs": [],
      "name": "invest",
      "outputs": [],
      "stateMutability": "nonpayable",
      "type": "function"
    },
    {
      "inputs": [],
      "name": "investTimeLock",
      "outputs": [
        {
          "internalType": "uint256",
          "name": "",
          "type": "uint256"
        }
      ],
      "stateMutability": "view",
      "type": "function"
    },
    {
      "inputs": [
        {
          "internalType": "address",
          "name": "stablecoin",
          "type": "address"
        },
        {
          "internalType": "address",
          "name": "assetOut",
          "type": "address"
        },
        {
          "internalType": "bytes",
          "name": "data",
          "type": "bytes"
        }
      ],
      "name": "keeperConvertStablecoin",
      "outputs": [],
      "stateMutability": "nonpayable",
      "type": "function"
    },
    {
      "inputs": [],
      "name": "locked",
      "outputs": [
        {
          "internalType": "bool",
          "name": "",
          "type": "bool"
        }
      ],
      "stateMutability": "view",
      "type": "function"
    },
    {
      "inputs": [],
      "name": "lpPriceInUSD",
      "outputs": [
        {
          "internalType": "uint256",
          "name": "price",
          "type": "uint256"
        }
      ],
      "stateMutability": "view",
      "type": "function"
    },
    {
      "inputs": [],
      "name": "metaOrPlainPool",
      "outputs": [
        {
          "internalType": "bool",
          "name": "",
          "type": "bool"
        }
      ],
      "stateMutability": "view",
      "type": "function"
    },
    {
      "inputs": [],
      "name": "nextYieldDistribution",
      "outputs": [
        {
          "internalType": "uint256",
          "name": "",
          "type": "uint256"
        }
      ],
      "stateMutability": "view",
      "type": "function"
    },
    {
      "inputs": [],
      "name": "numberOfTokensUnderlyingLPPool",
      "outputs": [
        {
          "internalType": "uint8",
          "name": "",
          "type": "uint8"
        }
      ],
      "stateMutability": "view",
      "type": "function"
    },
    {
      "inputs": [
        {
          "internalType": "address",
          "name": "",
          "type": "address"
        },
        {
          "internalType": "address",
          "name": "",
          "type": "address"
        },
        {
          "internalType": "uint256[]",
          "name": "",
          "type": "uint256[]"
        },
        {
          "internalType": "uint256[]",
          "name": "",
          "type": "uint256[]"
        },
        {
          "internalType": "bytes",
          "name": "",
          "type": "bytes"
        }
      ],
      "name": "onERC1155BatchReceived",
      "outputs": [
        {
          "internalType": "bytes4",
          "name": "",
          "type": "bytes4"
        }
      ],
      "stateMutability": "nonpayable",
      "type": "function"
    },
    {
      "inputs": [
        {
          "internalType": "address",
          "name": "",
          "type": "address"
        },
        {
          "internalType": "address",
          "name": "",
          "type": "address"
        },
        {
          "internalType": "uint256",
          "name": "",
          "type": "uint256"
        },
        {
          "internalType": "uint256",
          "name": "",
          "type": "uint256"
        },
        {
          "internalType": "bytes",
          "name": "",
          "type": "bytes"
        }
      ],
      "name": "onERC1155Received",
      "outputs": [
        {
          "internalType": "bytes4",
          "name": "",
          "type": "bytes4"
        }
      ],
      "stateMutability": "nonpayable",
      "type": "function"
    },
    {
      "inputs": [
        {
          "internalType": "address",
          "name": "",
          "type": "address"
        },
        {
          "internalType": "address",
          "name": "",
          "type": "address"
        },
        {
          "internalType": "uint256",
          "name": "",
          "type": "uint256"
        },
        {
          "internalType": "bytes",
          "name": "",
          "type": "bytes"
        }
      ],
      "name": "onERC721Received",
      "outputs": [
        {
          "internalType": "bytes4",
          "name": "",
          "type": "bytes4"
        }
      ],
      "stateMutability": "nonpayable",
      "type": "function"
    },
    {
      "inputs": [],
      "name": "owner",
      "outputs": [
        {
          "internalType": "address",
          "name": "",
          "type": "address"
        }
      ],
      "stateMutability": "view",
      "type": "function"
    },
    {
      "inputs": [],
      "name": "pool",
      "outputs": [
        {
          "internalType": "address",
          "name": "",
          "type": "address"
        }
      ],
      "stateMutability": "view",
      "type": "function"
    },
    {
      "inputs": [
        {
          "internalType": "address",
          "name": "asset",
          "type": "address"
        }
      ],
      "name": "pullFromLocker",
      "outputs": [],
      "stateMutability": "nonpayable",
      "type": "function"
    },
    {
      "inputs": [
        {
          "internalType": "address",
          "name": "asset",
          "type": "address"
        },
        {
          "internalType": "uint256[]",
          "name": "ids",
          "type": "uint256[]"
        },
        {
          "internalType": "uint256[]",
          "name": "amounts",
          "type": "uint256[]"
        },
        {
          "internalType": "bytes",
          "name": "data",
          "type": "bytes"
        }
      ],
      "name": "pullFromLockerERC1155",
      "outputs": [],
      "stateMutability": "nonpayable",
      "type": "function"
    },
    {
      "inputs": [
        {
          "internalType": "address",
          "name": "asset",
          "type": "address"
        },
        {
          "internalType": "uint256",
          "name": "tokenId",
          "type": "uint256"
        },
        {
          "internalType": "bytes",
          "name": "data",
          "type": "bytes"
        }
      ],
      "name": "pullFromLockerERC721",
      "outputs": [],
      "stateMutability": "nonpayable",
      "type": "function"
    },
    {
      "inputs": [
        {
          "internalType": "address[]",
          "name": "assets",
          "type": "address[]"
        }
      ],
      "name": "pullFromLockerMulti",
      "outputs": [],
      "stateMutability": "nonpayable",
      "type": "function"
    },
    {
      "inputs": [
        {
          "internalType": "address[]",
          "name": "assets",
          "type": "address[]"
        },
        {
          "internalType": "uint256[]",
          "name": "tokenIds",
          "type": "uint256[]"
        },
        {
          "internalType": "bytes[]",
          "name": "data",
          "type": "bytes[]"
        }
      ],
      "name": "pullFromLockerMultiERC721",
      "outputs": [],
      "stateMutability": "nonpayable",
      "type": "function"
    },
    {
      "inputs": [
        {
          "internalType": "address[]",
          "name": "assets",
          "type": "address[]"
        },
        {
          "internalType": "uint256[]",
          "name": "amounts",
          "type": "uint256[]"
        }
      ],
      "name": "pullFromLockerMultiPartial",
      "outputs": [],
      "stateMutability": "nonpayable",
      "type": "function"
    },
    {
      "inputs": [
        {
          "internalType": "address",
          "name": "convexRewardAddress",
          "type": "address"
        },
        {
          "internalType": "uint256",
          "name": "amount",
          "type": "uint256"
        }
      ],
      "name": "pullFromLockerPartial",
      "outputs": [],
      "stateMutability": "nonpayable",
      "type": "function"
    },
    {
      "inputs": [
        {
          "internalType": "address",
          "name": "asset",
          "type": "address"
        },
        {
          "internalType": "uint256",
          "name": "amount",
          "type": "uint256"
        }
      ],
      "name": "pushToLocker",
      "outputs": [],
      "stateMutability": "nonpayable",
      "type": "function"
    },
    {
      "inputs": [
        {
          "internalType": "address",
          "name": "asset",
          "type": "address"
        },
        {
          "internalType": "uint256[]",
          "name": "ids",
          "type": "uint256[]"
        },
        {
          "internalType": "uint256[]",
          "name": "amounts",
          "type": "uint256[]"
        },
        {
          "internalType": "bytes",
          "name": "data",
          "type": "bytes"
        }
      ],
      "name": "pushToLockerERC1155",
      "outputs": [],
      "stateMutability": "nonpayable",
      "type": "function"
    },
    {
      "inputs": [
        {
          "internalType": "address",
          "name": "asset",
          "type": "address"
        },
        {
          "internalType": "uint256",
          "name": "tokenId",
          "type": "uint256"
        },
        {
          "internalType": "bytes",
          "name": "data",
          "type": "bytes"
        }
      ],
      "name": "pushToLockerERC721",
      "outputs": [],
      "stateMutability": "nonpayable",
      "type": "function"
    },
    {
      "inputs": [
        {
          "internalType": "address[]",
          "name": "assets",
          "type": "address[]"
        },
        {
          "internalType": "uint256[]",
          "name": "amounts",
          "type": "uint256[]"
        }
      ],
      "name": "pushToLockerMulti",
      "outputs": [],
      "stateMutability": "nonpayable",
      "type": "function"
    },
    {
      "inputs": [
        {
          "internalType": "address[]",
          "name": "assets",
          "type": "address[]"
        },
        {
          "internalType": "uint256[]",
          "name": "tokenIds",
          "type": "uint256[]"
        },
        {
          "internalType": "bytes[]",
          "name": "data",
          "type": "bytes[]"
        }
      ],
      "name": "pushToLockerMultiERC721",
      "outputs": [],
      "stateMutability": "nonpayable",
      "type": "function"
    },
    {
      "inputs": [],
      "name": "renounceOwnership",
      "outputs": [],
      "stateMutability": "nonpayable",
      "type": "function"
    },
    {
      "inputs": [
        {
          "internalType": "uint256",
          "name": "",
          "type": "uint256"
        }
      ],
      "name": "rewardsAddresses",
      "outputs": [
        {
          "internalType": "address",
          "name": "",
          "type": "address"
        }
      ],
      "stateMutability": "view",
      "type": "function"
    },
    {
      "inputs": [],
      "name": "router1INCH_V4",
      "outputs": [
        {
          "internalType": "address",
          "name": "",
          "type": "address"
        }
      ],
      "stateMutability": "view",
      "type": "function"
    },
    {
      "inputs": [
        {
          "internalType": "bytes4",
          "name": "interfaceId",
          "type": "bytes4"
        }
      ],
      "name": "supportsInterface",
      "outputs": [
        {
          "internalType": "bool",
          "name": "",
          "type": "bool"
        }
      ],
      "stateMutability": "view",
      "type": "function"
    },
    {
      "inputs": [],
      "name": "toForwardCRV",
      "outputs": [
        {
          "internalType": "uint256",
          "name": "",
          "type": "uint256"
        }
      ],
      "stateMutability": "view",
      "type": "function"
    },
    {
      "inputs": [],
      "name": "toForwardCVX",
      "outputs": [
        {
          "internalType": "uint256",
          "name": "",
          "type": "uint256"
        }
      ],
      "stateMutability": "view",
      "type": "function"
    },
    {
      "inputs": [
        {
          "internalType": "uint256",
          "name": "",
          "type": "uint256"
        }
      ],
      "name": "toForwardExtraRewards",
      "outputs": [
        {
          "internalType": "uint256",
          "name": "",
          "type": "uint256"
        }
      ],
      "stateMutability": "view",
      "type": "function"
    },
    {
      "inputs": [
        {
          "internalType": "uint256",
          "name": "",
          "type": "uint256"
        }
      ],
      "name": "toForwardTokensBaseline",
      "outputs": [
        {
          "internalType": "uint256",
          "name": "",
          "type": "uint256"
        }
      ],
      "stateMutability": "view",
      "type": "function"
    },
    {
      "inputs": [
        {
          "internalType": "address",
          "name": "newOwner",
          "type": "address"
        }
      ],
      "name": "transferOwnership",
      "outputs": [],
      "stateMutability": "nonpayable",
      "type": "function"
    },
    {
      "inputs": [
        {
          "internalType": "address",
          "name": "newOwner",
          "type": "address"
        }
      ],
      "name": "transferOwnershipAndLock",
      "outputs": [],
      "stateMutability": "nonpayable",
      "type": "function"
    },
    {
      "inputs": [],
      "name": "yieldOwedToYDL",
      "outputs": [
        {
          "internalType": "uint256",
          "name": "",
          "type": "uint256"
        }
      ],
      "stateMutability": "view",
      "type": "function"
    }
  ],
  "bytecode": {
    "object": "0x60c0604052731111111254fb6c44bac0bed2854e76f90643097d6080523480156200002957600080fd5b50604051620093c8380380620093c88339810160408190526200004c9162000de2565b620000573362000a78565b60058360ff1610620000c55760405162461bcd60e51b815260206004820152603b6024820152600080516020620093a883398151915260448201527f206d6178203420746f6b656e7320696e20706c61696e20706f6f6c000000000060648201526084015b60405180910390fd5b60058751106200012d5760405162461bcd60e51b81526020600482015260346024820152600080516020620093a883398151915260448201527f206d617820342072657761726420746f6b656e730000000000000000000000006064820152608401620000bc565b60058460ff1610620001a35760405162461bcd60e51b81526020600482015260436024820152600080516020620093a883398151915260448201527f206d6178203420746f6b656e7320696e20756e6465726c79696e67204c5020706064820152621bdbdb60ea1b608482015260a401620000bc565b620001d18b600081518110620001bd57620001bd62000f2c565b602002602001015162000ac860201b60201c565b8a600181518110620001e757620001e762000f2c565b60209081029190910101516001600160a01b0390811660a052600a80546001600160a01b031916918a169182179055604051631526fe2760e01b815260048101849052631526fe279060240160c060405180830381865afa15801562000251573d6000803e3d6000fd5b505050506040513d601f19601f8201168201806040525081019062000277919062000f42565b60600151600b80546001600160a01b0319166001600160a01b0390921691909117905589518a90600090620002b057620002b062000f2c565b6020026020010151600360006101000a81548160ff02191690831515021790555081600c8190555089600181518110620002ee57620002ee62000f2c565b60209081029190910101516003805461ff001916610100921515830217908190556012805460ff60a01b1916600160a01b60ff8981169190910291909117909155919004161515600103620003b95760005b87518160ff161015620003b757600d888260ff168151811062000367576200036762000f2c565b60209081029190910181015182546001810184556000938452919092200180546001600160a01b0319166001600160a01b0390921691909117905580620003ae8162001006565b91505062000340565b505b60035460ff161515600103620007eb57601254620003e390600160a01b900460ff16600162001028565b60ff16815114620004635760405162461bcd60e51b815260206004820152604e6024820152600080516020620093a883398151915260448201527f206e6f20636f727265637420616d6f756e74206f66207072696365206665656460648201526d1cc8199bdc881b595d185c1bdbdb60921b608482015260a401620000bc565b600e80546001600160a01b0319166001600160a01b038b811691909117909155604051631526fe2760e01b81526004810184905290891690631526fe279060240160c060405180830381865afa158015620004c2573d6000803e3d6000fd5b505050506040513d601f19601f82011682018060405250810190620004e8919062000f42565b51600f80546001600160a01b03199081166001600160a01b03938416179091556010805482168984161790556012805490911691871691909117905560005b81518160ff1610156200059e576015828260ff16815181106200054e576200054e62000f2c565b60209081029190910181015182546001810184556000938452919092200180546001600160a01b0319166001600160a01b0390921691909117905580620005958162001006565b91505062000527565b50600e5460405163c661065760e01b8152600060048201526001600160a01b0388811692169063c661065790602401602060405180830381865afa158015620005eb573d6000803e3d6000fd5b505050506040513d601f19601f820116820180604052508101906200061191906200104a565b6001600160a01b031603620006c657600e5460405163c661065760e01b8152600160048201526001600160a01b039091169063c661065790602401602060405180830381865afa1580156200066a573d6000803e3d6000fd5b505050506040513d601f19601f820116820180604052508101906200069091906200104a565b601180546001600160a01b0319166001600160a01b0392909216919091179055601380546001600160801b0319169055620007eb565b600e5460405163c661065760e01b8152600160048201526001600160a01b0388811692169063c661065790602401602060405180830381865afa15801562000712573d6000803e3d6000fd5b505050506040513d601f19601f820116820180604052508101906200073891906200104a565b6001600160a01b031603620007eb57600e5460405163c661065760e01b8152600060048201526001600160a01b039091169063c661065790602401602060405180830381865afa15801562000791573d6000803e3d6000fd5b505050506040513d601f19601f82011682018060405250810190620007b791906200104a565b601180546001600160a01b0319166001600160a01b0392909216919091179055601380546001600160801b03191660011790555b60035460ff16151560000362000a67578260ff168151146200089c5760405162461bcd60e51b81526020600482015260686024820152600080516020620093a883398151915260448201527f20706c61696e20706f6f6c3a206e756d626572206f662070726963652066656560648201527f64732073686f756c6420636f72726573706f6e6420746f206e756d626572206f6084820152676620746f6b656e7360c01b60a482015260c401620000bc565b600e80546001600160a01b0319166001600160a01b038b811691909117909155604051631526fe2760e01b81526004810184905290891690631526fe279060240160c060405180830381865afa158015620008fb573d6000803e3d6000fd5b505050506040513d601f19601f8201168201806040525081019062000921919062000f42565b51600f80546001600160a01b0319166001600160a01b0390921691909117905560005b8360ff168160ff16101562000a6557600e5460405163c661065760e01b815260ff831660048201526014916001600160a01b03169063c661065790602401602060405180830381865afa158015620009a0573d6000803e3d6000fd5b505050506040513d601f19601f82011682018060405250810190620009c691906200104a565b81546001810183556000928352602090922090910180546001600160a01b0319166001600160a01b039092169190911790558151601590839060ff841690811062000a155762000a1562000f2c565b60209081029190910181015182546001810184556000938452919092200180546001600160a01b0319166001600160a01b039092169190911790558062000a5c8162001006565b91505062000944565b505b50505050505050505050506200106f565b600080546001600160a01b038381166001600160a01b0319831681178455604051919092169283917f8be0079c531659141344cd1fd0a4f28419497f9722a3daafe3b4186f6b6457e09190a35050565b62000ad262000bc8565b600054600160a01b900460ff161562000b3c5760405162461bcd60e51b815260206004820152602560248201527f5a69766f654f776e61626c654c6f636b65643a3a756e6c6f636b65642829206c6044820152641bd8dad95960da1b6064820152608401620000bc565b6001600160a01b03811662000bba5760405162461bcd60e51b815260206004820152603e60248201527f5a69766f654f776e61626c654c6f636b65643a3a7472616e736665724f776e6560448201527f72736869702829206e65774f776e6572203d3d206164647265737328302900006064820152608401620000bc565b62000bc58162000a78565b50565b6000546001600160a01b0316331462000c4a5760405162461bcd60e51b815260206004820152603760248201527f5a69766f654f776e61626c654c6f636b65643a3a5f636865636b4f776e65722060448201527f6f776e6572282920213d205f6d736753656e64657228290000000000000000006064820152608401620000bc565b565b634e487b7160e01b600052604160045260246000fd5b604051601f8201601f191681016001600160401b038111828210171562000c8d5762000c8d62000c4c565b604052919050565b60006001600160401b0382111562000cb15762000cb162000c4c565b5060051b60200190565b80516001600160a01b038116811462000cd357600080fd5b919050565b600082601f83011262000cea57600080fd5b8151602062000d0362000cfd8362000c95565b62000c62565b82815260059290921b8401810191818101908684111562000d2357600080fd5b8286015b8481101562000d495762000d3b8162000cbb565b835291830191830162000d27565b509695505050505050565b8051801515811462000cd357600080fd5b600082601f83011262000d7757600080fd5b8151602062000d8a62000cfd8362000c95565b82815260059290921b8401810191818101908684111562000daa57600080fd5b8286015b8481101562000d495762000dc28162000d54565b835291830191830162000dae565b805160ff8116811462000cd357600080fd5b60008060008060008060008060008060006101608c8e03121562000e0557600080fd5b8b516001600160401b0381111562000e1c57600080fd5b62000e2a8e828f0162000cd8565b60208e0151909c5090506001600160401b0381111562000e4957600080fd5b62000e578e828f0162000d65565b9a505062000e6860408d0162000cbb565b985062000e7860608d0162000cbb565b60808d01519098506001600160401b0381111562000e9557600080fd5b62000ea38e828f0162000cd8565b97505062000eb460a08d0162000cbb565b955062000ec460c08d0162000cbb565b945062000ed460e08d0162000dd0565b935062000ee56101008d0162000dd0565b6101208d01516101408e015191945092506001600160401b0381111562000f0b57600080fd5b62000f198e828f0162000cd8565b9150509295989b509295989b9093969950565b634e487b7160e01b600052603260045260246000fd5b600060c0828403121562000f5557600080fd5b60405160c081016001600160401b038111828210171562000f7a5762000f7a62000c4c565b60405262000f888362000cbb565b815262000f986020840162000cbb565b602082015262000fab6040840162000cbb565b604082015262000fbe6060840162000cbb565b606082015262000fd16080840162000cbb565b608082015262000fe460a0840162000d54565b60a08201529392505050565b634e487b7160e01b600052601160045260246000fd5b600060ff821660ff81036200101f576200101f62000ff0565b60010192915050565b60ff818116838216019081111562001044576200104462000ff0565b92915050565b6000602082840312156200105d57600080fd5b620010688262000cbb565b9392505050565b60805160a0516182a36200110560003960008181610547015281816108460152818161096e01528181610abd01528181611eba0152818161221e0152818161263601528181612a8a015281816132f501528181614497015281816145b6015281816149ea01528181614ae501528181614d3f0152614e5e0152600081816104b1015281816120560152615b6601526182a36000f3fe608060405234801561001057600080fd5b50600436106103e65760003560e01c8063945c91421161020a578063d9821e3b11610125578063e8d991d1116100b8578063f5a0478511610087578063f5a04785146107fb578063f85fcb1a14610804578063f988dc3f1461080d578063fd76f59d14610816578063ff0459ba1461082957600080fd5b8063e8d991d1146107ae578063eada4cd7146107b6578063f23a6e61146107c9578063f2fde38b146107e857600080fd5b8063dd913bdb116100f4578063dd913bdb146104a5578063e21c81d314610794578063e7f44629146104a5578063e8b5e51f146107a657600080fd5b8063d9821e3b1461073b578063da456cbd1461074e578063da87d2cf14610774578063dbbc65d91461078757600080fd5b8063b3da6b081161019d578063c9c6a4141161016c578063c9c6a41414610701578063cf10b7ab146104a5578063cf30901214610714578063d0991c841461072857600080fd5b8063b3da6b08146106b3578063b892bcc0146106bc578063bc197c81146106cf578063be8d8061146106ee57600080fd5b8063ab2637af116101d9578063ab2637af1461068e578063aeb3264b14610697578063b0607cf8146104a5578063b2c500f0146106a057600080fd5b8063945c9142146106585780639728581c14610673578063a0c9455a1461067b578063a4a3e79d1461056957600080fd5b80633ce8d43211610305578063607cd649116102985780637dbcdbc1116102675780637dbcdbc11461060e57806384476591146106215780638b648ee2146104a55780638da5cb5b146106345780638eef49db1461064557600080fd5b8063607cd649146105d857806364c7773514610569578063715018a6146105eb578063759cb53b146105f357600080fd5b80634d65dd1c116102d45780634d65dd1c1461058c57806358289c7e1461059f5780635e860430146105b25780635edb2ba4146105c557600080fd5b80633ce8d432146105425780633eda81ad14610569578063422b20181461057057806349a5e73b1461058357600080fd5b80631af1ca971161037d578063215cccdd1161034c578063215cccdd146104a55780632dd3d9ef1461052f5780632f08d48b146104a55780633c117244146104a557600080fd5b80631af1ca97146104d35780631d57a7cc146104f35780631d9389e914610509578063210663e41461051c57600080fd5b806315e98744116103b957806315e987441461046757806316f0115b1461047a5780631852b383146104a557806319ce95f4146104ac57600080fd5b806301f505ba146103eb57806301ffc9a7146104005780631205217614610428578063150b7a021461043b575b600080fd5b6103fe6103f9366004617068565b61083c565b005b61041361040e3660046170bc565b610c17565b60405190151581526020015b60405180910390f35b6103fe6104363660046170e6565b610c4e565b61044e610449366004617241565b610cc5565b6040516001600160e01b0319909116815260200161041f565b6103fe6104753660046172f0565b610cd6565b600e5461048d906001600160a01b031681565b6040516001600160a01b03909116815260200161041f565b6000610413565b61048d7f000000000000000000000000000000000000000000000000000000000000000081565b6013546104e090600f0b81565b604051600f9190910b815260200161041f565b6104fb610e47565b60405190815260200161041f565b6103fe6105173660046170e6565b6113b2565b60105461048d906001600160a01b031681565b61048d61053d366004617389565b61141d565b61048d7f000000000000000000000000000000000000000000000000000000000000000081565b6001610413565b6103fe61057e3660046173a2565b611447565b6104fb600c5481565b600a5461048d906001600160a01b031681565b6103fe6105ad36600461744e565b6114b6565b60125461048d906001600160a01b031681565b60115461048d906001600160a01b031681565b6103fe6105e636600461746b565b611591565b6103fe611dae565b61048d734e3fbd56cd56c3e72c1403e103b45db9da5b9d2b81565b6103fe61061c36600461744e565b611dec565b6103fe61062f3660046174ac565b611e4d565b6000546001600160a01b031661048d565b6103fe6106533660046174d8565b611eb0565b61048d73d533a949740bb3306d119cc777fa900ba034cd5281565b6104fb612168565b61048d610689366004617389565b612c6e565b6104fb60045481565b6104fb60025481565b600f5461048d906001600160a01b031681565b6104fb60055481565b6103fe6106ca3660046172f0565b612c7e565b61044e6106dd3660046175b2565b63bc197c8160e01b95945050505050565b6104fb6106fc366004617389565b612de6565b6103fe61070f36600461765f565b612e07565b60005461041390600160a01b900460ff1681565b61048d610736366004617389565b612f35565b6103fe6107493660046174ac565b612f45565b60125461076290600160a01b900460ff1681565b60405160ff909116815260200161041f565b6104fb610782366004617389565b6132db565b6003546104139060ff1681565b60035461041390610100900460ff1681565b6103fe6132eb565b6103fe613e81565b600b5461048d906001600160a01b031681565b61044e6107d7366004617720565b63f23a6e6160e01b95945050505050565b6103fe6107f636600461744e565b6150b1565b6104fb60065481565b6104fb60075481565b6104fb60015481565b6103fe6108243660046173a2565b615168565b6103fe610837366004617788565b6151d5565b6001600160a01b037f000000000000000000000000000000000000000000000000000000000000000016636ba42aaa336040516001600160e01b031960e084901b1681526001600160a01b039091166004820152602401602060405180830381865afa1580156108b0573d6000803e3d6000fd5b505050506040513d601f19601f820116820180604052508101906108d491906177e7565b61096a5760405162461bcd60e51b815260206004820152605660248201527f655f4f43595f4356585f4d6f64756c61723a3a666f72776172645969656c644b60448201527f656570657228292021495a69766f65476c6f62616c735f505f342847424c292e60648201527569734b6565706572285f6d736753656e64657228292960501b608482015260a4015b60405180910390fd5b60007f00000000000000000000000000000000000000000000000000000000000000006001600160a01b03166372d6724a6040518163ffffffff1660e01b8152600401602060405180830381865afa1580156109ca573d6000803e3d6000fd5b505050506040513d601f19601f820116820180604052508101906109ee9190617809565b6001600160a01b0316635df8d1686040518163ffffffff1660e01b8152600401602060405180830381865afa158015610a2b573d6000803e3d6000fd5b505050506040513d601f19601f82011682018060405250810190610a4f9190617809565b9050600073d533a949740bb3306d119cc777fa900ba034cd51196001600160a01b03861601610a815750600654610aab565b734e3fbd56cd56c3e72c1403e103b45db9da5b9d2a196001600160a01b03861601610aab57506007545b610ab885838387876152cc565b610bb67f00000000000000000000000000000000000000000000000000000000000000006001600160a01b03166372d6724a6040518163ffffffff1660e01b8152600401602060405180830381865afa158015610b19573d6000803e3d6000fd5b505050506040513d601f19601f82011682018060405250810190610b3d9190617809565b6040516370a0823160e01b81523060048201526001600160a01b038516906370a0823190602401602060405180830381865afa158015610b81573d6000803e3d6000fd5b505050506040513d601f19601f82011682018060405250810190610ba59190617826565b6001600160a01b03851691906152d9565b73d533a949740bb3306d119cc777fa900ba034cd51196001600160a01b03861601610be5576000600655610c10565b734e3fbd56cd56c3e72c1403e103b45db9da5b9d2a196001600160a01b03861601610c105760006007555b5050505050565b60006001600160e01b03198216630271189760e51b1480610c4857506301ffc9a760e01b6001600160e01b03198316145b92915050565b610c56615341565b60405162461bcd60e51b815260206004820152603460248201527f5a69766f654c6f636b65723a3a70756c6c46726f6d4c6f636b65724552433732604482015273312829202163616e50756c6c455243373231282960601b6064820152608401610961565b5050505050505050565b630a85bd0160e11b5b949350505050565b610cde615341565b60405162461bcd60e51b815260206004820152603e60248201527f5a69766f654c6f636b65723a3a70756c6c46726f6d4c6f636b65724d756c746960448201527f4552433732312829202163616e50756c6c4d756c7469455243373231282900006064820152608401610961565b85811015610e3e57868682818110610d6657610d6661789c565b9050602002016020810190610d7b919061744e565b6001600160a01b031663b88d4fde30610d9c6000546001600160a01b031690565b888886818110610dae57610dae61789c565b90506020020135878787818110610dc757610dc761789c565b9050602002810190610dd991906178b2565b6040518663ffffffff1660e01b8152600401610df9959493929190617868565b600060405180830381600087803b158015610e1357600080fd5b505af1158015610e27573d6000803e3d6000fd5b505050508080610e369061790e565b915050610d4c565b50505050505050565b600b546040516370a0823160e01b815230600482015260009182916001600160a01b03909116906370a0823190602401602060405180830381865afa158015610e94573d6000803e3d6000fd5b505050506040513d601f19601f82011682018060405250810190610eb89190617826565b60035490915060ff16151560010361109b57600e5460135460405163cc2b27d760e01b815260048101849052600f9190910b60248201526000916001600160a01b03169063cc2b27d790604401602060405180830381865afa158015610f22573d6000803e3d6000fd5b505050506040513d601f19601f82011682018060405250810190610f469190617826565b905060006015600081548110610f5e57610f5e61789c565b9060005260206000200160009054906101000a90046001600160a01b03166001600160a01b031663feaf968c6040518163ffffffff1660e01b815260040160a060405180830381865afa158015610fb9573d6000803e3d6000fd5b505050506040513d601f19601f82011682018060405250810190610fdd9190617941565b5050509150506000811215610ff157600080fd5b60156000815481106110055761100561789c565b600091825260209182902001546040805163313ce56760e01b815290516001600160a01b039092169263313ce567926004808401938290030181865afa158015611053573d6000803e3d6000fd5b505050506040513d601f19601f820116820180604052508101906110779190617991565b61108290600a617a98565b61108c8383617aa7565b6110969190617ac6565b935050505b60035460ff1615156000036113ae576014546000906001600160401b038111156110c7576110c7617141565b6040519080825280602002602001820160405280156110f0578160200160208202803683370190505b50905060005b60145460ff821610156111d25760158160ff16815481106111195761111961789c565b9060005260206000200160009054906101000a90046001600160a01b03166001600160a01b031663feaf968c6040518163ffffffff1660e01b815260040160a060405180830381865afa158015611174573d6000803e3d6000fd5b505050506040513d601f19601f820116820180604052508101906111989190617941565b50508451919250849160ff8516915081106111b5576111b561789c565b6020908102919091010152806111ca81617ae8565b9150506110f6565b506000816000815181106111e8576111e861789c565b60200260200101519050600080600190505b8351816001600160801b03161015611271578284826001600160801b0316815181106112285761122861789c565b6020026020010151121561125f5783816001600160801b0316815181106112515761125161789c565b602002602001015192508091505b8061126981617b07565b9150506111fa565b50600082121561128057600080fd5b600e5460405163cc2b27d760e01b815260048101869052600f83900b60248201526000916001600160a01b03169063cc2b27d790604401602060405180830381865afa1580156112d4573d6000803e3d6000fd5b505050506040513d601f19601f820116820180604052508101906112f89190617826565b90506015826001600160801b0316815481106113165761131661789c565b600091825260209182902001546040805163313ce56760e01b815290516001600160a01b039092169263313ce567926004808401938290030181865afa158015611364573d6000803e3d6000fd5b505050506040513d601f19601f820116820180604052508101906113889190617991565b61139390600a617a98565b61139d8285617aa7565b6113a79190617ac6565b9550505050505b5090565b6113ba615341565b60405162461bcd60e51b815260206004820152603260248201527f5a69766f654c6f636b65723a3a70757368546f4c6f636b65724552433732312860448201527129202163616e50757368455243373231282960701b6064820152608401610961565b6015818154811061142d57600080fd5b6000918252602090912001546001600160a01b0316905081565b61144f615341565b60405162461bcd60e51b815260206004820152603660248201527f5a69766f654c6f636b65723a3a70756c6c46726f6d4c6f636b6572455243313160448201527535352829202163616e50756c6c45524331313535282960501b6064820152608401610961565b6114be615341565b600054600160a01b900460ff16156114e85760405162461bcd60e51b815260040161096190617b2d565b6001600160a01b0381166115725760405162461bcd60e51b815260206004820152604560248201527f5a69766f654f776e61626c654c6f636b65643a3a7472616e736665724f776e6560448201527f7273686970416e644c6f636b2829206e65774f776e6572203d3d206164647265606482015264737328302960d81b608482015260a401610961565b6000805460ff60a01b1916600160a01b17905561158e816153c1565b50565b611599615341565b60035460ff16151560010361182c576010546001600160a01b031682826000816115c5576115c561789c565b90506020020160208101906115da919061744e565b6001600160a01b03161480156115f05750600181145b61165f5760405162461bcd60e51b815260206004820152604660248201526000805160206181ce83398151915260448201527f724d756c74692829206173736574206e6f7420657175616c20746f20424153456064820152652faa27a5a2a760d11b608482015260a401610961565b600b546040516324f81cd160e11b8152600160048201526001600160a01b03909116906349f039a290602401600060405180830381600087803b1580156116a557600080fd5b505af11580156116b9573d6000803e3d6000fd5b5050600e54600f546040516370a0823160e01b81523060048201526001600160a01b039283169450631a4d01d293509116906370a0823190602401602060405180830381865afa158015611711573d6000803e3d6000fd5b505050506040513d601f19601f820116820180604052508101906117359190617826565b60135460405160e084901b6001600160e01b03191681526004810192909252600f0b602482015260006044820152606401600060405180830381600087803b15801561178057600080fd5b505af1158015611794573d6000803e3d6000fd5b5050505061182c6117ad6000546001600160a01b031690565b6010546040516370a0823160e01b81523060048201526001600160a01b03909116906370a0823190602401602060405180830381865afa1580156117f5573d6000803e3d6000fd5b505050506040513d601f19601f820116820180604052508101906118199190617826565b6010546001600160a01b031691906152d9565b60035460ff1615156000036119c85760005b60145460ff8216101561195f5760148160ff16815481106118615761186161789c565b6000918252602090912001546001600160a01b0316838360ff841681811061188b5761188b61789c565b90506020020160208101906118a0919061744e565b6001600160a01b03161461194d5760405162461bcd60e51b815260206004820152607460248201526000805160206181ce83398151915260448201527f724d756c746928292061737365747320696e7075742061727261792073686f7560648201527f6c6420626520657175616c20746f2050505f544f4b454e53206172726179206160848201527337321034b7103a34329039b0b6b29037b93232b960611b60a482015260c401610961565b8061195781617ae8565b91505061183e565b50600b546040516324f81cd160e11b8152600160048201526001600160a01b03909116906349f039a290602401600060405180830381600087803b1580156119a657600080fd5b505af11580156119ba573d6000803e3d6000fd5b505050506119c86001615411565b6040516370a0823160e01b815230600482015260009073d533a949740bb3306d119cc777fa900ba034cd52906370a0823190602401602060405180830381865afa158015611a1a573d6000803e3d6000fd5b505050506040513d601f19601f82011682018060405250810190611a3e9190617826565b1115611ae857611ae8611a596000546001600160a01b031690565b6040516370a0823160e01b815230600482015273d533a949740bb3306d119cc777fa900ba034cd52906370a0823190602401602060405180830381865afa158015611aa8573d6000803e3d6000fd5b505050506040513d601f19601f82011682018060405250810190611acc9190617826565b73d533a949740bb3306d119cc777fa900ba034cd5291906152d9565b6040516370a0823160e01b8152306004820152600090734e3fbd56cd56c3e72c1403e103b45db9da5b9d2b906370a0823190602401602060405180830381865afa158015611b3a573d6000803e3d6000fd5b505050506040513d601f19601f82011682018060405250810190611b5e9190617826565b1115611c0857611c08611b796000546001600160a01b031690565b6040516370a0823160e01b8152306004820152734e3fbd56cd56c3e72c1403e103b45db9da5b9d2b906370a0823190602401602060405180830381865afa158015611bc8573d6000803e3d6000fd5b505050506040513d601f19601f82011682018060405250810190611bec9190617826565b734e3fbd56cd56c3e72c1403e103b45db9da5b9d2b91906152d9565b600354610100900460ff161515600103611da55760005b600d5460ff82161015611da3576000600d8260ff1681548110611c4457611c4461789c565b6000918252602090912001546040516370a0823160e01b81523060048201526001600160a01b03909116906370a0823190602401602060405180830381865afa158015611c95573d6000803e3d6000fd5b505050506040513d601f19601f82011682018060405250810190611cb99190617826565b1115611d9157611d91611cd46000546001600160a01b031690565b600d8360ff1681548110611cea57611cea61789c565b6000918252602090912001546040516370a0823160e01b81523060048201526001600160a01b03909116906370a0823190602401602060405180830381865afa158015611d3b573d6000803e3d6000fd5b505050506040513d601f19601f82011682018060405250810190611d5f9190617826565b600d8460ff1681548110611d7557611d7561789c565b6000918252602090912001546001600160a01b031691906152d9565b80611d9b81617ae8565b915050611c1f565b505b50506000600455565b611db6615341565b600054600160a01b900460ff1615611de05760405162461bcd60e51b815260040161096190617b2d565b611dea60006153c1565b565b611df4615341565b60405162461bcd60e51b815260206004820152602860248201527f5a69766f654c6f636b65723a3a70756c6c46726f6d4c6f636b65722829202163604482015267616e50756c6c282960c01b6064820152608401610961565b611e55615341565b60405162461bcd60e51b815260206004820152602660248201527f5a69766f654c6f636b65723a3a70757368546f4c6f636b65722829202163616e60448201526550757368282960d01b6064820152608401610961565b5050565b6001600160a01b037f000000000000000000000000000000000000000000000000000000000000000016636ba42aaa336040516001600160e01b031960e084901b1681526001600160a01b039091166004820152602401602060405180830381865afa158015611f24573d6000803e3d6000fd5b505050506040513d601f19601f82011682018060405250810190611f4891906177e7565b611f5157600080fd5b60035460ff161515600103611f98576010546001600160a01b038481169116148015611f8f5750826001600160a01b0316846001600160a01b031614155b611f9857600080fd5b60035460ff16151560000361203d576000805b60145460ff8216101561200d57846001600160a01b031660148260ff1681548110611fd857611fd861789c565b6000918252602090912001546001600160a01b031603611ffb576001915061200d565b8061200581617ae8565b915050611fab565b5060018115151480156120325750836001600160a01b0316856001600160a01b031614155b61203b57600080fd5b505b6040516370a0823160e01b81523060048201526120dc907f0000000000000000000000000000000000000000000000000000000000000000906001600160a01b038716906370a0823190602401602060405180830381865afa1580156120a7573d6000803e3d6000fd5b505050506040513d601f19601f820116820180604052508101906120cb9190617826565b6001600160a01b0387169190615874565b6040516370a0823160e01b815230600482015261215390859085906001600160a01b038316906370a0823190602401602060405180830381865afa158015612128573d6000803e3d6000fd5b505050506040513d601f19601f8201168201806040525081019061214c9190617826565b85856152cc565b61215f4261a8c0617b72565b60025550505050565b60035460009060ff1615156001036128fe57601054600e546040516370a0823160e01b81526001600160a01b03918216600482015260009291909116906370a0823190602401602060405180830381865afa1580156121cb573d6000803e3d6000fd5b505050506040513d601f19601f820116820180604052508101906121ef9190617826565b60105460405163dc3c1da560e01b8152600481018390526001600160a01b0391821660248201529192506000917f00000000000000000000000000000000000000000000000000000000000000009091169063dc3c1da590604401602060405180830381865afa158015612267573d6000803e3d6000fd5b505050506040513d601f19601f8201168201806040525081019061228b9190617826565b601154600e546040516370a0823160e01b81526001600160a01b0391821660048201529293506000929116906370a0823190602401602060405180830381865afa1580156122dd573d6000803e3d6000fd5b505050506040513d601f19601f820116820180604052508101906123019190617826565b9050600060156000815481106123195761231961789c565b9060005260206000200160009054906101000a90046001600160a01b03166001600160a01b031663feaf968c6040518163ffffffff1660e01b815260040160a060405180830381865afa158015612374573d6000803e3d6000fd5b505050506040513d601f19601f820116820180604052508101906123989190617941565b50505091505060008112156123ac57600080fd5b600060156000815481106123c2576123c261789c565b600091825260209182902001546040805163313ce56760e01b815290516001600160a01b039092169263313ce567926004808401938290030181865afa158015612410573d6000803e3d6000fd5b505050506040513d601f19601f820116820180604052508101906124349190617991565b61243f90600a617a98565b6124498386617aa7565b6124539190617ac6565b90506000805b60125460ff600160a01b909104811690821610156127795760125460405163c661065760e01b815260ff831660048201526000916001600160a01b03169063c661065790602401602060405180830381865afa1580156124bd573d6000803e3d6000fd5b505050506040513d601f19601f820116820180604052508101906124e19190617809565b601254604051634903b0d160e01b815260ff851660048201529192506000916001600160a01b0390911690634903b0d190602401602060405180830381865afa158015612532573d6000803e3d6000fd5b505050506040513d601f19601f820116820180604052508101906125569190617826565b905060006015612567856001617b85565b60ff168154811061257a5761257a61789c565b9060005260206000200160009054906101000a90046001600160a01b03166001600160a01b031663feaf968c6040518163ffffffff1660e01b815260040160a060405180830381865afa1580156125d5573d6000803e3d6000fd5b505050506040513d601f19601f820116820180604052508101906125f99190617941565b505050915050600081121561260d57600080fd5b60405163dc3c1da560e01b8152600481018390526001600160a01b0384811660248301526000917f00000000000000000000000000000000000000000000000000000000000000009091169063dc3c1da590604401602060405180830381865afa15801561267f573d6000803e3d6000fd5b505050506040513d601f19601f820116820180604052508101906126a39190617826565b905060156126b2866001617b85565b60ff16815481106126c5576126c561789c565b600091825260209182902001546040805163313ce56760e01b815290516001600160a01b039092169263313ce567926004808401938290030181865afa158015612713573d6000803e3d6000fd5b505050506040513d601f19601f820116820180604052508101906127379190617991565b61274290600a617a98565b61274c8383617aa7565b6127569190617ac6565b6127609087617b72565b955050505050808061277190617ae8565b915050612459565b506000633b9aca00601160009054906101000a90046001600160a01b03166001600160a01b03166318160ddd6040518163ffffffff1660e01b8152600401602060405180830381865afa1580156127d4573d6000803e3d6000fd5b505050506040513d601f19601f820116820180604052508101906127f89190617826565b6128029190617ac6565b61281083633b9aca00617aa7565b61281a9190617ac6565b9050600061282c633b9aca0087617ac6565b61283a633b9aca0084617ac6565b6128449190617aa7565b61284e9085617b72565b90506000633b9aca00600f60009054906101000a90046001600160a01b03166001600160a01b03166318160ddd6040518163ffffffff1660e01b8152600401602060405180830381865afa1580156128aa573d6000803e3d6000fd5b505050506040513d601f19601f820116820180604052508101906128ce9190617826565b6128d89190617ac6565b6128e683633b9aca00617aa7565b6128f09190617ac6565b9a9950505050505050505050565b60035460ff161515600003612c6b576000805b60145460ff82161015612bc357600060148260ff16815481106129365761293661789c565b6000918252602082200154600e54604051634903b0d160e01b815260ff861660048201526001600160a01b039283169450911690634903b0d190602401602060405180830381865afa158015612990573d6000803e3d6000fd5b505050506040513d601f19601f820116820180604052508101906129b49190617826565b9050600060158460ff16815481106129ce576129ce61789c565b9060005260206000200160009054906101000a90046001600160a01b03166001600160a01b031663feaf968c6040518163ffffffff1660e01b815260040160a060405180830381865afa158015612a29573d6000803e3d6000fd5b505050506040513d601f19601f82011682018060405250810190612a4d9190617941565b5050509150506000811215612a6157600080fd5b60405163dc3c1da560e01b8152600481018390526001600160a01b0384811660248301526000917f00000000000000000000000000000000000000000000000000000000000000009091169063dc3c1da590604401602060405180830381865afa158015612ad3573d6000803e3d6000fd5b505050506040513d601f19601f82011682018060405250810190612af79190617826565b905060158560ff1681548110612b0f57612b0f61789c565b600091825260209182902001546040805163313ce56760e01b815290516001600160a01b039092169263313ce567926004808401938290030181865afa158015612b5d573d6000803e3d6000fd5b505050506040513d601f19601f82011682018060405250810190612b819190617991565b612b8c90600a617a98565b612b968383617aa7565b612ba09190617ac6565b612baa9087617b72565b9550505050508080612bbb90617ae8565b915050612911565b506000633b9aca00600f60009054906101000a90046001600160a01b03166001600160a01b03166318160ddd6040518163ffffffff1660e01b8152600401602060405180830381865afa158015612c1e573d6000803e3d6000fd5b505050506040513d601f19601f82011682018060405250810190612c429190617826565b612c4c9190617ac6565b612c5a83633b9aca00617aa7565b612c649190617ac6565b9392505050565b90565b600d818154811061142d57600080fd5b612c86615341565b60405162461bcd60e51b815260206004820152603c60248201527f5a69766f654c6f636b65723a3a70757368546f4c6f636b65724d756c7469455260448201527f433732312829202163616e507573684d756c74694552433732312829000000006064820152608401610961565b85811015610e3e57868682818110612d0e57612d0e61789c565b9050602002016020810190612d23919061744e565b6001600160a01b031663b88d4fde612d436000546001600160a01b031690565b30888886818110612d5657612d5661789c565b90506020020135878787818110612d6f57612d6f61789c565b9050602002810190612d8191906178b2565b6040518663ffffffff1660e01b8152600401612da1959493929190617868565b600060405180830381600087803b158015612dbb57600080fd5b505af1158015612dcf573d6000803e3d6000fd5b505050508080612dde9061790e565b915050612cf4565b60088181548110612df657600080fd5b600091825260209091200154905081565b612e0f615341565b600482511115612e7d5760405162461bcd60e51b815260206004820152603360248201527f655f4f43595f4356585f4d6f64756c61723a3a70757368546f4c6f636b6572286044820152720a48185cdcd95d1ccb9b195b99dd1a080f880d606a1b6064820152608401610961565b60005b8251811015612f20576000828281518110612e9d57612e9d61789c565b60200260200101511115612f0e57612f0e612ec06000546001600160a01b031690565b30848481518110612ed357612ed361789c565b6020026020010151868581518110612eed57612eed61789c565b60200260200101516001600160a01b0316615836909392919063ffffffff16565b80612f188161790e565b915050612e80565b50612f2e4262015180617b72565b6002555050565b6014818154811061142d57600080fd5b612f4d615341565b600b546001600160a01b03838116911614612fdb5760405162461bcd60e51b815260206004820152605460248201526000805160206181ce83398151915260448201527f725061727469616c282920636f6e7665785265776172644164647265737320216064820152733d204356585f5265776172645f4164647265737360601b608482015260a401610961565b600b546040516370a0823160e01b81523060048201526001600160a01b03909116906370a0823190602401602060405180830381865afa158015613023573d6000803e3d6000fd5b505050506040513d601f19601f820116820180604052508101906130479190617826565b811080156130555750600081115b6131015760405162461bcd60e51b815260206004820152607c60248201526000805160206181ce83398151915260448201527f725061727469616c2829204c5020746f6b656e20616d6f756e7420746f20776960648201527f7468647261772073686f756c64206265206c657373207468616e206c6f636b6560848201527f722062616c616e636520616e642067726561746572207468616e20300000000060a482015260c401610961565b60045461310c610e47565b111561313e5760045461311d610e47565b6131279190617b9e565b600560008282546131389190617b72565b90915550505b600b54604051636197390160e11b815260048101839052600060248201526001600160a01b039091169063c32e7202906044016020604051808303816000875af1158015613190573d6000803e3d6000fd5b505050506040513d601f19601f820116820180604052508101906131b491906177e7565b5060035460ff1615156001036132b357600e54600f546040516370a0823160e01b81523060048201526001600160a01b0392831692631a4d01d29216906370a0823190602401602060405180830381865afa158015613217573d6000803e3d6000fd5b505050506040513d601f19601f8201168201806040525081019061323b9190617826565b60135460405160e084901b6001600160e01b03191681526004810192909252600f0b602482015260006044820152606401600060405180830381600087803b15801561328657600080fd5b505af115801561329a573d6000803e3d6000fd5b505050506132b36117ad6000546001600160a01b031690565b60035460ff1615156000036132cc576132cc6001615411565b6132d4610e47565b6004555050565b60098181548110612df657600080fd5b6001600160a01b037f000000000000000000000000000000000000000000000000000000000000000016636ba42aaa336040516001600160e01b031960e084901b1681526001600160a01b039091166004820152602401602060405180830381865afa15801561335f573d6000803e3d6000fd5b505050506040513d601f19601f8201168201806040525081019061338391906177e7565b6133e95742600254106133e95760405162461bcd60e51b815260206004820152602860248201527f74696d656c6f636b202d207265737472696374656420746f206b65657065727360448201526720666f72206e6f7760c01b6064820152608401610961565b600060045460001461342d576133fd610e47565b905060045481111561342d576004546134169082617b9e565b600560008282546134279190617b72565b90915550505b600154600003613448576134444262278d00617b72565b6001555b60035460ff1615156001036137495761345f616f4a565b601054600e5460405163c661065760e01b8152600060048201526001600160a01b03928316929091169063c661065790602401602060405180830381865afa1580156134af573d6000803e3d6000fd5b505050506040513d601f19601f820116820180604052508101906134d39190617809565b6001600160a01b031603613554576010546040516370a0823160e01b81523060048201526001600160a01b03909116906370a0823190602401602060405180830381865afa158015613529573d6000803e3d6000fd5b505050506040513d601f19601f8201168201806040525081019061354d9190617826565b8152613648565b601054600e5460405163c661065760e01b8152600160048201526001600160a01b03928316929091169063c661065790602401602060405180830381865afa1580156135a4573d6000803e3d6000fd5b505050506040513d601f19601f820116820180604052508101906135c89190617809565b6001600160a01b031603613648576010546040516370a0823160e01b81523060048201526001600160a01b03909116906370a0823190602401602060405180830381865afa15801561361e573d6000803e3d6000fd5b505050506040513d601f19601f820116820180604052508101906136429190617826565b60208201525b600e546010546040516370a0823160e01b81523060048201526136d0926001600160a01b039081169216906370a0823190602401602060405180830381865afa158015613699573d6000803e3d6000fd5b505050506040513d601f19601f820116820180604052508101906136bd9190617826565b6010546001600160a01b03169190615874565b600e54604051630b4c7e4d60e01b81526001600160a01b0390911690630b4c7e4d90613703908490600090600401617bd4565b6020604051808303816000875af1158015613722573d6000803e3d6000fd5b505050506040513d601f19601f820116820180604052508101906137469190617826565b50505b60035460ff161515600003613df257601454600203613a155761376a616f4a565b60005b60145460ff821610156139975760148160ff16815481106137905761379061789c565b6000918252602090912001546040516370a0823160e01b81523060048201526001600160a01b03909116906370a0823190602401602060405180830381865afa1580156137e1573d6000803e3d6000fd5b505050506040513d601f19601f820116820180604052508101906138059190617826565b828260ff166002811061381a5761381a61789c565b6020020152601480546000919060ff841690811061383a5761383a61789c565b6000918252602090912001546040516370a0823160e01b81523060048201526001600160a01b03909116906370a0823190602401602060405180830381865afa15801561388b573d6000803e3d6000fd5b505050506040513d601f19601f820116820180604052508101906138af9190617826565b111561398557600e5460148054613985926001600160a01b0316919060ff85169081106138de576138de61789c565b6000918252602090912001546040516370a0823160e01b81523060048201526001600160a01b03909116906370a0823190602401602060405180830381865afa15801561392f573d6000803e3d6000fd5b505050506040513d601f19601f820116820180604052508101906139539190617826565b60148460ff16815481106139695761396961789c565b6000918252602090912001546001600160a01b03169190615874565b8061398f81617ae8565b91505061376d565b50600e54604051630b4c7e4d60e01b81526001600160a01b0390911690630b4c7e4d906139cb908490600090600401617bd4565b6020604051808303816000875af11580156139ea573d6000803e3d6000fd5b505050506040513d601f19601f82011682018060405250810190613a0e9190617826565b5050613df2565b601454600303613be157613a27616f68565b60005b60145460ff82161015613bad5760148160ff1681548110613a4d57613a4d61789c565b6000918252602090912001546040516370a0823160e01b81523060048201526001600160a01b03909116906370a0823190602401602060405180830381865afa158015613a9e573d6000803e3d6000fd5b505050506040513d601f19601f82011682018060405250810190613ac29190617826565b828260ff1660038110613ad757613ad761789c565b6020020152601480546000919060ff8416908110613af757613af761789c565b6000918252602090912001546040516370a0823160e01b81523060048201526001600160a01b03909116906370a0823190602401602060405180830381865afa158015613b48573d6000803e3d6000fd5b505050506040513d601f19601f82011682018060405250810190613b6c9190617826565b1115613b9b57600e5460148054613b9b926001600160a01b0316919060ff85169081106138de576138de61789c565b80613ba581617ae8565b915050613a2a565b50600e54604051634515cef360e01b81526001600160a01b0390911690634515cef3906139cb908490600090600401617c12565b601454600403613df257613bf3616f86565b60005b60145460ff82161015613d795760148160ff1681548110613c1957613c1961789c565b6000918252602090912001546040516370a0823160e01b81523060048201526001600160a01b03909116906370a0823190602401602060405180830381865afa158015613c6a573d6000803e3d6000fd5b505050506040513d601f19601f82011682018060405250810190613c8e9190617826565b828260ff1660048110613ca357613ca361789c565b6020020152601480546000919060ff8416908110613cc357613cc361789c565b6000918252602090912001546040516370a0823160e01b81523060048201526001600160a01b03909116906370a0823190602401602060405180830381865afa158015613d14573d6000803e3d6000fd5b505050506040513d601f19601f82011682018060405250810190613d389190617826565b1115613d6757600e5460148054613d67926001600160a01b0316919060ff85169081106138de576138de61789c565b80613d7181617ae8565b915050613bf6565b50600e5460405162a6cbcd60e21b81526001600160a01b039091169063029b2f3490613dac908490600090600401617c50565b6020604051808303816000875af1158015613dcb573d6000803e3d6000fd5b505050506040513d601f19601f82011682018060405250810190613def9190617826565b50505b613dfa615989565b6000613e04610e47565b9050818111613e7b5760405162461bcd60e51b815260206004820152603960248201527f4f43595f414e474c453a3a70757368546f4c6f636b65724d756c74692829207060448201527f6f7374426173656c696e65203c20707265426173656c696e65000000000000006064820152608401610961565b60045550565b6001544211613e8f57600080fd5b613e9c4262278d00617b72565b6001556040516370a0823160e01b815230600482015260009073d533a949740bb3306d119cc777fa900ba034cd52906370a0823190602401602060405180830381865afa158015613ef1573d6000803e3d6000fd5b505050506040513d601f19601f82011682018060405250810190613f159190617826565b6040516370a0823160e01b8152306004820152909150600090734e3fbd56cd56c3e72c1403e103b45db9da5b9d2b906370a0823190602401602060405180830381865afa158015613f6a573d6000803e3d6000fd5b505050506040513d601f19601f82011682018060405250810190613f8e9190617826565b600354909150606090819060ff1615156001036140535760408051600180825281830190925260009160208083019080368337019050506010546040516370a0823160e01b81523060048201529192506001600160a01b0316906370a0823190602401602060405180830381865afa15801561400e573d6000803e3d6000fd5b505050506040513d601f19601f820116820180604052508101906140329190617826565b816000815181106140455761404561789c565b602090810291909101015291505b60035460ff16151560000361417c576014546000906001600160401b0381111561407f5761407f617141565b6040519080825280602002602001820160405280156140a8578160200160208202803683370190505b50905060005b60145460ff821610156141785760148160ff16815481106140d1576140d161789c565b6000918252602090912001546040516370a0823160e01b81523060048201526001600160a01b03909116906370a0823190602401602060405180830381865afa158015614122573d6000803e3d6000fd5b505050506040513d601f19601f820116820180604052508101906141469190617826565b828260ff168151811061415b5761415b61789c565b60209081029190910101528061417081617ae8565b9150506140ae565b5091505b600354610100900460ff1615156001036142aa57600d546000906001600160401b038111156141ad576141ad617141565b6040519080825280602002602001820160405280156141d6578160200160208202803683370190505b50905060005b600d5460ff821610156142a657600d8160ff16815481106141ff576141ff61789c565b6000918252602090912001546040516370a0823160e01b81523060048201526001600160a01b03909116906370a0823190602401602060405180830381865afa158015614250573d6000803e3d6000fd5b505050506040513d601f19601f820116820180604052508101906142749190617826565b828260ff16815181106142895761428961789c565b60209081029190910101528061429e81617ae8565b9150506141dc565b5090505b600b60009054906101000a90046001600160a01b03166001600160a01b0316633d18b9126040518163ffffffff1660e01b81526004016020604051808303816000875af11580156142ff573d6000803e3d6000fd5b505050506040513d601f19601f8201168201806040525081019061432391906177e7565b506040516370a0823160e01b8152306004820152849073d533a949740bb3306d119cc777fa900ba034cd52906370a0823190602401602060405180830381865afa158015614375573d6000803e3d6000fd5b505050506040513d601f19601f820116820180604052508101906143999190617826565b6143a39190617b9e565b6006556040516370a0823160e01b81523060048201528390734e3fbd56cd56c3e72c1403e103b45db9da5b9d2b906370a0823190602401602060405180830381865afa1580156143f7573d6000803e3d6000fd5b505050506040513d601f19601f8201168201806040525081019061441b9190617826565b6144259190617b9e565b600755600354610100900460ff1615156001036147ea57600d546000906001600160401b0381111561445957614459617141565b604051908082528060200260200182016040528015614482578160200160208202803683370190505b50905060005b600d5460ff821610156147d3577f00000000000000000000000000000000000000000000000000000000000000006001600160a01b03166372d6724a6040518163ffffffff1660e01b8152600401602060405180830381865afa1580156144f3573d6000803e3d6000fd5b505050506040513d601f19601f820116820180604052508101906145179190617809565b6001600160a01b0316635df8d1686040518163ffffffff1660e01b8152600401602060405180830381865afa158015614554573d6000803e3d6000fd5b505050506040513d601f19601f820116820180604052508101906145789190617809565b6001600160a01b0316600d8260ff16815481106145975761459761789c565b6000918252602090912001546001600160a01b0316036146ed576146e87f00000000000000000000000000000000000000000000000000000000000000006001600160a01b03166372d6724a6040518163ffffffff1660e01b8152600401602060405180830381865afa158015614612573d6000803e3d6000fd5b505050506040513d601f19601f820116820180604052508101906146369190617809565b848360ff168151811061464b5761464b61789c565b6020026020010151600d8460ff16815481106146695761466961789c565b6000918252602090912001546040516370a0823160e01b81523060048201526001600160a01b03909116906370a0823190602401602060405180830381865afa1580156146ba573d6000803e3d6000fd5b505050506040513d601f19601f820116820180604052508101906146de9190617826565b611d5f9190617b9e565b6147c1565b828160ff16815181106147025761470261789c565b6020026020010151600d8260ff16815481106147205761472061789c565b6000918252602090912001546040516370a0823160e01b81523060048201526001600160a01b03909116906370a0823190602401602060405180830381865afa158015614771573d6000803e3d6000fd5b505050506040513d601f19601f820116820180604052508101906147959190617826565b61479f9190617b9e565b828260ff16815181106147b4576147b461789c565b6020026020010181815250505b806147cb81617ae8565b915050614488565b5080516147e7906008906020840190616fa4565b50505b60006147f4610e47565b9050600454600554826148079190617b72565b1115610c10576000600554600454836148209190617b9e565b61482a9190617b72565b90506000633b9aca0061483b612168565b6148459190617ac6565b905060008161485884633b9aca00617aa7565b6148629190617ac6565b600b54604051636197390160e11b815260048101839052600060248201529192506001600160a01b03169063c32e7202906044016020604051808303816000875af11580156148b5573d6000803e3d6000fd5b505050506040513d601f19601f820116820180604052508101906148d991906177e7565b5060035460ff161515600103614ccb576040805160018082528183019092526000916020808301908036833701905050600e54600f546040516370a0823160e01b81523060048201529293506001600160a01b0391821692631a4d01d292909116906370a0823190602401602060405180830381865afa158015614961573d6000803e3d6000fd5b505050506040513d601f19601f820116820180604052508101906149859190617826565b60135460405160e084901b6001600160e01b03191681526004810192909252600f0b602482015260006044820152606401600060405180830381600087803b1580156149d057600080fd5b505af11580156149e4573d6000803e3d6000fd5b505050507f00000000000000000000000000000000000000000000000000000000000000006001600160a01b03166372d6724a6040518163ffffffff1660e01b8152600401602060405180830381865afa158015614a46573d6000803e3d6000fd5b505050506040513d601f19601f82011682018060405250810190614a6a9190617809565b6001600160a01b0316635df8d1686040518163ffffffff1660e01b8152600401602060405180830381865afa158015614aa7573d6000803e3d6000fd5b505050506040513d601f19601f82011682018060405250810190614acb9190617809565b6010546001600160a01b03918216911603614bfe57614bf97f00000000000000000000000000000000000000000000000000000000000000006001600160a01b03166372d6724a6040518163ffffffff1660e01b8152600401602060405180830381865afa158015614b41573d6000803e3d6000fd5b505050506040513d601f19601f82011682018060405250810190614b659190617809565b88600081518110614b7857614b7861789c565b60209081029190910101516010546040516370a0823160e01b81523060048201526001600160a01b03909116906370a0823190602401602060405180830381865afa158015614bcb573d6000803e3d6000fd5b505050506040513d601f19601f82011682018060405250810190614bef9190617826565b6118199190617b9e565b614cc9565b86600081518110614c1157614c1161789c565b60209081029190910101516010546040516370a0823160e01b81523060048201526001600160a01b03909116906370a0823190602401602060405180830381865afa158015614c64573d6000803e3d6000fd5b505050506040513d601f19601f82011682018060405250810190614c889190617826565b614c929190617b9e565b81600081518110614ca557614ca561789c565b6020026020010181815250508060099080519060200190614cc7929190616fa4565b505b505b60035460ff161515600003610cbb576014546000906001600160401b03811115614cf757614cf7617141565b604051908082528060200260200182016040528015614d20578160200160208202803683370190505b509050614d2d6000615411565b60005b60145460ff82161015615091577f00000000000000000000000000000000000000000000000000000000000000006001600160a01b03166372d6724a6040518163ffffffff1660e01b8152600401602060405180830381865afa158015614d9b573d6000803e3d6000fd5b505050506040513d601f19601f82011682018060405250810190614dbf9190617809565b6001600160a01b0316635df8d1686040518163ffffffff1660e01b8152600401602060405180830381865afa158015614dfc573d6000803e3d6000fd5b505050506040513d601f19601f82011682018060405250810190614e209190617809565b6001600160a01b031660148260ff1681548110614e3f57614e3f61789c565b6000918252602090912001546001600160a01b031603614fab57614fa67f00000000000000000000000000000000000000000000000000000000000000006001600160a01b03166372d6724a6040518163ffffffff1660e01b8152600401602060405180830381865afa158015614eba573d6000803e3d6000fd5b505050506040513d601f19601f82011682018060405250810190614ede9190617809565b898360ff1681518110614ef357614ef361789c565b602002602001015160148460ff1681548110614f1157614f1161789c565b6000918252602090912001546040516370a0823160e01b81523060048201526001600160a01b03909116906370a0823190602401602060405180830381865afa158015614f62573d6000803e3d6000fd5b505050506040513d601f19601f82011682018060405250810190614f869190617826565b614f909190617b9e565b60148460ff1681548110611d7557611d7561789c565b61507f565b878160ff1681518110614fc057614fc061789c565b602002602001015160148260ff1681548110614fde57614fde61789c565b6000918252602090912001546040516370a0823160e01b81523060048201526001600160a01b03909116906370a0823190602401602060405180830381865afa15801561502f573d6000803e3d6000fd5b505050506040513d601f19601f820116820180604052508101906150539190617826565b61505d9190617b9e565b828260ff16815181106150725761507261789c565b6020026020010181815250505b8061508981617ae8565b915050614d30565b5080516150a5906009906020840190616fa4565b50505050505050505050565b6150b9615341565b600054600160a01b900460ff16156150e35760405162461bcd60e51b815260040161096190617b2d565b6001600160a01b03811661515f5760405162461bcd60e51b815260206004820152603e60248201527f5a69766f654f776e61626c654c6f636b65643a3a7472616e736665724f776e6560448201527f72736869702829206e65774f776e6572203d3d206164647265737328302900006064820152608401610961565b61158e816153c1565b615170615341565b60405162461bcd60e51b815260206004820152603460248201527f5a69766f654c6f636b65723a3a70757368546f4c6f636b6572455243313135356044820152732829202163616e5075736845524331313535282960601b6064820152608401610961565b6151dd615341565b6040805162461bcd60e51b81526020600482015260248101919091527f5a69766f654c6f636b65723a3a70756c6c46726f6d4c6f636b65724d756c746960448201527f5061727469616c2829202163616e50756c6c4d756c74695061727469616c28296064820152608401610961565b83811015610c10576152ba61526a6000546001600160a01b031690565b84848481811061527c5761527c61789c565b905060200201358787858181106152955761529561789c565b90506020020160208101906152aa919061744e565b6001600160a01b031691906152d9565b806152c48161790e565b91505061524d565b610c108585858585615a8b565b6040516001600160a01b03831660248201526044810182905261533c90849063a9059cbb60e01b906064015b60408051601f198184030181529190526020810180516001600160e01b03166001600160e01b031990931692909217909152615c3c565b505050565b6000546001600160a01b03163314611dea5760405162461bcd60e51b815260206004820152603760248201527f5a69766f654f776e61626c654c6f636b65643a3a5f636865636b4f776e65722060448201527f6f776e6572282920213d205f6d736753656e64657228290000000000000000006064820152608401610961565b600080546001600160a01b038381166001600160a01b0319831681178455604051919092169283917f8be0079c531659141344cd1fd0a4f28419497f9722a3daafe3b4186f6b6457e09190a35050565b6014546002036154fd57615423616f4a565b600e54600f546040516370a0823160e01b81523060048201526001600160a01b0392831692635b36389c9216906370a0823190602401602060405180830381865afa158015615476573d6000803e3d6000fd5b505050506040513d601f19601f8201168201806040525081019061549a9190617826565b836040518363ffffffff1660e01b81526004016154b8929190617c6b565b60408051808303816000875af11580156154d6573d6000803e3d6000fd5b505050506040513d601f19601f820116820180604052508101906154fa9190617c7f565b50505b6014546003036155ea5761550f616f68565b600e54600f546040516370a0823160e01b81523060048201526001600160a01b039283169263ecb586a59216906370a0823190602401602060405180830381865afa158015615562573d6000803e3d6000fd5b505050506040513d601f19601f820116820180604052508101906155869190617826565b836040518363ffffffff1660e01b81526004016155a4929190617cfe565b6060604051808303816000875af11580156155c3573d6000803e3d6000fd5b505050506040513d601f19601f820116820180604052508101906155e79190617d12565b50505b6014546004036156d7576155fc616f86565b600e54600f546040516370a0823160e01b81523060048201526001600160a01b0392831692637d49d8759216906370a0823190602401602060405180830381865afa15801561564f573d6000803e3d6000fd5b505050506040513d601f19601f820116820180604052508101906156739190617826565b836040518363ffffffff1660e01b8152600401615691929190617d6a565b6080604051808303816000875af11580156156b0573d6000803e3d6000fd5b505050506040513d601f19601f820116820180604052508101906156d49190617d7e565b50505b80151560010361158e5760005b60145460ff82161015611eac57600060148260ff16815481106157095761570961789c565b6000918252602090912001546040516370a0823160e01b81523060048201526001600160a01b03909116906370a0823190602401602060405180830381865afa15801561575a573d6000803e3d6000fd5b505050506040513d601f19601f8201168201806040525081019061577e9190617826565b1115615824576158246157996000546001600160a01b031690565b60148360ff16815481106157af576157af61789c565b6000918252602090912001546040516370a0823160e01b81523060048201526001600160a01b03909116906370a0823190602401602060405180830381865afa158015615800573d6000803e3d6000fd5b505050506040513d601f19601f82011682018060405250810190614f909190617826565b8061582e81617ae8565b9150506156e4565b6040516001600160a01b038085166024830152831660448201526064810182905261586e9085906323b872dd60e01b90608401615305565b50505050565b8015806158ee5750604051636eb1769f60e11b81523060048201526001600160a01b03838116602483015284169063dd62ed3e90604401602060405180830381865afa1580156158c8573d6000803e3d6000fd5b505050506040513d601f19601f820116820180604052508101906158ec9190617826565b155b6159595760405162461bcd60e51b815260206004820152603660248201527f5361666545524332303a20617070726f76652066726f6d206e6f6e2d7a65726f60448201527520746f206e6f6e2d7a65726f20616c6c6f77616e636560501b6064820152608401610961565b6040516001600160a01b03831660248201526044810182905261533c90849063095ea7b360e01b90606401615305565b600a54600f546040516370a0823160e01b8152306004820152615a11926001600160a01b039081169216906370a0823190602401602060405180830381865afa1580156159da573d6000803e3d6000fd5b505050506040513d601f19601f820116820180604052508101906159fe9190617826565b600f546001600160a01b03169190615874565b600a54600c5460405163303acfe760e11b81526004810191909152600160248201526001600160a01b03909116906360759fce906044016020604051808303816000875af1158015615a67573d6000803e3d6000fd5b505050506040513d601f19601f8201168201806040525081019061158e91906177e7565b6000615a9a6004828486617dd6565b615aa391617e00565b90506241fed760e91b6001600160e01b0319821601615ace57615ac98383888888615d0e565b615b62565b630ddb7ee960e11b6001600160e01b0319821601615af357615ac98383888888615f3b565b631a2d492760e31b6001600160e01b0319821601615b1857615ac983838888886164d9565b632f5c499b60e01b6001600160e01b0319821601615b3d57615ac98383888888616b01565b6327de773f60e11b6001600160e01b03198216016103e657615ac98383888888616cb5565b60007f00000000000000000000000000000000000000000000000000000000000000006001600160a01b03168484604051615b9e929190617e30565b6000604051808303816000865af19150503d8060008114615bdb576040519150601f19603f3d011682016040523d82523d6000602084013e615be0565b606091505b5050905080610e3e5760405162461bcd60e51b815260206004820152602260248201527f5a69766f65537761707065723a3a636f6e766572744173736574282920217375604482015261636360f01b6064820152608401610961565b6000615c91826040518060400160405280602081526020017f5361666545524332303a206c6f772d6c6576656c2063616c6c206661696c6564815250856001600160a01b0316616e279092919063ffffffff16565b80519091501561533c5780806020019051810190615caf91906177e7565b61533c5760405162461bcd60e51b815260206004820152602a60248201527f5361666545524332303a204552433230206f7065726174696f6e20646964206e6044820152691bdd081cdd58d8d9595960b21b6064820152608401610961565b6000615d1d8560048189617dd6565b810190615d2a9190617e40565b50915050836001600160a01b031681600001516001600160a01b031614615dba5760405162461bcd60e51b815260206004820152604a60248201526000805160206181ee83398151915260448201527f376330323532303028292061646472657373285f622e737263546f6b656e2920606482015269109e9030b9b9b2ba24b760b11b608482015260a401610961565b826001600160a01b031681602001516001600160a01b031614615e475760405162461bcd60e51b815260206004820152604b60248201526000805160206181ee83398151915260448201527f376330323532303028292061646472657373285f622e647374546f6b656e292060648201526a084f48185cdcd95d13dd5d60aa1b608482015260a401610961565b81816080015114615eb0576040805162461bcd60e51b81526020600482015260248101919091526000805160206181ee83398151915260448201527f37633032353230302829205f622e616d6f756e7420213d20616d6f756e74496e6064820152608401610961565b60608101516001600160a01b03163014615f335760405162461bcd60e51b815260206004820152604a60248201526000805160206181ee83398151915260448201527f37633032353230302829205f622e647374526563656976657220213d206164646064820152697265737328746869732960b01b608482015260a401610961565b505050505050565b600080615f4b866004818a617dd6565b810190615f589190617f46565b9250509150828214615fc05760405162461bcd60e51b815260206004820152603960248201526000805160206181ee83398151915260448201527f65343439303232652829205f6120213d20616d6f756e74496e000000000000006064820152608401610961565b6000600160ff1b82600081518110615fda57615fda61789c565b60200260200101511660001490506000600160ff1b8360018551615ffe9190617b9e565b8151811061600e5761600e61789c565b6020026020010151166000149050811561613f57866001600160a01b03168360008151811061603f5761603f61789c565b60200260200101516001600160a01b0316630dfe16816040518163ffffffff1660e01b8152600401602060405180830381865afa158015616084573d6000803e3d6000fd5b505050506040513d601f19601f820116820180604052508101906160a89190617809565b6001600160a01b03161461613a5760405162461bcd60e51b815260206004820152607c60248201526000805160206181ee833981519152604482015260008051602061822e833981519152606482015260008051602061824e83398151915260848201527f635b305d292929292e746f6b656e30282920213d206173736574496e0000000060a482015260c401610961565b616257565b866001600160a01b03168360008151811061615c5761615c61789c565b60200260200101516001600160a01b031663d21220a76040518163ffffffff1660e01b8152600401602060405180830381865afa1580156161a1573d6000803e3d6000fd5b505050506040513d601f19601f820116820180604052508101906161c59190617809565b6001600160a01b0316146162575760405162461bcd60e51b815260206004820152607c60248201526000805160206181ee833981519152604482015260008051602061822e833981519152606482015260008051602061824e83398151915260848201527f635b305d292929292e746f6b656e31282920213d206173736574496e0000000060a482015260c401610961565b801561639857856001600160a01b031683600185516162769190617b9e565b815181106162865761628661789c565b60200260200101516001600160a01b031663d21220a76040518163ffffffff1660e01b8152600401602060405180830381865afa1580156162cb573d6000803e3d6000fd5b505050506040513d601f19601f820116820180604052508101906162ef9190617809565b6001600160a01b0316146163935760405162461bcd60e51b815260206004820152608960248201526000805160206181ee833981519152604482015260008051602061822e833981519152606482015260008051602061824e83398151915260848201527f635b5f632e6c656e677468202d20315d292929292e746f6b656e31282920213d60a48201526808185cdcd95d13dd5d60ba1b60c482015260e401610961565b6164ce565b856001600160a01b031683600185516163b19190617b9e565b815181106163c1576163c161789c565b60200260200101516001600160a01b0316630dfe16816040518163ffffffff1660e01b8152600401602060405180830381865afa158015616406573d6000803e3d6000fd5b505050506040513d601f19601f8201168201806040525081019061642a9190617809565b6001600160a01b0316146164ce5760405162461bcd60e51b815260206004820152608960248201526000805160206181ee833981519152604482015260008051602061822e833981519152606482015260008051602061824e83398151915260848201527f635b5f632e6c656e677468202d20315d292929292e746f6b656e30282920213d60a48201526808185cdcd95d13dd5d60ba1b60c482015260e401610961565b505050505050505050565b600080806164ea876004818b617dd6565b8101906164f79190617f8b565b93505092509250856001600160a01b0316836001600160a01b0316146165735760405162461bcd60e51b815260206004820152603860248201526000805160206181ee83398151915260448201527f32653935623663382829205f6120213d206173736574496e00000000000000006064820152608401610961565b8382146165d65760405162461bcd60e51b815260206004820152603960248201526000805160206181ee83398151915260448201527f32653935623663382829205f6220213d20616d6f756e74496e000000000000006064820152608401610961565b6000806000836000815181106165ee576165ee61789c565b60200260200101519050600084600186516166099190617b9e565b815181106166195761661961789c565b60200260200101519050600160ff1b82169350600160ff1b81169250831561675b57896001600160a01b0316856000815181106166585761665861789c565b602002602001015160001c6001600160a01b031663d21220a76040518163ffffffff1660e01b8152600401602060405180830381865afa1580156166a0573d6000803e3d6000fd5b505050506040513d601f19601f820116820180604052508101906166c49190617809565b6001600160a01b0316146167565760405162461bcd60e51b815260206004820152607c60248201526000805160206181ee833981519152604482015260008051602061820e833981519152606482015260008051602061824e83398151915260848201527f645b305d292929292e746f6b656e31282920213d206173736574496e0000000060a482015260c401610961565b616876565b896001600160a01b0316856000815181106167785761677861789c565b602002602001015160001c6001600160a01b0316630dfe16816040518163ffffffff1660e01b8152600401602060405180830381865afa1580156167c0573d6000803e3d6000fd5b505050506040513d601f19601f820116820180604052508101906167e49190617809565b6001600160a01b0316146168765760405162461bcd60e51b815260206004820152607c60248201526000805160206181ee833981519152604482015260008051602061820e833981519152606482015260008051602061824e83398151915260848201527f645b305d292929292e746f6b656e30282920213d206173736574496e0000000060a482015260c401610961565b82156169ba57886001600160a01b031685600187516168959190617b9e565b815181106168a5576168a561789c565b602002602001015160001c6001600160a01b0316630dfe16816040518163ffffffff1660e01b8152600401602060405180830381865afa1580156168ed573d6000803e3d6000fd5b505050506040513d601f19601f820116820180604052508101906169119190617809565b6001600160a01b0316146169b55760405162461bcd60e51b815260206004820152608960248201526000805160206181ee833981519152604482015260008051602061820e833981519152606482015260008051602061824e83398151915260848201527f645b5f642e6c656e677468202d20315d292929292e746f6b656e30282920213d60a48201526808185cdcd95d13dd5d60ba1b60c482015260e401610961565b616af3565b886001600160a01b031685600187516169d39190617b9e565b815181106169e3576169e361789c565b602002602001015160001c6001600160a01b031663d21220a76040518163ffffffff1660e01b8152600401602060405180830381865afa158015616a2b573d6000803e3d6000fd5b505050506040513d601f19601f82011682018060405250810190616a4f9190617809565b6001600160a01b031614616af35760405162461bcd60e51b815260206004820152608960248201526000805160206181ee833981519152604482015260008051602061820e833981519152606482015260008051602061824e83398151915260848201527f645b5f642e6c656e677468202d20315d292929292e746f6b656e31282920213d60a48201526808185cdcd95d13dd5d60ba1b60c482015260e401610961565b505050505050505050505050565b6000616b108560048189617dd6565b810190616b1d9190618041565b5050509050836001600160a01b031681604001516001600160a01b031614616bb05760405162461bcd60e51b815260206004820152604c60248201526000805160206181ee83398151915260448201527f643061336236363528292061646472657373285f612e74616b6572417373657460648201526b1490109e9030b9b9b2ba24b760a11b608482015260a401610961565b826001600160a01b031681602001516001600160a01b031614616c3f5760405162461bcd60e51b815260206004820152604d60248201526000805160206181ee83398151915260448201527f643061336236363528292061646472657373285f612e6d616b6572417373657460648201526c0a48084f48185cdcd95d13dd5d609a1b608482015260a401610961565b818160c0015114615f335760405162461bcd60e51b815260206004820152604660248201526000805160206181ee83398151915260448201527f64306133623636352829205f612e74616b696e67416d6f756e7420213d20616d60648201526537bab73a24b760d11b608482015260a401610961565b60008080616cc6876004818b617dd6565b810190616cd39190618114565b50925092509250856001600160a01b0316836001600160a01b031614616d4f5760405162461bcd60e51b815260206004820152603860248201526000805160206181ee83398151915260448201527f62303433313138322829205f6120213d206173736574496e00000000000000006064820152608401610961565b846001600160a01b0316826001600160a01b031614616dc45760405162461bcd60e51b815260206004820152603960248201526000805160206181ee83398151915260448201527f62303433313138322829205f6220213d2061737365744f7574000000000000006064820152608401610961565b838114610cbb5760405162461bcd60e51b815260206004820152603960248201526000805160206181ee83398151915260448201527f62303433313138322829205f6320213d20616d6f756e74496e000000000000006064820152608401610961565b6060610cce848460008585600080866001600160a01b03168587604051616e4e919061817e565b60006040518083038185875af1925050503d8060008114616e8b576040519150601f19603f3d011682016040523d82523d6000602084013e616e90565b606091505b5091509150616ea187838387616eac565b979650505050505050565b60608315616f1b578251600003616f14576001600160a01b0385163b616f145760405162461bcd60e51b815260206004820152601d60248201527f416464726573733a2063616c6c20746f206e6f6e2d636f6e74726163740000006044820152606401610961565b5081610cce565b610cce8383815115616f305781518083602001fd5b8060405162461bcd60e51b8152600401610961919061819a565b60405180604001604052806002906020820280368337509192915050565b60405180606001604052806003906020820280368337509192915050565b60405180608001604052806004906020820280368337509192915050565b828054828255906000526020600020908101928215616fdf579160200282015b82811115616fdf578251825591602001919060010190616fc4565b506113ae9291505b808211156113ae5760008155600101616fe7565b6001600160a01b038116811461158e57600080fd5b803561701b81616ffb565b919050565b60008083601f84011261703257600080fd5b5081356001600160401b0381111561704957600080fd5b60208301915083602082850101111561706157600080fd5b9250929050565b60008060006040848603121561707d57600080fd5b833561708881616ffb565b925060208401356001600160401b038111156170a357600080fd5b6170af86828701617020565b9497909650939450505050565b6000602082840312156170ce57600080fd5b81356001600160e01b031981168114612c6457600080fd5b600080600080606085870312156170fc57600080fd5b843561710781616ffb565b93506020850135925060408501356001600160401b0381111561712957600080fd5b61713587828801617020565b95989497509550505050565b634e487b7160e01b600052604160045260246000fd5b60405161010081016001600160401b038111828210171561717a5761717a617141565b60405290565b60405160e081016001600160401b038111828210171561717a5761717a617141565b604051601f8201601f191681016001600160401b03811182821017156171ca576171ca617141565b604052919050565b600082601f8301126171e357600080fd5b81356001600160401b038111156171fc576171fc617141565b61720f601f8201601f19166020016171a2565b81815284602083860101111561722457600080fd5b816020850160208301376000918101602001919091529392505050565b6000806000806080858703121561725757600080fd5b843561726281616ffb565b9350602085013561727281616ffb565b92506040850135915060608501356001600160401b0381111561729457600080fd5b6172a0878288016171d2565b91505092959194509250565b60008083601f8401126172be57600080fd5b5081356001600160401b038111156172d557600080fd5b6020830191508360208260051b850101111561706157600080fd5b6000806000806000806060878903121561730957600080fd5b86356001600160401b038082111561732057600080fd5b61732c8a838b016172ac565b9098509650602089013591508082111561734557600080fd5b6173518a838b016172ac565b9096509450604089013591508082111561736a57600080fd5b5061737789828a016172ac565b979a9699509497509295939492505050565b60006020828403121561739b57600080fd5b5035919050565b60008060008060008060006080888a0312156173bd57600080fd5b87356173c881616ffb565b965060208801356001600160401b03808211156173e457600080fd5b6173f08b838c016172ac565b909850965060408a013591508082111561740957600080fd5b6174158b838c016172ac565b909650945060608a013591508082111561742e57600080fd5b5061743b8a828b01617020565b989b979a50959850939692959293505050565b60006020828403121561746057600080fd5b8135612c6481616ffb565b6000806020838503121561747e57600080fd5b82356001600160401b0381111561749457600080fd5b6174a0858286016172ac565b90969095509350505050565b600080604083850312156174bf57600080fd5b82356174ca81616ffb565b946020939093013593505050565b600080600080606085870312156174ee57600080fd5b84356174f981616ffb565b9350602085013561750981616ffb565b925060408501356001600160401b0381111561712957600080fd5b60006001600160401b0382111561753d5761753d617141565b5060051b60200190565b600082601f83011261755857600080fd5b8135602061756d61756883617524565b6171a2565b82815260059290921b8401810191818101908684111561758c57600080fd5b8286015b848110156175a75780358352918301918301617590565b509695505050505050565b600080600080600060a086880312156175ca57600080fd5b85356175d581616ffb565b945060208601356175e581616ffb565b935060408601356001600160401b038082111561760157600080fd5b61760d89838a01617547565b9450606088013591508082111561762357600080fd5b61762f89838a01617547565b9350608088013591508082111561764557600080fd5b50617652888289016171d2565b9150509295509295909350565b6000806040838503121561767257600080fd5b82356001600160401b038082111561768957600080fd5b818501915085601f83011261769d57600080fd5b813560206176ad61756883617524565b82815260059290921b840181019181810190898411156176cc57600080fd5b948201945b838610156176f35785356176e481616ffb565b825294820194908201906176d1565b9650508601359250508082111561770957600080fd5b5061771685828601617547565b9150509250929050565b600080600080600060a0868803121561773857600080fd5b853561774381616ffb565b9450602086013561775381616ffb565b9350604086013592506060860135915060808601356001600160401b0381111561777c57600080fd5b617652888289016171d2565b6000806000806040858703121561779e57600080fd5b84356001600160401b03808211156177b557600080fd5b6177c1888389016172ac565b909650945060208701359150808211156177da57600080fd5b50617135878288016172ac565b6000602082840312156177f957600080fd5b81518015158114612c6457600080fd5b60006020828403121561781b57600080fd5b8151612c6481616ffb565b60006020828403121561783857600080fd5b5051919050565b81835281816020850137506000828201602090810191909152601f909101601f19169091010190565b6001600160a01b0386811682528516602082015260408101849052608060608201819052600090616ea1908301848661783f565b634e487b7160e01b600052603260045260246000fd5b6000808335601e198436030181126178c957600080fd5b8301803591506001600160401b038211156178e357600080fd5b60200191503681900382131561706157600080fd5b634e487b7160e01b600052601160045260246000fd5b600060018201617920576179206178f8565b5060010190565b805169ffffffffffffffffffff8116811461701b57600080fd5b600080600080600060a0868803121561795957600080fd5b61796286617927565b945060208601519350604086015192506060860151915061798560808701617927565b90509295509295909350565b6000602082840312156179a357600080fd5b815160ff81168114612c6457600080fd5b600181815b808511156179ef5781600019048211156179d5576179d56178f8565b808516156179e257918102915b93841c93908002906179b9565b509250929050565b600082617a0657506001610c48565b81617a1357506000610c48565b8160018114617a295760028114617a3357617a4f565b6001915050610c48565b60ff841115617a4457617a446178f8565b50506001821b610c48565b5060208310610133831016604e8410600b8410161715617a72575081810a610c48565b617a7c83836179b4565b8060001904821115617a9057617a906178f8565b029392505050565b6000612c6460ff8416836179f7565b6000816000190483118215151615617ac157617ac16178f8565b500290565b600082617ae357634e487b7160e01b600052601260045260246000fd5b500490565b600060ff821660ff8103617afe57617afe6178f8565b60010192915050565b60006001600160801b03808316818103617b2357617b236178f8565b6001019392505050565b60208082526025908201527f5a69766f654f776e61626c654c6f636b65643a3a756e6c6f636b65642829206c6040820152641bd8dad95960da1b606082015260800190565b80820180821115610c4857610c486178f8565b60ff8181168382160190811115610c4857610c486178f8565b81810381811115610c4857610c486178f8565b8060005b600281101561586e578151845260209384019390910190600101617bb5565b60608101617be28285617bb1565b8260408301529392505050565b8060005b600381101561586e578151845260209384019390910190600101617bf3565b60808101617c208285617bef565b8260608301529392505050565b8060005b600481101561586e578151845260209384019390910190600101617c31565b60a08101617c5e8285617c2d565b8260808301529392505050565b82815260608101612c646020830184617bb1565b600060408284031215617c9157600080fd5b82601f830112617ca057600080fd5b604051604081018181106001600160401b0382111715617cc257617cc2617141565b8060405250806040840185811115617cd957600080fd5b845b81811015617cf3578051835260209283019201617cdb565b509195945050505050565b82815260808101612c646020830184617bef565b600060608284031215617d2457600080fd5b82601f830112617d3357600080fd5b604051606081018181106001600160401b0382111715617d5557617d55617141565b604052806060840185811115617cd957600080fd5b82815260a08101612c646020830184617c2d565b600060808284031215617d9057600080fd5b82601f830112617d9f57600080fd5b604051608081018181106001600160401b0382111715617dc157617dc1617141565b604052806080840185811115617cd957600080fd5b60008085851115617de657600080fd5b83861115617df357600080fd5b5050820193919092039150565b6001600160e01b03198135818116916004851015617e285780818660040360031b1b83161692505b505092915050565b8183823760009101908152919050565b600080600060608486031215617e5557600080fd5b8335617e6081616ffb565b925060208401356001600160401b0380821115617e7c57600080fd5b908501906101008288031215617e9157600080fd5b617e99617157565b617ea283617010565b8152617eb060208401617010565b6020820152617ec160408401617010565b6040820152617ed260608401617010565b60608201526080830135608082015260a083013560a082015260c083013560c082015260e083013582811115617f0757600080fd5b617f13898286016171d2565b60e08301525093506040860135915080821115617f2f57600080fd5b50617f3c868287016171d2565b9150509250925092565b600080600060608486031215617f5b57600080fd5b833592506020840135915060408401356001600160401b03811115617f7f57600080fd5b617f3c86828701617547565b60008060008060808587031215617fa157600080fd5b8435617fac81616ffb565b935060208581013593506040860135925060608601356001600160401b03811115617fd657600080fd5b8601601f81018813617fe757600080fd5b8035617ff561756882617524565b81815260059190911b8201830190838101908a83111561801457600080fd5b928401925b8284101561803257833582529284019290840190618019565b979a9699509497505050505050565b60008060008084860361014081121561805957600080fd5b60e081121561806757600080fd5b50618070617180565b85358152602086013561808281616ffb565b6020820152604086013561809581616ffb565b604082015260608601356180a881616ffb565b606082015260808601356180bb81616ffb565b608082015260a0868101359082015260c08087013590820152935060e08501356001600160401b038111156180ef57600080fd5b6180fb878288016171d2565b9497949650505050610100830135926101200135919050565b6000806000806080858703121561812a57600080fd5b843561813581616ffb565b9350602085013561814581616ffb565b93969395505050506040820135916060013590565b60005b8381101561817557818101518382015260200161815d565b50506000910152565b6000825161819081846020870161815a565b9190910192915050565b60208152600082518060208401526181b981604085016020870161815a565b601f01601f1916919091016040019291505056fe655f4f43595f4356585f4d6f64756c61723a3a70756c6c46726f6d4c6f636b655a69766f65537761707065723a3a68616e646c655f76616c69646174696f6e5f326539356236633828292049556e69737761705632506f6f6c5f5a69766f6553653434393032326528292049556e69737761705633506f6f6c5f5a69766f655377617070657228616464726573732875696e743136302875696e74323536285fa26469706673582212202435d1dd8a9e33ace5a0861b60f6369963165d7f0f8824078ee8035dd7e5362464736f6c63430008100033655f4f43595f4356585f4d6f64756c61723a3a636f6e7374727563746f722829",
    "linkReferences": {}
  },
  "methodIdentifiers": {
    "BASE_TOKEN()": "210663e4",
    "CRV()": "945c9142",
    "CVX()": "759cb53b",
    "CVX_Deposit_Address()": "4d65dd1c",
    "CVX_Reward_Address()": "eada4cd7",
    "GBL()": "3ce8d432",
    "MP_UNDERLYING_LP_POOL()": "5e860430",
    "MP_UNDERLYING_LP_TOKEN()": "5edb2ba4",
    "POOL_LP_TOKEN()": "b2c500f0",
    "PP_TOKENS(uint256)": "d0991c84",
    "USD_Convertible()": "1d57a7cc",
    "baseline()": "ab2637af",
    "canPull()": "215cccdd",
    "canPullERC1155()": "b0607cf8",
    "canPullERC721()": "3c117244",
    "canPullMulti()": "3eda81ad",
    "canPullMultiERC721()": "1852b383",
    "canPullMultiPartial()": "2f08d48b",
    "canPullPartial()": "64c77735",
    "canPush()": "e7f44629",
    "canPushERC1155()": "cf10b7ab",
    "canPushERC721()": "8b648ee2",
    "canPushMulti()": "a4a3e79d",
    "canPushMultiERC721()": "dd913bdb",
    "chainlinkPriceFeeds(uint256)": "2dd3d9ef",
    "convexPoolID()": "49a5e73b",
    "extraRewards()": "e21c81d3",
    "forwardYieldKeeperCRV_CVX(address,bytes)": "01f505ba",
    "harvestYield()": "e8d991d1",
    "indexBASE_TOKEN()": "1af1ca97",
    "invest()": "e8b5e51f",
    "investTimeLock()": "aeb3264b",
    "keeperConvertStablecoin(address,address,bytes)": "8eef49db",
    "locked()": "cf309012",
    "lpPriceInUSD()": "9728581c",
    "metaOrPlainPool()": "dbbc65d9",
    "nextYieldDistribution()": "f988dc3f",
    "numberOfTokensUnderlyingLPPool()": "da456cbd",
    "onERC1155BatchReceived(address,address,uint256[],uint256[],bytes)": "bc197c81",
    "onERC1155Received(address,address,uint256,uint256,bytes)": "f23a6e61",
    "onERC721Received(address,address,uint256,bytes)": "150b7a02",
    "owner()": "8da5cb5b",
    "pool()": "16f0115b",
    "pullFromLocker(address)": "7dbcdbc1",
    "pullFromLockerERC1155(address,uint256[],uint256[],bytes)": "422b2018",
    "pullFromLockerERC721(address,uint256,bytes)": "12052176",
    "pullFromLockerMulti(address[])": "607cd649",
    "pullFromLockerMultiERC721(address[],uint256[],bytes[])": "15e98744",
    "pullFromLockerMultiPartial(address[],uint256[])": "ff0459ba",
    "pullFromLockerPartial(address,uint256)": "d9821e3b",
    "pushToLocker(address,uint256)": "84476591",
    "pushToLockerERC1155(address,uint256[],uint256[],bytes)": "fd76f59d",
    "pushToLockerERC721(address,uint256,bytes)": "1d9389e9",
    "pushToLockerMulti(address[],uint256[])": "c9c6a414",
    "pushToLockerMultiERC721(address[],uint256[],bytes[])": "b892bcc0",
    "renounceOwnership()": "715018a6",
    "rewardsAddresses(uint256)": "a0c9455a",
    "router1INCH_V4()": "19ce95f4",
    "supportsInterface(bytes4)": "01ffc9a7",
    "toForwardCRV()": "f5a04785",
    "toForwardCVX()": "f85fcb1a",
    "toForwardExtraRewards(uint256)": "be8d8061",
    "toForwardTokensBaseline(uint256)": "da87d2cf",
    "transferOwnership(address)": "f2fde38b",
    "transferOwnershipAndLock(address)": "58289c7e",
    "yieldOwedToYDL()": "b3da6b08"
  },
  "id": 77
}