{
  "abi": [
    {
      "inputs": [],
      "stateMutability": "nonpayable",
      "type": "constructor"
    },
    {
      "anonymous": false,
      "inputs": [
        {
          "indexed": true,
          "internalType": "address",
          "name": "controller",
          "type": "address"
        }
      ],
      "name": "AccessControlSetZVL",
      "type": "event"
    },
    {
      "anonymous": false,
      "inputs": [
        {
          "indexed": false,
          "internalType": "uint256",
          "name": "amount",
          "type": "uint256"
        },
        {
          "indexed": false,
          "internalType": "uint256",
          "name": "updatedDefaults",
          "type": "uint256"
        }
      ],
      "name": "DefaultsDecreased",
      "type": "event"
    },
    {
      "anonymous": false,
      "inputs": [
        {
          "indexed": false,
          "internalType": "uint256",
          "name": "amount",
          "type": "uint256"
        },
        {
          "indexed": false,
          "internalType": "uint256",
          "name": "updatedDefaults",
          "type": "uint256"
        }
      ],
      "name": "DefaultsIncreased",
      "type": "event"
    },
    {
      "anonymous": false,
      "inputs": [
        {
          "indexed": true,
          "internalType": "address",
          "name": "previousOwner",
          "type": "address"
        },
        {
          "indexed": true,
          "internalType": "address",
          "name": "newOwner",
          "type": "address"
        }
      ],
      "name": "OwnershipTransferred",
      "type": "event"
    },
    {
      "anonymous": false,
      "inputs": [
        {
          "indexed": true,
          "internalType": "address",
          "name": "previousOwner",
          "type": "address"
        },
        {
          "indexed": true,
          "internalType": "address",
          "name": "newOwner",
          "type": "address"
        }
      ],
      "name": "OwnershipTransferredAndLocked",
      "type": "event"
    },
    {
      "anonymous": false,
      "inputs": [
        {
          "indexed": true,
          "internalType": "address",
          "name": "account",
          "type": "address"
        },
        {
          "indexed": false,
          "internalType": "bool",
          "name": "status",
          "type": "bool"
        }
      ],
      "name": "UpdatedKeeperStatus",
      "type": "event"
    },
    {
      "anonymous": false,
      "inputs": [
        {
          "indexed": true,
          "internalType": "address",
          "name": "locker",
          "type": "address"
        },
        {
          "indexed": false,
          "internalType": "bool",
          "name": "allowed",
          "type": "bool"
        }
      ],
      "name": "UpdatedLockerStatus",
      "type": "event"
    },
    {
      "anonymous": false,
      "inputs": [
        {
          "indexed": false,
          "internalType": "uint256",
          "name": "oldValue",
          "type": "uint256"
        },
        {
          "indexed": false,
          "internalType": "uint256",
          "name": "newValue",
          "type": "uint256"
        }
      ],
      "name": "UpdatedLowerRatioIncentive",
      "type": "event"
    },
    {
      "anonymous": false,
      "inputs": [
        {
          "indexed": false,
          "internalType": "uint256",
          "name": "oldValue",
          "type": "uint256"
        },
        {
          "indexed": false,
          "internalType": "uint256",
          "name": "newValue",
          "type": "uint256"
        }
      ],
      "name": "UpdatedMaxTrancheRatioBIPS",
      "type": "event"
    },
    {
      "anonymous": false,
      "inputs": [
        {
          "indexed": false,
          "internalType": "uint256",
          "name": "oldValue",
          "type": "uint256"
        },
        {
          "indexed": false,
          "internalType": "uint256",
          "name": "newValue",
          "type": "uint256"
        }
      ],
      "name": "UpdatedMaxZVEPerJTTMint",
      "type": "event"
    },
    {
      "anonymous": false,
      "inputs": [
        {
          "indexed": false,
          "internalType": "uint256",
          "name": "oldValue",
          "type": "uint256"
        },
        {
          "indexed": false,
          "internalType": "uint256",
          "name": "newValue",
          "type": "uint256"
        }
      ],
      "name": "UpdatedMinZVEPerJTTMint",
      "type": "event"
    },
    {
      "anonymous": false,
      "inputs": [
        {
          "indexed": true,
          "internalType": "address",
          "name": "asset",
          "type": "address"
        },
        {
          "indexed": false,
          "internalType": "bool",
          "name": "allowed",
          "type": "bool"
        }
      ],
      "name": "UpdatedStablecoinWhitelist",
      "type": "event"
    },
    {
      "anonymous": false,
      "inputs": [
        {
          "indexed": false,
          "internalType": "uint256",
          "name": "oldValue",
          "type": "uint256"
        },
        {
          "indexed": false,
          "internalType": "uint256",
          "name": "newValue",
          "type": "uint256"
        }
      ],
      "name": "UpdatedUpperRatioIncentive",
      "type": "event"
    },
    {
      "inputs": [],
      "name": "DAO",
      "outputs": [
        {
          "internalType": "address",
          "name": "",
          "type": "address"
        }
      ],
      "stateMutability": "view",
      "type": "function"
    },
    {
      "inputs": [],
      "name": "GOV",
      "outputs": [
        {
          "internalType": "address",
          "name": "",
          "type": "address"
        }
      ],
      "stateMutability": "view",
      "type": "function"
    },
    {
      "inputs": [],
      "name": "ITO",
      "outputs": [
        {
          "internalType": "address",
          "name": "",
          "type": "address"
        }
      ],
      "stateMutability": "view",
      "type": "function"
    },
    {
      "inputs": [],
      "name": "TLC",
      "outputs": [
        {
          "internalType": "address",
          "name": "",
          "type": "address"
        }
      ],
      "stateMutability": "view",
      "type": "function"
    },
    {
      "inputs": [],
      "name": "YDL",
      "outputs": [
        {
          "internalType": "address",
          "name": "",
          "type": "address"
        }
      ],
      "stateMutability": "view",
      "type": "function"
    },
    {
      "inputs": [],
      "name": "ZVE",
      "outputs": [
        {
          "internalType": "address",
          "name": "",
          "type": "address"
        }
      ],
      "stateMutability": "view",
      "type": "function"
    },
    {
      "inputs": [],
      "name": "ZVL",
      "outputs": [
        {
          "internalType": "address",
          "name": "",
          "type": "address"
        }
      ],
      "stateMutability": "view",
      "type": "function"
    },
    {
      "inputs": [],
      "name": "ZVT",
      "outputs": [
        {
          "internalType": "address",
          "name": "",
          "type": "address"
        }
      ],
      "stateMutability": "view",
      "type": "function"
    },
    {
      "inputs": [],
      "name": "adjustedSupplies",
      "outputs": [
        {
          "internalType": "uint256",
          "name": "zSTTSupply",
          "type": "uint256"
        },
        {
          "internalType": "uint256",
          "name": "zJTTSupply",
          "type": "uint256"
        }
      ],
      "stateMutability": "view",
      "type": "function"
    },
    {
      "inputs": [
        {
          "internalType": "uint256",
          "name": "amount",
          "type": "uint256"
        }
      ],
      "name": "decreaseDefaults",
      "outputs": [],
      "stateMutability": "nonpayable",
      "type": "function"
    },
    {
      "inputs": [],
      "name": "defaults",
      "outputs": [
        {
          "internalType": "uint256",
          "name": "",
          "type": "uint256"
        }
      ],
      "stateMutability": "view",
      "type": "function"
    },
    {
      "inputs": [
        {
          "internalType": "uint256",
          "name": "amount",
          "type": "uint256"
        }
      ],
      "name": "increaseDefaults",
      "outputs": [],
      "stateMutability": "nonpayable",
      "type": "function"
    },
    {
      "inputs": [
        {
          "internalType": "address[]",
          "name": "globals",
          "type": "address[]"
        }
      ],
      "name": "initializeGlobals",
      "outputs": [],
      "stateMutability": "nonpayable",
      "type": "function"
    },
    {
      "inputs": [
        {
          "internalType": "address",
          "name": "",
          "type": "address"
        }
      ],
      "name": "isKeeper",
      "outputs": [
        {
          "internalType": "bool",
          "name": "",
          "type": "bool"
        }
      ],
      "stateMutability": "view",
      "type": "function"
    },
    {
      "inputs": [
        {
          "internalType": "address",
          "name": "",
          "type": "address"
        }
      ],
      "name": "isLocker",
      "outputs": [
        {
          "internalType": "bool",
          "name": "",
          "type": "bool"
        }
      ],
      "stateMutability": "view",
      "type": "function"
    },
    {
      "inputs": [],
      "name": "locked",
      "outputs": [
        {
          "internalType": "bool",
          "name": "",
          "type": "bool"
        }
      ],
      "stateMutability": "view",
      "type": "function"
    },
    {
      "inputs": [],
      "name": "lowerRatioIncentive",
      "outputs": [
        {
          "internalType": "uint256",
          "name": "",
          "type": "uint256"
        }
      ],
      "stateMutability": "view",
      "type": "function"
    },
    {
      "inputs": [],
      "name": "maxTrancheRatioBIPS",
      "outputs": [
        {
          "internalType": "uint256",
          "name": "",
          "type": "uint256"
        }
      ],
      "stateMutability": "view",
      "type": "function"
    },
    {
      "inputs": [],
      "name": "maxZVEPerJTTMint",
      "outputs": [
        {
          "internalType": "uint256",
          "name": "",
          "type": "uint256"
        }
      ],
      "stateMutability": "view",
      "type": "function"
    },
    {
      "inputs": [],
      "name": "minZVEPerJTTMint",
      "outputs": [
        {
          "internalType": "uint256",
          "name": "",
          "type": "uint256"
        }
      ],
      "stateMutability": "view",
      "type": "function"
    },
    {
      "inputs": [],
      "name": "owner",
      "outputs": [
        {
          "internalType": "address",
          "name": "",
          "type": "address"
        }
      ],
      "stateMutability": "view",
      "type": "function"
    },
    {
      "inputs": [],
      "name": "renounceOwnership",
      "outputs": [],
      "stateMutability": "nonpayable",
      "type": "function"
    },
    {
      "inputs": [],
      "name": "stJTT",
      "outputs": [
        {
          "internalType": "address",
          "name": "",
          "type": "address"
        }
      ],
      "stateMutability": "view",
      "type": "function"
    },
    {
      "inputs": [],
      "name": "stSTT",
      "outputs": [
        {
          "internalType": "address",
          "name": "",
          "type": "address"
        }
      ],
      "stateMutability": "view",
      "type": "function"
    },
    {
      "inputs": [],
      "name": "stZVE",
      "outputs": [
        {
          "internalType": "address",
          "name": "",
          "type": "address"
        }
      ],
      "stateMutability": "view",
      "type": "function"
    },
    {
      "inputs": [
        {
          "internalType": "address",
          "name": "",
          "type": "address"
        }
      ],
      "name": "stablecoinWhitelist",
      "outputs": [
        {
          "internalType": "bool",
          "name": "",
          "type": "bool"
        }
      ],
      "stateMutability": "view",
      "type": "function"
    },
    {
      "inputs": [
        {
          "internalType": "uint256",
          "name": "amount",
          "type": "uint256"
        },
        {
          "internalType": "address",
          "name": "asset",
          "type": "address"
        }
      ],
      "name": "standardize",
      "outputs": [
        {
          "internalType": "uint256",
          "name": "standardizedAmount",
          "type": "uint256"
        }
      ],
      "stateMutability": "view",
      "type": "function"
    },
    {
      "inputs": [
        {
          "internalType": "address",
          "name": "newOwner",
          "type": "address"
        }
      ],
      "name": "transferOwnership",
      "outputs": [],
      "stateMutability": "nonpayable",
      "type": "function"
    },
    {
      "inputs": [
        {
          "internalType": "address",
          "name": "newOwner",
          "type": "address"
        }
      ],
      "name": "transferOwnershipAndLock",
      "outputs": [],
      "stateMutability": "nonpayable",
      "type": "function"
    },
    {
      "inputs": [
        {
          "internalType": "address",
          "name": "keeper",
          "type": "address"
        },
        {
          "internalType": "bool",
          "name": "status",
          "type": "bool"
        }
      ],
      "name": "updateIsKeeper",
      "outputs": [],
      "stateMutability": "nonpayable",
      "type": "function"
    },
    {
      "inputs": [
        {
          "internalType": "address",
          "name": "locker",
          "type": "address"
        },
        {
          "internalType": "bool",
          "name": "allowed",
          "type": "bool"
        }
      ],
      "name": "updateIsLocker",
      "outputs": [],
      "stateMutability": "nonpayable",
      "type": "function"
    },
    {
      "inputs": [
        {
          "internalType": "uint256",
          "name": "lowerRatio",
          "type": "uint256"
        }
      ],
      "name": "updateLowerRatioIncentive",
      "outputs": [],
      "stateMutability": "nonpayable",
      "type": "function"
    },
    {
      "inputs": [
        {
          "internalType": "uint256",
          "name": "ratio",
          "type": "uint256"
        }
      ],
      "name": "updateMaxTrancheRatio",
      "outputs": [],
      "stateMutability": "nonpayable",
      "type": "function"
    },
    {
      "inputs": [
        {
          "internalType": "uint256",
          "name": "max",
          "type": "uint256"
        }
      ],
      "name": "updateMaxZVEPerJTTMint",
      "outputs": [],
      "stateMutability": "nonpayable",
      "type": "function"
    },
    {
      "inputs": [
        {
          "internalType": "uint256",
          "name": "min",
          "type": "uint256"
        }
      ],
      "name": "updateMinZVEPerJTTMint",
      "outputs": [],
      "stateMutability": "nonpayable",
      "type": "function"
    },
    {
      "inputs": [
        {
          "internalType": "address",
          "name": "stablecoin",
          "type": "address"
        },
        {
          "internalType": "bool",
          "name": "allowed",
          "type": "bool"
        }
      ],
      "name": "updateStablecoinWhitelist",
      "outputs": [],
      "stateMutability": "nonpayable",
      "type": "function"
    },
    {
      "inputs": [
        {
          "internalType": "uint256",
          "name": "upperRatio",
          "type": "uint256"
        }
      ],
      "name": "updateUpperRatioIncentives",
      "outputs": [],
      "stateMutability": "nonpayable",
      "type": "function"
    },
    {
      "inputs": [],
      "name": "upperRatioIncentive",
      "outputs": [
        {
          "internalType": "uint256",
          "name": "",
          "type": "uint256"
        }
      ],
      "stateMutability": "view",
      "type": "function"
    },
    {
      "inputs": [],
      "name": "vestZVE",
      "outputs": [
        {
          "internalType": "address",
          "name": "",
          "type": "address"
        }
      ],
      "stateMutability": "view",
      "type": "function"
    },
    {
      "inputs": [],
      "name": "zJTT",
      "outputs": [
        {
          "internalType": "address",
          "name": "",
          "type": "address"
        }
      ],
      "stateMutability": "view",
      "type": "function"
    },
    {
      "inputs": [],
      "name": "zSTT",
      "outputs": [
        {
          "internalType": "address",
          "name": "",
          "type": "address"
        }
      ],
      "stateMutability": "view",
      "type": "function"
    }
  ],
  "bytecode": {
    "object": "0x60806040526107d0600f55600060105560006011556103e86012556107d060135534801561002c57600080fd5b506100363361003b565b61008b565b600080546001600160a01b038381166001600160a01b0319831681178455604051919092169283917f8be0079c531659141344cd1fd0a4f28419497f9722a3daafe3b4186f6b6457e09190a35050565b611ca98061009a6000396000f3fe608060405234801561001057600080fd5b50600436106102525760003560e01c80638b156c7a11610146578063c5f4f7b0116100c3578063d9fa86ed11610087578063d9fa86ed14610519578063dc3c1da51461052c578063dd1db2011461053f578063edb7a6fa14610562578063f2fde38b1461056b578063f388884b1461057e57600080fd5b8063c5f4f7b0146104c3578063c76d41c8146104d6578063ce872627146104e9578063cf309012146104f2578063d8c58b6a1461050657600080fd5b806398fabd3a1161010a57806398fabd3a1461046e5780639af6c40e146104815780639da33f6114610494578063a81d42cb1461049d578063c2948d7d146104b057600080fd5b80638b156c7a146104255780638d2b41b7146104385780638da5cb5b146104415780639699177c1461045257806397ce0b201461046557600080fd5b806358289c7e116101d457806372ad4ba01161019857806372ad4ba0146103c657806372d6724a146103d957806379de2927146103ec5780637bcb5bb2146103ff5780638aa256521461041257600080fd5b806358289c7e1461036257806359e269ee146103755780636a45c732146103885780636ba42aaa1461039b578063715018a6146103be57600080fd5b8063201d620a1161021b578063201d620a146102d95780632ec63d7c146102ec5780633e62445d1461031f5780635351d09b14610332578063557dccaa1461034f57600080fd5b806209604514610257578063010e247714610287578063106b3e8b1461029c57806315154aff146102b3578063180cb47f146102c6575b600080fd5b600b5461026a906001600160a01b031681565b6040516001600160a01b0390911681526020015b60405180910390f35b61029a6102953660046118f0565b610591565b005b6102a560105481565b60405190815260200161027e565b60025461026a906001600160a01b031681565b600d5461026a906001600160a01b031681565b60065461026a906001600160a01b031681565b61030f6102fa36600461192c565b60166020526000908152604090205460ff1681565b604051901515815260200161027e565b61029a61032d366004611947565b61063d565b61033a610703565b6040805192835260208301919091520161027e565b61029a61035d366004611947565b610846565b61029a61037036600461192c565b610992565b61029a610383366004611947565b610a6d565b61029a610396366004611947565b610b45565b61030f6103a936600461192c565b60156020526000908152604090205460ff1681565b61029a610bfb565b60045461026a906001600160a01b031681565b60075461026a906001600160a01b031681565b61029a6103fa366004611947565b610c39565b61029a61040d366004611947565b610d0a565b600c5461026a906001600160a01b031681565b61029a610433366004611960565b610dca565b6102a560115481565b6000546001600160a01b031661026a565b60085461026a906001600160a01b031681565b6102a560125481565b60015461026a906001600160a01b031681565b600a5461026a906001600160a01b031681565b6102a560135481565b61029a6104ab366004611947565b61133a565b61029a6104be3660046118f0565b6113fb565b60095461026a906001600160a01b031681565b600e5461026a906001600160a01b031681565b6102a5600f5481565b60005461030f90600160a01b900460ff1681565b60035461026a906001600160a01b031681565b60055461026a906001600160a01b031681565b6102a561053a3660046119d5565b61149e565b61030f61054d36600461192c565b60176020526000908152604090205460ff1681565b6102a560145481565b61029a61057936600461192c565b611692565b61029a61058c3660046118f0565b611749565b600b546001600160a01b0316336001600160a01b0316146105cd5760405162461bcd60e51b81526004016105c490611a01565b60405180910390fd5b816001600160a01b03167f9d540318275b4a186731ff6b3c940919ac302883f881bec6aa20c644fc5867ac8260405161060a911515815260200190565b60405180910390a26001600160a01b03919091166000908152601660205260409020805460ff1916911515919091179055565b6106456117ec565b67016345785d8a000081106106c25760405162461bcd60e51b815260206004820152603a60248201527f5a69766f65476c6f62616c733a3a7570646174654d61785a56455065724a545460448201527f4d696e742829206d6178203e3d20302e31202a2031302a2a313800000000000060648201526084016105c4565b60115460408051918252602082018390527fccac5b613bde20136f91de1c072dbd95e551edf4837459acb1b661f9aa472e7c910160405180910390a1601155565b6000806000600860009054906101000a90046001600160a01b03166001600160a01b03166318160ddd6040518163ffffffff1660e01b8152600401602060405180830381865afa15801561075b573d6000803e3d6000fd5b505050506040513d601f19601f8201168201806040525081019061077f9190611a4c565b90506107966014548261186c90919063ffffffff16565b91506000600960009054906101000a90046001600160a01b03166001600160a01b03166318160ddd6040518163ffffffff1660e01b8152600401602060405180830381865afa1580156107ed573d6000803e3d6000fd5b505050506040513d601f19601f820116820180604052508101906108119190611a4c565b905081601454111561083c576014546108359061082e908461186c565b829061186c565b9350610840565b8093505b50509091565b61084e6117ec565b6103e88110156108c65760405162461bcd60e51b815260206004820152603b60248201527f5a69766f65476c6f62616c733a3a7570646174654c6f776572526174696f496e60448201527f63656e746976652829206c6f776572526174696f203c2031303030000000000060648201526084016105c4565b60135481106109515760405162461bcd60e51b815260206004820152604b60248201527f5a69766f65476c6f62616c733a3a7570646174654c6f776572526174696f496e60448201527f63656e746976652829206c6f776572526174696f203e3d20757070657252617460648201526a696f496e63656e7469766560a81b608482015260a4016105c4565b60125460408051918252602082018390527f339f8d7cccfc96c8777c40e3512e9bf63e5425a84a3c75cafbf7af13f6951603910160405180910390a1601255565b61099a6117ec565b600054600160a01b900460ff16156109c45760405162461bcd60e51b81526004016105c490611a65565b6001600160a01b038116610a4e5760405162461bcd60e51b815260206004820152604560248201527f5a69766f654f776e61626c654c6f636b65643a3a7472616e736665724f776e6560448201527f7273686970416e644c6f636b2829206e65774f776e6572203d3d206164647265606482015264737328302960d81b608482015260a4016105c4565b6000805460ff60a01b1916600160a01b179055610a6a81611884565b50565b3360009081526016602052604090205460ff16610aed5760405162461bcd60e51b815260206004820152603860248201527f5a69766f65476c6f62616c733a3a696e63726561736544656661756c74732829604482015277202169734c6f636b65725b5f6d736753656e64657228295d60401b60648201526084016105c4565b8060146000828254610aff9190611ac0565b90915550506014546040805183815260208101929092527fcb1d2de8f94ded45210712f8ed155db0b7dec51651fc6a7b8b0b63bd0b45aec491015b60405180910390a150565b610b4d6117ec565b610dac811115610bba5760405162461bcd60e51b815260206004820152603260248201527f5a69766f65476c6f62616c733a3a7570646174654d61785472616e6368655261604482015271074696f282920726174696f203e20333530360741b60648201526084016105c4565b600f5460408051918252602082018390527f6d7dc9afbbe04255653ae2734ae9fd69f0d8abe3813a132cf70b163da704f2c3910160405180910390a1600f55565b610c036117ec565b600054600160a01b900460ff1615610c2d5760405162461bcd60e51b81526004016105c490611a65565b610c376000611884565b565b3360009081526016602052604090205460ff16610cb95760405162461bcd60e51b815260206004820152603860248201527f5a69766f65476c6f62616c733a3a646563726561736544656661756c74732829604482015277202169734c6f636b65725b5f6d736753656e64657228295d60401b60648201526084016105c4565b8060146000828254610ccb9190611ad3565b90915550506014546040805183815260208101929092527f2c58c67b698e9b67ac8c912c84b3b04a12e2a8a8038d0df4d0ec36079177d47c9101610b3a565b610d126117ec565b6011548110610d895760405162461bcd60e51b815260206004820152603e60248201527f5a69766f65476c6f62616c733a3a7570646174654d696e5a56455065724a545460448201527f4d696e742829206d696e203e3d206d61785a56455065724a54544d696e74000060648201526084016105c4565b60105460408051918252602082018390527fd02ca6f1163f6a7dee847ec7e8256e4dc0810a6f2b07cd860ac3eb0b1585e3ab910160405180910390a1601055565b610dd26117ec565b6001546001600160a01b031615610e475760405162461bcd60e51b815260206004820152603360248201527f5a69766f65476c6f62616c733a3a696e697469616c697a65476c6f62616c7328604482015272292044414f20213d206164647265737328302960681b60648201526084016105c4565b8181600a818110610e5a57610e5a611ae6565b9050602002016020810190610e6f919061192c565b6001600160a01b03167f6fa23e88be50fac14b9bbcba4614851e2869790fa774ec14d4545b3e44887e8060405160405180910390a281816000818110610eb757610eb7611ae6565b9050602002016020810190610ecc919061192c565b600180546001600160a01b0319166001600160a01b039290921691909117815582908290818110610eff57610eff611ae6565b9050602002016020810190610f14919061192c565b600280546001600160a01b0319166001600160a01b039290921691909117815582908290818110610f4757610f47611ae6565b9050602002016020810190610f5c919061192c565b600380546001600160a01b0319166001600160a01b039290921691909117815582908290818110610f8f57610f8f611ae6565b9050602002016020810190610fa4919061192c565b600480546001600160a01b0319166001600160a01b039290921691909117815582908290818110610fd757610fd7611ae6565b9050602002016020810190610fec919061192c565b600580546001600160a01b0319166001600160a01b03929092169190911781558290829081811061101f5761101f611ae6565b9050602002016020810190611034919061192c565b600680546001600160a01b0319166001600160a01b03929092169190911781558290829081811061106757611067611ae6565b905060200201602081019061107c919061192c565b600780546001600160a01b0319166001600160a01b0392909216919091178155829082908181106110af576110af611ae6565b90506020020160208101906110c4919061192c565b600880546001600160a01b0319166001600160a01b0392909216919091178155829082908181106110f7576110f7611ae6565b905060200201602081019061110c919061192c565b600980546001600160a01b0319166001600160a01b03929092169190911781558290829081811061113f5761113f611ae6565b9050602002016020810190611154919061192c565b600a80546001600160a01b0319166001600160a01b03929092169190911781558290829081811061118757611187611ae6565b905060200201602081019061119c919061192c565b600b80546001600160a01b0319166001600160a01b0392909216919091178155829082908181106111cf576111cf611ae6565b90506020020160208101906111e4919061192c565b600d80546001600160a01b0319166001600160a01b03929092169190911790558181600c81811061121757611217611ae6565b905060200201602081019061122c919061192c565b600e80546001600160a01b0319166001600160a01b03929092169190911790558181600d81811061125f5761125f611ae6565b9050602002016020810190611274919061192c565b600c80546001600160a01b0319166001600160a01b0392909216919091179055505060176020527f8a7776df4a477673730b069fb077ae9d41f7bea257426d6b72fb302b39793957805460ff1990811660019081179092557f4b6771a61dd4db37ea6cdd97ea00e948fd53713047d03a3f5e754778f387848c805482168317905573dac17f958d2ee523a2206206994597c13d831ec76000527ff446947c7ecc245e49a695979bfdbedf62c5b3f50cecc135097a55d829f984f580549091169091179055565b6113426117ec565b6109c48111156113ba5760405162461bcd60e51b815260206004820152603b60248201527f5a69766f65476c6f62616c733a3a7570646174655570706572526174696f496e60448201527f63656e746976652829207570706572526174696f203e2032353030000000000060648201526084016105c4565b60135460408051918252602082018390527fc387e5f7922efa283434a3aa2439baf06aaa1f3d2aa412f4af009dee588fb613910160405180910390a1601355565b600b546001600160a01b0316336001600160a01b03161461142e5760405162461bcd60e51b81526004016105c490611a01565b816001600160a01b03167fa3986717eab59c6e6536b18cd698f5140ab289c16f0b76d3087b2cb0a4661d1f8260405161146b911515815260200190565b60405180910390a26001600160a01b03919091166000908152601560205260409020805460ff1916911515919091179055565b60008290506012826001600160a01b031663313ce5676040518163ffffffff1660e01b8152600401602060405180830381865afa1580156114e3573d6000803e3d6000fd5b505050506040513d601f19601f820116820180604052508101906115079190611afc565b60ff16101561159957816001600160a01b031663313ce5676040518163ffffffff1660e01b8152600401602060405180830381865afa15801561154e573d6000803e3d6000fd5b505050506040513d601f19601f820116820180604052508101906115729190611afc565b61157d906012611b26565b61158890600a611c23565b6115929082611c32565b905061168c565b6012826001600160a01b031663313ce5676040518163ffffffff1660e01b8152600401602060405180830381865afa1580156115d9573d6000803e3d6000fd5b505050506040513d601f19601f820116820180604052508101906115fd9190611afc565b60ff16111561168c576012826001600160a01b031663313ce5676040518163ffffffff1660e01b8152600401602060405180830381865afa158015611646573d6000803e3d6000fd5b505050506040513d601f19601f8201168201806040525081019061166a9190611afc565b6116749190611b26565b61167f90600a611c23565b6116899082611c51565b90505b92915050565b61169a6117ec565b600054600160a01b900460ff16156116c45760405162461bcd60e51b81526004016105c490611a65565b6001600160a01b0381166117405760405162461bcd60e51b815260206004820152603e60248201527f5a69766f654f776e61626c654c6f636b65643a3a7472616e736665724f776e6560448201527f72736869702829206e65774f776e6572203d3d2061646472657373283029000060648201526084016105c4565b610a6a81611884565b600b546001600160a01b0316336001600160a01b03161461177c5760405162461bcd60e51b81526004016105c490611a01565b816001600160a01b03167f3785d3e5a83b7cfed402ce1df45892a1fc7ad1e7c9de3b4bd9feec32a9eb68da826040516117b9911515815260200190565b60405180910390a26001600160a01b03919091166000908152601760205260409020805460ff1916911515919091179055565b6000546001600160a01b03163314610c375760405162461bcd60e51b815260206004820152603760248201527f5a69766f654f776e61626c654c6f636b65643a3a5f636865636b4f776e65722060448201527f6f776e6572282920213d205f6d736753656e646572282900000000000000000060648201526084016105c4565b60008282111561187e5750600061168c565b50900390565b600080546001600160a01b038381166001600160a01b0319831681178455604051919092169283917f8be0079c531659141344cd1fd0a4f28419497f9722a3daafe3b4186f6b6457e09190a35050565b80356001600160a01b03811681146118eb57600080fd5b919050565b6000806040838503121561190357600080fd5b61190c836118d4565b91506020830135801515811461192157600080fd5b809150509250929050565b60006020828403121561193e57600080fd5b611689826118d4565b60006020828403121561195957600080fd5b5035919050565b6000806020838503121561197357600080fd5b823567ffffffffffffffff8082111561198b57600080fd5b818501915085601f83011261199f57600080fd5b8135818111156119ae57600080fd5b8660208260051b85010111156119c357600080fd5b60209290920196919550909350505050565b600080604083850312156119e857600080fd5b823591506119f8602084016118d4565b90509250929050565b6020808252602b908201527f5a69766f65476c6f62616c733a3a6f6e6c795a564c2829205f6d736753656e6460408201526a195c8a0a48084f4816959360aa1b606082015260800190565b600060208284031215611a5e57600080fd5b5051919050565b60208082526025908201527f5a69766f654f776e61626c654c6f636b65643a3a756e6c6f636b65642829206c6040820152641bd8dad95960da1b606082015260800190565b634e487b7160e01b600052601160045260246000fd5b8082018082111561168c5761168c611aaa565b8181038181111561168c5761168c611aaa565b634e487b7160e01b600052603260045260246000fd5b600060208284031215611b0e57600080fd5b815160ff81168114611b1f57600080fd5b9392505050565b60ff828116828216039081111561168c5761168c611aaa565b600181815b80851115611b7a578160001904821115611b6057611b60611aaa565b80851615611b6d57918102915b93841c9390800290611b44565b509250929050565b600082611b915750600161168c565b81611b9e5750600061168c565b8160018114611bb45760028114611bbe57611bda565b600191505061168c565b60ff841115611bcf57611bcf611aaa565b50506001821b61168c565b5060208310610133831016604e8410600b8410161715611bfd575081810a61168c565b611c078383611b3f565b8060001904821115611c1b57611c1b611aaa565b029392505050565b600061168960ff841683611b82565b6000816000190483118215151615611c4c57611c4c611aaa565b500290565b600082611c6e57634e487b7160e01b600052601260045260246000fd5b50049056fea2646970667358221220b5b5f0d2f4445023cf42b3c4cae87a7fb3ebc3637fe0f4c47e05480f6589f0fb64736f6c63430008100033",
    "linkReferences": {}
  },
  "methodIdentifiers": {
    "DAO()": "98fabd3a",
    "GOV()": "180cb47f",
    "ITO()": "15154aff",
    "TLC()": "c76d41c8",
    "YDL()": "72d6724a",
    "ZVE()": "9af6c40e",
    "ZVL()": "00096045",
    "ZVT()": "8aa25652",
    "adjustedSupplies()": "5351d09b",
    "decreaseDefaults(uint256)": "79de2927",
    "defaults()": "edb7a6fa",
    "increaseDefaults(uint256)": "59e269ee",
    "initializeGlobals(address[])": "8b156c7a",
    "isKeeper(address)": "6ba42aaa",
    "isLocker(address)": "2ec63d7c",
    "locked()": "cf309012",
    "lowerRatioIncentive()": "97ce0b20",
    "maxTrancheRatioBIPS()": "ce872627",
    "maxZVEPerJTTMint()": "8d2b41b7",
    "minZVEPerJTTMint()": "106b3e8b",
    "owner()": "8da5cb5b",
    "renounceOwnership()": "715018a6",
    "stJTT()": "d8c58b6a",
    "stSTT()": "72ad4ba0",
    "stZVE()": "d9fa86ed",
    "stablecoinWhitelist(address)": "dd1db201",
    "standardize(uint256,address)": "dc3c1da5",
    "transferOwnership(address)": "f2fde38b",
    "transferOwnershipAndLock(address)": "58289c7e",
    "updateIsKeeper(address,bool)": "c2948d7d",
    "updateIsLocker(address,bool)": "010e2477",
    "updateLowerRatioIncentive(uint256)": "557dccaa",
    "updateMaxTrancheRatio(uint256)": "6a45c732",
    "updateMaxZVEPerJTTMint(uint256)": "3e62445d",
    "updateMinZVEPerJTTMint(uint256)": "7bcb5bb2",
    "updateStablecoinWhitelist(address,bool)": "f388884b",
    "updateUpperRatioIncentives(uint256)": "a81d42cb",
    "upperRatioIncentive()": "9da33f61",
    "vestZVE()": "201d620a",
    "zJTT()": "9699177c",
    "zSTT()": "c5f4f7b0"
  },
  "id": 44
}