{
  "abi": [
    {
      "inputs": [
        {
          "internalType": "address",
          "name": "DAO",
          "type": "address"
        },
        {
          "internalType": "address",
          "name": "_GBL",
          "type": "address"
        }
      ],
      "stateMutability": "nonpayable",
      "type": "constructor"
    },
    {
      "anonymous": false,
      "inputs": [
        {
          "indexed": true,
          "internalType": "address",
          "name": "previousOwner",
          "type": "address"
        },
        {
          "indexed": true,
          "internalType": "address",
          "name": "newOwner",
          "type": "address"
        }
      ],
      "name": "OwnershipTransferred",
      "type": "event"
    },
    {
      "anonymous": false,
      "inputs": [
        {
          "indexed": true,
          "internalType": "address",
          "name": "previousOwner",
          "type": "address"
        },
        {
          "indexed": true,
          "internalType": "address",
          "name": "newOwner",
          "type": "address"
        }
      ],
      "name": "OwnershipTransferredAndLocked",
      "type": "event"
    },
    {
      "inputs": [],
      "name": "CRV_Deployer",
      "outputs": [
        {
          "internalType": "address",
          "name": "",
          "type": "address"
        }
      ],
      "stateMutability": "view",
      "type": "function"
    },
    {
      "inputs": [],
      "name": "FBP_BP",
      "outputs": [
        {
          "internalType": "address",
          "name": "",
          "type": "address"
        }
      ],
      "stateMutability": "view",
      "type": "function"
    },
    {
      "inputs": [],
      "name": "FBP_TOKEN",
      "outputs": [
        {
          "internalType": "address",
          "name": "",
          "type": "address"
        }
      ],
      "stateMutability": "view",
      "type": "function"
    },
    {
      "inputs": [],
      "name": "FRAX",
      "outputs": [
        {
          "internalType": "address",
          "name": "",
          "type": "address"
        }
      ],
      "stateMutability": "view",
      "type": "function"
    },
    {
      "inputs": [],
      "name": "FRAXConvertible",
      "outputs": [
        {
          "internalType": "uint256",
          "name": "amount",
          "type": "uint256"
        },
        {
          "internalType": "uint256",
          "name": "lp",
          "type": "uint256"
        }
      ],
      "stateMutability": "view",
      "type": "function"
    },
    {
      "inputs": [],
      "name": "GBL",
      "outputs": [
        {
          "internalType": "address",
          "name": "",
          "type": "address"
        }
      ],
      "stateMutability": "view",
      "type": "function"
    },
    {
      "inputs": [],
      "name": "USDC",
      "outputs": [
        {
          "internalType": "address",
          "name": "",
          "type": "address"
        }
      ],
      "stateMutability": "view",
      "type": "function"
    },
    {
      "inputs": [],
      "name": "ZVE_MP",
      "outputs": [
        {
          "internalType": "address",
          "name": "",
          "type": "address"
        }
      ],
      "stateMutability": "view",
      "type": "function"
    },
    {
      "inputs": [],
      "name": "baseline",
      "outputs": [
        {
          "internalType": "uint256",
          "name": "",
          "type": "uint256"
        }
      ],
      "stateMutability": "view",
      "type": "function"
    },
    {
      "inputs": [],
      "name": "canPull",
      "outputs": [
        {
          "internalType": "bool",
          "name": "",
          "type": "bool"
        }
      ],
      "stateMutability": "view",
      "type": "function"
    },
    {
      "inputs": [],
      "name": "canPullERC1155",
      "outputs": [
        {
          "internalType": "bool",
          "name": "",
          "type": "bool"
        }
      ],
      "stateMutability": "view",
      "type": "function"
    },
    {
      "inputs": [],
      "name": "canPullERC721",
      "outputs": [
        {
          "internalType": "bool",
          "name": "",
          "type": "bool"
        }
      ],
      "stateMutability": "view",
      "type": "function"
    },
    {
      "inputs": [],
      "name": "canPullMulti",
      "outputs": [
        {
          "internalType": "bool",
          "name": "",
          "type": "bool"
        }
      ],
      "stateMutability": "pure",
      "type": "function"
    },
    {
      "inputs": [],
      "name": "canPullMultiERC721",
      "outputs": [
        {
          "internalType": "bool",
          "name": "",
          "type": "bool"
        }
      ],
      "stateMutability": "view",
      "type": "function"
    },
    {
      "inputs": [],
      "name": "canPullMultiPartial",
      "outputs": [
        {
          "internalType": "bool",
          "name": "",
          "type": "bool"
        }
      ],
      "stateMutability": "view",
      "type": "function"
    },
    {
      "inputs": [],
      "name": "canPullPartial",
      "outputs": [
        {
          "internalType": "bool",
          "name": "",
          "type": "bool"
        }
      ],
      "stateMutability": "pure",
      "type": "function"
    },
    {
      "inputs": [],
      "name": "canPush",
      "outputs": [
        {
          "internalType": "bool",
          "name": "",
          "type": "bool"
        }
      ],
      "stateMutability": "view",
      "type": "function"
    },
    {
      "inputs": [],
      "name": "canPushERC1155",
      "outputs": [
        {
          "internalType": "bool",
          "name": "",
          "type": "bool"
        }
      ],
      "stateMutability": "view",
      "type": "function"
    },
    {
      "inputs": [],
      "name": "canPushERC721",
      "outputs": [
        {
          "internalType": "bool",
          "name": "",
          "type": "bool"
        }
      ],
      "stateMutability": "view",
      "type": "function"
    },
    {
      "inputs": [],
      "name": "canPushMulti",
      "outputs": [
        {
          "internalType": "bool",
          "name": "",
          "type": "bool"
        }
      ],
      "stateMutability": "pure",
      "type": "function"
    },
    {
      "inputs": [],
      "name": "canPushMultiERC721",
      "outputs": [
        {
          "internalType": "bool",
          "name": "",
          "type": "bool"
        }
      ],
      "stateMutability": "view",
      "type": "function"
    },
    {
      "inputs": [],
      "name": "forwardYield",
      "outputs": [],
      "stateMutability": "nonpayable",
      "type": "function"
    },
    {
      "inputs": [],
      "name": "locked",
      "outputs": [
        {
          "internalType": "bool",
          "name": "",
          "type": "bool"
        }
      ],
      "stateMutability": "view",
      "type": "function"
    },
    {
      "inputs": [],
      "name": "nextYieldDistribution",
      "outputs": [
        {
          "internalType": "uint256",
          "name": "",
          "type": "uint256"
        }
      ],
      "stateMutability": "view",
      "type": "function"
    },
    {
      "inputs": [
        {
          "internalType": "address",
          "name": "",
          "type": "address"
        },
        {
          "internalType": "address",
          "name": "",
          "type": "address"
        },
        {
          "internalType": "uint256[]",
          "name": "",
          "type": "uint256[]"
        },
        {
          "internalType": "uint256[]",
          "name": "",
          "type": "uint256[]"
        },
        {
          "internalType": "bytes",
          "name": "",
          "type": "bytes"
        }
      ],
      "name": "onERC1155BatchReceived",
      "outputs": [
        {
          "internalType": "bytes4",
          "name": "",
          "type": "bytes4"
        }
      ],
      "stateMutability": "nonpayable",
      "type": "function"
    },
    {
      "inputs": [
        {
          "internalType": "address",
          "name": "",
          "type": "address"
        },
        {
          "internalType": "address",
          "name": "",
          "type": "address"
        },
        {
          "internalType": "uint256",
          "name": "",
          "type": "uint256"
        },
        {
          "internalType": "uint256",
          "name": "",
          "type": "uint256"
        },
        {
          "internalType": "bytes",
          "name": "",
          "type": "bytes"
        }
      ],
      "name": "onERC1155Received",
      "outputs": [
        {
          "internalType": "bytes4",
          "name": "",
          "type": "bytes4"
        }
      ],
      "stateMutability": "nonpayable",
      "type": "function"
    },
    {
      "inputs": [
        {
          "internalType": "address",
          "name": "",
          "type": "address"
        },
        {
          "internalType": "address",
          "name": "",
          "type": "address"
        },
        {
          "internalType": "uint256",
          "name": "",
          "type": "uint256"
        },
        {
          "internalType": "bytes",
          "name": "",
          "type": "bytes"
        }
      ],
      "name": "onERC721Received",
      "outputs": [
        {
          "internalType": "bytes4",
          "name": "",
          "type": "bytes4"
        }
      ],
      "stateMutability": "nonpayable",
      "type": "function"
    },
    {
      "inputs": [],
      "name": "owner",
      "outputs": [
        {
          "internalType": "address",
          "name": "",
          "type": "address"
        }
      ],
      "stateMutability": "view",
      "type": "function"
    },
    {
      "inputs": [
        {
          "internalType": "address",
          "name": "asset",
          "type": "address"
        }
      ],
      "name": "pullFromLocker",
      "outputs": [],
      "stateMutability": "nonpayable",
      "type": "function"
    },
    {
      "inputs": [
        {
          "internalType": "address",
          "name": "asset",
          "type": "address"
        },
        {
          "internalType": "uint256[]",
          "name": "ids",
          "type": "uint256[]"
        },
        {
          "internalType": "uint256[]",
          "name": "amounts",
          "type": "uint256[]"
        },
        {
          "internalType": "bytes",
          "name": "data",
          "type": "bytes"
        }
      ],
      "name": "pullFromLockerERC1155",
      "outputs": [],
      "stateMutability": "nonpayable",
      "type": "function"
    },
    {
      "inputs": [
        {
          "internalType": "address",
          "name": "asset",
          "type": "address"
        },
        {
          "internalType": "uint256",
          "name": "tokenId",
          "type": "uint256"
        },
        {
          "internalType": "bytes",
          "name": "data",
          "type": "bytes"
        }
      ],
      "name": "pullFromLockerERC721",
      "outputs": [],
      "stateMutability": "nonpayable",
      "type": "function"
    },
    {
      "inputs": [
        {
          "internalType": "address[]",
          "name": "assets",
          "type": "address[]"
        }
      ],
      "name": "pullFromLockerMulti",
      "outputs": [],
      "stateMutability": "nonpayable",
      "type": "function"
    },
    {
      "inputs": [
        {
          "internalType": "address[]",
          "name": "assets",
          "type": "address[]"
        },
        {
          "internalType": "uint256[]",
          "name": "tokenIds",
          "type": "uint256[]"
        },
        {
          "internalType": "bytes[]",
          "name": "data",
          "type": "bytes[]"
        }
      ],
      "name": "pullFromLockerMultiERC721",
      "outputs": [],
      "stateMutability": "nonpayable",
      "type": "function"
    },
    {
      "inputs": [
        {
          "internalType": "address[]",
          "name": "assets",
          "type": "address[]"
        },
        {
          "internalType": "uint256[]",
          "name": "amounts",
          "type": "uint256[]"
        }
      ],
      "name": "pullFromLockerMultiPartial",
      "outputs": [],
      "stateMutability": "nonpayable",
      "type": "function"
    },
    {
      "inputs": [
        {
          "internalType": "address",
          "name": "asset",
          "type": "address"
        },
        {
          "internalType": "uint256",
          "name": "amount",
          "type": "uint256"
        }
      ],
      "name": "pullFromLockerPartial",
      "outputs": [],
      "stateMutability": "nonpayable",
      "type": "function"
    },
    {
      "inputs": [
        {
          "internalType": "address",
          "name": "asset",
          "type": "address"
        },
        {
          "internalType": "uint256",
          "name": "amount",
          "type": "uint256"
        }
      ],
      "name": "pushToLocker",
      "outputs": [],
      "stateMutability": "nonpayable",
      "type": "function"
    },
    {
      "inputs": [
        {
          "internalType": "address",
          "name": "asset",
          "type": "address"
        },
        {
          "internalType": "uint256[]",
          "name": "ids",
          "type": "uint256[]"
        },
        {
          "internalType": "uint256[]",
          "name": "amounts",
          "type": "uint256[]"
        },
        {
          "internalType": "bytes",
          "name": "data",
          "type": "bytes"
        }
      ],
      "name": "pushToLockerERC1155",
      "outputs": [],
      "stateMutability": "nonpayable",
      "type": "function"
    },
    {
      "inputs": [
        {
          "internalType": "address",
          "name": "asset",
          "type": "address"
        },
        {
          "internalType": "uint256",
          "name": "tokenId",
          "type": "uint256"
        },
        {
          "internalType": "bytes",
          "name": "data",
          "type": "bytes"
        }
      ],
      "name": "pushToLockerERC721",
      "outputs": [],
      "stateMutability": "nonpayable",
      "type": "function"
    },
    {
      "inputs": [
        {
          "internalType": "address[]",
          "name": "assets",
          "type": "address[]"
        },
        {
          "internalType": "uint256[]",
          "name": "amounts",
          "type": "uint256[]"
        }
      ],
      "name": "pushToLockerMulti",
      "outputs": [],
      "stateMutability": "nonpayable",
      "type": "function"
    },
    {
      "inputs": [
        {
          "internalType": "address[]",
          "name": "assets",
          "type": "address[]"
        },
        {
          "internalType": "uint256[]",
          "name": "tokenIds",
          "type": "uint256[]"
        },
        {
          "internalType": "bytes[]",
          "name": "data",
          "type": "bytes[]"
        }
      ],
      "name": "pushToLockerMultiERC721",
      "outputs": [],
      "stateMutability": "nonpayable",
      "type": "function"
    },
    {
      "inputs": [],
      "name": "renounceOwnership",
      "outputs": [],
      "stateMutability": "nonpayable",
      "type": "function"
    },
    {
      "inputs": [
        {
          "internalType": "bytes4",
          "name": "interfaceId",
          "type": "bytes4"
        }
      ],
      "name": "supportsInterface",
      "outputs": [
        {
          "internalType": "bool",
          "name": "",
          "type": "bool"
        }
      ],
      "stateMutability": "view",
      "type": "function"
    },
    {
      "inputs": [
        {
          "internalType": "address",
          "name": "newOwner",
          "type": "address"
        }
      ],
      "name": "transferOwnership",
      "outputs": [],
      "stateMutability": "nonpayable",
      "type": "function"
    },
    {
      "inputs": [
        {
          "internalType": "address",
          "name": "newOwner",
          "type": "address"
        }
      ],
      "name": "transferOwnershipAndLock",
      "outputs": [],
      "stateMutability": "nonpayable",
      "type": "function"
    }
  ],
  "bytecode": {
    "object": "0x60a06040523480156200001157600080fd5b5060405162003979380380620039798339810160408190526200003491620003ed565b6200003f33620001f8565b6200004a8262000248565b806001600160a01b03166080816001600160a01b03168152505073b9fc157394af804a3578134a6585c0dc9cc990d46001600160a01b031663e339eb4f73dcef968d416a41cdac0ed8702fac8128a64241a2836001600160a01b0316639af6c40e6040518163ffffffff1660e01b8152600401602060405180830381865afa158015620000db573d6000803e3d6000fd5b505050506040513d601f19601f8201168201806040525081019062000101919062000425565b6040516001600160e01b031960e085901b1681526001600160a01b03928316600482015260c06024820152601060c48201526f05a56455f4d657461506f6f6c5f4642560841b60e4820152610100604482015260076101048201526605a56452f4642560cc1b6101248201529116606482015260fa60848201526301312d0060a4820152610144016020604051808303816000875af1158015620001a9573d6000803e3d6000fd5b505050506040513d601f19601f82011682018060405250810190620001cf919062000425565b600180546001600160a01b0319166001600160a01b0392909216919091179055506200044a9050565b600080546001600160a01b038381166001600160a01b0319831681178455604051919092169283917f8be0079c531659141344cd1fd0a4f28419497f9722a3daafe3b4186f6b6457e09190a35050565b620002526200034c565b600054600160a01b900460ff1615620002c05760405162461bcd60e51b815260206004820152602560248201527f5a69766f654f776e61626c654c6f636b65643a3a756e6c6f636b65642829206c6044820152641bd8dad95960da1b60648201526084015b60405180910390fd5b6001600160a01b0381166200033e5760405162461bcd60e51b815260206004820152603e60248201527f5a69766f654f776e61626c654c6f636b65643a3a7472616e736665724f776e6560448201527f72736869702829206e65774f776e6572203d3d206164647265737328302900006064820152608401620002b7565b6200034981620001f8565b50565b6000546001600160a01b03163314620003ce5760405162461bcd60e51b815260206004820152603760248201527f5a69766f654f776e61626c654c6f636b65643a3a5f636865636b4f776e65722060448201527f6f776e6572282920213d205f6d736753656e64657228290000000000000000006064820152608401620002b7565b565b80516001600160a01b0381168114620003e857600080fd5b919050565b600080604083850312156200040157600080fd5b6200040c83620003d0565b91506200041c60208401620003d0565b90509250929050565b6000602082840312156200043857600080fd5b6200044382620003d0565b9392505050565b6080516134d4620004a56000396000818161037f01528181610b6401528181611001015281816110ed0152818161149301528181611b1401528181611c0001528181611c9a015281816121ee015261285e01526134d46000f3fe608060405234801561001057600080fd5b50600436106102745760003560e01c80638b648ee211610151578063cf309012116100c3578063f23a6e6111610087578063f23a6e6114610507578063f2fde38b14610526578063f988dc3f14610539578063fd76f59d14610542578063ff0459ba14610555578063ff4a67611461056857600080fd5b8063cf309012146104cd578063d9821e3b146104e1578063dd913bdb146102f5578063e296a643146104f4578063e7f44629146102f557600080fd5b8063b0607cf811610115578063b0607cf8146102f5578063b0e4556f1461046d578063b892bcc014610488578063bc197c811461049b578063c9c6a414146104ba578063cf10b7ab146102f557600080fd5b80638b648ee2146102f55780638da5cb5b1461042a578063a4a3e79d146103a1578063a615310c1461043b578063ab2637af1461045657600080fd5b80633c117244116101ea578063607cd649116101ae578063607cd649146103ce57806364c77735146103a1578063715018a6146103e15780637dbcdbc1146103e957806384476591146103fc57806389a302711461040f57600080fd5b80633c117244146102f55780633ce8d4321461037a5780633eda81ad146103a1578063422b2018146103a857806358289c7e146103bb57600080fd5b806318c2089b1161023c57806318c2089b146102fc5780631d9389e91461032f578063215cccdd146102f5578063267207de146103425780632f08d48b146102f55780633a24d8851461035d57600080fd5b806301ffc9a71461027957806312052176146102a1578063150b7a02146102b657806315e98744146102e25780631852b383146102f5575b600080fd5b61028c610287366004612b71565b610570565b60405190151581526020015b60405180910390f35b6102b46102af366004612bf8565b6105a7565b005b6102c96102c4366004612d08565b610619565b6040516001600160e01b03199091168152602001610298565b6102b46102f0366004612db7565b61062a565b600061028c565b610317733175df0976dfa876431c2e9ee6bc45b65d3473cc81565b6040516001600160a01b039091168152602001610298565b6102b461033d366004612bf8565b61079b565b61031773dcef968d416a41cdac0ed8702fac8128a64241a281565b610365610806565b60408051928352602083019190915201610298565b6103177f000000000000000000000000000000000000000000000000000000000000000081565b600161028c565b6102b46103b6366004612e50565b610975565b6102b46103c9366004612efc565b6109e4565b6102b46103dc366004612f19565b610abf565b6102b4611187565b6102b46103f7366004612efc565b6111c5565b6102b461040a366004612f5a565b611226565b61031773a0b86991c6218b36c1d19d4a2e9eb0ce3606eb4881565b6000546001600160a01b0316610317565b61031773b9fc157394af804a3578134a6585c0dc9cc990d481565b61045f60025481565b604051908152602001610298565b61031773853d955acef822db058eb8505911ed77f175b99e81565b6102b4610496366004612db7565b611289565b6102c96104a9366004612ffa565b63bc197c8160e01b95945050505050565b6102b46104c83660046130a7565b6113f1565b60005461028c90600160a01b900460ff1681565b6102b46104ef366004612f5a565b611f0d565b600154610317906001600160a01b031681565b6102c9610515366004613106565b63f23a6e6160e01b95945050505050565b6102b4610534366004612efc565b611fd2565b61045f60035481565b6102b4610550366004612e50565b612089565b6102b46105633660046130a7565b6120f6565b6102b46121e4565b60006001600160e01b03198216630271189760e51b14806105a157506301ffc9a760e01b6001600160e01b03198316145b92915050565b6105af61243d565b60405162461bcd60e51b815260206004820152603460248201527f5a69766f654c6f636b65723a3a70756c6c46726f6d4c6f636b65724552433732604482015273312829202163616e50756c6c455243373231282960601b60648201526084015b60405180910390fd5b630a85bd0160e11b5b949350505050565b61063261243d565b60405162461bcd60e51b815260206004820152603e60248201527f5a69766f654c6f636b65723a3a70756c6c46726f6d4c6f636b65724d756c746960448201527f4552433732312829202163616e50756c6c4d756c7469455243373231282900006064820152608401610610565b85811015610792578686828181106106ba576106ba6131cb565b90506020020160208101906106cf9190612efc565b6001600160a01b031663b88d4fde306106f06000546001600160a01b031690565b888886818110610702576107026131cb565b9050602002013587878781811061071b5761071b6131cb565b905060200281019061072d91906131e1565b6040518663ffffffff1660e01b815260040161074d959493929190613197565b600060405180830381600087803b15801561076757600080fd5b505af115801561077b573d6000803e3d6000fd5b50505050808061078a9061323d565b9150506106a0565b50505050505050565b6107a361243d565b60405162461bcd60e51b815260206004820152603260248201527f5a69766f654c6f636b65723a3a70757368546f4c6f636b65724552433732312860448201527129202163616e50757368455243373231282960701b6064820152608401610610565b6001546040516370a0823160e01b815230600482015260009182916001600160a01b03909116906370a0823190602401602060405180830381865afa158015610853573d6000803e3d6000fd5b505050506040513d601f19601f820116820180604052508101906108779190613256565b6001805460405163cc2b27d760e01b815260048101849052602481019290925291925073dcef968d416a41cdac0ed8702fac8128a64241a29163cc2b27d7916001600160a01b03909116908290604401602060405180830381865afa1580156108e4573d6000803e3d6000fd5b505050506040513d601f19601f820116820180604052508101906109089190613256565b6040516001600160e01b031960e084901b168152600481019190915260006024820152604401602060405180830381865afa15801561094b573d6000803e3d6000fd5b505050506040513d601f19601f8201168201806040525081019061096f9190613256565b91509091565b61097d61243d565b60405162461bcd60e51b815260206004820152603660248201527f5a69766f654c6f636b65723a3a70756c6c46726f6d4c6f636b6572455243313160448201527535352829202163616e50756c6c45524331313535282960501b6064820152608401610610565b6109ec61243d565b600054600160a01b900460ff1615610a165760405162461bcd60e51b81526004016106109061326f565b6001600160a01b038116610aa05760405162461bcd60e51b815260206004820152604560248201527f5a69766f654f776e61626c654c6f636b65643a3a7472616e736665724f776e6560448201527f7273686970416e644c6f636b2829206e65774f776e6572203d3d206164647265606482015264737328302960d81b608482015260a401610610565b6000805460ff60a01b1916600160a01b179055610abc816124bd565b50565b610ac761243d565b73a0b86991c6218b36c1d19d4a2e9eb0ce3606eb488282600081610aed57610aed6131cb565b9050602002016020810190610b029190612efc565b6001600160a01b0316148015610b5b575073853d955acef822db058eb8505911ed77f175b99e82826001818110610b3b57610b3b6131cb565b9050602002016020810190610b509190612efc565b6001600160a01b0316145b8015610c2057507f00000000000000000000000000000000000000000000000000000000000000006001600160a01b0316639af6c40e6040518163ffffffff1660e01b8152600401602060405180830381865afa158015610bc0573d6000803e3d6000fd5b505050506040513d601f19601f82011682018060405250810190610be491906132b4565b6001600160a01b031682826002818110610c0057610c006131cb565b9050602002016020810190610c159190612efc565b6001600160a01b0316145b610cd55760405162461bcd60e51b815260206004820152607460248201527f4f434c5f5a56455f4352565f303a3a70756c6c46726f6d4c6f636b65724d756c60448201527f74692829206173736574735b305d20213d2055534443207c7c2061737365747360648201527f5b315d20213d2046524158207c7c206173736574735b325d20213d20495a69766084820152736f65476c6f62616c732847424c292e5a5645282960601b60a482015260c401610610565b610cdd612b53565b6001546040516370a0823160e01b81523060048201526001600160a01b0390911690635b36389c9082906370a0823190602401602060405180830381865afa158015610d2d573d6000803e3d6000fd5b505050506040513d601f19601f82011682018060405250810190610d519190613256565b836040518363ffffffff1660e01b8152600401610d6f9291906132f4565b60408051808303816000875af1158015610d8d573d6000803e3d6000fd5b505050506040513d601f19601f82011682018060405250810190610db19190613308565b506040516370a0823160e01b815230600482015273dcef968d416a41cdac0ed8702fac8128a64241a290635b36389c90733175df0976dfa876431c2e9ee6bc45b65d3473cc906370a0823190602401602060405180830381865afa158015610e1d573d6000803e3d6000fd5b505050506040513d601f19601f82011682018060405250810190610e419190613256565b836040518363ffffffff1660e01b8152600401610e5f9291906132f4565b60408051808303816000875af1158015610e7d573d6000803e3d6000fd5b505050506040513d601f19601f82011682018060405250810190610ea19190613308565b50610f46610eb76000546001600160a01b031690565b6040516370a0823160e01b815230600482015273a0b86991c6218b36c1d19d4a2e9eb0ce3606eb48906370a0823190602401602060405180830381865afa158015610f06573d6000803e3d6000fd5b505050506040513d601f19601f82011682018060405250810190610f2a9190613256565b73a0b86991c6218b36c1d19d4a2e9eb0ce3606eb48919061250d565b610fea610f5b6000546001600160a01b031690565b6040516370a0823160e01b815230600482015273853d955acef822db058eb8505911ed77f175b99e906370a0823190602401602060405180830381865afa158015610faa573d6000803e3d6000fd5b505050506040513d601f19601f82011682018060405250810190610fce9190613256565b73853d955acef822db058eb8505911ed77f175b99e919061250d565b61117d610fff6000546001600160a01b031690565b7f00000000000000000000000000000000000000000000000000000000000000006001600160a01b0316639af6c40e6040518163ffffffff1660e01b8152600401602060405180830381865afa15801561105d573d6000803e3d6000fd5b505050506040513d601f19601f8201168201806040525081019061108191906132b4565b6040516370a0823160e01b81523060048201526001600160a01b0391909116906370a0823190602401602060405180830381865afa1580156110c7573d6000803e3d6000fd5b505050506040513d601f19601f820116820180604052508101906110eb9190613256565b7f00000000000000000000000000000000000000000000000000000000000000006001600160a01b0316639af6c40e6040518163ffffffff1660e01b8152600401602060405180830381865afa158015611149573d6000803e3d6000fd5b505050506040513d601f19601f8201168201806040525081019061116d91906132b4565b6001600160a01b0316919061250d565b5050600060025550565b61118f61243d565b600054600160a01b900460ff16156111b95760405162461bcd60e51b81526004016106109061326f565b6111c360006124bd565b565b6111cd61243d565b60405162461bcd60e51b815260206004820152602860248201527f5a69766f654c6f636b65723a3a70756c6c46726f6d4c6f636b65722829202163604482015267616e50756c6c282960c01b6064820152608401610610565b61122e61243d565b60405162461bcd60e51b815260206004820152602660248201527f5a69766f654c6f636b65723a3a70757368546f4c6f636b65722829202163616e60448201526550757368282960d01b6064820152608401610610565b5050565b61129161243d565b60405162461bcd60e51b815260206004820152603c60248201527f5a69766f654c6f636b65723a3a70757368546f4c6f636b65724d756c7469455260448201527f433732312829202163616e507573684d756c74694552433732312829000000006064820152608401610610565b8581101561079257868682818110611319576113196131cb565b905060200201602081019061132e9190612efc565b6001600160a01b031663b88d4fde61134e6000546001600160a01b031690565b30888886818110611361576113616131cb565b9050602002013587878781811061137a5761137a6131cb565b905060200281019061138c91906131e1565b6040518663ffffffff1660e01b81526004016113ac959493929190613197565b600060405180830381600087803b1580156113c657600080fd5b505af11580156113da573d6000803e3d6000fd5b5050505080806113e99061323d565b9150506112ff565b6113f961243d565b73853d955acef822db058eb8505911ed77f175b99e848460008161141f5761141f6131cb565b90506020020160208101906114349190612efc565b6001600160a01b0316148061148a575073a0b86991c6218b36c1d19d4a2e9eb0ce3606eb48848460008161146a5761146a6131cb565b905060200201602081019061147f9190612efc565b6001600160a01b0316145b801561154f57507f00000000000000000000000000000000000000000000000000000000000000006001600160a01b0316639af6c40e6040518163ffffffff1660e01b8152600401602060405180830381865afa1580156114ef573d6000803e3d6000fd5b505050506040513d601f19601f8201168201806040525081019061151391906132b4565b6001600160a01b03168484600181811061152f5761152f6131cb565b90506020020160208101906115449190612efc565b6001600160a01b0316145b6116045760405162461bcd60e51b815260206004820152607460248201527f4f434c5f5a56455f4352565f303a3a70757368546f4c6f636b65724d756c746960448201527f282920286173736574735b305d20213d2046524158202626206173736574735b60648201527f305d203d3d205553444329207c7c206173736574735b315d20213d20495a69766084820152736f65476c6f62616c732847424c292e5a5645282960601b60a482015260c401610610565b60005b6002811015611689576116776116256000546001600160a01b031690565b30858585818110611638576116386131cb565b90506020020135888886818110611651576116516131cb565b90506020020160208101906116669190612efc565b6001600160a01b0316929190612575565b806116818161323d565b915050611607565b506003546000036116a5576116a14262278d00613387565b6003555b60006002546000146116bd576116b9610806565b5090505b73853d955acef822db058eb8505911ed77f175b99e85856000816116e3576116e36131cb565b90506020020160208101906116f89190612efc565b6001600160a01b0316036118b0576040516370a0823160e01b81523060048201526117af9073dcef968d416a41cdac0ed8702fac8128a64241a29073853d955acef822db058eb8505911ed77f175b99e906370a0823190602401602060405180830381865afa15801561176f573d6000803e3d6000fd5b505050506040513d601f19601f820116820180604052508101906117939190613256565b73853d955acef822db058eb8505911ed77f175b99e91906125b3565b6117b7612b53565b6040516370a0823160e01b815230600482015273853d955acef822db058eb8505911ed77f175b99e906370a0823190602401602060405180830381865afa158015611806573d6000803e3d6000fd5b505050506040513d601f19601f8201168201806040525081019061182a9190613256565b8152604051630b4c7e4d60e01b815273dcef968d416a41cdac0ed8702fac8128a64241a290630b4c7e4d9061186690849060009060040161339a565b6020604051808303816000875af1158015611885573d6000803e3d6000fd5b505050506040513d601f19601f820116820180604052508101906118a99190613256565b5050611a59565b6040516370a0823160e01b81523060048201526119599073dcef968d416a41cdac0ed8702fac8128a64241a29073a0b86991c6218b36c1d19d4a2e9eb0ce3606eb48906370a0823190602401602060405180830381865afa158015611919573d6000803e3d6000fd5b505050506040513d601f19601f8201168201806040525081019061193d9190613256565b73a0b86991c6218b36c1d19d4a2e9eb0ce3606eb4891906125b3565b611961612b53565b6040516370a0823160e01b815230600482015273a0b86991c6218b36c1d19d4a2e9eb0ce3606eb48906370a0823190602401602060405180830381865afa1580156119b0573d6000803e3d6000fd5b505050506040513d601f19601f820116820180604052508101906119d49190613256565b6020820152604051630b4c7e4d60e01b815273dcef968d416a41cdac0ed8702fac8128a64241a290630b4c7e4d90611a1390849060009060040161339a565b6020604051808303816000875af1158015611a32573d6000803e3d6000fd5b505050506040513d601f19601f82011682018060405250810190611a569190613256565b50505b6001546040516370a0823160e01b8152306004820152611af9916001600160a01b031690733175df0976dfa876431c2e9ee6bc45b65d3473cc906370a0823190602401602060405180830381865afa158015611ab9573d6000803e3d6000fd5b505050506040513d601f19601f82011682018060405250810190611add9190613256565b733175df0976dfa876431c2e9ee6bc45b65d3473cc91906125b3565b611c90600160009054906101000a90046001600160a01b03167f00000000000000000000000000000000000000000000000000000000000000006001600160a01b0316639af6c40e6040518163ffffffff1660e01b8152600401602060405180830381865afa158015611b70573d6000803e3d6000fd5b505050506040513d601f19601f82011682018060405250810190611b9491906132b4565b6040516370a0823160e01b81523060048201526001600160a01b0391909116906370a0823190602401602060405180830381865afa158015611bda573d6000803e3d6000fd5b505050506040513d601f19601f82011682018060405250810190611bfe9190613256565b7f00000000000000000000000000000000000000000000000000000000000000006001600160a01b0316639af6c40e6040518163ffffffff1660e01b8152600401602060405180830381865afa158015611c5c573d6000803e3d6000fd5b505050506040513d601f19601f82011682018060405250810190611c8091906132b4565b6001600160a01b031691906125b3565b611c98612b53565b7f00000000000000000000000000000000000000000000000000000000000000006001600160a01b0316639af6c40e6040518163ffffffff1660e01b8152600401602060405180830381865afa158015611cf6573d6000803e3d6000fd5b505050506040513d601f19601f82011682018060405250810190611d1a91906132b4565b6040516370a0823160e01b81523060048201526001600160a01b0391909116906370a0823190602401602060405180830381865afa158015611d60573d6000803e3d6000fd5b505050506040513d601f19601f82011682018060405250810190611d849190613256565b81526040516370a0823160e01b8152306004820152733175df0976dfa876431c2e9ee6bc45b65d3473cc906370a0823190602401602060405180830381865afa158015611dd5573d6000803e3d6000fd5b505050506040513d601f19601f82011682018060405250810190611df99190613256565b6020820152600154604051630b4c7e4d60e01b81526001600160a01b0390911690630b4c7e4d90611e3190849060009060040161339a565b6020604051808303816000875af1158015611e50573d6000803e3d6000fd5b505050506040513d601f19601f82011682018060405250810190611e749190613256565b506000611e7f610806565b509050828111611ef75760405162461bcd60e51b815260206004820152603d60248201527f4f434c5f5a56455f4352565f303a3a70757368546f4c6f636b65724d756c746960448201527f282920706f7374426173656c696e65203c20707265426173656c696e650000006064820152608401610610565b611f0183826133b5565b60025550505050505050565b611f1561243d565b6001546001600160a01b03838116911614611f985760405162461bcd60e51b815260206004820152603760248201527f4f434c5f5a56455f4352565f303a3a70756c6c46726f6d4c6f636b657250617260448201527f7469616c28292061737365747320213d205a56455f4d500000000000000000006064820152608401610610565b611fa0612b53565b6001546040516316cd8e2760e21b81526001600160a01b0390911690635b36389c90610d6f90859085906004016132f4565b611fda61243d565b600054600160a01b900460ff16156120045760405162461bcd60e51b81526004016106109061326f565b6001600160a01b0381166120805760405162461bcd60e51b815260206004820152603e60248201527f5a69766f654f776e61626c654c6f636b65643a3a7472616e736665724f776e6560448201527f72736869702829206e65774f776e6572203d3d206164647265737328302900006064820152608401610610565b610abc816124bd565b61209161243d565b60405162461bcd60e51b815260206004820152603460248201527f5a69766f654c6f636b65723a3a70757368546f4c6f636b6572455243313135356044820152732829202163616e5075736845524331313535282960601b6064820152608401610610565b6120fe61243d565b6040805162461bcd60e51b81526020600482015260248101919091527f5a69766f654c6f636b65723a3a70756c6c46726f6d4c6f636b65724d756c746960448201527f5061727469616c2829202163616e50756c6c4d756c74695061727469616c28296064820152608401610610565b838110156121dd576121cb61218b6000546001600160a01b031690565b84848481811061219d5761219d6131cb565b905060200201358787858181106121b6576121b66131cb565b905060200201602081019061116d9190612efc565b806121d58161323d565b91505061216e565b5050505050565b6001600160a01b037f000000000000000000000000000000000000000000000000000000000000000016636ba42aaa336040516001600160e01b031960e084901b1681526001600160a01b039091166004820152602401602060405180830381865afa158015612258573d6000803e3d6000fd5b505050506040513d601f19601f8201168201806040525081019061227c91906133c8565b156123245761a8c060035461229191906133b5565b421161231f5760405162461bcd60e51b815260206004820152605160248201527f4f434c5f5a56455f4352565f303a3a666f72776172645969656c64282920626c60448201527f6f636b2e74696d657374616d70203c3d206e6578745969656c64446973747269606482015270627574696f6e202d20313220686f75727360781b608482015260a401610610565b6123aa565b60035442116123aa5760405162461bcd60e51b815260206004820152604660248201527f4f434c5f5a56455f4352565f303a3a666f72776172645969656c64282920626c60448201527f6f636b2e74696d657374616d70203c3d206e6578745969656c64446973747269606482015265313aba34b7b760d11b608482015260a401610610565b6000806123b5610806565b9150915060025482116124235760405162461bcd60e51b815260206004820152603060248201527f4f434c5f5a56455f4352565f303a3a666f72776172645969656c64282920616d60448201526f6f756e74203c3d20626173656c696e6560801b6064820152608401610610565b6124304262278d00613387565b60035561128582826126c8565b6000546001600160a01b031633146111c35760405162461bcd60e51b815260206004820152603760248201527f5a69766f654f776e61626c654c6f636b65643a3a5f636865636b4f776e65722060448201527f6f776e6572282920213d205f6d736753656e64657228290000000000000000006064820152608401610610565b600080546001600160a01b038381166001600160a01b0319831681178455604051919092169283917f8be0079c531659141344cd1fd0a4f28419497f9722a3daafe3b4186f6b6457e09190a35050565b6040516001600160a01b03831660248201526044810182905261257090849063a9059cbb60e01b906064015b60408051601f198184030181529190526020810180516001600160e01b03166001600160e01b0319909316929092179091526128ef565b505050565b6040516001600160a01b03808516602483015283166044820152606481018290526125ad9085906323b872dd60e01b90608401612539565b50505050565b80158061262d5750604051636eb1769f60e11b81523060048201526001600160a01b03838116602483015284169063dd62ed3e90604401602060405180830381865afa158015612607573d6000803e3d6000fd5b505050506040513d601f19601f8201168201806040525081019061262b9190613256565b155b6126985760405162461bcd60e51b815260206004820152603660248201527f5361666545524332303a20617070726f76652066726f6d206e6f6e2d7a65726f60448201527520746f206e6f6e2d7a65726f20616c6c6f77616e636560501b6064820152608401610610565b6040516001600160a01b03831660248201526044810182905261257090849063095ea7b360e01b90606401612539565b600060028383600254866126dc91906133b5565b6126e691906133ea565b6126f09190613409565b6126fa9190613409565b60018054604051630d2680e960e11b8152600481018490526024810192909252600060448301529192506001600160a01b0390911690631a4d01d290606401600060405180830381600087803b15801561275357600080fd5b505af1158015612767573d6000803e3d6000fd5b50506040516370a0823160e01b815230600482015273dcef968d416a41cdac0ed8702fac8128a64241a29250631a4d01d29150733175df0976dfa876431c2e9ee6bc45b65d3473cc906370a0823190602401602060405180830381865afa1580156127d6573d6000803e3d6000fd5b505050506040513d601f19601f820116820180604052508101906127fa9190613256565b6040516001600160e01b031960e084901b16815260048101919091526000602482018190526044820152606401600060405180830381600087803b15801561284157600080fd5b505af1158015612855573d6000803e3d6000fd5b505050506128de7f00000000000000000000000000000000000000000000000000000000000000006001600160a01b03166372d6724a6040518163ffffffff1660e01b8152600401602060405180830381865afa1580156128ba573d6000803e3d6000fd5b505050506040513d601f19601f82011682018060405250810190610f5b91906132b4565b6128e6610806565b50600255505050565b6000612944826040518060400160405280602081526020017f5361666545524332303a206c6f772d6c6576656c2063616c6c206661696c6564815250856001600160a01b03166129c19092919063ffffffff16565b805190915015612570578080602001905181019061296291906133c8565b6125705760405162461bcd60e51b815260206004820152602a60248201527f5361666545524332303a204552433230206f7065726174696f6e20646964206e6044820152691bdd081cdd58d8d9595960b21b6064820152608401610610565b60606129d084846000856129da565b90505b9392505050565b606082471015612a3b5760405162461bcd60e51b815260206004820152602660248201527f416464726573733a20696e73756666696369656e742062616c616e636520666f6044820152651c8818d85b1b60d21b6064820152608401610610565b600080866001600160a01b03168587604051612a57919061344f565b60006040518083038185875af1925050503d8060008114612a94576040519150601f19603f3d011682016040523d82523d6000602084013e612a99565b606091505b5091509150612aaa87838387612ab5565b979650505050505050565b60608315612b24578251600003612b1d576001600160a01b0385163b612b1d5760405162461bcd60e51b815260206004820152601d60248201527f416464726573733a2063616c6c20746f206e6f6e2d636f6e74726163740000006044820152606401610610565b5081610622565b6106228383815115612b395781518083602001fd5b8060405162461bcd60e51b8152600401610610919061346b565b60405180604001604052806002906020820280368337509192915050565b600060208284031215612b8357600080fd5b81356001600160e01b0319811681146129d357600080fd5b6001600160a01b0381168114610abc57600080fd5b60008083601f840112612bc257600080fd5b5081356001600160401b03811115612bd957600080fd5b602083019150836020828501011115612bf157600080fd5b9250929050565b60008060008060608587031215612c0e57600080fd5b8435612c1981612b9b565b93506020850135925060408501356001600160401b03811115612c3b57600080fd5b612c4787828801612bb0565b95989497509550505050565b634e487b7160e01b600052604160045260246000fd5b604051601f8201601f191681016001600160401b0381118282101715612c9157612c91612c53565b604052919050565b600082601f830112612caa57600080fd5b81356001600160401b03811115612cc357612cc3612c53565b612cd6601f8201601f1916602001612c69565b818152846020838601011115612ceb57600080fd5b816020850160208301376000918101602001919091529392505050565b60008060008060808587031215612d1e57600080fd5b8435612d2981612b9b565b93506020850135612d3981612b9b565b92506040850135915060608501356001600160401b03811115612d5b57600080fd5b612d6787828801612c99565b91505092959194509250565b60008083601f840112612d8557600080fd5b5081356001600160401b03811115612d9c57600080fd5b6020830191508360208260051b8501011115612bf157600080fd5b60008060008060008060608789031215612dd057600080fd5b86356001600160401b0380821115612de757600080fd5b612df38a838b01612d73565b90985096506020890135915080821115612e0c57600080fd5b612e188a838b01612d73565b90965094506040890135915080821115612e3157600080fd5b50612e3e89828a01612d73565b979a9699509497509295939492505050565b60008060008060008060006080888a031215612e6b57600080fd5b8735612e7681612b9b565b965060208801356001600160401b0380821115612e9257600080fd5b612e9e8b838c01612d73565b909850965060408a0135915080821115612eb757600080fd5b612ec38b838c01612d73565b909650945060608a0135915080821115612edc57600080fd5b50612ee98a828b01612bb0565b989b979a50959850939692959293505050565b600060208284031215612f0e57600080fd5b81356129d381612b9b565b60008060208385031215612f2c57600080fd5b82356001600160401b03811115612f4257600080fd5b612f4e85828601612d73565b90969095509350505050565b60008060408385031215612f6d57600080fd5b8235612f7881612b9b565b946020939093013593505050565b600082601f830112612f9757600080fd5b813560206001600160401b03821115612fb257612fb2612c53565b8160051b612fc1828201612c69565b9283528481018201928281019087851115612fdb57600080fd5b83870192505b84831015612aaa57823582529183019190830190612fe1565b600080600080600060a0868803121561301257600080fd5b853561301d81612b9b565b9450602086013561302d81612b9b565b935060408601356001600160401b038082111561304957600080fd5b61305589838a01612f86565b9450606088013591508082111561306b57600080fd5b61307789838a01612f86565b9350608088013591508082111561308d57600080fd5b5061309a88828901612c99565b9150509295509295909350565b600080600080604085870312156130bd57600080fd5b84356001600160401b03808211156130d457600080fd5b6130e088838901612d73565b909650945060208701359150808211156130f957600080fd5b50612c4787828801612d73565b600080600080600060a0868803121561311e57600080fd5b853561312981612b9b565b9450602086013561313981612b9b565b9350604086013592506060860135915060808601356001600160401b0381111561316257600080fd5b61309a88828901612c99565b81835281816020850137506000828201602090810191909152601f909101601f19169091010190565b6001600160a01b0386811682528516602082015260408101849052608060608201819052600090612aaa908301848661316e565b634e487b7160e01b600052603260045260246000fd5b6000808335601e198436030181126131f857600080fd5b8301803591506001600160401b0382111561321257600080fd5b602001915036819003821315612bf157600080fd5b634e487b7160e01b600052601160045260246000fd5b60006001820161324f5761324f613227565b5060010190565b60006020828403121561326857600080fd5b5051919050565b60208082526025908201527f5a69766f654f776e61626c654c6f636b65643a3a756e6c6f636b65642829206c6040820152641bd8dad95960da1b606082015260800190565b6000602082840312156132c657600080fd5b81516129d381612b9b565b8060005b60028110156125ad5781518452602093840193909101906001016132d5565b828152606081016129d360208301846132d1565b60006040828403121561331a57600080fd5b82601f83011261332957600080fd5b604051604081018181106001600160401b038211171561334b5761334b612c53565b806040525080604084018581111561336257600080fd5b845b8181101561337c578051835260209283019201613364565b509195945050505050565b808201808211156105a1576105a1613227565b606081016133a882856132d1565b8260408301529392505050565b818103818111156105a1576105a1613227565b6000602082840312156133da57600080fd5b815180151581146129d357600080fd5b600081600019048311821515161561340457613404613227565b500290565b60008261342657634e487b7160e01b600052601260045260246000fd5b500490565b60005b8381101561344657818101518382015260200161342e565b50506000910152565b6000825161346181846020870161342b565b9190910192915050565b602081526000825180602084015261348a81604085016020870161342b565b601f01601f1916919091016040019291505056fea26469706673582212204f768241a40c7fe186cb239a56977b519a4124ef625c9fd015a81afb12f4a76864736f6c63430008100033",
    "linkReferences": {}
  },
  "methodIdentifiers": {
    "CRV_Deployer()": "a615310c",
    "FBP_BP()": "267207de",
    "FBP_TOKEN()": "18c2089b",
    "FRAX()": "b0e4556f",
    "FRAXConvertible()": "3a24d885",
    "GBL()": "3ce8d432",
    "USDC()": "89a30271",
    "ZVE_MP()": "e296a643",
    "baseline()": "ab2637af",
    "canPull()": "215cccdd",
    "canPullERC1155()": "b0607cf8",
    "canPullERC721()": "3c117244",
    "canPullMulti()": "3eda81ad",
    "canPullMultiERC721()": "1852b383",
    "canPullMultiPartial()": "2f08d48b",
    "canPullPartial()": "64c77735",
    "canPush()": "e7f44629",
    "canPushERC1155()": "cf10b7ab",
    "canPushERC721()": "8b648ee2",
    "canPushMulti()": "a4a3e79d",
    "canPushMultiERC721()": "dd913bdb",
    "forwardYield()": "ff4a6761",
    "locked()": "cf309012",
    "nextYieldDistribution()": "f988dc3f",
    "onERC1155BatchReceived(address,address,uint256[],uint256[],bytes)": "bc197c81",
    "onERC1155Received(address,address,uint256,uint256,bytes)": "f23a6e61",
    "onERC721Received(address,address,uint256,bytes)": "150b7a02",
    "owner()": "8da5cb5b",
    "pullFromLocker(address)": "7dbcdbc1",
    "pullFromLockerERC1155(address,uint256[],uint256[],bytes)": "422b2018",
    "pullFromLockerERC721(address,uint256,bytes)": "12052176",
    "pullFromLockerMulti(address[])": "607cd649",
    "pullFromLockerMultiERC721(address[],uint256[],bytes[])": "15e98744",
    "pullFromLockerMultiPartial(address[],uint256[])": "ff0459ba",
    "pullFromLockerPartial(address,uint256)": "d9821e3b",
    "pushToLocker(address,uint256)": "84476591",
    "pushToLockerERC1155(address,uint256[],uint256[],bytes)": "fd76f59d",
    "pushToLockerERC721(address,uint256,bytes)": "1d9389e9",
    "pushToLockerMulti(address[],uint256[])": "c9c6a414",
    "pushToLockerMultiERC721(address[],uint256[],bytes[])": "b892bcc0",
    "renounceOwnership()": "715018a6",
    "supportsInterface(bytes4)": "01ffc9a7",
    "transferOwnership(address)": "f2fde38b",
    "transferOwnershipAndLock(address)": "58289c7e"
  },
  "id": 73
}