{
  "abi": [
    {
      "inputs": [
        {
          "internalType": "address",
          "name": "DAO",
          "type": "address"
        }
      ],
      "stateMutability": "nonpayable",
      "type": "constructor"
    },
    {
      "anonymous": false,
      "inputs": [
        {
          "indexed": true,
          "internalType": "address",
          "name": "previousOwner",
          "type": "address"
        },
        {
          "indexed": true,
          "internalType": "address",
          "name": "newOwner",
          "type": "address"
        }
      ],
      "name": "OwnershipTransferred",
      "type": "event"
    },
    {
      "anonymous": false,
      "inputs": [
        {
          "indexed": true,
          "internalType": "address",
          "name": "previousOwner",
          "type": "address"
        },
        {
          "indexed": true,
          "internalType": "address",
          "name": "newOwner",
          "type": "address"
        }
      ],
      "name": "OwnershipTransferredAndLocked",
      "type": "event"
    },
    {
      "inputs": [],
      "name": "canPull",
      "outputs": [
        {
          "internalType": "bool",
          "name": "",
          "type": "bool"
        }
      ],
      "stateMutability": "pure",
      "type": "function"
    },
    {
      "inputs": [],
      "name": "canPullERC1155",
      "outputs": [
        {
          "internalType": "bool",
          "name": "",
          "type": "bool"
        }
      ],
      "stateMutability": "view",
      "type": "function"
    },
    {
      "inputs": [],
      "name": "canPullERC721",
      "outputs": [
        {
          "internalType": "bool",
          "name": "",
          "type": "bool"
        }
      ],
      "stateMutability": "view",
      "type": "function"
    },
    {
      "inputs": [],
      "name": "canPullMulti",
      "outputs": [
        {
          "internalType": "bool",
          "name": "",
          "type": "bool"
        }
      ],
      "stateMutability": "pure",
      "type": "function"
    },
    {
      "inputs": [],
      "name": "canPullMultiERC721",
      "outputs": [
        {
          "internalType": "bool",
          "name": "",
          "type": "bool"
        }
      ],
      "stateMutability": "view",
      "type": "function"
    },
    {
      "inputs": [],
      "name": "canPullMultiPartial",
      "outputs": [
        {
          "internalType": "bool",
          "name": "",
          "type": "bool"
        }
      ],
      "stateMutability": "pure",
      "type": "function"
    },
    {
      "inputs": [],
      "name": "canPullPartial",
      "outputs": [
        {
          "internalType": "bool",
          "name": "",
          "type": "bool"
        }
      ],
      "stateMutability": "pure",
      "type": "function"
    },
    {
      "inputs": [],
      "name": "canPush",
      "outputs": [
        {
          "internalType": "bool",
          "name": "",
          "type": "bool"
        }
      ],
      "stateMutability": "pure",
      "type": "function"
    },
    {
      "inputs": [],
      "name": "canPushERC1155",
      "outputs": [
        {
          "internalType": "bool",
          "name": "",
          "type": "bool"
        }
      ],
      "stateMutability": "view",
      "type": "function"
    },
    {
      "inputs": [],
      "name": "canPushERC721",
      "outputs": [
        {
          "internalType": "bool",
          "name": "",
          "type": "bool"
        }
      ],
      "stateMutability": "view",
      "type": "function"
    },
    {
      "inputs": [],
      "name": "canPushMulti",
      "outputs": [
        {
          "internalType": "bool",
          "name": "",
          "type": "bool"
        }
      ],
      "stateMutability": "pure",
      "type": "function"
    },
    {
      "inputs": [],
      "name": "canPushMultiERC721",
      "outputs": [
        {
          "internalType": "bool",
          "name": "",
          "type": "bool"
        }
      ],
      "stateMutability": "view",
      "type": "function"
    },
    {
      "inputs": [],
      "name": "locked",
      "outputs": [
        {
          "internalType": "bool",
          "name": "",
          "type": "bool"
        }
      ],
      "stateMutability": "view",
      "type": "function"
    },
    {
      "inputs": [
        {
          "internalType": "address",
          "name": "",
          "type": "address"
        },
        {
          "internalType": "address",
          "name": "",
          "type": "address"
        },
        {
          "internalType": "uint256[]",
          "name": "",
          "type": "uint256[]"
        },
        {
          "internalType": "uint256[]",
          "name": "",
          "type": "uint256[]"
        },
        {
          "internalType": "bytes",
          "name": "",
          "type": "bytes"
        }
      ],
      "name": "onERC1155BatchReceived",
      "outputs": [
        {
          "internalType": "bytes4",
          "name": "",
          "type": "bytes4"
        }
      ],
      "stateMutability": "nonpayable",
      "type": "function"
    },
    {
      "inputs": [
        {
          "internalType": "address",
          "name": "",
          "type": "address"
        },
        {
          "internalType": "address",
          "name": "",
          "type": "address"
        },
        {
          "internalType": "uint256",
          "name": "",
          "type": "uint256"
        },
        {
          "internalType": "uint256",
          "name": "",
          "type": "uint256"
        },
        {
          "internalType": "bytes",
          "name": "",
          "type": "bytes"
        }
      ],
      "name": "onERC1155Received",
      "outputs": [
        {
          "internalType": "bytes4",
          "name": "",
          "type": "bytes4"
        }
      ],
      "stateMutability": "nonpayable",
      "type": "function"
    },
    {
      "inputs": [
        {
          "internalType": "address",
          "name": "",
          "type": "address"
        },
        {
          "internalType": "address",
          "name": "",
          "type": "address"
        },
        {
          "internalType": "uint256",
          "name": "",
          "type": "uint256"
        },
        {
          "internalType": "bytes",
          "name": "",
          "type": "bytes"
        }
      ],
      "name": "onERC721Received",
      "outputs": [
        {
          "internalType": "bytes4",
          "name": "",
          "type": "bytes4"
        }
      ],
      "stateMutability": "nonpayable",
      "type": "function"
    },
    {
      "inputs": [],
      "name": "owner",
      "outputs": [
        {
          "internalType": "address",
          "name": "",
          "type": "address"
        }
      ],
      "stateMutability": "view",
      "type": "function"
    },
    {
      "inputs": [
        {
          "internalType": "address",
          "name": "asset",
          "type": "address"
        }
      ],
      "name": "pullFromLocker",
      "outputs": [],
      "stateMutability": "nonpayable",
      "type": "function"
    },
    {
      "inputs": [
        {
          "internalType": "address",
          "name": "asset",
          "type": "address"
        },
        {
          "internalType": "uint256[]",
          "name": "ids",
          "type": "uint256[]"
        },
        {
          "internalType": "uint256[]",
          "name": "amounts",
          "type": "uint256[]"
        },
        {
          "internalType": "bytes",
          "name": "data",
          "type": "bytes"
        }
      ],
      "name": "pullFromLockerERC1155",
      "outputs": [],
      "stateMutability": "nonpayable",
      "type": "function"
    },
    {
      "inputs": [
        {
          "internalType": "address",
          "name": "asset",
          "type": "address"
        },
        {
          "internalType": "uint256",
          "name": "tokenId",
          "type": "uint256"
        },
        {
          "internalType": "bytes",
          "name": "data",
          "type": "bytes"
        }
      ],
      "name": "pullFromLockerERC721",
      "outputs": [],
      "stateMutability": "nonpayable",
      "type": "function"
    },
    {
      "inputs": [
        {
          "internalType": "address[]",
          "name": "assets",
          "type": "address[]"
        }
      ],
      "name": "pullFromLockerMulti",
      "outputs": [],
      "stateMutability": "nonpayable",
      "type": "function"
    },
    {
      "inputs": [
        {
          "internalType": "address[]",
          "name": "assets",
          "type": "address[]"
        },
        {
          "internalType": "uint256[]",
          "name": "tokenIds",
          "type": "uint256[]"
        },
        {
          "internalType": "bytes[]",
          "name": "data",
          "type": "bytes[]"
        }
      ],
      "name": "pullFromLockerMultiERC721",
      "outputs": [],
      "stateMutability": "nonpayable",
      "type": "function"
    },
    {
      "inputs": [
        {
          "internalType": "address[]",
          "name": "assets",
          "type": "address[]"
        },
        {
          "internalType": "uint256[]",
          "name": "amounts",
          "type": "uint256[]"
        }
      ],
      "name": "pullFromLockerMultiPartial",
      "outputs": [],
      "stateMutability": "nonpayable",
      "type": "function"
    },
    {
      "inputs": [
        {
          "internalType": "address",
          "name": "asset",
          "type": "address"
        },
        {
          "internalType": "uint256",
          "name": "amount",
          "type": "uint256"
        }
      ],
      "name": "pullFromLockerPartial",
      "outputs": [],
      "stateMutability": "nonpayable",
      "type": "function"
    },
    {
      "inputs": [
        {
          "internalType": "address",
          "name": "asset",
          "type": "address"
        },
        {
          "internalType": "uint256",
          "name": "amount",
          "type": "uint256"
        }
      ],
      "name": "pushToLocker",
      "outputs": [],
      "stateMutability": "nonpayable",
      "type": "function"
    },
    {
      "inputs": [
        {
          "internalType": "address",
          "name": "asset",
          "type": "address"
        },
        {
          "internalType": "uint256[]",
          "name": "ids",
          "type": "uint256[]"
        },
        {
          "internalType": "uint256[]",
          "name": "amounts",
          "type": "uint256[]"
        },
        {
          "internalType": "bytes",
          "name": "data",
          "type": "bytes"
        }
      ],
      "name": "pushToLockerERC1155",
      "outputs": [],
      "stateMutability": "nonpayable",
      "type": "function"
    },
    {
      "inputs": [
        {
          "internalType": "address",
          "name": "asset",
          "type": "address"
        },
        {
          "internalType": "uint256",
          "name": "tokenId",
          "type": "uint256"
        },
        {
          "internalType": "bytes",
          "name": "data",
          "type": "bytes"
        }
      ],
      "name": "pushToLockerERC721",
      "outputs": [],
      "stateMutability": "nonpayable",
      "type": "function"
    },
    {
      "inputs": [
        {
          "internalType": "address[]",
          "name": "assets",
          "type": "address[]"
        },
        {
          "internalType": "uint256[]",
          "name": "amounts",
          "type": "uint256[]"
        }
      ],
      "name": "pushToLockerMulti",
      "outputs": [],
      "stateMutability": "nonpayable",
      "type": "function"
    },
    {
      "inputs": [
        {
          "internalType": "address[]",
          "name": "assets",
          "type": "address[]"
        },
        {
          "internalType": "uint256[]",
          "name": "tokenIds",
          "type": "uint256[]"
        },
        {
          "internalType": "bytes[]",
          "name": "data",
          "type": "bytes[]"
        }
      ],
      "name": "pushToLockerMultiERC721",
      "outputs": [],
      "stateMutability": "nonpayable",
      "type": "function"
    },
    {
      "inputs": [],
      "name": "renounceOwnership",
      "outputs": [],
      "stateMutability": "nonpayable",
      "type": "function"
    },
    {
      "inputs": [
        {
          "internalType": "bytes4",
          "name": "interfaceId",
          "type": "bytes4"
        }
      ],
      "name": "supportsInterface",
      "outputs": [
        {
          "internalType": "bool",
          "name": "",
          "type": "bool"
        }
      ],
      "stateMutability": "view",
      "type": "function"
    },
    {
      "inputs": [
        {
          "internalType": "address",
          "name": "newOwner",
          "type": "address"
        }
      ],
      "name": "transferOwnership",
      "outputs": [],
      "stateMutability": "nonpayable",
      "type": "function"
    },
    {
      "inputs": [
        {
          "internalType": "address",
          "name": "newOwner",
          "type": "address"
        }
      ],
      "name": "transferOwnershipAndLock",
      "outputs": [],
      "stateMutability": "nonpayable",
      "type": "function"
    }
  ],
  "bytecode": {
    "object": "0x60806040523480156200001157600080fd5b5060405162001b5438038062001b54833981016040819052620000349162000229565b6200003f3362000051565b6200004a81620000a1565b506200025b565b600080546001600160a01b038381166001600160a01b0319831681178455604051919092169283917f8be0079c531659141344cd1fd0a4f28419497f9722a3daafe3b4186f6b6457e09190a35050565b620000ab620001a5565b600054600160a01b900460ff1615620001195760405162461bcd60e51b815260206004820152602560248201527f5a69766f654f776e61626c654c6f636b65643a3a756e6c6f636b65642829206c6044820152641bd8dad95960da1b60648201526084015b60405180910390fd5b6001600160a01b038116620001975760405162461bcd60e51b815260206004820152603e60248201527f5a69766f654f776e61626c654c6f636b65643a3a7472616e736665724f776e6560448201527f72736869702829206e65774f776e6572203d3d20616464726573732830290000606482015260840162000110565b620001a28162000051565b50565b6000546001600160a01b03163314620002275760405162461bcd60e51b815260206004820152603760248201527f5a69766f654f776e61626c654c6f636b65643a3a5f636865636b4f776e65722060448201527f6f776e6572282920213d205f6d736753656e6465722829000000000000000000606482015260840162000110565b565b6000602082840312156200023c57600080fd5b81516001600160a01b03811681146200025457600080fd5b9392505050565b6118e9806200026b6000396000f3fe608060405234801561001057600080fd5b50600436106101fb5760003560e01c8063844765911161011a578063cf10b7ab116100ad578063e7f446291161007c578063e7f4462914610296578063f23a6e611461038b578063f2fde38b146103aa578063fd76f59d146103bd578063ff0459ba146103d057600080fd5b8063cf10b7ab1461027c578063cf30901214610364578063d9821e3b14610378578063dd913bdb1461027c57600080fd5b8063b0607cf8116100e9578063b0607cf81461027c578063b892bcc01461031f578063bc197c8114610332578063c9c6a4141461035157600080fd5b806384476591146102f15780638b648ee21461027c5780638da5cb5b14610304578063a4a3e79d1461029657600080fd5b80633c11724411610192578063607cd64911610161578063607cd649146102c357806364c7773514610296578063715018a6146102d65780637dbcdbc1146102de57600080fd5b80633c1172441461027c5780633eda81ad14610296578063422b20181461029d57806358289c7e146102b057600080fd5b80631852b383116101ce5780631852b3831461027c5780631d9389e914610283578063215cccdd146102965780632f08d48b1461029657600080fd5b806301ffc9a7146102005780631205217614610228578063150b7a021461023d57806315e9874414610269575b600080fd5b61021361020e3660046110e9565b6103e3565b60405190151581526020015b60405180910390f35b61023b61023636600461117e565b61041a565b005b61025061024b36600461128c565b61048c565b6040516001600160e01b0319909116815260200161021f565b61023b610277366004611337565b61049d565b6000610213565b61023b61029136600461117e565b61060e565b6001610213565b61023b6102ab3660046113d0565b610679565b61023b6102be36600461147a565b6106e8565b61023b6102d1366004611495565b6107c3565b61023b6108ca565b61023b6102ec36600461147a565b610908565b61023b6102ff3660046114d6565b61099e565b6000546040516001600160a01b03909116815260200161021f565b61023b61032d366004611337565b6109d1565b610250610340366004611574565b63bc197c8160e01b95945050505050565b61023b61035f36600461161d565b610b39565b60005461021390600160a01b900460ff1681565b61023b6103863660046114d6565b610bcc565b61025061039936600461167c565b63f23a6e6160e01b95945050505050565b61023b6103b836600461147a565b610bfa565b61023b6103cb3660046113d0565b610cb1565b61023b6103de36600461161d565b610d1e565b60006001600160e01b03198216630271189760e51b148061041457506301ffc9a760e01b6001600160e01b03198316145b92915050565b610422610d83565b60405162461bcd60e51b815260206004820152603460248201527f5a69766f654c6f636b65723a3a70756c6c46726f6d4c6f636b65724552433732604482015273312829202163616e50756c6c455243373231282960601b60648201526084015b60405180910390fd5b630a85bd0160e11b5b949350505050565b6104a5610d83565b60405162461bcd60e51b815260206004820152603e60248201527f5a69766f654c6f636b65723a3a70756c6c46726f6d4c6f636b65724d756c746960448201527f4552433732312829202163616e50756c6c4d756c7469455243373231282900006064820152608401610483565b858110156106055786868281811061052d5761052d61173d565b9050602002016020810190610542919061147a565b6001600160a01b031663b88d4fde306105636000546001600160a01b031690565b8888868181106105755761057561173d565b9050602002013587878781811061058e5761058e61173d565b90506020028101906105a09190611753565b6040518663ffffffff1660e01b81526004016105c0959493929190611709565b600060405180830381600087803b1580156105da57600080fd5b505af11580156105ee573d6000803e3d6000fd5b5050505080806105fd90611799565b915050610513565b50505050505050565b610616610d83565b60405162461bcd60e51b815260206004820152603260248201527f5a69766f654c6f636b65723a3a70757368546f4c6f636b65724552433732312860448201527129202163616e50757368455243373231282960701b6064820152608401610483565b610681610d83565b60405162461bcd60e51b815260206004820152603660248201527f5a69766f654c6f636b65723a3a70756c6c46726f6d4c6f636b6572455243313160448201527535352829202163616e50756c6c45524331313535282960501b6064820152608401610483565b6106f0610d83565b600054600160a01b900460ff161561071a5760405162461bcd60e51b8152600401610483906117c0565b6001600160a01b0381166107a45760405162461bcd60e51b815260206004820152604560248201527f5a69766f654f776e61626c654c6f636b65643a3a7472616e736665724f776e6560448201527f7273686970416e644c6f636b2829206e65774f776e6572203d3d206164647265606482015264737328302960d81b608482015260a401610483565b6000805460ff60a01b1916600160a01b1790556107c081610e03565b50565b6107cb610d83565b60005b818110156108c5576108b36107eb6000546001600160a01b031690565b8484848181106107fd576107fd61173d565b9050602002016020810190610812919061147a565b6040516370a0823160e01b81523060048201526001600160a01b0391909116906370a0823190602401602060405180830381865afa158015610858573d6000803e3d6000fd5b505050506040513d601f19601f8201168201806040525081019061087c9190611805565b85858581811061088e5761088e61173d565b90506020020160208101906108a3919061147a565b6001600160a01b03169190610e53565b806108bd81611799565b9150506107ce565b505050565b6108d2610d83565b600054600160a01b900460ff16156108fc5760405162461bcd60e51b8152600401610483906117c0565b6109066000610e03565b565b610910610d83565b6107c06109256000546001600160a01b031690565b6040516370a0823160e01b81523060048201526001600160a01b038416906370a0823190602401602060405180830381865afa158015610969573d6000803e3d6000fd5b505050506040513d601f19601f8201168201806040525081019061098d9190611805565b6001600160a01b0384169190610e53565b6109a6610d83565b6109cd6109bb6000546001600160a01b031690565b6001600160a01b038416903084610eb6565b5050565b6109d9610d83565b60405162461bcd60e51b815260206004820152603c60248201527f5a69766f654c6f636b65723a3a70757368546f4c6f636b65724d756c7469455260448201527f433732312829202163616e507573684d756c74694552433732312829000000006064820152608401610483565b8581101561060557868682818110610a6157610a6161173d565b9050602002016020810190610a76919061147a565b6001600160a01b031663b88d4fde610a966000546001600160a01b031690565b30888886818110610aa957610aa961173d565b90506020020135878787818110610ac257610ac261173d565b9050602002810190610ad49190611753565b6040518663ffffffff1660e01b8152600401610af4959493929190611709565b600060405180830381600087803b158015610b0e57600080fd5b505af1158015610b22573d6000803e3d6000fd5b505050508080610b3190611799565b915050610a47565b610b41610d83565b60005b83811015610bc557610bb3610b616000546001600160a01b031690565b30858585818110610b7457610b7461173d565b90506020020135888886818110610b8d57610b8d61173d565b9050602002016020810190610ba2919061147a565b6001600160a01b0316929190610eb6565b80610bbd81611799565b915050610b44565b5050505050565b610bd4610d83565b6109cd610be96000546001600160a01b031690565b6001600160a01b0384169083610e53565b610c02610d83565b600054600160a01b900460ff1615610c2c5760405162461bcd60e51b8152600401610483906117c0565b6001600160a01b038116610ca85760405162461bcd60e51b815260206004820152603e60248201527f5a69766f654f776e61626c654c6f636b65643a3a7472616e736665724f776e6560448201527f72736869702829206e65774f776e6572203d3d206164647265737328302900006064820152608401610483565b6107c081610e03565b610cb9610d83565b60405162461bcd60e51b815260206004820152603460248201527f5a69766f654c6f636b65723a3a70757368546f4c6f636b6572455243313135356044820152732829202163616e5075736845524331313535282960601b6064820152608401610483565b610d26610d83565b60005b83811015610bc557610d71610d466000546001600160a01b031690565b848484818110610d5857610d5861173d565b9050602002013587878581811061088e5761088e61173d565b80610d7b81611799565b915050610d29565b6000546001600160a01b031633146109065760405162461bcd60e51b815260206004820152603760248201527f5a69766f654f776e61626c654c6f636b65643a3a5f636865636b4f776e65722060448201527f6f776e6572282920213d205f6d736753656e64657228290000000000000000006064820152608401610483565b600080546001600160a01b038381166001600160a01b0319831681178455604051919092169283917f8be0079c531659141344cd1fd0a4f28419497f9722a3daafe3b4186f6b6457e09190a35050565b6040516001600160a01b0383166024820152604481018290526108c590849063a9059cbb60e01b906064015b60408051601f198184030181529190526020810180516001600160e01b03166001600160e01b031990931692909217909152610ef4565b6040516001600160a01b0380851660248301528316604482015260648101829052610eee9085906323b872dd60e01b90608401610e7f565b50505050565b6000610f49826040518060400160405280602081526020017f5361666545524332303a206c6f772d6c6576656c2063616c6c206661696c6564815250856001600160a01b0316610fc69092919063ffffffff16565b8051909150156108c55780806020019051810190610f67919061181e565b6108c55760405162461bcd60e51b815260206004820152602a60248201527f5361666545524332303a204552433230206f7065726174696f6e20646964206e6044820152691bdd081cdd58d8d9595960b21b6064820152608401610483565b6060610495848460008585600080866001600160a01b03168587604051610fed9190611864565b60006040518083038185875af1925050503d806000811461102a576040519150601f19603f3d011682016040523d82523d6000602084013e61102f565b606091505b50915091506110408783838761104b565b979650505050505050565b606083156110ba5782516000036110b3576001600160a01b0385163b6110b35760405162461bcd60e51b815260206004820152601d60248201527f416464726573733a2063616c6c20746f206e6f6e2d636f6e74726163740000006044820152606401610483565b5081610495565b61049583838151156110cf5781518083602001fd5b8060405162461bcd60e51b81526004016104839190611880565b6000602082840312156110fb57600080fd5b81356001600160e01b03198116811461111357600080fd5b9392505050565b80356001600160a01b038116811461113157600080fd5b919050565b60008083601f84011261114857600080fd5b5081356001600160401b0381111561115f57600080fd5b60208301915083602082850101111561117757600080fd5b9250929050565b6000806000806060858703121561119457600080fd5b61119d8561111a565b93506020850135925060408501356001600160401b038111156111bf57600080fd5b6111cb87828801611136565b95989497509550505050565b634e487b7160e01b600052604160045260246000fd5b604051601f8201601f191681016001600160401b0381118282101715611215576112156111d7565b604052919050565b600082601f83011261122e57600080fd5b81356001600160401b03811115611247576112476111d7565b61125a601f8201601f19166020016111ed565b81815284602083860101111561126f57600080fd5b816020850160208301376000918101602001919091529392505050565b600080600080608085870312156112a257600080fd5b6112ab8561111a565b93506112b96020860161111a565b92506040850135915060608501356001600160401b038111156112db57600080fd5b6112e78782880161121d565b91505092959194509250565b60008083601f84011261130557600080fd5b5081356001600160401b0381111561131c57600080fd5b6020830191508360208260051b850101111561117757600080fd5b6000806000806000806060878903121561135057600080fd5b86356001600160401b038082111561136757600080fd5b6113738a838b016112f3565b9098509650602089013591508082111561138c57600080fd5b6113988a838b016112f3565b909650945060408901359150808211156113b157600080fd5b506113be89828a016112f3565b979a9699509497509295939492505050565b60008060008060008060006080888a0312156113eb57600080fd5b6113f48861111a565b965060208801356001600160401b038082111561141057600080fd5b61141c8b838c016112f3565b909850965060408a013591508082111561143557600080fd5b6114418b838c016112f3565b909650945060608a013591508082111561145a57600080fd5b506114678a828b01611136565b989b979a50959850939692959293505050565b60006020828403121561148c57600080fd5b6111138261111a565b600080602083850312156114a857600080fd5b82356001600160401b038111156114be57600080fd5b6114ca858286016112f3565b90969095509350505050565b600080604083850312156114e957600080fd5b6114f28361111a565b946020939093013593505050565b600082601f83011261151157600080fd5b813560206001600160401b0382111561152c5761152c6111d7565b8160051b61153b8282016111ed565b928352848101820192828101908785111561155557600080fd5b83870192505b848310156110405782358252918301919083019061155b565b600080600080600060a0868803121561158c57600080fd5b6115958661111a565b94506115a36020870161111a565b935060408601356001600160401b03808211156115bf57600080fd5b6115cb89838a01611500565b945060608801359150808211156115e157600080fd5b6115ed89838a01611500565b9350608088013591508082111561160357600080fd5b506116108882890161121d565b9150509295509295909350565b6000806000806040858703121561163357600080fd5b84356001600160401b038082111561164a57600080fd5b611656888389016112f3565b9096509450602087013591508082111561166f57600080fd5b506111cb878288016112f3565b600080600080600060a0868803121561169457600080fd5b61169d8661111a565b94506116ab6020870161111a565b9350604086013592506060860135915060808601356001600160401b038111156116d457600080fd5b6116108882890161121d565b81835281816020850137506000828201602090810191909152601f909101601f19169091010190565b6001600160a01b038681168252851660208201526040810184905260806060820181905260009061104090830184866116e0565b634e487b7160e01b600052603260045260246000fd5b6000808335601e1984360301811261176a57600080fd5b8301803591506001600160401b0382111561178457600080fd5b60200191503681900382131561117757600080fd5b6000600182016117b957634e487b7160e01b600052601160045260246000fd5b5060010190565b60208082526025908201527f5a69766f654f776e61626c654c6f636b65643a3a756e6c6f636b65642829206c6040820152641bd8dad95960da1b606082015260800190565b60006020828403121561181757600080fd5b5051919050565b60006020828403121561183057600080fd5b8151801515811461111357600080fd5b60005b8381101561185b578181015183820152602001611843565b50506000910152565b60008251611876818460208701611840565b9190910192915050565b602081526000825180602084015261189f816040850160208701611840565b601f01601f1916919091016040019291505056fea2646970667358221220eb6d3af3167c766ee79aee3bfb6f078cc7be081af5a9d1afca5ec1f16694b3dc64736f6c63430008100033",
    "linkReferences": {}
  },
  "methodIdentifiers": {
    "canPull()": "215cccdd",
    "canPullERC1155()": "b0607cf8",
    "canPullERC721()": "3c117244",
    "canPullMulti()": "3eda81ad",
    "canPullMultiERC721()": "1852b383",
    "canPullMultiPartial()": "2f08d48b",
    "canPullPartial()": "64c77735",
    "canPush()": "e7f44629",
    "canPushERC1155()": "cf10b7ab",
    "canPushERC721()": "8b648ee2",
    "canPushMulti()": "a4a3e79d",
    "canPushMultiERC721()": "dd913bdb",
    "locked()": "cf309012",
    "onERC1155BatchReceived(address,address,uint256[],uint256[],bytes)": "bc197c81",
    "onERC1155Received(address,address,uint256,uint256,bytes)": "f23a6e61",
    "onERC721Received(address,address,uint256,bytes)": "150b7a02",
    "owner()": "8da5cb5b",
    "pullFromLocker(address)": "7dbcdbc1",
    "pullFromLockerERC1155(address,uint256[],uint256[],bytes)": "422b2018",
    "pullFromLockerERC721(address,uint256,bytes)": "12052176",
    "pullFromLockerMulti(address[])": "607cd649",
    "pullFromLockerMultiERC721(address[],uint256[],bytes[])": "15e98744",
    "pullFromLockerMultiPartial(address[],uint256[])": "ff0459ba",
    "pullFromLockerPartial(address,uint256)": "d9821e3b",
    "pushToLocker(address,uint256)": "84476591",
    "pushToLockerERC1155(address,uint256[],uint256[],bytes)": "fd76f59d",
    "pushToLockerERC721(address,uint256,bytes)": "1d9389e9",
    "pushToLockerMulti(address[],uint256[])": "c9c6a414",
    "pushToLockerMultiERC721(address[],uint256[],bytes[])": "b892bcc0",
    "renounceOwnership()": "715018a6",
    "supportsInterface(bytes4)": "01ffc9a7",
    "transferOwnership(address)": "f2fde38b",
    "transferOwnershipAndLock(address)": "58289c7e"
  },
  "id": 71
}