{
  "abi": [
    {
      "anonymous": false,
      "inputs": [
        {
          "indexed": false,
          "internalType": "uint256",
          "name": "returnAmount",
          "type": "uint256"
        },
        {
          "indexed": false,
          "internalType": "address",
          "name": "srcToken",
          "type": "address"
        },
        {
          "indexed": false,
          "internalType": "uint256",
          "name": "amount",
          "type": "uint256"
        },
        {
          "indexed": false,
          "internalType": "uint256",
          "name": "minReturn",
          "type": "uint256"
        },
        {
          "indexed": false,
          "internalType": "bytes32[]",
          "name": "pools",
          "type": "bytes32[]"
        }
      ],
      "name": "SwapExecuted_2e95b6c8",
      "type": "event"
    },
    {
      "anonymous": false,
      "inputs": [
        {
          "indexed": false,
          "internalType": "uint256",
          "name": "returnAmount",
          "type": "uint256"
        },
        {
          "indexed": false,
          "internalType": "uint256",
          "name": "spentAmount",
          "type": "uint256"
        },
        {
          "indexed": false,
          "internalType": "uint256",
          "name": "gasLeft",
          "type": "uint256"
        },
        {
          "indexed": false,
          "internalType": "address",
          "name": "assetToSwap",
          "type": "address"
        },
        {
          "components": [
            {
              "internalType": "contract IERC20",
              "name": "srcToken",
              "type": "address"
            },
            {
              "internalType": "contract IERC20",
              "name": "dstToken",
              "type": "address"
            },
            {
              "internalType": "address",
              "name": "srcReceiver",
              "type": "address"
            },
            {
              "internalType": "address",
              "name": "dstReceiver",
              "type": "address"
            },
            {
              "internalType": "uint256",
              "name": "amount",
              "type": "uint256"
            },
            {
              "internalType": "uint256",
              "name": "minReturnAmount",
              "type": "uint256"
            },
            {
              "internalType": "uint256",
              "name": "flags",
              "type": "uint256"
            },
            {
              "internalType": "bytes",
              "name": "permit",
              "type": "bytes"
            }
          ],
          "indexed": false,
          "internalType": "struct ZivoeSwapper.SwapDescription",
          "name": "info",
          "type": "tuple"
        },
        {
          "indexed": false,
          "internalType": "bytes",
          "name": "data",
          "type": "bytes"
        }
      ],
      "name": "SwapExecuted_7c025200",
      "type": "event"
    },
    {
      "anonymous": false,
      "inputs": [
        {
          "indexed": false,
          "internalType": "uint256",
          "name": "returnAmount",
          "type": "uint256"
        },
        {
          "indexed": false,
          "internalType": "address",
          "name": "srcToken",
          "type": "address"
        },
        {
          "indexed": false,
          "internalType": "address",
          "name": "dstToken",
          "type": "address"
        },
        {
          "indexed": false,
          "internalType": "uint256",
          "name": "amount",
          "type": "uint256"
        },
        {
          "indexed": false,
          "internalType": "uint256",
          "name": "minReturn",
          "type": "uint256"
        }
      ],
      "name": "SwapExecuted_b0431182",
      "type": "event"
    },
    {
      "anonymous": false,
      "inputs": [
        {
          "indexed": false,
          "internalType": "uint256",
          "name": "actualMakingAmount",
          "type": "uint256"
        },
        {
          "indexed": false,
          "internalType": "uint256",
          "name": "actualTakingAmount",
          "type": "uint256"
        },
        {
          "components": [
            {
              "internalType": "uint256",
              "name": "info",
              "type": "uint256"
            },
            {
              "internalType": "contract IERC20",
              "name": "makerAsset",
              "type": "address"
            },
            {
              "internalType": "contract IERC20",
              "name": "takerAsset",
              "type": "address"
            },
            {
              "internalType": "address",
              "name": "maker",
              "type": "address"
            },
            {
              "internalType": "address",
              "name": "allowedSender",
              "type": "address"
            },
            {
              "internalType": "uint256",
              "name": "makingAmount",
              "type": "uint256"
            },
            {
              "internalType": "uint256",
              "name": "takingAmount",
              "type": "uint256"
            }
          ],
          "indexed": false,
          "internalType": "struct ZivoeSwapper.OrderRFQ",
          "name": "order",
          "type": "tuple"
        },
        {
          "indexed": false,
          "internalType": "bytes",
          "name": "signature",
          "type": "bytes"
        },
        {
          "indexed": false,
          "internalType": "uint256",
          "name": "makingAmount",
          "type": "uint256"
        },
        {
          "indexed": false,
          "internalType": "uint256",
          "name": "takingAmount",
          "type": "uint256"
        }
      ],
      "name": "SwapExecuted_d0a3b665",
      "type": "event"
    },
    {
      "anonymous": false,
      "inputs": [
        {
          "indexed": false,
          "internalType": "uint256",
          "name": "returnAmount",
          "type": "uint256"
        },
        {
          "indexed": false,
          "internalType": "uint256",
          "name": "amount",
          "type": "uint256"
        },
        {
          "indexed": false,
          "internalType": "uint256",
          "name": "minReturn",
          "type": "uint256"
        },
        {
          "indexed": false,
          "internalType": "uint256[]",
          "name": "pools",
          "type": "uint256[]"
        }
      ],
      "name": "SwapExecuted_e449022e",
      "type": "event"
    },
    {
      "inputs": [
        {
          "internalType": "address",
          "name": "assetIn",
          "type": "address"
        },
        {
          "internalType": "address",
          "name": "assetOut",
          "type": "address"
        },
        {
          "internalType": "uint256",
          "name": "amountIn",
          "type": "uint256"
        },
        {
          "internalType": "bytes",
          "name": "data",
          "type": "bytes"
        }
      ],
      "name": "convertTest",
      "outputs": [
        {
          "internalType": "bytes4",
          "name": "sig",
          "type": "bytes4"
        },
        {
          "internalType": "uint256[]",
          "name": "poolsV3",
          "type": "uint256[]"
        },
        {
          "internalType": "bytes32[]",
          "name": "poolsV2",
          "type": "bytes32[]"
        }
      ],
      "stateMutability": "nonpayable",
      "type": "function"
    },
    {
      "inputs": [],
      "name": "router1INCH_V4",
      "outputs": [
        {
          "internalType": "address",
          "name": "",
          "type": "address"
        }
      ],
      "stateMutability": "view",
      "type": "function"
    }
  ],
  "bytecode": {
    "object": "0x60a0604052731111111254fb6c44bac0bed2854e76f90643097d60805234801561002857600080fd5b506080516120af6100506000396000818160400152818160d801526104ed01526120af6000f3fe608060405234801561001057600080fd5b50600436106100365760003560e01c806319ce95f41461003b578063c7946ec31461007f575b600080fd5b6100627f000000000000000000000000000000000000000000000000000000000000000081565b6040516001600160a01b0390911681526020015b60405180910390f35b61009261008d3660046118a7565b6100a1565b60405161007693929190611946565b60006060806100b360048486886119d5565b6100bc916119ff565b6040516370a0823160e01b815230600482015290935061015e907f0000000000000000000000000000000000000000000000000000000000000000906001600160a01b038b16906370a0823190602401602060405180830381865afa158015610129573d6000803e3d6000fd5b505050506040513d601f19601f8201168201806040525081019061014d9190611a2f565b6001600160a01b038b1691906101eb565b61016b888888888861032c565b630ddb7ee960e11b6001600160e01b03198416016101a557600061019285600481896119d5565b81019061019f9190611b00565b94505050505b631a2d492760e31b6001600160e01b03198416016101e05760006101cc85600481896119d5565b8101906101d99190611bab565b9450505050505b955095509592505050565b8015806102655750604051636eb1769f60e11b81523060048201526001600160a01b03838116602483015284169063dd62ed3e90604401602060405180830381865afa15801561023f573d6000803e3d6000fd5b505050506040513d601f19601f820116820180604052508101906102639190611a2f565b155b6102d55760405162461bcd60e51b815260206004820152603660248201527f5361666545524332303a20617070726f76652066726f6d206e6f6e2d7a65726f60448201527520746f206e6f6e2d7a65726f20616c6c6f77616e636560501b60648201526084015b60405180910390fd5b604080516001600160a01b038416602482015260448082018490528251808303909101815260649091019091526020810180516001600160e01b031663095ea7b360e01b179052610327908490610340565b505050565b6103398585858585610412565b5050505050565b6000610395826040518060400160405280602081526020017f5361666545524332303a206c6f772d6c6576656c2063616c6c206661696c6564815250856001600160a01b03166105cc9092919063ffffffff16565b80519091501561032757808060200190518101906103b39190611c62565b6103275760405162461bcd60e51b815260206004820152602a60248201527f5361666545524332303a204552433230206f7065726174696f6e20646964206e6044820152691bdd081cdd58d8d9595960b21b60648201526084016102cc565b600061042160048284866119d5565b61042a916119ff565b90506241fed760e91b6001600160e01b03198216016104555761045083838888886105e3565b6104e9565b630ddb7ee960e11b6001600160e01b031982160161047a576104508383888888610810565b631a2d492760e31b6001600160e01b031982160161049f576104508383888888610dae565b632f5c499b60e01b6001600160e01b03198216016104c45761045083838888886113d6565b6327de773f60e11b6001600160e01b031982160161003657610450838388888861158a565b60007f00000000000000000000000000000000000000000000000000000000000000006001600160a01b03168484604051610525929190611c8b565b6000604051808303816000865af19150503d8060008114610562576040519150601f19603f3d011682016040523d82523d6000602084013e610567565b606091505b50509050806105c35760405162461bcd60e51b815260206004820152602260248201527f5a69766f65537761707065723a3a636f6e766572744173736574282920217375604482015261636360f01b60648201526084016102cc565b50505050505050565b60606105db8484600085611706565b949350505050565b60006105f285600481896119d5565b8101906105ff9190611d0b565b50915050836001600160a01b031681600001516001600160a01b03161461068f5760405162461bcd60e51b815260206004820152604a6024820152600080516020611ffa83398151915260448201527f376330323532303028292061646472657373285f622e737263546f6b656e2920606482015269109e9030b9b9b2ba24b760b11b608482015260a4016102cc565b826001600160a01b031681602001516001600160a01b03161461071c5760405162461bcd60e51b815260206004820152604b6024820152600080516020611ffa83398151915260448201527f376330323532303028292061646472657373285f622e647374546f6b656e292060648201526a084f48185cdcd95d13dd5d60aa1b608482015260a4016102cc565b81816080015114610785576040805162461bcd60e51b8152602060048201526024810191909152600080516020611ffa83398151915260448201527f37633032353230302829205f622e616d6f756e7420213d20616d6f756e74496e60648201526084016102cc565b60608101516001600160a01b031630146108085760405162461bcd60e51b815260206004820152604a6024820152600080516020611ffa83398151915260448201527f37633032353230302829205f622e647374526563656976657220213d206164646064820152697265737328746869732960b01b608482015260a4016102cc565b505050505050565b600080610820866004818a6119d5565b81019061082d9190611b00565b92505091508282146108955760405162461bcd60e51b81526020600482015260396024820152600080516020611ffa83398151915260448201527f65343439303232652829205f6120213d20616d6f756e74496e0000000000000060648201526084016102cc565b6000600160ff1b826000815181106108af576108af611e12565b60200260200101511660001490506000600160ff1b83600185516108d39190611e28565b815181106108e3576108e3611e12565b60200260200101511660001490508115610a1457866001600160a01b03168360008151811061091457610914611e12565b60200260200101516001600160a01b0316630dfe16816040518163ffffffff1660e01b8152600401602060405180830381865afa158015610959573d6000803e3d6000fd5b505050506040513d601f19601f8201168201806040525081019061097d9190611e4f565b6001600160a01b031614610a0f5760405162461bcd60e51b815260206004820152607c6024820152600080516020611ffa833981519152604482015260008051602061203a833981519152606482015260008051602061205a83398151915260848201527f635b305d292929292e746f6b656e30282920213d206173736574496e0000000060a482015260c4016102cc565b610b2c565b866001600160a01b031683600081518110610a3157610a31611e12565b60200260200101516001600160a01b031663d21220a76040518163ffffffff1660e01b8152600401602060405180830381865afa158015610a76573d6000803e3d6000fd5b505050506040513d601f19601f82011682018060405250810190610a9a9190611e4f565b6001600160a01b031614610b2c5760405162461bcd60e51b815260206004820152607c6024820152600080516020611ffa833981519152604482015260008051602061203a833981519152606482015260008051602061205a83398151915260848201527f635b305d292929292e746f6b656e31282920213d206173736574496e0000000060a482015260c4016102cc565b8015610c6d57856001600160a01b03168360018551610b4b9190611e28565b81518110610b5b57610b5b611e12565b60200260200101516001600160a01b031663d21220a76040518163ffffffff1660e01b8152600401602060405180830381865afa158015610ba0573d6000803e3d6000fd5b505050506040513d601f19601f82011682018060405250810190610bc49190611e4f565b6001600160a01b031614610c685760405162461bcd60e51b81526020600482015260896024820152600080516020611ffa833981519152604482015260008051602061203a833981519152606482015260008051602061205a83398151915260848201527f635b5f632e6c656e677468202d20315d292929292e746f6b656e31282920213d60a48201526808185cdcd95d13dd5d60ba1b60c482015260e4016102cc565b610da3565b856001600160a01b03168360018551610c869190611e28565b81518110610c9657610c96611e12565b60200260200101516001600160a01b0316630dfe16816040518163ffffffff1660e01b8152600401602060405180830381865afa158015610cdb573d6000803e3d6000fd5b505050506040513d601f19601f82011682018060405250810190610cff9190611e4f565b6001600160a01b031614610da35760405162461bcd60e51b81526020600482015260896024820152600080516020611ffa833981519152604482015260008051602061203a833981519152606482015260008051602061205a83398151915260848201527f635b5f632e6c656e677468202d20315d292929292e746f6b656e30282920213d60a48201526808185cdcd95d13dd5d60ba1b60c482015260e4016102cc565b505050505050505050565b60008080610dbf876004818b6119d5565b810190610dcc9190611bab565b93505092509250856001600160a01b0316836001600160a01b031614610e485760405162461bcd60e51b81526020600482015260386024820152600080516020611ffa83398151915260448201527f32653935623663382829205f6120213d206173736574496e000000000000000060648201526084016102cc565b838214610eab5760405162461bcd60e51b81526020600482015260396024820152600080516020611ffa83398151915260448201527f32653935623663382829205f6220213d20616d6f756e74496e0000000000000060648201526084016102cc565b600080600083600081518110610ec357610ec3611e12565b6020026020010151905060008460018651610ede9190611e28565b81518110610eee57610eee611e12565b60200260200101519050600160ff1b82169350600160ff1b81169250831561103057896001600160a01b031685600081518110610f2d57610f2d611e12565b602002602001015160001c6001600160a01b031663d21220a76040518163ffffffff1660e01b8152600401602060405180830381865afa158015610f75573d6000803e3d6000fd5b505050506040513d601f19601f82011682018060405250810190610f999190611e4f565b6001600160a01b03161461102b5760405162461bcd60e51b815260206004820152607c6024820152600080516020611ffa833981519152604482015260008051602061201a833981519152606482015260008051602061205a83398151915260848201527f645b305d292929292e746f6b656e31282920213d206173736574496e0000000060a482015260c4016102cc565b61114b565b896001600160a01b03168560008151811061104d5761104d611e12565b602002602001015160001c6001600160a01b0316630dfe16816040518163ffffffff1660e01b8152600401602060405180830381865afa158015611095573d6000803e3d6000fd5b505050506040513d601f19601f820116820180604052508101906110b99190611e4f565b6001600160a01b03161461114b5760405162461bcd60e51b815260206004820152607c6024820152600080516020611ffa833981519152604482015260008051602061201a833981519152606482015260008051602061205a83398151915260848201527f645b305d292929292e746f6b656e30282920213d206173736574496e0000000060a482015260c4016102cc565b821561128f57886001600160a01b0316856001875161116a9190611e28565b8151811061117a5761117a611e12565b602002602001015160001c6001600160a01b0316630dfe16816040518163ffffffff1660e01b8152600401602060405180830381865afa1580156111c2573d6000803e3d6000fd5b505050506040513d601f19601f820116820180604052508101906111e69190611e4f565b6001600160a01b03161461128a5760405162461bcd60e51b81526020600482015260896024820152600080516020611ffa833981519152604482015260008051602061201a833981519152606482015260008051602061205a83398151915260848201527f645b5f642e6c656e677468202d20315d292929292e746f6b656e30282920213d60a48201526808185cdcd95d13dd5d60ba1b60c482015260e4016102cc565b6113c8565b886001600160a01b031685600187516112a89190611e28565b815181106112b8576112b8611e12565b602002602001015160001c6001600160a01b031663d21220a76040518163ffffffff1660e01b8152600401602060405180830381865afa158015611300573d6000803e3d6000fd5b505050506040513d601f19601f820116820180604052508101906113249190611e4f565b6001600160a01b0316146113c85760405162461bcd60e51b81526020600482015260896024820152600080516020611ffa833981519152604482015260008051602061201a833981519152606482015260008051602061205a83398151915260848201527f645b5f642e6c656e677468202d20315d292929292e746f6b656e31282920213d60a48201526808185cdcd95d13dd5d60ba1b60c482015260e4016102cc565b505050505050505050505050565b60006113e585600481896119d5565b8101906113f29190611e6c565b5050509050836001600160a01b031681604001516001600160a01b0316146114855760405162461bcd60e51b815260206004820152604c6024820152600080516020611ffa83398151915260448201527f643061336236363528292061646472657373285f612e74616b6572417373657460648201526b1490109e9030b9b9b2ba24b760a11b608482015260a4016102cc565b826001600160a01b031681602001516001600160a01b0316146115145760405162461bcd60e51b815260206004820152604d6024820152600080516020611ffa83398151915260448201527f643061336236363528292061646472657373285f612e6d616b6572417373657460648201526c0a48084f48185cdcd95d13dd5d609a1b608482015260a4016102cc565b818160c00151146108085760405162461bcd60e51b81526020600482015260466024820152600080516020611ffa83398151915260448201527f64306133623636352829205f612e74616b696e67416d6f756e7420213d20616d60648201526537bab73a24b760d11b608482015260a4016102cc565b6000808061159b876004818b6119d5565b8101906115a89190611f40565b50925092509250856001600160a01b0316836001600160a01b0316146116245760405162461bcd60e51b81526020600482015260386024820152600080516020611ffa83398151915260448201527f62303433313138322829205f6120213d206173736574496e000000000000000060648201526084016102cc565b846001600160a01b0316826001600160a01b0316146116995760405162461bcd60e51b81526020600482015260396024820152600080516020611ffa83398151915260448201527f62303433313138322829205f6220213d2061737365744f75740000000000000060648201526084016102cc565b8381146116fc5760405162461bcd60e51b81526020600482015260396024820152600080516020611ffa83398151915260448201527f62303433313138322829205f6320213d20616d6f756e74496e0000000000000060648201526084016102cc565b5050505050505050565b6060824710156117675760405162461bcd60e51b815260206004820152602660248201527f416464726573733a20696e73756666696369656e742062616c616e636520666f6044820152651c8818d85b1b60d21b60648201526084016102cc565b600080866001600160a01b031685876040516117839190611faa565b60006040518083038185875af1925050503d80600081146117c0576040519150601f19603f3d011682016040523d82523d6000602084013e6117c5565b606091505b50915091506117d6878383876117e1565b979650505050505050565b60608315611850578251600003611849576001600160a01b0385163b6118495760405162461bcd60e51b815260206004820152601d60248201527f416464726573733a2063616c6c20746f206e6f6e2d636f6e747261637400000060448201526064016102cc565b50816105db565b6105db83838151156118655781518083602001fd5b8060405162461bcd60e51b81526004016102cc9190611fc6565b6001600160a01b038116811461189457600080fd5b50565b80356118a28161187f565b919050565b6000806000806000608086880312156118bf57600080fd5b85356118ca8161187f565b945060208601356118da8161187f565b935060408601359250606086013567ffffffffffffffff808211156118fe57600080fd5b818801915088601f83011261191257600080fd5b81358181111561192157600080fd5b89602082850101111561193357600080fd5b9699959850939650602001949392505050565b6001600160e01b03198416815260606020808301829052845191830182905260009185820191906080850190845b8181101561199057845183529383019391830191600101611974565b50508481036040860152855180825290820192508186019060005b818110156119c7578251855293830193918301916001016119ab565b509298975050505050505050565b600080858511156119e557600080fd5b838611156119f257600080fd5b5050820193919092039150565b6001600160e01b03198135818116916004851015611a275780818660040360031b1b83161692505b505092915050565b600060208284031215611a4157600080fd5b5051919050565b634e487b7160e01b600052604160045260246000fd5b604051610100810167ffffffffffffffff81118282101715611a8257611a82611a48565b60405290565b60405160e0810167ffffffffffffffff81118282101715611a8257611a82611a48565b604051601f8201601f1916810167ffffffffffffffff81118282101715611ad457611ad4611a48565b604052919050565b600067ffffffffffffffff821115611af657611af6611a48565b5060051b60200190565b600080600060608486031215611b1557600080fd5b833592506020808501359250604085013567ffffffffffffffff811115611b3b57600080fd5b8501601f81018713611b4c57600080fd5b8035611b5f611b5a82611adc565b611aab565b81815260059190911b82018301908381019089831115611b7e57600080fd5b928401925b82841015611b9c57833582529284019290840190611b83565b80955050505050509250925092565b60008060008060808587031215611bc157600080fd5b8435611bcc8161187f565b9350602085810135935060408601359250606086013567ffffffffffffffff811115611bf757600080fd5b8601601f81018813611c0857600080fd5b8035611c16611b5a82611adc565b81815260059190911b8201830190838101908a831115611c3557600080fd5b928401925b82841015611c5357833582529284019290840190611c3a565b979a9699509497505050505050565b600060208284031215611c7457600080fd5b81518015158114611c8457600080fd5b9392505050565b8183823760009101908152919050565b600082601f830112611cac57600080fd5b813567ffffffffffffffff811115611cc657611cc6611a48565b611cd9601f8201601f1916602001611aab565b818152846020838601011115611cee57600080fd5b816020850160208301376000918101602001919091529392505050565b600080600060608486031215611d2057600080fd5b8335611d2b8161187f565b9250602084013567ffffffffffffffff80821115611d4857600080fd5b908501906101008288031215611d5d57600080fd5b611d65611a5e565b611d6e83611897565b8152611d7c60208401611897565b6020820152611d8d60408401611897565b6040820152611d9e60608401611897565b60608201526080830135608082015260a083013560a082015260c083013560c082015260e083013582811115611dd357600080fd5b611ddf89828601611c9b565b60e08301525093506040860135915080821115611dfb57600080fd5b50611e0886828701611c9b565b9150509250925092565b634e487b7160e01b600052603260045260246000fd5b81810381811115611e4957634e487b7160e01b600052601160045260246000fd5b92915050565b600060208284031215611e6157600080fd5b8151611c848161187f565b600080600080848603610140811215611e8457600080fd5b60e0811215611e9257600080fd5b50611e9b611a88565b853581526020860135611ead8161187f565b60208201526040860135611ec08161187f565b60408201526060860135611ed38161187f565b60608201526080860135611ee68161187f565b608082015260a0868101359082015260c08087013590820152935060e085013567ffffffffffffffff811115611f1b57600080fd5b611f2787828801611c9b565b9497949650505050610100830135926101200135919050565b60008060008060808587031215611f5657600080fd5b8435611f618161187f565b93506020850135611f718161187f565b93969395505050506040820135916060013590565b60005b83811015611fa1578181015183820152602001611f89565b50506000910152565b60008251611fbc818460208701611f86565b9190910192915050565b6020815260008251806020840152611fe5816040850160208701611f86565b601f01601f1916919091016040019291505056fe5a69766f65537761707065723a3a68616e646c655f76616c69646174696f6e5f326539356236633828292049556e69737761705632506f6f6c5f5a69766f6553653434393032326528292049556e69737761705633506f6f6c5f5a69766f655377617070657228616464726573732875696e743136302875696e74323536285fa26469706673582212208fc997d25952c0e5a166824862d91f23b502addc87ea24e96d0a8bc13784ca8764736f6c63430008100033",
    "linkReferences": {}
  },
  "methodIdentifiers": {
    "convertTest(address,address,uint256,bytes)": "c7946ec3",
    "router1INCH_V4()": "19ce95f4"
  },
  "id": 100
}