{
  "abi": [
    {
      "inputs": [
        {
          "internalType": "address[]",
          "name": "_ZivoeAddresses",
          "type": "address[]"
        },
        {
          "internalType": "bool[]",
          "name": "_boolMetaOrPlainAndRewards",
          "type": "bool[]"
        },
        {
          "internalType": "address",
          "name": "_curvePool",
          "type": "address"
        },
        {
          "internalType": "address",
          "name": "_CVX_Deposit_Address",
          "type": "address"
        },
        {
          "internalType": "address[]",
          "name": "_rewardsAddresses",
          "type": "address[]"
        },
        {
          "internalType": "address",
          "name": "_BASE_TOKEN_MP",
          "type": "address"
        },
        {
          "internalType": "address",
          "name": "_MP_UNDERLYING_LP_POOL",
          "type": "address"
        },
        {
          "internalType": "uint8",
          "name": "_numberOfTokensUnderlyingLPPool",
          "type": "uint8"
        },
        {
          "internalType": "uint8",
          "name": "_numberOfTokensPP",
          "type": "uint8"
        },
        {
          "internalType": "uint256",
          "name": "_convexPoolID",
          "type": "uint256"
        },
        {
          "internalType": "address[]",
          "name": "_chainlinkPriceFeeds",
          "type": "address[]"
        }
      ],
      "stateMutability": "nonpayable",
      "type": "constructor"
    },
    {
      "anonymous": false,
      "inputs": [
        {
          "indexed": true,
          "internalType": "address",
          "name": "previousOwner",
          "type": "address"
        },
        {
          "indexed": true,
          "internalType": "address",
          "name": "newOwner",
          "type": "address"
        }
      ],
      "name": "OwnershipTransferred",
      "type": "event"
    },
    {
      "anonymous": false,
      "inputs": [
        {
          "indexed": true,
          "internalType": "address",
          "name": "previousOwner",
          "type": "address"
        },
        {
          "indexed": true,
          "internalType": "address",
          "name": "newOwner",
          "type": "address"
        }
      ],
      "name": "OwnershipTransferredAndLocked",
      "type": "event"
    },
    {
      "anonymous": false,
      "inputs": [
        {
          "indexed": false,
          "internalType": "uint256",
          "name": "returnAmount",
          "type": "uint256"
        },
        {
          "indexed": false,
          "internalType": "address",
          "name": "srcToken",
          "type": "address"
        },
        {
          "indexed": false,
          "internalType": "uint256",
          "name": "amount",
          "type": "uint256"
        },
        {
          "indexed": false,
          "internalType": "uint256",
          "name": "minReturn",
          "type": "uint256"
        },
        {
          "indexed": false,
          "internalType": "bytes32[]",
          "name": "pools",
          "type": "bytes32[]"
        }
      ],
      "name": "SwapExecuted_2e95b6c8",
      "type": "event"
    },
    {
      "anonymous": false,
      "inputs": [
        {
          "indexed": false,
          "internalType": "uint256",
          "name": "returnAmount",
          "type": "uint256"
        },
        {
          "indexed": false,
          "internalType": "uint256",
          "name": "spentAmount",
          "type": "uint256"
        },
        {
          "indexed": false,
          "internalType": "uint256",
          "name": "gasLeft",
          "type": "uint256"
        },
        {
          "indexed": false,
          "internalType": "address",
          "name": "assetToSwap",
          "type": "address"
        },
        {
          "components": [
            {
              "internalType": "contract IERC20",
              "name": "srcToken",
              "type": "address"
            },
            {
              "internalType": "contract IERC20",
              "name": "dstToken",
              "type": "address"
            },
            {
              "internalType": "address",
              "name": "srcReceiver",
              "type": "address"
            },
            {
              "internalType": "address",
              "name": "dstReceiver",
              "type": "address"
            },
            {
              "internalType": "uint256",
              "name": "amount",
              "type": "uint256"
            },
            {
              "internalType": "uint256",
              "name": "minReturnAmount",
              "type": "uint256"
            },
            {
              "internalType": "uint256",
              "name": "flags",
              "type": "uint256"
            },
            {
              "internalType": "bytes",
              "name": "permit",
              "type": "bytes"
            }
          ],
          "indexed": false,
          "internalType": "struct ZivoeSwapper.SwapDescription",
          "name": "info",
          "type": "tuple"
        },
        {
          "indexed": false,
          "internalType": "bytes",
          "name": "data",
          "type": "bytes"
        }
      ],
      "name": "SwapExecuted_7c025200",
      "type": "event"
    },
    {
      "anonymous": false,
      "inputs": [
        {
          "indexed": false,
          "internalType": "uint256",
          "name": "returnAmount",
          "type": "uint256"
        },
        {
          "indexed": false,
          "internalType": "address",
          "name": "srcToken",
          "type": "address"
        },
        {
          "indexed": false,
          "internalType": "address",
          "name": "dstToken",
          "type": "address"
        },
        {
          "indexed": false,
          "internalType": "uint256",
          "name": "amount",
          "type": "uint256"
        },
        {
          "indexed": false,
          "internalType": "uint256",
          "name": "minReturn",
          "type": "uint256"
        }
      ],
      "name": "SwapExecuted_b0431182",
      "type": "event"
    },
    {
      "anonymous": false,
      "inputs": [
        {
          "indexed": false,
          "internalType": "uint256",
          "name": "actualMakingAmount",
          "type": "uint256"
        },
        {
          "indexed": false,
          "internalType": "uint256",
          "name": "actualTakingAmount",
          "type": "uint256"
        },
        {
          "components": [
            {
              "internalType": "uint256",
              "name": "info",
              "type": "uint256"
            },
            {
              "internalType": "contract IERC20",
              "name": "makerAsset",
              "type": "address"
            },
            {
              "internalType": "contract IERC20",
              "name": "takerAsset",
              "type": "address"
            },
            {
              "internalType": "address",
              "name": "maker",
              "type": "address"
            },
            {
              "internalType": "address",
              "name": "allowedSender",
              "type": "address"
            },
            {
              "internalType": "uint256",
              "name": "makingAmount",
              "type": "uint256"
            },
            {
              "internalType": "uint256",
              "name": "takingAmount",
              "type": "uint256"
            }
          ],
          "indexed": false,
          "internalType": "struct ZivoeSwapper.OrderRFQ",
          "name": "order",
          "type": "tuple"
        },
        {
          "indexed": false,
          "internalType": "bytes",
          "name": "signature",
          "type": "bytes"
        },
        {
          "indexed": false,
          "internalType": "uint256",
          "name": "makingAmount",
          "type": "uint256"
        },
        {
          "indexed": false,
          "internalType": "uint256",
          "name": "takingAmount",
          "type": "uint256"
        }
      ],
      "name": "SwapExecuted_d0a3b665",
      "type": "event"
    },
    {
      "anonymous": false,
      "inputs": [
        {
          "indexed": false,
          "internalType": "uint256",
          "name": "returnAmount",
          "type": "uint256"
        },
        {
          "indexed": false,
          "internalType": "uint256",
          "name": "amount",
          "type": "uint256"
        },
        {
          "indexed": false,
          "internalType": "uint256",
          "name": "minReturn",
          "type": "uint256"
        },
        {
          "indexed": false,
          "internalType": "uint256[]",
          "name": "pools",
          "type": "uint256[]"
        }
      ],
      "name": "SwapExecuted_e449022e",
      "type": "event"
    },
    {
      "inputs": [],
      "name": "BASE_TOKEN",
      "outputs": [
        {
          "internalType": "address",
          "name": "",
          "type": "address"
        }
      ],
      "stateMutability": "view",
      "type": "function"
    },
    {
      "inputs": [],
      "name": "CRV",
      "outputs": [
        {
          "internalType": "address",
          "name": "",
          "type": "address"
        }
      ],
      "stateMutability": "view",
      "type": "function"
    },
    {
      "inputs": [],
      "name": "CVX",
      "outputs": [
        {
          "internalType": "address",
          "name": "",
          "type": "address"
        }
      ],
      "stateMutability": "view",
      "type": "function"
    },
    {
      "inputs": [],
      "name": "CVX_Deposit_Address",
      "outputs": [
        {
          "internalType": "address",
          "name": "",
          "type": "address"
        }
      ],
      "stateMutability": "view",
      "type": "function"
    },
    {
      "inputs": [],
      "name": "CVX_Reward_Address",
      "outputs": [
        {
          "internalType": "address",
          "name": "",
          "type": "address"
        }
      ],
      "stateMutability": "view",
      "type": "function"
    },
    {
      "inputs": [],
      "name": "GBL",
      "outputs": [
        {
          "internalType": "address",
          "name": "",
          "type": "address"
        }
      ],
      "stateMutability": "view",
      "type": "function"
    },
    {
      "inputs": [],
      "name": "MP_UNDERLYING_LP_POOL",
      "outputs": [
        {
          "internalType": "address",
          "name": "",
          "type": "address"
        }
      ],
      "stateMutability": "view",
      "type": "function"
    },
    {
      "inputs": [],
      "name": "MP_UNDERLYING_LP_TOKEN",
      "outputs": [
        {
          "internalType": "address",
          "name": "",
          "type": "address"
        }
      ],
      "stateMutability": "view",
      "type": "function"
    },
    {
      "inputs": [],
      "name": "POOL_LP_TOKEN",
      "outputs": [
        {
          "internalType": "address",
          "name": "",
          "type": "address"
        }
      ],
      "stateMutability": "view",
      "type": "function"
    },
    {
      "inputs": [
        {
          "internalType": "uint256",
          "name": "",
          "type": "uint256"
        }
      ],
      "name": "PP_TOKENS",
      "outputs": [
        {
          "internalType": "address",
          "name": "",
          "type": "address"
        }
      ],
      "stateMutability": "view",
      "type": "function"
    },
    {
      "inputs": [],
      "name": "baseline",
      "outputs": [
        {
          "internalType": "uint256",
          "name": "",
          "type": "uint256"
        }
      ],
      "stateMutability": "view",
      "type": "function"
    },
    {
      "inputs": [],
      "name": "canPull",
      "outputs": [
        {
          "internalType": "bool",
          "name": "",
          "type": "bool"
        }
      ],
      "stateMutability": "view",
      "type": "function"
    },
    {
      "inputs": [],
      "name": "canPullERC1155",
      "outputs": [
        {
          "internalType": "bool",
          "name": "",
          "type": "bool"
        }
      ],
      "stateMutability": "view",
      "type": "function"
    },
    {
      "inputs": [],
      "name": "canPullERC721",
      "outputs": [
        {
          "internalType": "bool",
          "name": "",
          "type": "bool"
        }
      ],
      "stateMutability": "view",
      "type": "function"
    },
    {
      "inputs": [],
      "name": "canPullMulti",
      "outputs": [
        {
          "internalType": "bool",
          "name": "",
          "type": "bool"
        }
      ],
      "stateMutability": "pure",
      "type": "function"
    },
    {
      "inputs": [],
      "name": "canPullMultiERC721",
      "outputs": [
        {
          "internalType": "bool",
          "name": "",
          "type": "bool"
        }
      ],
      "stateMutability": "view",
      "type": "function"
    },
    {
      "inputs": [],
      "name": "canPullMultiPartial",
      "outputs": [
        {
          "internalType": "bool",
          "name": "",
          "type": "bool"
        }
      ],
      "stateMutability": "view",
      "type": "function"
    },
    {
      "inputs": [],
      "name": "canPullPartial",
      "outputs": [
        {
          "internalType": "bool",
          "name": "",
          "type": "bool"
        }
      ],
      "stateMutability": "pure",
      "type": "function"
    },
    {
      "inputs": [],
      "name": "canPush",
      "outputs": [
        {
          "internalType": "bool",
          "name": "",
          "type": "bool"
        }
      ],
      "stateMutability": "view",
      "type": "function"
    },
    {
      "inputs": [],
      "name": "canPushERC1155",
      "outputs": [
        {
          "internalType": "bool",
          "name": "",
          "type": "bool"
        }
      ],
      "stateMutability": "view",
      "type": "function"
    },
    {
      "inputs": [],
      "name": "canPushERC721",
      "outputs": [
        {
          "internalType": "bool",
          "name": "",
          "type": "bool"
        }
      ],
      "stateMutability": "view",
      "type": "function"
    },
    {
      "inputs": [],
      "name": "canPushMulti",
      "outputs": [
        {
          "internalType": "bool",
          "name": "",
          "type": "bool"
        }
      ],
      "stateMutability": "pure",
      "type": "function"
    },
    {
      "inputs": [],
      "name": "canPushMultiERC721",
      "outputs": [
        {
          "internalType": "bool",
          "name": "",
          "type": "bool"
        }
      ],
      "stateMutability": "view",
      "type": "function"
    },
    {
      "inputs": [
        {
          "internalType": "uint256",
          "name": "",
          "type": "uint256"
        }
      ],
      "name": "chainlinkPriceFeeds",
      "outputs": [
        {
          "internalType": "address",
          "name": "",
          "type": "address"
        }
      ],
      "stateMutability": "view",
      "type": "function"
    },
    {
      "inputs": [],
      "name": "convexPoolID",
      "outputs": [
        {
          "internalType": "uint256",
          "name": "",
          "type": "uint256"
        }
      ],
      "stateMutability": "view",
      "type": "function"
    },
    {
      "inputs": [],
      "name": "extraRewards",
      "outputs": [
        {
          "internalType": "bool",
          "name": "",
          "type": "bool"
        }
      ],
      "stateMutability": "view",
      "type": "function"
    },
    {
      "inputs": [],
      "name": "indexBASE_TOKEN",
      "outputs": [
        {
          "internalType": "int128",
          "name": "",
          "type": "int128"
        }
      ],
      "stateMutability": "view",
      "type": "function"
    },
    {
      "inputs": [],
      "name": "investTimeLock",
      "outputs": [
        {
          "internalType": "uint256",
          "name": "",
          "type": "uint256"
        }
      ],
      "stateMutability": "view",
      "type": "function"
    },
    {
      "inputs": [],
      "name": "locked",
      "outputs": [
        {
          "internalType": "bool",
          "name": "",
          "type": "bool"
        }
      ],
      "stateMutability": "view",
      "type": "function"
    },
    {
      "inputs": [],
      "name": "metaOrPlainPool",
      "outputs": [
        {
          "internalType": "bool",
          "name": "",
          "type": "bool"
        }
      ],
      "stateMutability": "view",
      "type": "function"
    },
    {
      "inputs": [],
      "name": "nextYieldDistribution",
      "outputs": [
        {
          "internalType": "uint256",
          "name": "",
          "type": "uint256"
        }
      ],
      "stateMutability": "view",
      "type": "function"
    },
    {
      "inputs": [],
      "name": "numberOfTokensUnderlyingLPPool",
      "outputs": [
        {
          "internalType": "uint8",
          "name": "",
          "type": "uint8"
        }
      ],
      "stateMutability": "view",
      "type": "function"
    },
    {
      "inputs": [
        {
          "internalType": "address",
          "name": "",
          "type": "address"
        },
        {
          "internalType": "address",
          "name": "",
          "type": "address"
        },
        {
          "internalType": "uint256[]",
          "name": "",
          "type": "uint256[]"
        },
        {
          "internalType": "uint256[]",
          "name": "",
          "type": "uint256[]"
        },
        {
          "internalType": "bytes",
          "name": "",
          "type": "bytes"
        }
      ],
      "name": "onERC1155BatchReceived",
      "outputs": [
        {
          "internalType": "bytes4",
          "name": "",
          "type": "bytes4"
        }
      ],
      "stateMutability": "nonpayable",
      "type": "function"
    },
    {
      "inputs": [
        {
          "internalType": "address",
          "name": "",
          "type": "address"
        },
        {
          "internalType": "address",
          "name": "",
          "type": "address"
        },
        {
          "internalType": "uint256",
          "name": "",
          "type": "uint256"
        },
        {
          "internalType": "uint256",
          "name": "",
          "type": "uint256"
        },
        {
          "internalType": "bytes",
          "name": "",
          "type": "bytes"
        }
      ],
      "name": "onERC1155Received",
      "outputs": [
        {
          "internalType": "bytes4",
          "name": "",
          "type": "bytes4"
        }
      ],
      "stateMutability": "nonpayable",
      "type": "function"
    },
    {
      "inputs": [
        {
          "internalType": "address",
          "name": "",
          "type": "address"
        },
        {
          "internalType": "address",
          "name": "",
          "type": "address"
        },
        {
          "internalType": "uint256",
          "name": "",
          "type": "uint256"
        },
        {
          "internalType": "bytes",
          "name": "",
          "type": "bytes"
        }
      ],
      "name": "onERC721Received",
      "outputs": [
        {
          "internalType": "bytes4",
          "name": "",
          "type": "bytes4"
        }
      ],
      "stateMutability": "nonpayable",
      "type": "function"
    },
    {
      "inputs": [],
      "name": "owner",
      "outputs": [
        {
          "internalType": "address",
          "name": "",
          "type": "address"
        }
      ],
      "stateMutability": "view",
      "type": "function"
    },
    {
      "inputs": [],
      "name": "pool",
      "outputs": [
        {
          "internalType": "address",
          "name": "",
          "type": "address"
        }
      ],
      "stateMutability": "view",
      "type": "function"
    },
    {
      "inputs": [
        {
          "internalType": "address",
          "name": "asset",
          "type": "address"
        }
      ],
      "name": "pullFromLocker",
      "outputs": [],
      "stateMutability": "nonpayable",
      "type": "function"
    },
    {
      "inputs": [
        {
          "internalType": "address",
          "name": "asset",
          "type": "address"
        },
        {
          "internalType": "uint256[]",
          "name": "ids",
          "type": "uint256[]"
        },
        {
          "internalType": "uint256[]",
          "name": "amounts",
          "type": "uint256[]"
        },
        {
          "internalType": "bytes",
          "name": "data",
          "type": "bytes"
        }
      ],
      "name": "pullFromLockerERC1155",
      "outputs": [],
      "stateMutability": "nonpayable",
      "type": "function"
    },
    {
      "inputs": [
        {
          "internalType": "address",
          "name": "asset",
          "type": "address"
        },
        {
          "internalType": "uint256",
          "name": "tokenId",
          "type": "uint256"
        },
        {
          "internalType": "bytes",
          "name": "data",
          "type": "bytes"
        }
      ],
      "name": "pullFromLockerERC721",
      "outputs": [],
      "stateMutability": "nonpayable",
      "type": "function"
    },
    {
      "inputs": [
        {
          "internalType": "address[]",
          "name": "assets",
          "type": "address[]"
        }
      ],
      "name": "pullFromLockerMulti",
      "outputs": [],
      "stateMutability": "nonpayable",
      "type": "function"
    },
    {
      "inputs": [
        {
          "internalType": "address[]",
          "name": "assets",
          "type": "address[]"
        },
        {
          "internalType": "uint256[]",
          "name": "tokenIds",
          "type": "uint256[]"
        },
        {
          "internalType": "bytes[]",
          "name": "data",
          "type": "bytes[]"
        }
      ],
      "name": "pullFromLockerMultiERC721",
      "outputs": [],
      "stateMutability": "nonpayable",
      "type": "function"
    },
    {
      "inputs": [
        {
          "internalType": "address[]",
          "name": "assets",
          "type": "address[]"
        },
        {
          "internalType": "uint256[]",
          "name": "amounts",
          "type": "uint256[]"
        }
      ],
      "name": "pullFromLockerMultiPartial",
      "outputs": [],
      "stateMutability": "nonpayable",
      "type": "function"
    },
    {
      "inputs": [
        {
          "internalType": "address",
          "name": "asset",
          "type": "address"
        },
        {
          "internalType": "uint256",
          "name": "amount",
          "type": "uint256"
        }
      ],
      "name": "pullFromLockerPartial",
      "outputs": [],
      "stateMutability": "nonpayable",
      "type": "function"
    },
    {
      "inputs": [
        {
          "internalType": "address",
          "name": "asset",
          "type": "address"
        },
        {
          "internalType": "uint256",
          "name": "amount",
          "type": "uint256"
        }
      ],
      "name": "pushToLocker",
      "outputs": [],
      "stateMutability": "nonpayable",
      "type": "function"
    },
    {
      "inputs": [
        {
          "internalType": "address",
          "name": "asset",
          "type": "address"
        },
        {
          "internalType": "uint256[]",
          "name": "ids",
          "type": "uint256[]"
        },
        {
          "internalType": "uint256[]",
          "name": "amounts",
          "type": "uint256[]"
        },
        {
          "internalType": "bytes",
          "name": "data",
          "type": "bytes"
        }
      ],
      "name": "pushToLockerERC1155",
      "outputs": [],
      "stateMutability": "nonpayable",
      "type": "function"
    },
    {
      "inputs": [
        {
          "internalType": "address",
          "name": "asset",
          "type": "address"
        },
        {
          "internalType": "uint256",
          "name": "tokenId",
          "type": "uint256"
        },
        {
          "internalType": "bytes",
          "name": "data",
          "type": "bytes"
        }
      ],
      "name": "pushToLockerERC721",
      "outputs": [],
      "stateMutability": "nonpayable",
      "type": "function"
    },
    {
      "inputs": [
        {
          "internalType": "address[]",
          "name": "assets",
          "type": "address[]"
        },
        {
          "internalType": "uint256[]",
          "name": "amounts",
          "type": "uint256[]"
        }
      ],
      "name": "pushToLockerMulti",
      "outputs": [],
      "stateMutability": "nonpayable",
      "type": "function"
    },
    {
      "inputs": [
        {
          "internalType": "address[]",
          "name": "assets",
          "type": "address[]"
        },
        {
          "internalType": "uint256[]",
          "name": "tokenIds",
          "type": "uint256[]"
        },
        {
          "internalType": "bytes[]",
          "name": "data",
          "type": "bytes[]"
        }
      ],
      "name": "pushToLockerMultiERC721",
      "outputs": [],
      "stateMutability": "nonpayable",
      "type": "function"
    },
    {
      "inputs": [],
      "name": "renounceOwnership",
      "outputs": [],
      "stateMutability": "nonpayable",
      "type": "function"
    },
    {
      "inputs": [
        {
          "internalType": "uint256",
          "name": "",
          "type": "uint256"
        }
      ],
      "name": "rewardsAddresses",
      "outputs": [
        {
          "internalType": "address",
          "name": "",
          "type": "address"
        }
      ],
      "stateMutability": "view",
      "type": "function"
    },
    {
      "inputs": [],
      "name": "router1INCH_V4",
      "outputs": [
        {
          "internalType": "address",
          "name": "",
          "type": "address"
        }
      ],
      "stateMutability": "view",
      "type": "function"
    },
    {
      "inputs": [
        {
          "internalType": "bytes4",
          "name": "interfaceId",
          "type": "bytes4"
        }
      ],
      "name": "supportsInterface",
      "outputs": [
        {
          "internalType": "bool",
          "name": "",
          "type": "bool"
        }
      ],
      "stateMutability": "view",
      "type": "function"
    },
    {
      "inputs": [],
      "name": "toForwardCRV",
      "outputs": [
        {
          "internalType": "uint256",
          "name": "",
          "type": "uint256"
        }
      ],
      "stateMutability": "view",
      "type": "function"
    },
    {
      "inputs": [],
      "name": "toForwardCVX",
      "outputs": [
        {
          "internalType": "uint256",
          "name": "",
          "type": "uint256"
        }
      ],
      "stateMutability": "view",
      "type": "function"
    },
    {
      "inputs": [
        {
          "internalType": "uint256",
          "name": "",
          "type": "uint256"
        }
      ],
      "name": "toForwardExtraRewards",
      "outputs": [
        {
          "internalType": "uint256",
          "name": "",
          "type": "uint256"
        }
      ],
      "stateMutability": "view",
      "type": "function"
    },
    {
      "inputs": [
        {
          "internalType": "uint256",
          "name": "",
          "type": "uint256"
        }
      ],
      "name": "toForwardTokensBaseline",
      "outputs": [
        {
          "internalType": "uint256",
          "name": "",
          "type": "uint256"
        }
      ],
      "stateMutability": "view",
      "type": "function"
    },
    {
      "inputs": [
        {
          "internalType": "address",
          "name": "newOwner",
          "type": "address"
        }
      ],
      "name": "transferOwnership",
      "outputs": [],
      "stateMutability": "nonpayable",
      "type": "function"
    },
    {
      "inputs": [
        {
          "internalType": "address",
          "name": "newOwner",
          "type": "address"
        }
      ],
      "name": "transferOwnershipAndLock",
      "outputs": [],
      "stateMutability": "nonpayable",
      "type": "function"
    },
    {
      "inputs": [],
      "name": "yieldOwedToYDL",
      "outputs": [
        {
          "internalType": "uint256",
          "name": "",
          "type": "uint256"
        }
      ],
      "stateMutability": "view",
      "type": "function"
    }
  ],
  "bytecode": {
    "object": "0x60c0604052731111111254fb6c44bac0bed2854e76f90643097d6080523480156200002957600080fd5b5060405162002e6b38038062002e6b8339810160408190526200004c9162000de2565b620000573362000a78565b60058360ff1610620000c55760405162461bcd60e51b815260206004820152603b602482015260008051602062002e4b83398151915260448201527f206d6178203420746f6b656e7320696e20706c61696e20706f6f6c000000000060648201526084015b60405180910390fd5b60058751106200012d5760405162461bcd60e51b8152602060048201526034602482015260008051602062002e4b83398151915260448201527f206d617820342072657761726420746f6b656e730000000000000000000000006064820152608401620000bc565b60058460ff1610620001a35760405162461bcd60e51b8152602060048201526043602482015260008051602062002e4b83398151915260448201527f206d6178203420746f6b656e7320696e20756e6465726c79696e67204c5020706064820152621bdbdb60ea1b608482015260a401620000bc565b620001d18b600081518110620001bd57620001bd62000f2c565b602002602001015162000ac860201b60201c565b8a600181518110620001e757620001e762000f2c565b60209081029190910101516001600160a01b0390811660a052600a80546001600160a01b031916918a169182179055604051631526fe2760e01b815260048101849052631526fe279060240160c060405180830381865afa15801562000251573d6000803e3d6000fd5b505050506040513d601f19601f8201168201806040525081019062000277919062000f42565b60600151600b80546001600160a01b0319166001600160a01b0390921691909117905589518a90600090620002b057620002b062000f2c565b6020026020010151600360006101000a81548160ff02191690831515021790555081600c8190555089600181518110620002ee57620002ee62000f2c565b60209081029190910101516003805461ff001916610100921515830217908190556012805460ff60a01b1916600160a01b60ff8981169190910291909117909155919004161515600103620003b95760005b87518160ff161015620003b757600d888260ff168151811062000367576200036762000f2c565b60209081029190910181015182546001810184556000938452919092200180546001600160a01b0319166001600160a01b0390921691909117905580620003ae8162001006565b91505062000340565b505b60035460ff161515600103620007eb57601254620003e390600160a01b900460ff16600162001028565b60ff16815114620004635760405162461bcd60e51b815260206004820152604e602482015260008051602062002e4b83398151915260448201527f206e6f20636f727265637420616d6f756e74206f66207072696365206665656460648201526d1cc8199bdc881b595d185c1bdbdb60921b608482015260a401620000bc565b600e80546001600160a01b0319166001600160a01b038b811691909117909155604051631526fe2760e01b81526004810184905290891690631526fe279060240160c060405180830381865afa158015620004c2573d6000803e3d6000fd5b505050506040513d601f19601f82011682018060405250810190620004e8919062000f42565b51600f80546001600160a01b03199081166001600160a01b03938416179091556010805482168984161790556012805490911691871691909117905560005b81518160ff1610156200059e576015828260ff16815181106200054e576200054e62000f2c565b60209081029190910181015182546001810184556000938452919092200180546001600160a01b0319166001600160a01b0390921691909117905580620005958162001006565b91505062000527565b50600e5460405163c661065760e01b8152600060048201526001600160a01b0388811692169063c661065790602401602060405180830381865afa158015620005eb573d6000803e3d6000fd5b505050506040513d601f19601f820116820180604052508101906200061191906200104a565b6001600160a01b031603620006c657600e5460405163c661065760e01b8152600160048201526001600160a01b039091169063c661065790602401602060405180830381865afa1580156200066a573d6000803e3d6000fd5b505050506040513d601f19601f820116820180604052508101906200069091906200104a565b601180546001600160a01b0319166001600160a01b0392909216919091179055601380546001600160801b0319169055620007eb565b600e5460405163c661065760e01b8152600160048201526001600160a01b0388811692169063c661065790602401602060405180830381865afa15801562000712573d6000803e3d6000fd5b505050506040513d601f19601f820116820180604052508101906200073891906200104a565b6001600160a01b031603620007eb57600e5460405163c661065760e01b8152600060048201526001600160a01b039091169063c661065790602401602060405180830381865afa15801562000791573d6000803e3d6000fd5b505050506040513d601f19601f82011682018060405250810190620007b791906200104a565b601180546001600160a01b0319166001600160a01b0392909216919091179055601380546001600160801b03191660011790555b60035460ff16151560000362000a67578260ff168151146200089c5760405162461bcd60e51b8152602060048201526068602482015260008051602062002e4b83398151915260448201527f20706c61696e20706f6f6c3a206e756d626572206f662070726963652066656560648201527f64732073686f756c6420636f72726573706f6e6420746f206e756d626572206f6084820152676620746f6b656e7360c01b60a482015260c401620000bc565b600e80546001600160a01b0319166001600160a01b038b811691909117909155604051631526fe2760e01b81526004810184905290891690631526fe279060240160c060405180830381865afa158015620008fb573d6000803e3d6000fd5b505050506040513d601f19601f8201168201806040525081019062000921919062000f42565b51600f80546001600160a01b0319166001600160a01b0390921691909117905560005b8360ff168160ff16101562000a6557600e5460405163c661065760e01b815260ff831660048201526014916001600160a01b03169063c661065790602401602060405180830381865afa158015620009a0573d6000803e3d6000fd5b505050506040513d601f19601f82011682018060405250810190620009c691906200104a565b81546001810183556000928352602090922090910180546001600160a01b0319166001600160a01b039092169190911790558151601590839060ff841690811062000a155762000a1562000f2c565b60209081029190910181015182546001810184556000938452919092200180546001600160a01b0319166001600160a01b039092169190911790558062000a5c8162001006565b91505062000944565b505b50505050505050505050506200106f565b600080546001600160a01b038381166001600160a01b0319831681178455604051919092169283917f8be0079c531659141344cd1fd0a4f28419497f9722a3daafe3b4186f6b6457e09190a35050565b62000ad262000bc8565b600054600160a01b900460ff161562000b3c5760405162461bcd60e51b815260206004820152602560248201527f5a69766f654f776e61626c654c6f636b65643a3a756e6c6f636b65642829206c6044820152641bd8dad95960da1b6064820152608401620000bc565b6001600160a01b03811662000bba5760405162461bcd60e51b815260206004820152603e60248201527f5a69766f654f776e61626c654c6f636b65643a3a7472616e736665724f776e6560448201527f72736869702829206e65774f776e6572203d3d206164647265737328302900006064820152608401620000bc565b62000bc58162000a78565b50565b6000546001600160a01b0316331462000c4a5760405162461bcd60e51b815260206004820152603760248201527f5a69766f654f776e61626c654c6f636b65643a3a5f636865636b4f776e65722060448201527f6f776e6572282920213d205f6d736753656e64657228290000000000000000006064820152608401620000bc565b565b634e487b7160e01b600052604160045260246000fd5b604051601f8201601f191681016001600160401b038111828210171562000c8d5762000c8d62000c4c565b604052919050565b60006001600160401b0382111562000cb15762000cb162000c4c565b5060051b60200190565b80516001600160a01b038116811462000cd357600080fd5b919050565b600082601f83011262000cea57600080fd5b8151602062000d0362000cfd8362000c95565b62000c62565b82815260059290921b8401810191818101908684111562000d2357600080fd5b8286015b8481101562000d495762000d3b8162000cbb565b835291830191830162000d27565b509695505050505050565b8051801515811462000cd357600080fd5b600082601f83011262000d7757600080fd5b8151602062000d8a62000cfd8362000c95565b82815260059290921b8401810191818101908684111562000daa57600080fd5b8286015b8481101562000d495762000dc28162000d54565b835291830191830162000dae565b805160ff8116811462000cd357600080fd5b60008060008060008060008060008060006101608c8e03121562000e0557600080fd5b8b516001600160401b0381111562000e1c57600080fd5b62000e2a8e828f0162000cd8565b60208e0151909c5090506001600160401b0381111562000e4957600080fd5b62000e578e828f0162000d65565b9a505062000e6860408d0162000cbb565b985062000e7860608d0162000cbb565b60808d01519098506001600160401b0381111562000e9557600080fd5b62000ea38e828f0162000cd8565b97505062000eb460a08d0162000cbb565b955062000ec460c08d0162000cbb565b945062000ed460e08d0162000dd0565b935062000ee56101008d0162000dd0565b6101208d01516101408e015191945092506001600160401b0381111562000f0b57600080fd5b62000f198e828f0162000cd8565b9150509295989b509295989b9093969950565b634e487b7160e01b600052603260045260246000fd5b600060c0828403121562000f5557600080fd5b60405160c081016001600160401b038111828210171562000f7a5762000f7a62000c4c565b60405262000f888362000cbb565b815262000f986020840162000cbb565b602082015262000fab6040840162000cbb565b604082015262000fbe6060840162000cbb565b606082015262000fd16080840162000cbb565b608082015262000fe460a0840162000d54565b60a08201529392505050565b634e487b7160e01b600052601160045260246000fd5b600060ff821660ff81036200101f576200101f62000ff0565b60010192915050565b60ff818116838216019081111562001044576200104462000ff0565b92915050565b6000602082840312156200105d57600080fd5b620010688262000cbb565b9392505050565b60805160a051611db66200109560003960006104dc0152600061045c0152611db66000f3fe608060405234801561001057600080fd5b50600436106103a45760003560e01c8063945c9142116101e9578063d9821e3b1161010f578063eada4cd7116100ad578063f85fcb1a1161007c578063f85fcb1a1461077c578063f988dc3f14610785578063fd76f59d1461078e578063ff0459ba146107a157600080fd5b8063eada4cd71461072e578063f23a6e6114610741578063f2fde38b14610760578063f5a047851461077357600080fd5b8063dbbc65d9116100e9578063dbbc65d91461070f578063dd913bdb14610450578063e21c81d31461071c578063e7f446291461045057600080fd5b8063d9821e3b146106c3578063da456cbd146106d6578063da87d2cf146106fc57600080fd5b8063b3da6b0811610187578063c9c6a41411610156578063c9c6a41414610689578063cf10b7ab14610450578063cf3090121461069c578063d0991c84146106b057600080fd5b8063b3da6b081461063b578063b892bcc014610644578063bc197c8114610657578063be8d80611461067657600080fd5b8063ab2637af116101c3578063ab2637af14610616578063aeb3264b1461061f578063b0607cf814610450578063b2c500f01461062857600080fd5b8063945c9142146105e8578063a0c9455a14610603578063a4a3e79d146104fe57600080fd5b80633eda81ad116102ce578063607cd6491161026c5780637dbcdbc11161023b5780637dbcdbc1146105b157806384476591146105c45780638b648ee2146104505780638da5cb5b146105d757600080fd5b8063607cd6491461057b57806364c77735146104fe578063715018a61461058e578063759cb53b1461059657600080fd5b80634d65dd1c116102a85780634d65dd1c1461052f57806358289c7e146105425780635e860430146105555780635edb2ba41461056857600080fd5b80633eda81ad146104fe578063422b20181461050557806349a5e73b1461051857600080fd5b80631af1ca97116103465780632dd3d9ef116103155780632dd3d9ef146104c45780632f08d48b146104505780633c117244146104505780633ce8d432146104d757600080fd5b80631af1ca971461047e5780631d9389e91461049e578063210663e4146104b1578063215cccdd1461045057600080fd5b806315e987441161038257806315e987441461041257806316f0115b146104255780631852b3831461045057806319ce95f41461045757600080fd5b806301ffc9a7146103a957806312052176146103d1578063150b7a02146103e6575b600080fd5b6103bc6103b736600461159d565b6107b4565b60405190151581526020015b60405180910390f35b6103e46103df366004611632565b6107eb565b005b6103f96103f4366004611740565b61085d565b6040516001600160e01b031990911681526020016103c8565b6103e46104203660046117eb565b61086e565b600e54610438906001600160a01b031681565b6040516001600160a01b0390911681526020016103c8565b60006103bc565b6104387f000000000000000000000000000000000000000000000000000000000000000081565b60135461048b90600f0b81565b604051600f9190910b81526020016103c8565b6103e46104ac366004611632565b6109df565b601054610438906001600160a01b031681565b6104386104d2366004611884565b610a4a565b6104387f000000000000000000000000000000000000000000000000000000000000000081565b60016103bc565b6103e461051336600461189d565b610a74565b610521600c5481565b6040519081526020016103c8565b600a54610438906001600160a01b031681565b6103e4610550366004611947565b610ae3565b601254610438906001600160a01b031681565b601154610438906001600160a01b031681565b6103e4610589366004611962565b610bbe565b6103e4610cc5565b610438734e3fbd56cd56c3e72c1403e103b45db9da5b9d2b81565b6103e46105bf366004611947565b610d03565b6103e46105d23660046119a3565b610d64565b6000546001600160a01b0316610438565b61043873d533a949740bb3306d119cc777fa900ba034cd5281565b610438610611366004611884565b610dc7565b61052160045481565b61052160025481565b600f54610438906001600160a01b031681565b61052160055481565b6103e46106523660046117eb565b610dd7565b6103f9610665366004611a41565b63bc197c8160e01b95945050505050565b610521610684366004611884565b610f3f565b6103e4610697366004611aea565b610f60565b6000546103bc90600160a01b900460ff1681565b6104386106be366004611884565b610ff3565b6103e46106d13660046119a3565b611003565b6012546106ea90600160a01b900460ff1681565b60405160ff90911681526020016103c8565b61052161070a366004611884565b611031565b6003546103bc9060ff1681565b6003546103bc90610100900460ff1681565b600b54610438906001600160a01b031681565b6103f961074f366004611b49565b63f23a6e6160e01b95945050505050565b6103e461076e366004611947565b611041565b61052160065481565b61052160075481565b61052160015481565b6103e461079c36600461189d565b6110f8565b6103e46107af366004611aea565b611165565b60006001600160e01b03198216630271189760e51b14806107e557506301ffc9a760e01b6001600160e01b03198316145b92915050565b6107f3611237565b60405162461bcd60e51b815260206004820152603460248201527f5a69766f654c6f636b65723a3a70756c6c46726f6d4c6f636b65724552433732604482015273312829202163616e50756c6c455243373231282960601b60648201526084015b60405180910390fd5b630a85bd0160e11b5b949350505050565b610876611237565b60405162461bcd60e51b815260206004820152603e60248201527f5a69766f654c6f636b65723a3a70756c6c46726f6d4c6f636b65724d756c746960448201527f4552433732312829202163616e50756c6c4d756c7469455243373231282900006064820152608401610854565b858110156109d6578686828181106108fe576108fe611c0a565b90506020020160208101906109139190611947565b6001600160a01b031663b88d4fde306109346000546001600160a01b031690565b88888681811061094657610946611c0a565b9050602002013587878781811061095f5761095f611c0a565b90506020028101906109719190611c20565b6040518663ffffffff1660e01b8152600401610991959493929190611bd6565b600060405180830381600087803b1580156109ab57600080fd5b505af11580156109bf573d6000803e3d6000fd5b5050505080806109ce90611c66565b9150506108e4565b50505050505050565b6109e7611237565b60405162461bcd60e51b815260206004820152603260248201527f5a69766f654c6f636b65723a3a70757368546f4c6f636b65724552433732312860448201527129202163616e50757368455243373231282960701b6064820152608401610854565b60158181548110610a5a57600080fd5b6000918252602090912001546001600160a01b0316905081565b610a7c611237565b60405162461bcd60e51b815260206004820152603660248201527f5a69766f654c6f636b65723a3a70756c6c46726f6d4c6f636b6572455243313160448201527535352829202163616e50756c6c45524331313535282960501b6064820152608401610854565b610aeb611237565b600054600160a01b900460ff1615610b155760405162461bcd60e51b815260040161085490611c8d565b6001600160a01b038116610b9f5760405162461bcd60e51b815260206004820152604560248201527f5a69766f654f776e61626c654c6f636b65643a3a7472616e736665724f776e6560448201527f7273686970416e644c6f636b2829206e65774f776e6572203d3d206164647265606482015264737328302960d81b608482015260a401610854565b6000805460ff60a01b1916600160a01b179055610bbb816112b7565b50565b610bc6611237565b60005b81811015610cc057610cae610be66000546001600160a01b031690565b848484818110610bf857610bf8611c0a565b9050602002016020810190610c0d9190611947565b6040516370a0823160e01b81523060048201526001600160a01b0391909116906370a0823190602401602060405180830381865afa158015610c53573d6000803e3d6000fd5b505050506040513d601f19601f82011682018060405250810190610c779190611cd2565b858585818110610c8957610c89611c0a565b9050602002016020810190610c9e9190611947565b6001600160a01b03169190611307565b80610cb881611c66565b915050610bc9565b505050565b610ccd611237565b600054600160a01b900460ff1615610cf75760405162461bcd60e51b815260040161085490611c8d565b610d0160006112b7565b565b610d0b611237565b60405162461bcd60e51b815260206004820152602860248201527f5a69766f654c6f636b65723a3a70756c6c46726f6d4c6f636b65722829202163604482015267616e50756c6c282960c01b6064820152608401610854565b610d6c611237565b60405162461bcd60e51b815260206004820152602660248201527f5a69766f654c6f636b65723a3a70757368546f4c6f636b65722829202163616e60448201526550757368282960d01b6064820152608401610854565b5050565b600d8181548110610a5a57600080fd5b610ddf611237565b60405162461bcd60e51b815260206004820152603c60248201527f5a69766f654c6f636b65723a3a70757368546f4c6f636b65724d756c7469455260448201527f433732312829202163616e507573684d756c74694552433732312829000000006064820152608401610854565b858110156109d657868682818110610e6757610e67611c0a565b9050602002016020810190610e7c9190611947565b6001600160a01b031663b88d4fde610e9c6000546001600160a01b031690565b30888886818110610eaf57610eaf611c0a565b90506020020135878787818110610ec857610ec8611c0a565b9050602002810190610eda9190611c20565b6040518663ffffffff1660e01b8152600401610efa959493929190611bd6565b600060405180830381600087803b158015610f1457600080fd5b505af1158015610f28573d6000803e3d6000fd5b505050508080610f3790611c66565b915050610e4d565b60088181548110610f4f57600080fd5b600091825260209091200154905081565b610f68611237565b60005b83811015610fec57610fda610f886000546001600160a01b031690565b30858585818110610f9b57610f9b611c0a565b90506020020135888886818110610fb457610fb4611c0a565b9050602002016020810190610fc99190611947565b6001600160a01b031692919061136a565b80610fe481611c66565b915050610f6b565b5050505050565b60148181548110610a5a57600080fd5b61100b611237565b610dc36110206000546001600160a01b031690565b6001600160a01b0384169083611307565b60098181548110610f4f57600080fd5b611049611237565b600054600160a01b900460ff16156110735760405162461bcd60e51b815260040161085490611c8d565b6001600160a01b0381166110ef5760405162461bcd60e51b815260206004820152603e60248201527f5a69766f654f776e61626c654c6f636b65643a3a7472616e736665724f776e6560448201527f72736869702829206e65774f776e6572203d3d206164647265737328302900006064820152608401610854565b610bbb816112b7565b611100611237565b60405162461bcd60e51b815260206004820152603460248201527f5a69766f654c6f636b65723a3a70757368546f4c6f636b6572455243313135356044820152732829202163616e5075736845524331313535282960601b6064820152608401610854565b61116d611237565b6040805162461bcd60e51b81526020600482015260248101919091527f5a69766f654c6f636b65723a3a70756c6c46726f6d4c6f636b65724d756c746960448201527f5061727469616c2829202163616e50756c6c4d756c74695061727469616c28296064820152608401610854565b83811015610fec576112256111fa6000546001600160a01b031690565b84848481811061120c5761120c611c0a565b90506020020135878785818110610c8957610c89611c0a565b8061122f81611c66565b9150506111dd565b6000546001600160a01b03163314610d015760405162461bcd60e51b815260206004820152603760248201527f5a69766f654f776e61626c654c6f636b65643a3a5f636865636b4f776e65722060448201527f6f776e6572282920213d205f6d736753656e64657228290000000000000000006064820152608401610854565b600080546001600160a01b038381166001600160a01b0319831681178455604051919092169283917f8be0079c531659141344cd1fd0a4f28419497f9722a3daafe3b4186f6b6457e09190a35050565b6040516001600160a01b038316602482015260448101829052610cc090849063a9059cbb60e01b906064015b60408051601f198184030181529190526020810180516001600160e01b03166001600160e01b0319909316929092179091526113a8565b6040516001600160a01b03808516602483015283166044820152606481018290526113a29085906323b872dd60e01b90608401611333565b50505050565b60006113fd826040518060400160405280602081526020017f5361666545524332303a206c6f772d6c6576656c2063616c6c206661696c6564815250856001600160a01b031661147a9092919063ffffffff16565b805190915015610cc0578080602001905181019061141b9190611ceb565b610cc05760405162461bcd60e51b815260206004820152602a60248201527f5361666545524332303a204552433230206f7065726174696f6e20646964206e6044820152691bdd081cdd58d8d9595960b21b6064820152608401610854565b6060610866848460008585600080866001600160a01b031685876040516114a19190611d31565b60006040518083038185875af1925050503d80600081146114de576040519150601f19603f3d011682016040523d82523d6000602084013e6114e3565b606091505b50915091506114f4878383876114ff565b979650505050505050565b6060831561156e578251600003611567576001600160a01b0385163b6115675760405162461bcd60e51b815260206004820152601d60248201527f416464726573733a2063616c6c20746f206e6f6e2d636f6e74726163740000006044820152606401610854565b5081610866565b61086683838151156115835781518083602001fd5b8060405162461bcd60e51b81526004016108549190611d4d565b6000602082840312156115af57600080fd5b81356001600160e01b0319811681146115c757600080fd5b9392505050565b80356001600160a01b03811681146115e557600080fd5b919050565b60008083601f8401126115fc57600080fd5b5081356001600160401b0381111561161357600080fd5b60208301915083602082850101111561162b57600080fd5b9250929050565b6000806000806060858703121561164857600080fd5b611651856115ce565b93506020850135925060408501356001600160401b0381111561167357600080fd5b61167f878288016115ea565b95989497509550505050565b634e487b7160e01b600052604160045260246000fd5b604051601f8201601f191681016001600160401b03811182821017156116c9576116c961168b565b604052919050565b600082601f8301126116e257600080fd5b81356001600160401b038111156116fb576116fb61168b565b61170e601f8201601f19166020016116a1565b81815284602083860101111561172357600080fd5b816020850160208301376000918101602001919091529392505050565b6000806000806080858703121561175657600080fd5b61175f856115ce565b935061176d602086016115ce565b92506040850135915060608501356001600160401b0381111561178f57600080fd5b61179b878288016116d1565b91505092959194509250565b60008083601f8401126117b957600080fd5b5081356001600160401b038111156117d057600080fd5b6020830191508360208260051b850101111561162b57600080fd5b6000806000806000806060878903121561180457600080fd5b86356001600160401b038082111561181b57600080fd5b6118278a838b016117a7565b9098509650602089013591508082111561184057600080fd5b61184c8a838b016117a7565b9096509450604089013591508082111561186557600080fd5b5061187289828a016117a7565b979a9699509497509295939492505050565b60006020828403121561189657600080fd5b5035919050565b60008060008060008060006080888a0312156118b857600080fd5b6118c1886115ce565b965060208801356001600160401b03808211156118dd57600080fd5b6118e98b838c016117a7565b909850965060408a013591508082111561190257600080fd5b61190e8b838c016117a7565b909650945060608a013591508082111561192757600080fd5b506119348a828b016115ea565b989b979a50959850939692959293505050565b60006020828403121561195957600080fd5b6115c7826115ce565b6000806020838503121561197557600080fd5b82356001600160401b0381111561198b57600080fd5b611997858286016117a7565b90969095509350505050565b600080604083850312156119b657600080fd5b6119bf836115ce565b946020939093013593505050565b600082601f8301126119de57600080fd5b813560206001600160401b038211156119f9576119f961168b565b8160051b611a088282016116a1565b9283528481018201928281019087851115611a2257600080fd5b83870192505b848310156114f457823582529183019190830190611a28565b600080600080600060a08688031215611a5957600080fd5b611a62866115ce565b9450611a70602087016115ce565b935060408601356001600160401b0380821115611a8c57600080fd5b611a9889838a016119cd565b94506060880135915080821115611aae57600080fd5b611aba89838a016119cd565b93506080880135915080821115611ad057600080fd5b50611add888289016116d1565b9150509295509295909350565b60008060008060408587031215611b0057600080fd5b84356001600160401b0380821115611b1757600080fd5b611b23888389016117a7565b90965094506020870135915080821115611b3c57600080fd5b5061167f878288016117a7565b600080600080600060a08688031215611b6157600080fd5b611b6a866115ce565b9450611b78602087016115ce565b9350604086013592506060860135915060808601356001600160401b03811115611ba157600080fd5b611add888289016116d1565b81835281816020850137506000828201602090810191909152601f909101601f19169091010190565b6001600160a01b03868116825285166020820152604081018490526080606082018190526000906114f49083018486611bad565b634e487b7160e01b600052603260045260246000fd5b6000808335601e19843603018112611c3757600080fd5b8301803591506001600160401b03821115611c5157600080fd5b60200191503681900382131561162b57600080fd5b600060018201611c8657634e487b7160e01b600052601160045260246000fd5b5060010190565b60208082526025908201527f5a69766f654f776e61626c654c6f636b65643a3a756e6c6f636b65642829206c6040820152641bd8dad95960da1b606082015260800190565b600060208284031215611ce457600080fd5b5051919050565b600060208284031215611cfd57600080fd5b815180151581146115c757600080fd5b60005b83811015611d28578181015183820152602001611d10565b50506000910152565b60008251611d43818460208701611d0d565b9190910192915050565b6020815260008251806020840152611d6c816040850160208701611d0d565b601f01601f1916919091016040019291505056fea2646970667358221220540dbe6fff4e5ddded3d23d7b138f39aef494143a230e51e7a14319a01219a0164736f6c63430008100033655f4f43595f4356585f4d6f64756c61723a3a636f6e7374727563746f722829",
    "linkReferences": {}
  },
  "methodIdentifiers": {
    "BASE_TOKEN()": "210663e4",
    "CRV()": "945c9142",
    "CVX()": "759cb53b",
    "CVX_Deposit_Address()": "4d65dd1c",
    "CVX_Reward_Address()": "eada4cd7",
    "GBL()": "3ce8d432",
    "MP_UNDERLYING_LP_POOL()": "5e860430",
    "MP_UNDERLYING_LP_TOKEN()": "5edb2ba4",
    "POOL_LP_TOKEN()": "b2c500f0",
    "PP_TOKENS(uint256)": "d0991c84",
    "baseline()": "ab2637af",
    "canPull()": "215cccdd",
    "canPullERC1155()": "b0607cf8",
    "canPullERC721()": "3c117244",
    "canPullMulti()": "3eda81ad",
    "canPullMultiERC721()": "1852b383",
    "canPullMultiPartial()": "2f08d48b",
    "canPullPartial()": "64c77735",
    "canPush()": "e7f44629",
    "canPushERC1155()": "cf10b7ab",
    "canPushERC721()": "8b648ee2",
    "canPushMulti()": "a4a3e79d",
    "canPushMultiERC721()": "dd913bdb",
    "chainlinkPriceFeeds(uint256)": "2dd3d9ef",
    "convexPoolID()": "49a5e73b",
    "extraRewards()": "e21c81d3",
    "indexBASE_TOKEN()": "1af1ca97",
    "investTimeLock()": "aeb3264b",
    "locked()": "cf309012",
    "metaOrPlainPool()": "dbbc65d9",
    "nextYieldDistribution()": "f988dc3f",
    "numberOfTokensUnderlyingLPPool()": "da456cbd",
    "onERC1155BatchReceived(address,address,uint256[],uint256[],bytes)": "bc197c81",
    "onERC1155Received(address,address,uint256,uint256,bytes)": "f23a6e61",
    "onERC721Received(address,address,uint256,bytes)": "150b7a02",
    "owner()": "8da5cb5b",
    "pool()": "16f0115b",
    "pullFromLocker(address)": "7dbcdbc1",
    "pullFromLockerERC1155(address,uint256[],uint256[],bytes)": "422b2018",
    "pullFromLockerERC721(address,uint256,bytes)": "12052176",
    "pullFromLockerMulti(address[])": "607cd649",
    "pullFromLockerMultiERC721(address[],uint256[],bytes[])": "15e98744",
    "pullFromLockerMultiPartial(address[],uint256[])": "ff0459ba",
    "pullFromLockerPartial(address,uint256)": "d9821e3b",
    "pushToLocker(address,uint256)": "84476591",
    "pushToLockerERC1155(address,uint256[],uint256[],bytes)": "fd76f59d",
    "pushToLockerERC721(address,uint256,bytes)": "1d9389e9",
    "pushToLockerMulti(address[],uint256[])": "c9c6a414",
    "pushToLockerMultiERC721(address[],uint256[],bytes[])": "b892bcc0",
    "renounceOwnership()": "715018a6",
    "rewardsAddresses(uint256)": "a0c9455a",
    "router1INCH_V4()": "19ce95f4",
    "supportsInterface(bytes4)": "01ffc9a7",
    "toForwardCRV()": "f5a04785",
    "toForwardCVX()": "f85fcb1a",
    "toForwardExtraRewards(uint256)": "be8d8061",
    "toForwardTokensBaseline(uint256)": "da87d2cf",
    "transferOwnership(address)": "f2fde38b",
    "transferOwnershipAndLock(address)": "58289c7e",
    "yieldOwedToYDL()": "b3da6b08"
  },
  "id": 78
}