{
  "abi": [
    {
      "inputs": [
        {
          "internalType": "string",
          "name": "name_",
          "type": "string"
        },
        {
          "internalType": "string",
          "name": "symbol_",
          "type": "string"
        },
        {
          "internalType": "address",
          "name": "init",
          "type": "address"
        },
        {
          "internalType": "address",
          "name": "GBL_",
          "type": "address"
        }
      ],
      "stateMutability": "nonpayable",
      "type": "constructor"
    },
    {
      "anonymous": false,
      "inputs": [
        {
          "indexed": true,
          "internalType": "address",
          "name": "owner",
          "type": "address"
        },
        {
          "indexed": true,
          "internalType": "address",
          "name": "spender",
          "type": "address"
        },
        {
          "indexed": false,
          "internalType": "uint256",
          "name": "value",
          "type": "uint256"
        }
      ],
      "name": "Approval",
      "type": "event"
    },
    {
      "anonymous": false,
      "inputs": [
        {
          "indexed": true,
          "internalType": "address",
          "name": "delegator",
          "type": "address"
        },
        {
          "indexed": true,
          "internalType": "address",
          "name": "fromDelegate",
          "type": "address"
        },
        {
          "indexed": true,
          "internalType": "address",
          "name": "toDelegate",
          "type": "address"
        }
      ],
      "name": "DelegateChanged",
      "type": "event"
    },
    {
      "anonymous": false,
      "inputs": [
        {
          "indexed": true,
          "internalType": "address",
          "name": "delegate",
          "type": "address"
        },
        {
          "indexed": false,
          "internalType": "uint256",
          "name": "previousBalance",
          "type": "uint256"
        },
        {
          "indexed": false,
          "internalType": "uint256",
          "name": "newBalance",
          "type": "uint256"
        }
      ],
      "name": "DelegateVotesChanged",
      "type": "event"
    },
    {
      "anonymous": false,
      "inputs": [
        {
          "indexed": true,
          "internalType": "address",
          "name": "from",
          "type": "address"
        },
        {
          "indexed": true,
          "internalType": "address",
          "name": "to",
          "type": "address"
        },
        {
          "indexed": false,
          "internalType": "uint256",
          "name": "value",
          "type": "uint256"
        }
      ],
      "name": "Transfer",
      "type": "event"
    },
    {
      "inputs": [],
      "name": "DOMAIN_SEPARATOR",
      "outputs": [
        {
          "internalType": "bytes32",
          "name": "",
          "type": "bytes32"
        }
      ],
      "stateMutability": "view",
      "type": "function"
    },
    {
      "inputs": [],
      "name": "GBL",
      "outputs": [
        {
          "internalType": "address",
          "name": "GBL_",
          "type": "address"
        }
      ],
      "stateMutability": "view",
      "type": "function"
    },
    {
      "inputs": [
        {
          "internalType": "address",
          "name": "owner",
          "type": "address"
        },
        {
          "internalType": "address",
          "name": "spender",
          "type": "address"
        }
      ],
      "name": "allowance",
      "outputs": [
        {
          "internalType": "uint256",
          "name": "",
          "type": "uint256"
        }
      ],
      "stateMutability": "view",
      "type": "function"
    },
    {
      "inputs": [
        {
          "internalType": "address",
          "name": "spender",
          "type": "address"
        },
        {
          "internalType": "uint256",
          "name": "amount",
          "type": "uint256"
        }
      ],
      "name": "approve",
      "outputs": [
        {
          "internalType": "bool",
          "name": "",
          "type": "bool"
        }
      ],
      "stateMutability": "nonpayable",
      "type": "function"
    },
    {
      "inputs": [
        {
          "internalType": "address",
          "name": "account",
          "type": "address"
        }
      ],
      "name": "balanceOf",
      "outputs": [
        {
          "internalType": "uint256",
          "name": "",
          "type": "uint256"
        }
      ],
      "stateMutability": "view",
      "type": "function"
    },
    {
      "inputs": [
        {
          "internalType": "uint256",
          "name": "amount",
          "type": "uint256"
        }
      ],
      "name": "burn",
      "outputs": [],
      "stateMutability": "nonpayable",
      "type": "function"
    },
    {
      "inputs": [
        {
          "internalType": "address",
          "name": "account",
          "type": "address"
        },
        {
          "internalType": "uint32",
          "name": "pos",
          "type": "uint32"
        }
      ],
      "name": "checkpoints",
      "outputs": [
        {
          "components": [
            {
              "internalType": "uint32",
              "name": "fromBlock",
              "type": "uint32"
            },
            {
              "internalType": "uint224",
              "name": "votes",
              "type": "uint224"
            }
          ],
          "internalType": "struct ERC20Votes.Checkpoint",
          "name": "",
          "type": "tuple"
        }
      ],
      "stateMutability": "view",
      "type": "function"
    },
    {
      "inputs": [],
      "name": "decimals",
      "outputs": [
        {
          "internalType": "uint8",
          "name": "",
          "type": "uint8"
        }
      ],
      "stateMutability": "view",
      "type": "function"
    },
    {
      "inputs": [
        {
          "internalType": "address",
          "name": "spender",
          "type": "address"
        },
        {
          "internalType": "uint256",
          "name": "subtractedValue",
          "type": "uint256"
        }
      ],
      "name": "decreaseAllowance",
      "outputs": [
        {
          "internalType": "bool",
          "name": "",
          "type": "bool"
        }
      ],
      "stateMutability": "nonpayable",
      "type": "function"
    },
    {
      "inputs": [
        {
          "internalType": "address",
          "name": "delegatee",
          "type": "address"
        }
      ],
      "name": "delegate",
      "outputs": [],
      "stateMutability": "nonpayable",
      "type": "function"
    },
    {
      "inputs": [
        {
          "internalType": "address",
          "name": "delegatee",
          "type": "address"
        },
        {
          "internalType": "uint256",
          "name": "nonce",
          "type": "uint256"
        },
        {
          "internalType": "uint256",
          "name": "expiry",
          "type": "uint256"
        },
        {
          "internalType": "uint8",
          "name": "v",
          "type": "uint8"
        },
        {
          "internalType": "bytes32",
          "name": "r",
          "type": "bytes32"
        },
        {
          "internalType": "bytes32",
          "name": "s",
          "type": "bytes32"
        }
      ],
      "name": "delegateBySig",
      "outputs": [],
      "stateMutability": "nonpayable",
      "type": "function"
    },
    {
      "inputs": [
        {
          "internalType": "address",
          "name": "account",
          "type": "address"
        }
      ],
      "name": "delegates",
      "outputs": [
        {
          "internalType": "address",
          "name": "",
          "type": "address"
        }
      ],
      "stateMutability": "view",
      "type": "function"
    },
    {
      "inputs": [
        {
          "internalType": "uint256",
          "name": "blockNumber",
          "type": "uint256"
        }
      ],
      "name": "getPastTotalSupply",
      "outputs": [
        {
          "internalType": "uint256",
          "name": "",
          "type": "uint256"
        }
      ],
      "stateMutability": "view",
      "type": "function"
    },
    {
      "inputs": [
        {
          "internalType": "address",
          "name": "account",
          "type": "address"
        },
        {
          "internalType": "uint256",
          "name": "blockNumber",
          "type": "uint256"
        }
      ],
      "name": "getPastVotes",
      "outputs": [
        {
          "internalType": "uint256",
          "name": "",
          "type": "uint256"
        }
      ],
      "stateMutability": "view",
      "type": "function"
    },
    {
      "inputs": [
        {
          "internalType": "address",
          "name": "account",
          "type": "address"
        }
      ],
      "name": "getVotes",
      "outputs": [
        {
          "internalType": "uint256",
          "name": "",
          "type": "uint256"
        }
      ],
      "stateMutability": "view",
      "type": "function"
    },
    {
      "inputs": [
        {
          "internalType": "address",
          "name": "spender",
          "type": "address"
        },
        {
          "internalType": "uint256",
          "name": "addedValue",
          "type": "uint256"
        }
      ],
      "name": "increaseAllowance",
      "outputs": [
        {
          "internalType": "bool",
          "name": "",
          "type": "bool"
        }
      ],
      "stateMutability": "nonpayable",
      "type": "function"
    },
    {
      "inputs": [],
      "name": "name",
      "outputs": [
        {
          "internalType": "string",
          "name": "",
          "type": "string"
        }
      ],
      "stateMutability": "view",
      "type": "function"
    },
    {
      "inputs": [
        {
          "internalType": "address",
          "name": "owner",
          "type": "address"
        }
      ],
      "name": "nonces",
      "outputs": [
        {
          "internalType": "uint256",
          "name": "",
          "type": "uint256"
        }
      ],
      "stateMutability": "view",
      "type": "function"
    },
    {
      "inputs": [
        {
          "internalType": "address",
          "name": "account",
          "type": "address"
        }
      ],
      "name": "numCheckpoints",
      "outputs": [
        {
          "internalType": "uint32",
          "name": "",
          "type": "uint32"
        }
      ],
      "stateMutability": "view",
      "type": "function"
    },
    {
      "inputs": [
        {
          "internalType": "address",
          "name": "owner",
          "type": "address"
        },
        {
          "internalType": "address",
          "name": "spender",
          "type": "address"
        },
        {
          "internalType": "uint256",
          "name": "value",
          "type": "uint256"
        },
        {
          "internalType": "uint256",
          "name": "deadline",
          "type": "uint256"
        },
        {
          "internalType": "uint8",
          "name": "v",
          "type": "uint8"
        },
        {
          "internalType": "bytes32",
          "name": "r",
          "type": "bytes32"
        },
        {
          "internalType": "bytes32",
          "name": "s",
          "type": "bytes32"
        }
      ],
      "name": "permit",
      "outputs": [],
      "stateMutability": "nonpayable",
      "type": "function"
    },
    {
      "inputs": [],
      "name": "symbol",
      "outputs": [
        {
          "internalType": "string",
          "name": "",
          "type": "string"
        }
      ],
      "stateMutability": "view",
      "type": "function"
    },
    {
      "inputs": [],
      "name": "totalSupply",
      "outputs": [
        {
          "internalType": "uint256",
          "name": "",
          "type": "uint256"
        }
      ],
      "stateMutability": "view",
      "type": "function"
    },
    {
      "inputs": [
        {
          "internalType": "address",
          "name": "to",
          "type": "address"
        },
        {
          "internalType": "uint256",
          "name": "amount",
          "type": "uint256"
        }
      ],
      "name": "transfer",
      "outputs": [
        {
          "internalType": "bool",
          "name": "",
          "type": "bool"
        }
      ],
      "stateMutability": "nonpayable",
      "type": "function"
    },
    {
      "inputs": [
        {
          "internalType": "address",
          "name": "from",
          "type": "address"
        },
        {
          "internalType": "address",
          "name": "to",
          "type": "address"
        },
        {
          "internalType": "uint256",
          "name": "amount",
          "type": "uint256"
        }
      ],
      "name": "transferFrom",
      "outputs": [
        {
          "internalType": "bool",
          "name": "",
          "type": "bool"
        }
      ],
      "stateMutability": "nonpayable",
      "type": "function"
    }
  ],
  "bytecode": {
    "object": "0x6101406040523480156200001257600080fd5b5060405162002c9b38038062002c9b83398101604081905262000035916200096f565b6040805180820190915260018152603160f81b6020820152849081908186600362000061838262000a8c565b50600462000070828262000a8c565b5050825160208085019190912083518483012060e08290526101008190524660a0818152604080517f8b73c3c69bb8fe3d512ecc4cf759cc79239f7b179b0ffacaa9a75d522b39400f81880181905281830187905260608201869052608082019490945230818401528151808203909301835260c0019052805194019390932091935091906080523060c052610120525050600a80546001600160a01b0319166001600160a01b038616179055506200013991508390506a14adf4b7320334b900000062000143565b5050505062000bb8565b6200015a8282620001fa60201b62000a421760201c565b6001600160e01b036200016e620002cb8216565b1115620001db5760405162461bcd60e51b815260206004820152603060248201527f4552433230566f7465733a20746f74616c20737570706c79207269736b73206f60448201526f766572666c6f77696e6720766f74657360801b60648201526084015b60405180910390fd5b620001f4600962000b0d620002d160201b1783620002e8565b50505050565b6001600160a01b038216620002525760405162461bcd60e51b815260206004820152601f60248201527f45524332303a206d696e7420746f20746865207a65726f2061646472657373006044820152606401620001d2565b806002600082825462000266919062000b6e565b90915550506001600160a01b038216600081815260208181526040808320805486019055518481527fddf252ad1be2c89b69c2b068fc378daa952ba7f163c4a11628f55a4df523b3ef910160405180910390a3620002c7600083836200047f565b5050565b60025490565b6000620002df828462000b6e565b90505b92915050565b82546000908190818115620003485762000317876200030960018562000b84565b600091825260209091200190565b60408051808201909152905463ffffffff8116825264010000000090046001600160e01b031660208201526200035d565b60408051808201909152600080825260208201525b905080602001516001600160e01b031693506200037b84868860201c565b9250600082118015620003945750805163ffffffff1643145b15620003eb57620003b0836200066e60201b62000b191760201c565b620003c2886200030960018662000b84565b80546001600160e01b03929092166401000000000263ffffffff90921691909117905562000470565b8660405180604001604052806200040d43620006dd60201b62000b861760201c565b63ffffffff1681526020016200042e866200066e60201b62000b191760201c565b6001600160e01b0390811690915282546001810184556000938452602093849020835194909301519091166401000000000263ffffffff909316929092179101555b5050935093915050565b505050565b620004978383836200047a60201b62000beb1760201c565b6000620004ac600a546001600160a01b031690565b6001600160a01b031663d9fa86ed6040518163ffffffff1660e01b8152600401602060405180830381865afa158015620004ea573d6000803e3d6000fd5b505050506040513d601f19601f8201168201806040525081019062000510919062000b9a565b6001600160a01b03161480620006345750600a546001600160a01b03166001600160a01b031663d9fa86ed6040518163ffffffff1660e01b8152600401602060405180830381865afa1580156200056b573d6000803e3d6000fd5b505050506040513d601f19601f8201168201806040525081019062000591919062000b9a565b6001600160a01b0316826001600160a01b031614158015620006345750600a546001600160a01b03166001600160a01b031663d9fa86ed6040518163ffffffff1660e01b8152600401602060405180830381865afa158015620005f8573d6000803e3d6000fd5b505050506040513d601f19601f820116820180604052508101906200061e919062000b9a565b6001600160a01b0316836001600160a01b031614155b156200047a576001600160a01b038381166000908152600760205260408082205485841683529120546200047a9291821691168362000744565b60006001600160e01b03821115620006d95760405162461bcd60e51b815260206004820152602760248201527f53616665436173743a2076616c756520646f65736e27742066697420696e20326044820152663234206269747360c81b6064820152608401620001d2565b5090565b600063ffffffff821115620006d95760405162461bcd60e51b815260206004820152602660248201527f53616665436173743a2076616c756520646f65736e27742066697420696e203360448201526532206269747360d01b6064820152608401620001d2565b816001600160a01b0316836001600160a01b031614158015620007675750600081115b156200047a576001600160a01b03831615620007f4576001600160a01b038316600090815260086020908152604082208291620007b191906200087f901b62000bf01785620002e8565b91509150846001600160a01b031660008051602062002c7b8339815191528383604051620007e9929190918252602082015260400190565b60405180910390a250505b6001600160a01b038216156200047a576001600160a01b038216600090815260086020908152604082208291620008389190620002d1901b62000b0d1785620002e8565b91509150836001600160a01b031660008051602062002c7b833981519152838360405162000870929190918252602082015260400190565b60405180910390a25050505050565b6000620002df828462000b84565b634e487b7160e01b600052604160045260246000fd5b600082601f830112620008b557600080fd5b81516001600160401b0380821115620008d257620008d26200088d565b604051601f8301601f19908116603f01168101908282118183101715620008fd57620008fd6200088d565b816040528381526020925086838588010111156200091a57600080fd5b600091505b838210156200093e57858201830151818301840152908201906200091f565b600093810190920192909252949350505050565b80516001600160a01b03811681146200096a57600080fd5b919050565b600080600080608085870312156200098657600080fd5b84516001600160401b03808211156200099e57600080fd5b620009ac88838901620008a3565b95506020870151915080821115620009c357600080fd5b50620009d287828801620008a3565b935050620009e36040860162000952565b9150620009f36060860162000952565b905092959194509250565b600181811c9082168062000a1357607f821691505b60208210810362000a3457634e487b7160e01b600052602260045260246000fd5b50919050565b601f8211156200047a57600081815260208120601f850160051c8101602086101562000a635750805b601f850160051c820191505b8181101562000a845782815560010162000a6f565b505050505050565b81516001600160401b0381111562000aa85762000aa86200088d565b62000ac08162000ab98454620009fe565b8462000a3a565b602080601f83116001811462000af8576000841562000adf5750858301515b600019600386901b1c1916600185901b17855562000a84565b600085815260208120601f198616915b8281101562000b295788860151825594840194600190910190840162000b08565b508582101562000b485787850151600019600388901b60f8161c191681555b5050505050600190811b01905550565b634e487b7160e01b600052601160045260246000fd5b80820180821115620002e257620002e262000b58565b81810381811115620002e257620002e262000b58565b60006020828403121562000bad57600080fd5b620002df8262000952565b60805160a05160c05160e051610100516101205161207362000c086000396000610fce0152600061101d01526000610ff801526000610f5101526000610f7b01526000610fa501526120736000f3fe608060405234801561001057600080fd5b50600436106101585760003560e01c80636fcfff45116100c3578063a457c2d71161007c578063a457c2d71461030b578063a9059cbb1461031e578063c3cda52014610331578063d505accf14610344578063dd62ed3e14610357578063f1127ed81461036a57600080fd5b80636fcfff451461027957806370a08231146102a15780637ecebe00146102ca5780638e539e8c146102dd57806395d89b41146102f05780639ab24eb0146102f857600080fd5b8063395093511161011557806339509351146101da5780633a46b1a8146101ed5780633ce8d4321461020057806342966c6814610225578063587cde1e1461023a5780635c19a95c1461026657600080fd5b806306fdde031461015d578063095ea7b31461017b57806318160ddd1461019e57806323b872dd146101b0578063313ce567146101c35780633644e515146101d2575b600080fd5b6101656103a7565b6040516101729190611cdf565b60405180910390f35b61018e610189366004611d42565b610439565b6040519015158152602001610172565b6002545b604051908152602001610172565b61018e6101be366004611d6e565b610453565b60405160128152602001610172565b6101a2610477565b61018e6101e8366004611d42565b610486565b6101a26101fb366004611d42565b6104a8565b600a546001600160a01b03165b6040516001600160a01b039091168152602001610172565b610238610233366004611daf565b610527565b005b61020d610248366004611dc8565b6001600160a01b039081166000908152600760205260409020541690565b610238610274366004611dc8565b610534565b61028c610287366004611dc8565b61053e565b60405163ffffffff9091168152602001610172565b6101a26102af366004611dc8565b6001600160a01b031660009081526020819052604090205490565b6101a26102d8366004611dc8565b610560565b6101a26102eb366004611daf565b61057e565b6101656105da565b6101a2610306366004611dc8565b6105e9565b61018e610319366004611d42565b610670565b61018e61032c366004611d42565b6106eb565b61023861033f366004611dfb565b6106f9565b610238610352366004611e55565b61082f565b6101a2610365366004611ec3565b610993565b61037d610378366004611efc565b6109be565b60408051825163ffffffff1681526020928301516001600160e01b03169281019290925201610172565b6060600380546103b690611f33565b80601f01602080910402602001604051908101604052809291908181526020018280546103e290611f33565b801561042f5780601f106104045761010080835404028352916020019161042f565b820191906000526020600020905b81548152906001019060200180831161041257829003601f168201915b5050505050905090565b600033610447818585610bfc565b60019150505b92915050565b600033610461858285610d20565b61046c858585610d9a565b506001949350505050565b6000610481610f44565b905090565b6000336104478185856104998383610993565b6104a39190611f7d565b610bfc565b60004382106104fe5760405162461bcd60e51b815260206004820152601f60248201527f4552433230566f7465733a20626c6f636b206e6f7420796574206d696e65640060448201526064015b60405180910390fd5b6001600160a01b0383166000908152600860205260409020610520908361106b565b9392505050565b6105313382611162565b50565b610531338261117a565b6001600160a01b03811660009081526008602052604081205461044d90610b86565b6001600160a01b03811660009081526005602052604081205461044d565b60004382106105cf5760405162461bcd60e51b815260206004820152601f60248201527f4552433230566f7465733a20626c6f636b206e6f7420796574206d696e65640060448201526064016104f5565b61044d60098361106b565b6060600480546103b690611f33565b6001600160a01b038116600090815260086020526040812054801561065d576001600160a01b038316600090815260086020526040902061062b600183611f90565b8154811061063b5761063b611fa3565b60009182526020909120015464010000000090046001600160e01b0316610660565b60005b6001600160e01b03169392505050565b6000338161067e8286610993565b9050838110156106de5760405162461bcd60e51b815260206004820152602560248201527f45524332303a2064656372656173656420616c6c6f77616e63652062656c6f77604482015264207a65726f60d81b60648201526084016104f5565b61046c8286868403610bfc565b600033610447818585610d9a565b834211156107495760405162461bcd60e51b815260206004820152601d60248201527f4552433230566f7465733a207369676e6174757265206578706972656400000060448201526064016104f5565b604080517fe48329057bfd03d55e49b547132e39cffd9c1820ad7b9d4c5307691425d15adf60208201526001600160a01b0388169181019190915260608101869052608081018590526000906107c3906107bb9060a001604051602081830303815290604052805190602001206112f4565b858585611342565b90506107ce8161136a565b861461081c5760405162461bcd60e51b815260206004820152601960248201527f4552433230566f7465733a20696e76616c6964206e6f6e63650000000000000060448201526064016104f5565b610826818861117a565b50505050505050565b8342111561087f5760405162461bcd60e51b815260206004820152601d60248201527f45524332305065726d69743a206578706972656420646561646c696e6500000060448201526064016104f5565b60007f6e71edae12b1b97f4d1f60370fef10105fa2faae0126114a169c64845d6126c98888886108ae8c61136a565b6040805160208101969096526001600160a01b0394851690860152929091166060840152608083015260a082015260c0810186905260e0016040516020818303038152906040528051906020012090506000610909826112f4565b9050600061091982878787611342565b9050896001600160a01b0316816001600160a01b03161461097c5760405162461bcd60e51b815260206004820152601e60248201527f45524332305065726d69743a20696e76616c6964207369676e6174757265000060448201526064016104f5565b6109878a8a8a610bfc565b50505050505050505050565b6001600160a01b03918216600090815260016020908152604080832093909416825291909152205490565b60408051808201909152600080825260208201526001600160a01b0383166000908152600860205260409020805463ffffffff8416908110610a0257610a02611fa3565b60009182526020918290206040805180820190915291015463ffffffff8116825264010000000090046001600160e01b0316918101919091529392505050565b6001600160a01b038216610a985760405162461bcd60e51b815260206004820152601f60248201527f45524332303a206d696e7420746f20746865207a65726f20616464726573730060448201526064016104f5565b8060026000828254610aaa9190611f7d565b90915550506001600160a01b038216600081815260208181526040808320805486019055518481527fddf252ad1be2c89b69c2b068fc378daa952ba7f163c4a11628f55a4df523b3ef910160405180910390a3610b0960008383611392565b5050565b60006105208284611f7d565b60006001600160e01b03821115610b825760405162461bcd60e51b815260206004820152602760248201527f53616665436173743a2076616c756520646f65736e27742066697420696e20326044820152663234206269747360c81b60648201526084016104f5565b5090565b600063ffffffff821115610b825760405162461bcd60e51b815260206004820152602660248201527f53616665436173743a2076616c756520646f65736e27742066697420696e203360448201526532206269747360d01b60648201526084016104f5565b505050565b60006105208284611f90565b6001600160a01b038316610c5e5760405162461bcd60e51b8152602060048201526024808201527f45524332303a20617070726f76652066726f6d20746865207a65726f206164646044820152637265737360e01b60648201526084016104f5565b6001600160a01b038216610cbf5760405162461bcd60e51b815260206004820152602260248201527f45524332303a20617070726f766520746f20746865207a65726f206164647265604482015261737360f01b60648201526084016104f5565b6001600160a01b0383811660008181526001602090815260408083209487168084529482529182902085905590518481527f8c5be1e5ebec7d5bd14f71427d1e84f3dd0314c0f7b2291e5b200ac8c7c3b925910160405180910390a3505050565b6000610d2c8484610993565b90506000198114610d945781811015610d875760405162461bcd60e51b815260206004820152601d60248201527f45524332303a20696e73756666696369656e7420616c6c6f77616e636500000060448201526064016104f5565b610d948484848403610bfc565b50505050565b6001600160a01b038316610dfe5760405162461bcd60e51b815260206004820152602560248201527f45524332303a207472616e736665722066726f6d20746865207a65726f206164604482015264647265737360d81b60648201526084016104f5565b6001600160a01b038216610e605760405162461bcd60e51b815260206004820152602360248201527f45524332303a207472616e7366657220746f20746865207a65726f206164647260448201526265737360e81b60648201526084016104f5565b6001600160a01b03831660009081526020819052604090205481811015610ed85760405162461bcd60e51b815260206004820152602660248201527f45524332303a207472616e7366657220616d6f756e7420657863656564732062604482015265616c616e636560d01b60648201526084016104f5565b6001600160a01b03848116600081815260208181526040808320878703905593871680835291849020805487019055925185815290927fddf252ad1be2c89b69c2b068fc378daa952ba7f163c4a11628f55a4df523b3ef910160405180910390a3610d94848484611392565b6000306001600160a01b037f000000000000000000000000000000000000000000000000000000000000000016148015610f9d57507f000000000000000000000000000000000000000000000000000000000000000046145b15610fc757507f000000000000000000000000000000000000000000000000000000000000000090565b50604080517f00000000000000000000000000000000000000000000000000000000000000006020808301919091527f0000000000000000000000000000000000000000000000000000000000000000828401527f000000000000000000000000000000000000000000000000000000000000000060608301524660808301523060a0808401919091528351808403909101815260c0909201909252805191012090565b8154600090818160058111156110c55760006110868461155a565b6110909085611f90565b600088815260209020909150869082015463ffffffff1611156110b5578091506110c3565b6110c0816001611f7d565b92505b505b808210156111125760006110d98383611642565b600088815260209020909150869082015463ffffffff1611156110fe5780915061110c565b611109816001611f7d565b92505b506110c5565b801561114c5761113586611127600184611f90565b600091825260209091200190565b5464010000000090046001600160e01b031661114f565b60005b6001600160e01b03169695505050505050565b61116c828261165d565b610d946009610bf083611796565b6001600160a01b03828116600090815260076020526040812054600a5490831692166001600160a01b031663d9fa86ed6040518163ffffffff1660e01b8152600401602060405180830381865afa1580156111d9573d6000803e3d6000fd5b505050506040513d601f19601f820116820180604052508101906111fd9190611fb9565b6040516370a0823160e01b81526001600160a01b03868116600483015291909116906370a0823190602401602060405180830381865afa158015611245573d6000803e3d6000fd5b505050506040513d601f19601f820116820180604052508101906112699190611fd6565b6001600160a01b03851660009081526020819052604090205461128c9190611f7d565b6001600160a01b0385811660008181526007602052604080822080546001600160a01b031916898616908117909155905194955093928616927f3134e8a2e6d97e929a7e54011ea5485d7d196dd5f0ba4d4ef95803e8e3fc257f9190a4610d948284836118ea565b600061044d611301610f44565b8360405161190160f01b6020820152602281018390526042810182905260009060620160405160208183030381529060405280519060200120905092915050565b600080600061135387878787611a27565b9150915061136081611aeb565b5095945050505050565b6001600160a01b03811660009081526005602052604090208054600181018255905b50919050565b60006113a6600a546001600160a01b031690565b6001600160a01b031663d9fa86ed6040518163ffffffff1660e01b8152600401602060405180830381865afa1580156113e3573d6000803e3d6000fd5b505050506040513d601f19601f820116820180604052508101906114079190611fb9565b6001600160a01b031614806115235750600a546001600160a01b03166001600160a01b031663d9fa86ed6040518163ffffffff1660e01b8152600401602060405180830381865afa158015611460573d6000803e3d6000fd5b505050506040513d601f19601f820116820180604052508101906114849190611fb9565b6001600160a01b0316826001600160a01b0316141580156115235750600a546001600160a01b03166001600160a01b031663d9fa86ed6040518163ffffffff1660e01b8152600401602060405180830381865afa1580156114e9573d6000803e3d6000fd5b505050506040513d601f19601f8201168201806040525081019061150d9190611fb9565b6001600160a01b0316836001600160a01b031614155b15610beb576001600160a01b03838116600090815260076020526040808220548584168352912054610beb929182169116836118ea565b60008160000361156c57506000919050565b6000600161157984611c35565b901c6001901b9050600181848161159257611592611fef565b048201901c905060018184816115aa576115aa611fef565b048201901c905060018184816115c2576115c2611fef565b048201901c905060018184816115da576115da611fef565b048201901c905060018184816115f2576115f2611fef565b048201901c9050600181848161160a5761160a611fef565b048201901c9050600181848161162257611622611fef565b048201901c90506105208182858161163c5761163c611fef565b04611cc9565b60006116516002848418612005565b61052090848416611f7d565b6001600160a01b0382166116bd5760405162461bcd60e51b815260206004820152602160248201527f45524332303a206275726e2066726f6d20746865207a65726f206164647265736044820152607360f81b60648201526084016104f5565b6001600160a01b038216600090815260208190526040902054818110156117315760405162461bcd60e51b815260206004820152602260248201527f45524332303a206275726e20616d6f756e7420657863656564732062616c616e604482015261636560f01b60648201526084016104f5565b6001600160a01b0383166000818152602081815260408083208686039055600280548790039055518581529192917fddf252ad1be2c89b69c2b068fc378daa952ba7f163c4a11628f55a4df523b3ef910160405180910390a3610beb83600084611392565b825460009081908181156117e3576117b387611127600185611f90565b60408051808201909152905463ffffffff8116825264010000000090046001600160e01b031660208201526117f8565b60408051808201909152600080825260208201525b905080602001516001600160e01b0316935061181884868863ffffffff16565b92506000821180156118305750805163ffffffff1643145b156118755761183e83610b19565b61184d88611127600186611f90565b80546001600160e01b03929092166401000000000263ffffffff9092169190911790556118e0565b86604051806040016040528061188a43610b86565b63ffffffff16815260200161189e86610b19565b6001600160e01b0390811690915282546001810184556000938452602093849020835194909301519091166401000000000263ffffffff909316929092179101555b5050935093915050565b816001600160a01b0316836001600160a01b03161415801561190c5750600081115b15610beb576001600160a01b0383161561199a576001600160a01b0383166000908152600860205260408120819061194790610bf085611796565b91509150846001600160a01b03167fdec2bacdd2f05b59de34da9b523dff8be42e5e38e818c82fdb0bae774387a724838360405161198f929190918252602082015260400190565b60405180910390a250505b6001600160a01b03821615610beb576001600160a01b038216600090815260086020526040812081906119d090610b0d85611796565b91509150836001600160a01b03167fdec2bacdd2f05b59de34da9b523dff8be42e5e38e818c82fdb0bae774387a7248383604051611a18929190918252602082015260400190565b60405180910390a25050505050565b6000807f7fffffffffffffffffffffffffffffff5d576e7357a4501ddfe92f46681b20a0831115611a5e5750600090506003611ae2565b6040805160008082526020820180845289905260ff881692820192909252606081018690526080810185905260019060a0016020604051602081039080840390855afa158015611ab2573d6000803e3d6000fd5b5050604051601f1901519150506001600160a01b038116611adb57600060019250925050611ae2565b9150600090505b94509492505050565b6000816004811115611aff57611aff612027565b03611b075750565b6001816004811115611b1b57611b1b612027565b03611b685760405162461bcd60e51b815260206004820152601860248201527f45434453413a20696e76616c6964207369676e6174757265000000000000000060448201526064016104f5565b6002816004811115611b7c57611b7c612027565b03611bc95760405162461bcd60e51b815260206004820152601f60248201527f45434453413a20696e76616c6964207369676e6174757265206c656e6774680060448201526064016104f5565b6003816004811115611bdd57611bdd612027565b036105315760405162461bcd60e51b815260206004820152602260248201527f45434453413a20696e76616c6964207369676e6174757265202773272076616c604482015261756560f01b60648201526084016104f5565b600080608083901c15611c4a57608092831c92015b604083901c15611c5c57604092831c92015b602083901c15611c6e57602092831c92015b601083901c15611c8057601092831c92015b600883901c15611c9257600892831c92015b600483901c15611ca457600492831c92015b600283901c15611cb657600292831c92015b600183901c1561044d5760010192915050565b6000818310611cd85781610520565b5090919050565b600060208083528351808285015260005b81811015611d0c57858101830151858201604001528201611cf0565b506000604082860101526040601f19601f8301168501019250505092915050565b6001600160a01b038116811461053157600080fd5b60008060408385031215611d5557600080fd5b8235611d6081611d2d565b946020939093013593505050565b600080600060608486031215611d8357600080fd5b8335611d8e81611d2d565b92506020840135611d9e81611d2d565b929592945050506040919091013590565b600060208284031215611dc157600080fd5b5035919050565b600060208284031215611dda57600080fd5b813561052081611d2d565b803560ff81168114611df657600080fd5b919050565b60008060008060008060c08789031215611e1457600080fd5b8635611e1f81611d2d565b95506020870135945060408701359350611e3b60608801611de5565b92506080870135915060a087013590509295509295509295565b600080600080600080600060e0888a031215611e7057600080fd5b8735611e7b81611d2d565b96506020880135611e8b81611d2d565b95506040880135945060608801359350611ea760808901611de5565b925060a0880135915060c0880135905092959891949750929550565b60008060408385031215611ed657600080fd5b8235611ee181611d2d565b91506020830135611ef181611d2d565b809150509250929050565b60008060408385031215611f0f57600080fd5b8235611f1a81611d2d565b9150602083013563ffffffff81168114611ef157600080fd5b600181811c90821680611f4757607f821691505b60208210810361138c57634e487b7160e01b600052602260045260246000fd5b634e487b7160e01b600052601160045260246000fd5b8082018082111561044d5761044d611f67565b8181038181111561044d5761044d611f67565b634e487b7160e01b600052603260045260246000fd5b600060208284031215611fcb57600080fd5b815161052081611d2d565b600060208284031215611fe857600080fd5b5051919050565b634e487b7160e01b600052601260045260246000fd5b60008261202257634e487b7160e01b600052601260045260246000fd5b500490565b634e487b7160e01b600052602160045260246000fdfea26469706673582212202624bf1cd286476a2e7c30ad9e91a6b69ea62c7b19c61ea08a03773ab0d5a5cd64736f6c63430008100033dec2bacdd2f05b59de34da9b523dff8be42e5e38e818c82fdb0bae774387a724",
    "linkReferences": {}
  },
  "methodIdentifiers": {
    "DOMAIN_SEPARATOR()": "3644e515",
    "GBL()": "3ce8d432",
    "allowance(address,address)": "dd62ed3e",
    "approve(address,uint256)": "095ea7b3",
    "balanceOf(address)": "70a08231",
    "burn(uint256)": "42966c68",
    "checkpoints(address,uint32)": "f1127ed8",
    "decimals()": "313ce567",
    "decreaseAllowance(address,uint256)": "a457c2d7",
    "delegate(address)": "5c19a95c",
    "delegateBySig(address,uint256,uint256,uint8,bytes32,bytes32)": "c3cda520",
    "delegates(address)": "587cde1e",
    "getPastTotalSupply(uint256)": "8e539e8c",
    "getPastVotes(address,uint256)": "3a46b1a8",
    "getVotes(address)": "9ab24eb0",
    "increaseAllowance(address,uint256)": "39509351",
    "name()": "06fdde03",
    "nonces(address)": "7ecebe00",
    "numCheckpoints(address)": "6fcfff45",
    "permit(address,address,uint256,uint256,uint8,bytes32,bytes32)": "d505accf",
    "symbol()": "95d89b41",
    "totalSupply()": "18160ddd",
    "transfer(address,uint256)": "a9059cbb",
    "transferFrom(address,address,uint256)": "23b872dd"
  },
  "id": 59
}