{
  "abi": [
    {
      "inputs": [
        {
          "internalType": "address",
          "name": "DAO",
          "type": "address"
        },
        {
          "internalType": "address",
          "name": "_GBL",
          "type": "address"
        },
        {
          "internalType": "address",
          "name": "_pairAsset",
          "type": "address"
        },
        {
          "internalType": "bool",
          "name": "_uniswapOrSushi",
          "type": "bool"
        }
      ],
      "stateMutability": "nonpayable",
      "type": "constructor"
    },
    {
      "anonymous": false,
      "inputs": [
        {
          "indexed": true,
          "internalType": "address",
          "name": "previousOwner",
          "type": "address"
        },
        {
          "indexed": true,
          "internalType": "address",
          "name": "newOwner",
          "type": "address"
        }
      ],
      "name": "OwnershipTransferred",
      "type": "event"
    },
    {
      "anonymous": false,
      "inputs": [
        {
          "indexed": true,
          "internalType": "address",
          "name": "previousOwner",
          "type": "address"
        },
        {
          "indexed": true,
          "internalType": "address",
          "name": "newOwner",
          "type": "address"
        }
      ],
      "name": "OwnershipTransferredAndLocked",
      "type": "event"
    },
    {
      "anonymous": false,
      "inputs": [
        {
          "indexed": false,
          "internalType": "uint256",
          "name": "returnAmount",
          "type": "uint256"
        },
        {
          "indexed": false,
          "internalType": "address",
          "name": "srcToken",
          "type": "address"
        },
        {
          "indexed": false,
          "internalType": "uint256",
          "name": "amount",
          "type": "uint256"
        },
        {
          "indexed": false,
          "internalType": "uint256",
          "name": "minReturn",
          "type": "uint256"
        },
        {
          "indexed": false,
          "internalType": "bytes32[]",
          "name": "pools",
          "type": "bytes32[]"
        }
      ],
      "name": "SwapExecuted_2e95b6c8",
      "type": "event"
    },
    {
      "anonymous": false,
      "inputs": [
        {
          "indexed": false,
          "internalType": "uint256",
          "name": "returnAmount",
          "type": "uint256"
        },
        {
          "indexed": false,
          "internalType": "uint256",
          "name": "spentAmount",
          "type": "uint256"
        },
        {
          "indexed": false,
          "internalType": "uint256",
          "name": "gasLeft",
          "type": "uint256"
        },
        {
          "indexed": false,
          "internalType": "address",
          "name": "assetToSwap",
          "type": "address"
        },
        {
          "components": [
            {
              "internalType": "contract IERC20",
              "name": "srcToken",
              "type": "address"
            },
            {
              "internalType": "contract IERC20",
              "name": "dstToken",
              "type": "address"
            },
            {
              "internalType": "address",
              "name": "srcReceiver",
              "type": "address"
            },
            {
              "internalType": "address",
              "name": "dstReceiver",
              "type": "address"
            },
            {
              "internalType": "uint256",
              "name": "amount",
              "type": "uint256"
            },
            {
              "internalType": "uint256",
              "name": "minReturnAmount",
              "type": "uint256"
            },
            {
              "internalType": "uint256",
              "name": "flags",
              "type": "uint256"
            },
            {
              "internalType": "bytes",
              "name": "permit",
              "type": "bytes"
            }
          ],
          "indexed": false,
          "internalType": "struct ZivoeSwapper.SwapDescription",
          "name": "info",
          "type": "tuple"
        },
        {
          "indexed": false,
          "internalType": "bytes",
          "name": "data",
          "type": "bytes"
        }
      ],
      "name": "SwapExecuted_7c025200",
      "type": "event"
    },
    {
      "anonymous": false,
      "inputs": [
        {
          "indexed": false,
          "internalType": "uint256",
          "name": "returnAmount",
          "type": "uint256"
        },
        {
          "indexed": false,
          "internalType": "address",
          "name": "srcToken",
          "type": "address"
        },
        {
          "indexed": false,
          "internalType": "address",
          "name": "dstToken",
          "type": "address"
        },
        {
          "indexed": false,
          "internalType": "uint256",
          "name": "amount",
          "type": "uint256"
        },
        {
          "indexed": false,
          "internalType": "uint256",
          "name": "minReturn",
          "type": "uint256"
        }
      ],
      "name": "SwapExecuted_b0431182",
      "type": "event"
    },
    {
      "anonymous": false,
      "inputs": [
        {
          "indexed": false,
          "internalType": "uint256",
          "name": "actualMakingAmount",
          "type": "uint256"
        },
        {
          "indexed": false,
          "internalType": "uint256",
          "name": "actualTakingAmount",
          "type": "uint256"
        },
        {
          "components": [
            {
              "internalType": "uint256",
              "name": "info",
              "type": "uint256"
            },
            {
              "internalType": "contract IERC20",
              "name": "makerAsset",
              "type": "address"
            },
            {
              "internalType": "contract IERC20",
              "name": "takerAsset",
              "type": "address"
            },
            {
              "internalType": "address",
              "name": "maker",
              "type": "address"
            },
            {
              "internalType": "address",
              "name": "allowedSender",
              "type": "address"
            },
            {
              "internalType": "uint256",
              "name": "makingAmount",
              "type": "uint256"
            },
            {
              "internalType": "uint256",
              "name": "takingAmount",
              "type": "uint256"
            }
          ],
          "indexed": false,
          "internalType": "struct ZivoeSwapper.OrderRFQ",
          "name": "order",
          "type": "tuple"
        },
        {
          "indexed": false,
          "internalType": "bytes",
          "name": "signature",
          "type": "bytes"
        },
        {
          "indexed": false,
          "internalType": "uint256",
          "name": "makingAmount",
          "type": "uint256"
        },
        {
          "indexed": false,
          "internalType": "uint256",
          "name": "takingAmount",
          "type": "uint256"
        }
      ],
      "name": "SwapExecuted_d0a3b665",
      "type": "event"
    },
    {
      "anonymous": false,
      "inputs": [
        {
          "indexed": false,
          "internalType": "uint256",
          "name": "returnAmount",
          "type": "uint256"
        },
        {
          "indexed": false,
          "internalType": "uint256",
          "name": "amount",
          "type": "uint256"
        },
        {
          "indexed": false,
          "internalType": "uint256",
          "name": "minReturn",
          "type": "uint256"
        },
        {
          "indexed": false,
          "internalType": "uint256[]",
          "name": "pools",
          "type": "uint256[]"
        }
      ],
      "name": "SwapExecuted_e449022e",
      "type": "event"
    },
    {
      "anonymous": false,
      "inputs": [
        {
          "indexed": false,
          "internalType": "uint256",
          "name": "oldValue",
          "type": "uint256"
        },
        {
          "indexed": false,
          "internalType": "uint256",
          "name": "newValue",
          "type": "uint256"
        }
      ],
      "name": "UpdatedCompoundingRateBIPS",
      "type": "event"
    },
    {
      "anonymous": false,
      "inputs": [
        {
          "indexed": true,
          "internalType": "address",
          "name": "asset",
          "type": "address"
        },
        {
          "indexed": false,
          "internalType": "uint256",
          "name": "amount",
          "type": "uint256"
        }
      ],
      "name": "YieldForwarded",
      "type": "event"
    },
    {
      "inputs": [],
      "name": "GBL",
      "outputs": [
        {
          "internalType": "address",
          "name": "",
          "type": "address"
        }
      ],
      "stateMutability": "view",
      "type": "function"
    },
    {
      "inputs": [],
      "name": "amountForConversion",
      "outputs": [
        {
          "internalType": "uint256",
          "name": "",
          "type": "uint256"
        }
      ],
      "stateMutability": "view",
      "type": "function"
    },
    {
      "inputs": [],
      "name": "baseline",
      "outputs": [
        {
          "internalType": "uint256",
          "name": "",
          "type": "uint256"
        }
      ],
      "stateMutability": "view",
      "type": "function"
    },
    {
      "inputs": [],
      "name": "canPull",
      "outputs": [
        {
          "internalType": "bool",
          "name": "",
          "type": "bool"
        }
      ],
      "stateMutability": "pure",
      "type": "function"
    },
    {
      "inputs": [],
      "name": "canPullERC1155",
      "outputs": [
        {
          "internalType": "bool",
          "name": "",
          "type": "bool"
        }
      ],
      "stateMutability": "view",
      "type": "function"
    },
    {
      "inputs": [],
      "name": "canPullERC721",
      "outputs": [
        {
          "internalType": "bool",
          "name": "",
          "type": "bool"
        }
      ],
      "stateMutability": "view",
      "type": "function"
    },
    {
      "inputs": [],
      "name": "canPullMulti",
      "outputs": [
        {
          "internalType": "bool",
          "name": "",
          "type": "bool"
        }
      ],
      "stateMutability": "view",
      "type": "function"
    },
    {
      "inputs": [],
      "name": "canPullMultiERC721",
      "outputs": [
        {
          "internalType": "bool",
          "name": "",
          "type": "bool"
        }
      ],
      "stateMutability": "view",
      "type": "function"
    },
    {
      "inputs": [],
      "name": "canPullMultiPartial",
      "outputs": [
        {
          "internalType": "bool",
          "name": "",
          "type": "bool"
        }
      ],
      "stateMutability": "view",
      "type": "function"
    },
    {
      "inputs": [],
      "name": "canPullPartial",
      "outputs": [
        {
          "internalType": "bool",
          "name": "",
          "type": "bool"
        }
      ],
      "stateMutability": "pure",
      "type": "function"
    },
    {
      "inputs": [],
      "name": "canPush",
      "outputs": [
        {
          "internalType": "bool",
          "name": "",
          "type": "bool"
        }
      ],
      "stateMutability": "view",
      "type": "function"
    },
    {
      "inputs": [],
      "name": "canPushERC1155",
      "outputs": [
        {
          "internalType": "bool",
          "name": "",
          "type": "bool"
        }
      ],
      "stateMutability": "view",
      "type": "function"
    },
    {
      "inputs": [],
      "name": "canPushERC721",
      "outputs": [
        {
          "internalType": "bool",
          "name": "",
          "type": "bool"
        }
      ],
      "stateMutability": "view",
      "type": "function"
    },
    {
      "inputs": [],
      "name": "canPushMulti",
      "outputs": [
        {
          "internalType": "bool",
          "name": "",
          "type": "bool"
        }
      ],
      "stateMutability": "pure",
      "type": "function"
    },
    {
      "inputs": [],
      "name": "canPushMultiERC721",
      "outputs": [
        {
          "internalType": "bool",
          "name": "",
          "type": "bool"
        }
      ],
      "stateMutability": "view",
      "type": "function"
    },
    {
      "inputs": [],
      "name": "compoundingRateBIPS",
      "outputs": [
        {
          "internalType": "uint256",
          "name": "",
          "type": "uint256"
        }
      ],
      "stateMutability": "view",
      "type": "function"
    },
    {
      "inputs": [],
      "name": "factory",
      "outputs": [
        {
          "internalType": "address",
          "name": "",
          "type": "address"
        }
      ],
      "stateMutability": "view",
      "type": "function"
    },
    {
      "inputs": [],
      "name": "forwardYield",
      "outputs": [],
      "stateMutability": "nonpayable",
      "type": "function"
    },
    {
      "inputs": [
        {
          "internalType": "bytes",
          "name": "data",
          "type": "bytes"
        }
      ],
      "name": "forwardYieldKeeper",
      "outputs": [],
      "stateMutability": "nonpayable",
      "type": "function"
    },
    {
      "inputs": [],
      "name": "locked",
      "outputs": [
        {
          "internalType": "bool",
          "name": "",
          "type": "bool"
        }
      ],
      "stateMutability": "view",
      "type": "function"
    },
    {
      "inputs": [],
      "name": "nextYieldDistribution",
      "outputs": [
        {
          "internalType": "uint256",
          "name": "",
          "type": "uint256"
        }
      ],
      "stateMutability": "view",
      "type": "function"
    },
    {
      "inputs": [
        {
          "internalType": "address",
          "name": "",
          "type": "address"
        },
        {
          "internalType": "address",
          "name": "",
          "type": "address"
        },
        {
          "internalType": "uint256[]",
          "name": "",
          "type": "uint256[]"
        },
        {
          "internalType": "uint256[]",
          "name": "",
          "type": "uint256[]"
        },
        {
          "internalType": "bytes",
          "name": "",
          "type": "bytes"
        }
      ],
      "name": "onERC1155BatchReceived",
      "outputs": [
        {
          "internalType": "bytes4",
          "name": "",
          "type": "bytes4"
        }
      ],
      "stateMutability": "nonpayable",
      "type": "function"
    },
    {
      "inputs": [
        {
          "internalType": "address",
          "name": "",
          "type": "address"
        },
        {
          "internalType": "address",
          "name": "",
          "type": "address"
        },
        {
          "internalType": "uint256",
          "name": "",
          "type": "uint256"
        },
        {
          "internalType": "uint256",
          "name": "",
          "type": "uint256"
        },
        {
          "internalType": "bytes",
          "name": "",
          "type": "bytes"
        }
      ],
      "name": "onERC1155Received",
      "outputs": [
        {
          "internalType": "bytes4",
          "name": "",
          "type": "bytes4"
        }
      ],
      "stateMutability": "nonpayable",
      "type": "function"
    },
    {
      "inputs": [
        {
          "internalType": "address",
          "name": "",
          "type": "address"
        },
        {
          "internalType": "address",
          "name": "",
          "type": "address"
        },
        {
          "internalType": "uint256",
          "name": "",
          "type": "uint256"
        },
        {
          "internalType": "bytes",
          "name": "",
          "type": "bytes"
        }
      ],
      "name": "onERC721Received",
      "outputs": [
        {
          "internalType": "bytes4",
          "name": "",
          "type": "bytes4"
        }
      ],
      "stateMutability": "nonpayable",
      "type": "function"
    },
    {
      "inputs": [],
      "name": "owner",
      "outputs": [
        {
          "internalType": "address",
          "name": "",
          "type": "address"
        }
      ],
      "stateMutability": "view",
      "type": "function"
    },
    {
      "inputs": [],
      "name": "pairAsset",
      "outputs": [
        {
          "internalType": "address",
          "name": "",
          "type": "address"
        }
      ],
      "stateMutability": "view",
      "type": "function"
    },
    {
      "inputs": [],
      "name": "pairAssetConvertible",
      "outputs": [
        {
          "internalType": "uint256",
          "name": "amount",
          "type": "uint256"
        },
        {
          "internalType": "uint256",
          "name": "lp",
          "type": "uint256"
        }
      ],
      "stateMutability": "view",
      "type": "function"
    },
    {
      "inputs": [
        {
          "internalType": "address",
          "name": "asset",
          "type": "address"
        }
      ],
      "name": "pullFromLocker",
      "outputs": [],
      "stateMutability": "nonpayable",
      "type": "function"
    },
    {
      "inputs": [
        {
          "internalType": "address",
          "name": "asset",
          "type": "address"
        },
        {
          "internalType": "uint256[]",
          "name": "ids",
          "type": "uint256[]"
        },
        {
          "internalType": "uint256[]",
          "name": "amounts",
          "type": "uint256[]"
        },
        {
          "internalType": "bytes",
          "name": "data",
          "type": "bytes"
        }
      ],
      "name": "pullFromLockerERC1155",
      "outputs": [],
      "stateMutability": "nonpayable",
      "type": "function"
    },
    {
      "inputs": [
        {
          "internalType": "address",
          "name": "asset",
          "type": "address"
        },
        {
          "internalType": "uint256",
          "name": "tokenId",
          "type": "uint256"
        },
        {
          "internalType": "bytes",
          "name": "data",
          "type": "bytes"
        }
      ],
      "name": "pullFromLockerERC721",
      "outputs": [],
      "stateMutability": "nonpayable",
      "type": "function"
    },
    {
      "inputs": [
        {
          "internalType": "address[]",
          "name": "assets",
          "type": "address[]"
        }
      ],
      "name": "pullFromLockerMulti",
      "outputs": [],
      "stateMutability": "nonpayable",
      "type": "function"
    },
    {
      "inputs": [
        {
          "internalType": "address[]",
          "name": "assets",
          "type": "address[]"
        },
        {
          "internalType": "uint256[]",
          "name": "tokenIds",
          "type": "uint256[]"
        },
        {
          "internalType": "bytes[]",
          "name": "data",
          "type": "bytes[]"
        }
      ],
      "name": "pullFromLockerMultiERC721",
      "outputs": [],
      "stateMutability": "nonpayable",
      "type": "function"
    },
    {
      "inputs": [
        {
          "internalType": "address[]",
          "name": "assets",
          "type": "address[]"
        },
        {
          "internalType": "uint256[]",
          "name": "amounts",
          "type": "uint256[]"
        }
      ],
      "name": "pullFromLockerMultiPartial",
      "outputs": [],
      "stateMutability": "nonpayable",
      "type": "function"
    },
    {
      "inputs": [
        {
          "internalType": "address",
          "name": "asset",
          "type": "address"
        },
        {
          "internalType": "uint256",
          "name": "amount",
          "type": "uint256"
        }
      ],
      "name": "pullFromLockerPartial",
      "outputs": [],
      "stateMutability": "nonpayable",
      "type": "function"
    },
    {
      "inputs": [
        {
          "internalType": "address",
          "name": "asset",
          "type": "address"
        },
        {
          "internalType": "uint256",
          "name": "amount",
          "type": "uint256"
        }
      ],
      "name": "pushToLocker",
      "outputs": [],
      "stateMutability": "nonpayable",
      "type": "function"
    },
    {
      "inputs": [
        {
          "internalType": "address",
          "name": "asset",
          "type": "address"
        },
        {
          "internalType": "uint256[]",
          "name": "ids",
          "type": "uint256[]"
        },
        {
          "internalType": "uint256[]",
          "name": "amounts",
          "type": "uint256[]"
        },
        {
          "internalType": "bytes",
          "name": "data",
          "type": "bytes"
        }
      ],
      "name": "pushToLockerERC1155",
      "outputs": [],
      "stateMutability": "nonpayable",
      "type": "function"
    },
    {
      "inputs": [
        {
          "internalType": "address",
          "name": "asset",
          "type": "address"
        },
        {
          "internalType": "uint256",
          "name": "tokenId",
          "type": "uint256"
        },
        {
          "internalType": "bytes",
          "name": "data",
          "type": "bytes"
        }
      ],
      "name": "pushToLockerERC721",
      "outputs": [],
      "stateMutability": "nonpayable",
      "type": "function"
    },
    {
      "inputs": [
        {
          "internalType": "address[]",
          "name": "assets",
          "type": "address[]"
        },
        {
          "internalType": "uint256[]",
          "name": "amounts",
          "type": "uint256[]"
        }
      ],
      "name": "pushToLockerMulti",
      "outputs": [],
      "stateMutability": "nonpayable",
      "type": "function"
    },
    {
      "inputs": [
        {
          "internalType": "address[]",
          "name": "assets",
          "type": "address[]"
        },
        {
          "internalType": "uint256[]",
          "name": "tokenIds",
          "type": "uint256[]"
        },
        {
          "internalType": "bytes[]",
          "name": "data",
          "type": "bytes[]"
        }
      ],
      "name": "pushToLockerMultiERC721",
      "outputs": [],
      "stateMutability": "nonpayable",
      "type": "function"
    },
    {
      "inputs": [],
      "name": "renounceOwnership",
      "outputs": [],
      "stateMutability": "nonpayable",
      "type": "function"
    },
    {
      "inputs": [],
      "name": "router",
      "outputs": [
        {
          "internalType": "address",
          "name": "",
          "type": "address"
        }
      ],
      "stateMutability": "view",
      "type": "function"
    },
    {
      "inputs": [],
      "name": "router1INCH_V4",
      "outputs": [
        {
          "internalType": "address",
          "name": "",
          "type": "address"
        }
      ],
      "stateMutability": "view",
      "type": "function"
    },
    {
      "inputs": [
        {
          "internalType": "bytes4",
          "name": "interfaceId",
          "type": "bytes4"
        }
      ],
      "name": "supportsInterface",
      "outputs": [
        {
          "internalType": "bool",
          "name": "",
          "type": "bool"
        }
      ],
      "stateMutability": "view",
      "type": "function"
    },
    {
      "inputs": [
        {
          "internalType": "address",
          "name": "newOwner",
          "type": "address"
        }
      ],
      "name": "transferOwnership",
      "outputs": [],
      "stateMutability": "nonpayable",
      "type": "function"
    },
    {
      "inputs": [
        {
          "internalType": "address",
          "name": "newOwner",
          "type": "address"
        }
      ],
      "name": "transferOwnershipAndLock",
      "outputs": [],
      "stateMutability": "nonpayable",
      "type": "function"
    },
    {
      "inputs": [],
      "name": "uniswapOrSushi",
      "outputs": [
        {
          "internalType": "bool",
          "name": "",
          "type": "bool"
        }
      ],
      "stateMutability": "view",
      "type": "function"
    },
    {
      "inputs": [
        {
          "internalType": "uint256",
          "name": "_compoundingRateBIPS",
          "type": "uint256"
        }
      ],
      "name": "updateCompoundingRateBIPS",
      "outputs": [],
      "stateMutability": "nonpayable",
      "type": "function"
    }
  ],
  "bytecode": {
    "object": "0x60c0604052731111111254fb6c44bac0bed2854e76f90643097d6080526113886007553480156200002f57600080fd5b5060405162005ea738038062005ea7833981016040819052620000529162000347565b6200005d3362000152565b6200006884620001a2565b6001600160a01b0383811660a052600180546001600160a01b0319169184169190911790556000805460ff60a81b1916600160a81b831580159190910291909117909155620000ff57600280546001600160a01b0319908116737a250d5630b4cf539739df2c5dacb4c659f2488d1790915560038054909116735c69bee701ef814a2b6a3edd4b1652cb9cc5aa6f17905562000148565b600280546001600160a01b031990811673d9e1ce17f2641f24ae83637ab66a2cca9c378b9f179091556003805490911673c0aee478e3658e2610c5f7a4a2e1777ce9e4f2ac1790555b50505050620003aa565b600080546001600160a01b038381166001600160a01b0319831681178455604051919092169283917f8be0079c531659141344cd1fd0a4f28419497f9722a3daafe3b4186f6b6457e09190a35050565b620001ac620002a6565b600054600160a01b900460ff16156200021a5760405162461bcd60e51b815260206004820152602560248201527f5a69766f654f776e61626c654c6f636b65643a3a756e6c6f636b65642829206c6044820152641bd8dad95960da1b60648201526084015b60405180910390fd5b6001600160a01b038116620002985760405162461bcd60e51b815260206004820152603e60248201527f5a69766f654f776e61626c654c6f636b65643a3a7472616e736665724f776e6560448201527f72736869702829206e65774f776e6572203d3d20616464726573732830290000606482015260840162000211565b620002a38162000152565b50565b6000546001600160a01b03163314620003285760405162461bcd60e51b815260206004820152603760248201527f5a69766f654f776e61626c654c6f636b65643a3a5f636865636b4f776e65722060448201527f6f776e6572282920213d205f6d736753656e6465722829000000000000000000606482015260840162000211565b565b80516001600160a01b03811681146200034257600080fd5b919050565b600080600080608085870312156200035e57600080fd5b62000369856200032a565b935062000379602086016200032a565b925062000389604086016200032a565b9150606085015180151581146200039f57600080fd5b939692955090935050565b60805160a051615a2f62000478600039600081816103a2015281816105dc01528181610d3f01528181610edc0152818161115801528181611244015281816113fc01528181611519015281816117360152818161186e01528181611c5501528181611f9b0152818161208701528181612144015281816122240152818161237c0152818161259d0152818161276f015281816128a101528181612d120152818161324d01528181613367015281816134d3015261364201526000818161034901526138960152615a2f6000f3fe608060405234801561001057600080fd5b50600436106102955760003560e01c80638da5cb5b11610167578063d2abc6ef116100ce578063f2fde38b11610087578063f2fde38b14610546578063f887ea4014610559578063f988dc3f1461056c578063fd76f59d14610575578063ff0459ba14610588578063ff4a67611461059b57600080fd5b8063d2abc6ef146104f8578063d9821e3b14610501578063dd913bdb1461033d578063e7f446291461033d578063e94eafe114610514578063f23a6e611461052757600080fd5b8063b892bcc011610120578063b892bcc01461048c578063bc197c811461049f578063c45a0155146104be578063c9c6a414146104d1578063cf10b7ab1461033d578063cf309012146104e457600080fd5b80638da5cb5b14610442578063964acd3514610453578063a08ec27714610466578063a4a3e79d14610396578063ab2637af14610483578063b0607cf81461033d57600080fd5b80633c1172441161020b57806364c77735116101c457806364c7773514610396578063715018a6146103fd5780637dbcdbc1146104055780637efee3a814610418578063844765911461042f5780638b648ee21461033d57600080fd5b80633c1172441461033d5780633ce8d4321461039d5780633eda81ad1461033d578063422b2018146103c457806358289c7e146103d7578063607cd649146103ea57600080fd5b806315e987441161025d57806315e987441461032a5780631852b3831461033d57806319ce95f4146103445780631d9389e914610383578063215cccdd146103965780632f08d48b1461033d57600080fd5b806301ffc9a71461029a578063082b0097146102c257806312052176146102d757806314ba5029146102ea578063150b7a02146102fe575b600080fd5b6102ad6102a8366004614c0d565b6105a3565b60405190151581526020015b60405180910390f35b6102d56102d0366004614c3e565b6105da565b005b6102d56102e5366004614cc4565b6107b3565b6000546102ad90600160a81b900460ff1681565b61031161030c366004614e1f565b61082a565b6040516001600160e01b031990911681526020016102b9565b6102d5610338366004614ece565b61083b565b60006102ad565b61036b7f000000000000000000000000000000000000000000000000000000000000000081565b6040516001600160a01b0390911681526020016102b9565b6102d5610391366004614cc4565b6109ac565b60016102ad565b61036b7f000000000000000000000000000000000000000000000000000000000000000081565b6102d56103d2366004614f67565b610a17565b6102d56103e5366004615013565b610a86565b6102d56103f8366004615030565b610b61565b6102d5610cc8565b6102d5610413366004615013565b610d06565b61042160075481565b6040519081526020016102b9565b6102d561043d366004615071565b611393565b6000546001600160a01b031661036b565b6102d561046136600461509d565b6113f2565b61046e611839565b604080519283526020830191909152016102b9565b61042160045481565b6102d561049a366004614ece565b611aa0565b6103116104ad366004615160565b63bc197c8160e01b95945050505050565b60035461036b906001600160a01b031681565b6102d56104df36600461520d565b611c08565b6000546102ad90600160a01b900460ff1681565b61042160065481565b6102d561050f366004615071565b612736565b60015461036b906001600160a01b031681565b61031161053536600461526c565b63f23a6e6160e01b95945050505050565b6102d5610554366004615013565b612b0b565b60025461036b906001600160a01b031681565b61042160055481565b6102d5610583366004614f67565b612bc2565b6102d561059636600461520d565b612c2f565b6102d5612d08565b60006001600160e01b03198216630271189760e51b14806105d457506301ffc9a760e01b6001600160e01b03198316145b92915050565b7f00000000000000000000000000000000000000000000000000000000000000006001600160a01b031663c76d41c86040518163ffffffff1660e01b8152600401602060405180830381865afa158015610638573d6000803e3d6000fd5b505050506040513d601f19601f8201168201806040525081019061065c91906152d4565b6001600160a01b0316336001600160a01b0316146107055760405162461bcd60e51b815260206004820152605560248201527f4f434c5f5a56453a3a757064617465436f6d706f756e64696e6752617465424960448201527f50532829205f6d736753656e646572282920213d20495a69766f65476c6f62616064820152746c735f4f434c5f5a56452847424c292e544c43282960581b608482015260a4015b60405180910390fd5b6127108111156107725760405162461bcd60e51b815260206004820152603260248201527f4f434c5f5a56453a3a757064617465436f6d706f756e64696e6752617465424960448201527105053282920726174696f203e2031303030360741b60648201526084016106fc565b60075460408051918252602082018390527f57bfd573022baa4c3a1987e85a21dd1c49512aa4068ab6fa93c8747e1e46f5c5910160405180910390a1600755565b6107bb612f48565b60405162461bcd60e51b815260206004820152603460248201527f5a69766f654c6f636b65723a3a70756c6c46726f6d4c6f636b65724552433732604482015273312829202163616e50756c6c455243373231282960601b60648201526084016106fc565b5050505050505050565b630a85bd0160e11b5b949350505050565b610843612f48565b60405162461bcd60e51b815260206004820152603e60248201527f5a69766f654c6f636b65723a3a70756c6c46726f6d4c6f636b65724d756c746960448201527f4552433732312829202163616e50756c6c4d756c74694552433732312829000060648201526084016106fc565b858110156109a3578686828181106108cb576108cb61534e565b90506020020160208101906108e09190615013565b6001600160a01b031663b88d4fde306109016000546001600160a01b031690565b8888868181106109135761091361534e565b9050602002013587878781811061092c5761092c61534e565b905060200281019061093e9190615364565b6040518663ffffffff1660e01b815260040161095e95949392919061531a565b600060405180830381600087803b15801561097857600080fd5b505af115801561098c573d6000803e3d6000fd5b50505050808061099b906153c0565b9150506108b1565b50505050505050565b6109b4612f48565b60405162461bcd60e51b815260206004820152603260248201527f5a69766f654c6f636b65723a3a70757368546f4c6f636b65724552433732312860448201527129202163616e50757368455243373231282960701b60648201526084016106fc565b610a1f612f48565b60405162461bcd60e51b815260206004820152603660248201527f5a69766f654c6f636b65723a3a70756c6c46726f6d4c6f636b6572455243313160448201527535352829202163616e50756c6c45524331313535282960501b60648201526084016106fc565b610a8e612f48565b600054600160a01b900460ff1615610ab85760405162461bcd60e51b81526004016106fc906153d9565b6001600160a01b038116610b425760405162461bcd60e51b815260206004820152604560248201527f5a69766f654f776e61626c654c6f636b65643a3a7472616e736665724f776e6560448201527f7273686970416e644c6f636b2829206e65774f776e6572203d3d206164647265606482015264737328302960d81b608482015260a4016106fc565b6000805460ff60a01b1916600160a01b179055610b5e81612fc8565b50565b610b69612f48565b60405162461bcd60e51b815260206004820152603260248201527f5a69766f654c6f636b65723a3a70756c6c46726f6d4c6f636b65724d756c74696044820152712829202163616e50756c6c4d756c7469282960701b60648201526084016106fc565b81811015610cc357610cb1610be96000546001600160a01b031690565b848484818110610bfb57610bfb61534e565b9050602002016020810190610c109190615013565b6040516370a0823160e01b81523060048201526001600160a01b0391909116906370a0823190602401602060405180830381865afa158015610c56573d6000803e3d6000fd5b505050506040513d601f19601f82011682018060405250810190610c7a919061541e565b858585818110610c8c57610c8c61534e565b9050602002016020810190610ca19190615013565b6001600160a01b03169190613018565b80610cbb816153c0565b915050610bcc565b505050565b610cd0612f48565b600054600160a01b900460ff1615610cfa5760405162461bcd60e51b81526004016106fc906153d9565b610d046000612fc8565b565b610d0e612f48565b60035460015460408051634d7b620760e11b815290516000936001600160a01b039081169363e6a4390593908216927f000000000000000000000000000000000000000000000000000000000000000090921691639af6c40e916004808201926020929091908290030181865afa158015610d8d573d6000803e3d6000fd5b505050506040513d601f19601f82011682018060405250810190610db191906152d4565b6040518363ffffffff1660e01b8152600401610dce929190615437565b602060405180830381865afa158015610deb573d6000803e3d6000fd5b505050506040513d601f19601f82011682018060405250810190610e0f91906152d4565b9050806001600160a01b0316826001600160a01b0316036112cd576002546040516370a0823160e01b8152306004820152610eaf916001600160a01b0390811691908416906370a0823190602401602060405180830381865afa158015610e7a573d6000803e3d6000fd5b505050506040513d601f19601f82011682018060405250810190610e9e919061541e565b6001600160a01b038416919061307b565b60025460015460408051634d7b620760e11b815290516001600160a01b039384169363baa2abde938116927f000000000000000000000000000000000000000000000000000000000000000090911691639af6c40e916004808201926020929091908290030181865afa158015610f2a573d6000803e3d6000fd5b505050506040513d601f19601f82011682018060405250810190610f4e91906152d4565b6040516370a0823160e01b81523060048201526001600160a01b038616906370a0823190602401602060405180830381865afa158015610f92573d6000803e3d6000fd5b505050506040513d601f19601f82011682018060405250810190610fb6919061541e565b60008030610fc74262127500615451565b6040518863ffffffff1660e01b8152600401610fe99796959493929190615464565b60408051808303816000875af1158015611007573d6000803e3d6000fd5b505050506040513d601f19601f8201168201806040525081019061102b91906154a4565b5050600254604051636eb1769f60e11b81526001600160a01b038084169263dd62ed3e9261105f9230921690600401615437565b602060405180830381865afa15801561107c573d6000803e3d6000fd5b505050506040513d601f19601f820116820180604052508101906110a0919061541e565b156110ad576110ad6154c8565b6111416110c26000546001600160a01b031690565b6001546040516370a0823160e01b81523060048201526001600160a01b03909116906370a0823190602401602060405180830381865afa15801561110a573d6000803e3d6000fd5b505050506040513d601f19601f8201168201806040525081019061112e919061541e565b6001546001600160a01b03169190613018565b6112c46111566000546001600160a01b031690565b7f00000000000000000000000000000000000000000000000000000000000000006001600160a01b0316639af6c40e6040518163ffffffff1660e01b8152600401602060405180830381865afa1580156111b4573d6000803e3d6000fd5b505050506040513d601f19601f820116820180604052508101906111d891906152d4565b6040516370a0823160e01b81523060048201526001600160a01b0391909116906370a0823190602401602060405180830381865afa15801561121e573d6000803e3d6000fd5b505050506040513d601f19601f82011682018060405250810190611242919061541e565b7f00000000000000000000000000000000000000000000000000000000000000006001600160a01b0316639af6c40e6040518163ffffffff1660e01b8152600401602060405180830381865afa1580156112a0573d6000803e3d6000fd5b505050506040513d601f19601f82011682018060405250810190610ca191906152d4565b60006004555050565b6001546001600160a01b039081169083160361137a576113716112f86000546001600160a01b031690565b6040516370a0823160e01b81523060048201526001600160a01b038516906370a0823190602401602060405180830381865afa15801561133c573d6000803e3d6000fd5b505050506040513d601f19601f82011682018060405250810190611360919061541e565b6001600160a01b0385169190613018565b60006006555050565b61138f6112f86000546001600160a01b031690565b5050565b61139b612f48565b60405162461bcd60e51b815260206004820152602660248201527f5a69766f654c6f636b65723a3a70757368546f4c6f636b65722829202163616e60448201526550757368282960d01b60648201526084016106fc565b6001600160a01b037f000000000000000000000000000000000000000000000000000000000000000016636ba42aaa336040516001600160e01b031960e084901b1681526001600160a01b039091166004820152602401602060405180830381865afa158015611466573d6000803e3d6000fd5b505050506040513d601f19601f8201168201806040525081019061148a91906154de565b6115155760405162461bcd60e51b815260206004820152605060248201527f4f434c5f5a56453a3a666f72776172645969656c644b6565706572282920214960448201527f5a69766f65476c6f62616c735f4f434c5f5a56452847424c292e69734b65657060648201526f6572285f6d736753656e64657228292960801b608482015260a4016106fc565b60007f00000000000000000000000000000000000000000000000000000000000000006001600160a01b03166372d6724a6040518163ffffffff1660e01b8152600401602060405180830381865afa158015611575573d6000803e3d6000fd5b505050506040513d601f19601f8201168201806040525081019061159991906152d4565b6001600160a01b0316635df8d1686040518163ffffffff1660e01b8152600401602060405180830381865afa1580156115d6573d6000803e3d6000fd5b505050506040513d601f19601f820116820180604052508101906115fa91906152d4565b6001549091506001600160a01b03908116908216036116775760405162461bcd60e51b815260206004820152603360248201527f4f434c5f5a56453a3a666f72776172645969656c644b65657065722829205f746044820152721bd05cdcd95d080f4f481c185a5c905cdcd95d606a1b60648201526084016106fc565b600154600654611694916001600160a01b031690839086866131cd565b6040516370a0823160e01b81523060048201526001600160a01b038216907f2ec253acc0d75b9476cdb2c2032d960c699aae29d5176adaafbe7c983de498c99082906370a0823190602401602060405180830381865afa1580156116fc573d6000803e3d6000fd5b505050506040513d601f19601f82011682018060405250810190611720919061541e565b60405190815260200160405180910390a261182f7f00000000000000000000000000000000000000000000000000000000000000006001600160a01b03166372d6724a6040518163ffffffff1660e01b8152600401602060405180830381865afa158015611792573d6000803e3d6000fd5b505050506040513d601f19601f820116820180604052508101906117b691906152d4565b6040516370a0823160e01b81523060048201526001600160a01b038416906370a0823190602401602060405180830381865afa1580156117fa573d6000803e3d6000fd5b505050506040513d601f19601f8201168201806040525081019061181e919061541e565b6001600160a01b0384169190613018565b5050600060065550565b60035460015460408051634d7b620760e11b81529051600093849384936001600160a01b039283169363e6a4390593928316927f00000000000000000000000000000000000000000000000000000000000000001691639af6c40e9160048083019260209291908290030181865afa1580156118b9573d6000803e3d6000fd5b505050506040513d601f19601f820116820180604052508101906118dd91906152d4565b6040518363ffffffff1660e01b81526004016118fa929190615437565b602060405180830381865afa158015611917573d6000803e3d6000fd5b505050506040513d601f19601f8201168201806040525081019061193b91906152d4565b6001546040516370a0823160e01b81526001600160a01b038084166004830152929350600092909116906370a0823190602401602060405180830381865afa15801561198b573d6000803e3d6000fd5b505050506040513d601f19601f820116820180604052508101906119af919061541e565b90506000826001600160a01b03166318160ddd6040518163ffffffff1660e01b8152600401602060405180830381865afa1580156119f1573d6000803e3d6000fd5b505050506040513d601f19601f82011682018060405250810190611a15919061541e565b6040516370a0823160e01b81523060048201529091506001600160a01b038416906370a0823190602401602060405180830381865afa158015611a5c573d6000803e3d6000fd5b505050506040513d601f19601f82011682018060405250810190611a80919061541e565b935080611a8d8386615500565b611a97919061551f565b94505050509091565b611aa8612f48565b60405162461bcd60e51b815260206004820152603c60248201527f5a69766f654c6f636b65723a3a70757368546f4c6f636b65724d756c7469455260448201527f433732312829202163616e507573684d756c746945524337323128290000000060648201526084016106fc565b858110156109a357868682818110611b3057611b3061534e565b9050602002016020810190611b459190615013565b6001600160a01b031663b88d4fde611b656000546001600160a01b031690565b30888886818110611b7857611b7861534e565b90506020020135878787818110611b9157611b9161534e565b9050602002810190611ba39190615364565b6040518663ffffffff1660e01b8152600401611bc395949392919061531a565b600060405180830381600087803b158015611bdd57600080fd5b505af1158015611bf1573d6000803e3d6000fd5b505050508080611c00906153c0565b915050611b16565b611c10612f48565b6001546001600160a01b03168484600081611c2d57611c2d61534e565b9050602002016020810190611c429190615013565b6001600160a01b0316148015611d1157507f00000000000000000000000000000000000000000000000000000000000000006001600160a01b0316639af6c40e6040518163ffffffff1660e01b8152600401602060405180830381865afa158015611cb1573d6000803e3d6000fd5b505050506040513d601f19601f82011682018060405250810190611cd591906152d4565b6001600160a01b031684846001818110611cf157611cf161534e565b9050602002016020810190611d069190615013565b6001600160a01b0316145b611db75760405162461bcd60e51b8152602060048201526064602482018190527f4f434c5f5a56453a3a70757368546f4c6f636b65724d756c746928292061737360448301527f6574735b305d20213d20706169724173736574207c7c206173736574735b315d908201527f20213d20495a69766f65476c6f62616c735f4f434c5f5a56452847424c292e5a6084820152635645282960e01b60a482015260c4016106fc565b60005b6002811015611ec45762989680838383818110611dd957611dd961534e565b905060200201351015611e4b5760405162461bcd60e51b815260206004820152603460248201527f4f434c5f5a56453a3a70757368546f4c6f636b65724d756c7469282920616d6f6044820152733ab73a39adb4ae901e101898101510189815151b60611b60648201526084016106fc565b611eb2611e606000546001600160a01b031690565b30858585818110611e7357611e7361534e565b90506020020135888886818110611e8c57611e8c61534e565b9050602002016020810190611ea19190615013565b6001600160a01b031692919061318f565b80611ebc816153c0565b915050611dba565b50600554600003611ee057611edc4262278d00615451565b6005555b6000600454600014611ef857611ef4611839565b5090505b6002546001546040516370a0823160e01b8152306004820152611f80926001600160a01b039081169216906370a0823190602401602060405180830381865afa158015611f49573d6000803e3d6000fd5b505050506040513d601f19601f82011682018060405250810190611f6d919061541e565b6001546001600160a01b0316919061307b565b612117600260009054906101000a90046001600160a01b03167f00000000000000000000000000000000000000000000000000000000000000006001600160a01b0316639af6c40e6040518163ffffffff1660e01b8152600401602060405180830381865afa158015611ff7573d6000803e3d6000fd5b505050506040513d601f19601f8201168201806040525081019061201b91906152d4565b6040516370a0823160e01b81523060048201526001600160a01b0391909116906370a0823190602401602060405180830381865afa158015612061573d6000803e3d6000fd5b505050506040513d601f19601f82011682018060405250810190612085919061541e565b7f00000000000000000000000000000000000000000000000000000000000000006001600160a01b0316639af6c40e6040518163ffffffff1660e01b8152600401602060405180830381865afa1580156120e3573d6000803e3d6000fd5b505050506040513d601f19601f8201168201806040525081019061210791906152d4565b6001600160a01b0316919061307b565b60025460015460408051634d7b620760e11b815290516001600160a01b039384169363e8e33700938116927f000000000000000000000000000000000000000000000000000000000000000090911691639af6c40e916004808201926020929091908290030181865afa158015612192573d6000803e3d6000fd5b505050506040513d601f19601f820116820180604052508101906121b691906152d4565b6001546040516370a0823160e01b81523060048201526001600160a01b03909116906370a0823190602401602060405180830381865afa1580156121fe573d6000803e3d6000fd5b505050506040513d601f19601f82011682018060405250810190612222919061541e565b7f00000000000000000000000000000000000000000000000000000000000000006001600160a01b0316639af6c40e6040518163ffffffff1660e01b8152600401602060405180830381865afa158015612280573d6000803e3d6000fd5b505050506040513d601f19601f820116820180604052508101906122a491906152d4565b6040516370a0823160e01b81523060048201526001600160a01b0391909116906370a0823190602401602060405180830381865afa1580156122ea573d6000803e3d6000fd5b505050506040513d601f19601f8201168201806040525081019061230e919061541e565b6001546040516370a0823160e01b81523060048201526001600160a01b03909116906370a0823190602401602060405180830381865afa158015612356573d6000803e3d6000fd5b505050506040513d601f19601f8201168201806040525081019061237a919061541e565b7f00000000000000000000000000000000000000000000000000000000000000006001600160a01b0316639af6c40e6040518163ffffffff1660e01b8152600401602060405180830381865afa1580156123d8573d6000803e3d6000fd5b505050506040513d601f19601f820116820180604052508101906123fc91906152d4565b6040516370a0823160e01b81523060048201526001600160a01b0391909116906370a0823190602401602060405180830381865afa158015612442573d6000803e3d6000fd5b505050506040513d601f19601f82011682018060405250810190612466919061541e565b306124744262127500615451565b60405160e08a901b6001600160e01b03191681526001600160a01b039889166004820152968816602488015260448701959095526064860193909352608485019190915260a484015290921660c482015260e4810191909152610104016060604051808303816000875af11580156124f0573d6000803e3d6000fd5b505050506040513d601f19601f820116820180604052508101906125149190615541565b5050600154600254604051636eb1769f60e11b81526001600160a01b03928316935063dd62ed3e9261254d923092911690600401615437565b602060405180830381865afa15801561256a573d6000803e3d6000fd5b505050506040513d601f19601f8201168201806040525081019061258e919061541e565b1561259b5761259b6154c8565b7f00000000000000000000000000000000000000000000000000000000000000006001600160a01b0316639af6c40e6040518163ffffffff1660e01b8152600401602060405180830381865afa1580156125f9573d6000803e3d6000fd5b505050506040513d601f19601f8201168201806040525081019061261d91906152d4565b600254604051636eb1769f60e11b81526001600160a01b039283169263dd62ed3e9261265192309290911690600401615437565b602060405180830381865afa15801561266e573d6000803e3d6000fd5b505050506040513d601f19601f82011682018060405250810190612692919061541e565b1561269f5761269f6154c8565b60006126a9611839565b5090508181116127215760405162461bcd60e51b815260206004820152603760248201527f4f434c5f5a56453a3a70757368546f4c6f636b65724d756c7469282920706f7360448201527f74426173656c696e65203c20707265426173656c696e6500000000000000000060648201526084016106fc565b61272b828261556f565b600455505050505050565b61273e612f48565b60035460015460408051634d7b620760e11b815290516000936001600160a01b039081169363e6a4390593908216927f000000000000000000000000000000000000000000000000000000000000000090921691639af6c40e916004808201926020929091908290030181865afa1580156127bd573d6000803e3d6000fd5b505050506040513d601f19601f820116820180604052508101906127e191906152d4565b6040518363ffffffff1660e01b81526004016127fe929190615437565b602060405180830381865afa15801561281b573d6000803e3d6000fd5b505050506040513d601f19601f8201168201806040525081019061283f91906152d4565b9050806001600160a01b0316836001600160a01b031603612a4657600254612874906001600160a01b0383811691168461307b565b60025460015460408051634d7b620760e11b815290516001600160a01b039384169363baa2abde938116927f000000000000000000000000000000000000000000000000000000000000000090911691639af6c40e916004808201926020929091908290030181865afa1580156128ef573d6000803e3d6000fd5b505050506040513d601f19601f8201168201806040525081019061291391906152d4565b85600080306129254262127500615451565b6040518863ffffffff1660e01b81526004016129479796959493929190615464565b60408051808303816000875af1158015612965573d6000803e3d6000fd5b505050506040513d601f19601f8201168201806040525081019061298991906154a4565b5050600254604051636eb1769f60e11b81526001600160a01b038084169263dd62ed3e926129bd9230921690600401615437565b602060405180830381865afa1580156129da573d6000803e3d6000fd5b505050506040513d601f19601f820116820180604052508101906129fe919061541e565b15612a0b57612a0b6154c8565b612a206110c26000546001600160a01b031690565b612a356111566000546001600160a01b031690565b612a3d611839565b50600455505050565b6001546001600160a01b0390811690841603612af657612a82612a716000546001600160a01b031690565b6001600160a01b0385169084613018565b6001546040516370a0823160e01b81523060048201526001600160a01b03909116906370a0823190602401602060405180830381865afa158015612aca573d6000803e3d6000fd5b505050506040513d601f19601f82011682018060405250810190612aee919061541e565b600655505050565b610cc3612a716000546001600160a01b031690565b612b13612f48565b600054600160a01b900460ff1615612b3d5760405162461bcd60e51b81526004016106fc906153d9565b6001600160a01b038116612bb95760405162461bcd60e51b815260206004820152603e60248201527f5a69766f654f776e61626c654c6f636b65643a3a7472616e736665724f776e6560448201527f72736869702829206e65774f776e6572203d3d2061646472657373283029000060648201526084016106fc565b610b5e81612fc8565b612bca612f48565b60405162461bcd60e51b815260206004820152603460248201527f5a69766f654c6f636b65723a3a70757368546f4c6f636b6572455243313135356044820152732829202163616e5075736845524331313535282960601b60648201526084016106fc565b612c37612f48565b6040805162461bcd60e51b81526020600482015260248101919091527f5a69766f654c6f636b65723a3a70756c6c46726f6d4c6f636b65724d756c746960448201527f5061727469616c2829202163616e50756c6c4d756c74695061727469616c282960648201526084016106fc565b83811015612d0157612cef612cc46000546001600160a01b031690565b848484818110612cd657612cd661534e565b90506020020135878785818110610c8c57610c8c61534e565b80612cf9816153c0565b915050612ca7565b5050505050565b6001600160a01b037f000000000000000000000000000000000000000000000000000000000000000016636ba42aaa336040516001600160e01b031960e084901b1681526001600160a01b039091166004820152602401602060405180830381865afa158015612d7c573d6000803e3d6000fd5b505050506040513d601f19601f82011682018060405250810190612da091906154de565b15612e425761a8c0600554612db5919061556f565b4211612e3d5760405162461bcd60e51b815260206004820152604b60248201527f4f434c5f5a56453a3a666f72776172645969656c64282920626c6f636b2e746960448201527f6d657374616d70203c3d206e6578745969656c64446973747269627574696f6e60648201526a202d20313220686f75727360a81b608482015260a4016106fc565b612ebb565b6005544211612ebb576040805162461bcd60e51b81526020600482015260248101919091527f4f434c5f5a56453a3a666f72776172645969656c64282920626c6f636b2e746960448201527f6d657374616d70203c3d206e6578745969656c64446973747269627574696f6e60648201526084016106fc565b600080612ec6611839565b915091506004548211612f2e5760405162461bcd60e51b815260206004820152602a60248201527f4f434c5f5a56453a3a666f72776172645969656c64282920616d6f756e74203c6044820152693d20626173656c696e6560b01b60648201526084016106fc565b612f3b4262278d00615451565b60055561138f82826131da565b6000546001600160a01b03163314610d045760405162461bcd60e51b815260206004820152603760248201527f5a69766f654f776e61626c654c6f636b65643a3a5f636865636b4f776e65722060448201527f6f776e6572282920213d205f6d736753656e646572282900000000000000000060648201526084016106fc565b600080546001600160a01b038381166001600160a01b0319831681178455604051919092169283917f8be0079c531659141344cd1fd0a4f28419497f9722a3daafe3b4186f6b6457e09190a35050565b6040516001600160a01b038316602482015260448101829052610cc390849063a9059cbb60e01b906064015b60408051601f198184030181529190526020810180516001600160e01b03166001600160e01b0319909316929092179091526136e9565b8015806130f45750604051636eb1769f60e11b81526001600160a01b0384169063dd62ed3e906130b19030908690600401615437565b602060405180830381865afa1580156130ce573d6000803e3d6000fd5b505050506040513d601f19601f820116820180604052508101906130f2919061541e565b155b61315f5760405162461bcd60e51b815260206004820152603660248201527f5361666545524332303a20617070726f76652066726f6d206e6f6e2d7a65726f60448201527520746f206e6f6e2d7a65726f20616c6c6f77616e636560501b60648201526084016106fc565b6040516001600160a01b038316602482015260448101829052610cc390849063095ea7b360e01b90606401613044565b6040516001600160a01b03808516602483015283166044820152606481018290526131c79085906323b872dd60e01b90608401613044565b50505050565b612d0185858585856137bb565b60006127106007548484600454876131f2919061556f565b6131fc9190615500565b613206919061551f565b6132109190615500565b61321a919061551f565b60035460015460408051634d7b620760e11b815290519394506000936001600160a01b039384169363e6a43905938116927f000000000000000000000000000000000000000000000000000000000000000090911691639af6c40e916004808201926020929091908290030181865afa15801561329b573d6000803e3d6000fd5b505050506040513d601f19601f820116820180604052508101906132bf91906152d4565b6040518363ffffffff1660e01b81526004016132dc929190615437565b602060405180830381865afa1580156132f9573d6000803e3d6000fd5b505050506040513d601f19601f8201168201806040525081019061331d91906152d4565b60025490915061333a906001600160a01b0380841691168461307b565b60025460015460408051634d7b620760e11b815290516001600160a01b039384169363baa2abde938116927f000000000000000000000000000000000000000000000000000000000000000090911691639af6c40e916004808201926020929091908290030181865afa1580156133b5573d6000803e3d6000fd5b505050506040513d601f19601f820116820180604052508101906133d991906152d4565b85600080306133eb4262127500615451565b6040518863ffffffff1660e01b815260040161340d9796959493929190615464565b60408051808303816000875af115801561342b573d6000803e3d6000fd5b505050506040513d601f19601f8201168201806040525081019061344f91906154a4565b5050600254604051636eb1769f60e11b81526001600160a01b038084169263dd62ed3e926134839230921690600401615437565b602060405180830381865afa1580156134a0573d6000803e3d6000fd5b505050506040513d601f19601f820116820180604052508101906134c4919061541e565b156134d1576134d16154c8565b7f00000000000000000000000000000000000000000000000000000000000000006001600160a01b03166372d6724a6040518163ffffffff1660e01b8152600401602060405180830381865afa15801561352f573d6000803e3d6000fd5b505050506040513d601f19601f8201168201806040525081019061355391906152d4565b6001600160a01b0316635df8d1686040518163ffffffff1660e01b8152600401602060405180830381865afa158015613590573d6000803e3d6000fd5b505050506040513d601f19601f820116820180604052508101906135b491906152d4565b6001546001600160a01b0390811691161461363d576001546040516370a0823160e01b81523060048201526001600160a01b03909116906370a0823190602401602060405180830381865afa158015613611573d6000803e3d6000fd5b505050506040513d601f19601f82011682018060405250810190613635919061541e565b6006556136c2565b6136c27f00000000000000000000000000000000000000000000000000000000000000006001600160a01b03166372d6724a6040518163ffffffff1660e01b8152600401602060405180830381865afa15801561369e573d6000803e3d6000fd5b505050506040513d601f19601f820116820180604052508101906110c291906152d4565b6136d76111566000546001600160a01b031690565b6136df611839565b5060045550505050565b600061373e826040518060400160405280602081526020017f5361666545524332303a206c6f772d6c6576656c2063616c6c206661696c6564815250856001600160a01b031661396c9092919063ffffffff16565b805190915015610cc3578080602001905181019061375c91906154de565b610cc35760405162461bcd60e51b815260206004820152602a60248201527f5361666545524332303a204552433230206f7065726174696f6e20646964206e6044820152691bdd081cdd58d8d9595960b21b60648201526084016106fc565b60006137ca6004828486615582565b6137d3916155ac565b90506241fed760e91b6001600160e01b03198216016137fe576137f9838388888861397b565b613892565b630ddb7ee960e11b6001600160e01b0319821601613823576137f98383888888613ba8565b631a2d492760e31b6001600160e01b0319821601613848576137f98383888888614146565b632f5c499b60e01b6001600160e01b031982160161386d576137f9838388888861476e565b6327de773f60e11b6001600160e01b0319821601610295576137f98383888888614922565b60007f00000000000000000000000000000000000000000000000000000000000000006001600160a01b031684846040516138ce9291906155dc565b6000604051808303816000865af19150503d806000811461390b576040519150601f19603f3d011682016040523d82523d6000602084013e613910565b606091505b50509050806109a35760405162461bcd60e51b815260206004820152602260248201527f5a69766f65537761707065723a3a636f6e766572744173736574282920217375604482015261636360f01b60648201526084016106fc565b60606108338484600085614a94565b600061398a8560048189615582565b81019061399791906155ec565b50915050836001600160a01b031681600001516001600160a01b031614613a275760405162461bcd60e51b815260206004820152604a602482015260008051602061597a83398151915260448201527f376330323532303028292061646472657373285f622e737263546f6b656e2920606482015269109e9030b9b9b2ba24b760b11b608482015260a4016106fc565b826001600160a01b031681602001516001600160a01b031614613ab45760405162461bcd60e51b815260206004820152604b602482015260008051602061597a83398151915260448201527f376330323532303028292061646472657373285f622e647374546f6b656e292060648201526a084f48185cdcd95d13dd5d60aa1b608482015260a4016106fc565b81816080015114613b1d576040805162461bcd60e51b815260206004820152602481019190915260008051602061597a83398151915260448201527f37633032353230302829205f622e616d6f756e7420213d20616d6f756e74496e60648201526084016106fc565b60608101516001600160a01b03163014613ba05760405162461bcd60e51b815260206004820152604a602482015260008051602061597a83398151915260448201527f37633032353230302829205f622e647374526563656976657220213d206164646064820152697265737328746869732960b01b608482015260a4016106fc565b505050505050565b600080613bb8866004818a615582565b810190613bc591906156f2565b9250509150828214613c2d5760405162461bcd60e51b8152602060048201526039602482015260008051602061597a83398151915260448201527f65343439303232652829205f6120213d20616d6f756e74496e0000000000000060648201526084016106fc565b6000600160ff1b82600081518110613c4757613c4761534e565b60200260200101511660001490506000600160ff1b8360018551613c6b919061556f565b81518110613c7b57613c7b61534e565b60200260200101511660001490508115613dac57866001600160a01b031683600081518110613cac57613cac61534e565b60200260200101516001600160a01b0316630dfe16816040518163ffffffff1660e01b8152600401602060405180830381865afa158015613cf1573d6000803e3d6000fd5b505050506040513d601f19601f82011682018060405250810190613d1591906152d4565b6001600160a01b031614613da75760405162461bcd60e51b815260206004820152607c602482015260008051602061597a83398151915260448201526000805160206159ba83398151915260648201526000805160206159da83398151915260848201527f635b305d292929292e746f6b656e30282920213d206173736574496e0000000060a482015260c4016106fc565b613ec4565b866001600160a01b031683600081518110613dc957613dc961534e565b60200260200101516001600160a01b031663d21220a76040518163ffffffff1660e01b8152600401602060405180830381865afa158015613e0e573d6000803e3d6000fd5b505050506040513d601f19601f82011682018060405250810190613e3291906152d4565b6001600160a01b031614613ec45760405162461bcd60e51b815260206004820152607c602482015260008051602061597a83398151915260448201526000805160206159ba83398151915260648201526000805160206159da83398151915260848201527f635b305d292929292e746f6b656e31282920213d206173736574496e0000000060a482015260c4016106fc565b801561400557856001600160a01b03168360018551613ee3919061556f565b81518110613ef357613ef361534e565b60200260200101516001600160a01b031663d21220a76040518163ffffffff1660e01b8152600401602060405180830381865afa158015613f38573d6000803e3d6000fd5b505050506040513d601f19601f82011682018060405250810190613f5c91906152d4565b6001600160a01b0316146140005760405162461bcd60e51b8152602060048201526089602482015260008051602061597a83398151915260448201526000805160206159ba83398151915260648201526000805160206159da83398151915260848201527f635b5f632e6c656e677468202d20315d292929292e746f6b656e31282920213d60a48201526808185cdcd95d13dd5d60ba1b60c482015260e4016106fc565b61413b565b856001600160a01b0316836001855161401e919061556f565b8151811061402e5761402e61534e565b60200260200101516001600160a01b0316630dfe16816040518163ffffffff1660e01b8152600401602060405180830381865afa158015614073573d6000803e3d6000fd5b505050506040513d601f19601f8201168201806040525081019061409791906152d4565b6001600160a01b03161461413b5760405162461bcd60e51b8152602060048201526089602482015260008051602061597a83398151915260448201526000805160206159ba83398151915260648201526000805160206159da83398151915260848201527f635b5f632e6c656e677468202d20315d292929292e746f6b656e30282920213d60a48201526808185cdcd95d13dd5d60ba1b60c482015260e4016106fc565b505050505050505050565b60008080614157876004818b615582565b8101906141649190615737565b93505092509250856001600160a01b0316836001600160a01b0316146141e05760405162461bcd60e51b8152602060048201526038602482015260008051602061597a83398151915260448201527f32653935623663382829205f6120213d206173736574496e000000000000000060648201526084016106fc565b8382146142435760405162461bcd60e51b8152602060048201526039602482015260008051602061597a83398151915260448201527f32653935623663382829205f6220213d20616d6f756e74496e0000000000000060648201526084016106fc565b60008060008360008151811061425b5761425b61534e565b6020026020010151905060008460018651614276919061556f565b815181106142865761428661534e565b60200260200101519050600160ff1b82169350600160ff1b8116925083156143c857896001600160a01b0316856000815181106142c5576142c561534e565b602002602001015160001c6001600160a01b031663d21220a76040518163ffffffff1660e01b8152600401602060405180830381865afa15801561430d573d6000803e3d6000fd5b505050506040513d601f19601f8201168201806040525081019061433191906152d4565b6001600160a01b0316146143c35760405162461bcd60e51b815260206004820152607c602482015260008051602061597a833981519152604482015260008051602061599a83398151915260648201526000805160206159da83398151915260848201527f645b305d292929292e746f6b656e31282920213d206173736574496e0000000060a482015260c4016106fc565b6144e3565b896001600160a01b0316856000815181106143e5576143e561534e565b602002602001015160001c6001600160a01b0316630dfe16816040518163ffffffff1660e01b8152600401602060405180830381865afa15801561442d573d6000803e3d6000fd5b505050506040513d601f19601f8201168201806040525081019061445191906152d4565b6001600160a01b0316146144e35760405162461bcd60e51b815260206004820152607c602482015260008051602061597a833981519152604482015260008051602061599a83398151915260648201526000805160206159da83398151915260848201527f645b305d292929292e746f6b656e30282920213d206173736574496e0000000060a482015260c4016106fc565b821561462757886001600160a01b03168560018751614502919061556f565b815181106145125761451261534e565b602002602001015160001c6001600160a01b0316630dfe16816040518163ffffffff1660e01b8152600401602060405180830381865afa15801561455a573d6000803e3d6000fd5b505050506040513d601f19601f8201168201806040525081019061457e91906152d4565b6001600160a01b0316146146225760405162461bcd60e51b8152602060048201526089602482015260008051602061597a833981519152604482015260008051602061599a83398151915260648201526000805160206159da83398151915260848201527f645b5f642e6c656e677468202d20315d292929292e746f6b656e30282920213d60a48201526808185cdcd95d13dd5d60ba1b60c482015260e4016106fc565b614760565b886001600160a01b03168560018751614640919061556f565b815181106146505761465061534e565b602002602001015160001c6001600160a01b031663d21220a76040518163ffffffff1660e01b8152600401602060405180830381865afa158015614698573d6000803e3d6000fd5b505050506040513d601f19601f820116820180604052508101906146bc91906152d4565b6001600160a01b0316146147605760405162461bcd60e51b8152602060048201526089602482015260008051602061597a833981519152604482015260008051602061599a83398151915260648201526000805160206159da83398151915260848201527f645b5f642e6c656e677468202d20315d292929292e746f6b656e31282920213d60a48201526808185cdcd95d13dd5d60ba1b60c482015260e4016106fc565b505050505050505050505050565b600061477d8560048189615582565b81019061478a91906157ed565b5050509050836001600160a01b031681604001516001600160a01b03161461481d5760405162461bcd60e51b815260206004820152604c602482015260008051602061597a83398151915260448201527f643061336236363528292061646472657373285f612e74616b6572417373657460648201526b1490109e9030b9b9b2ba24b760a11b608482015260a4016106fc565b826001600160a01b031681602001516001600160a01b0316146148ac5760405162461bcd60e51b815260206004820152604d602482015260008051602061597a83398151915260448201527f643061336236363528292061646472657373285f612e6d616b6572417373657460648201526c0a48084f48185cdcd95d13dd5d609a1b608482015260a4016106fc565b818160c0015114613ba05760405162461bcd60e51b8152602060048201526046602482015260008051602061597a83398151915260448201527f64306133623636352829205f612e74616b696e67416d6f756e7420213d20616d60648201526537bab73a24b760d11b608482015260a4016106fc565b60008080614933876004818b615582565b81019061494091906158c0565b50925092509250856001600160a01b0316836001600160a01b0316146149bc5760405162461bcd60e51b8152602060048201526038602482015260008051602061597a83398151915260448201527f62303433313138322829205f6120213d206173736574496e000000000000000060648201526084016106fc565b846001600160a01b0316826001600160a01b031614614a315760405162461bcd60e51b8152602060048201526039602482015260008051602061597a83398151915260448201527f62303433313138322829205f6220213d2061737365744f75740000000000000060648201526084016106fc565b8381146108205760405162461bcd60e51b8152602060048201526039602482015260008051602061597a83398151915260448201527f62303433313138322829205f6320213d20616d6f756e74496e0000000000000060648201526084016106fc565b606082471015614af55760405162461bcd60e51b815260206004820152602660248201527f416464726573733a20696e73756666696369656e742062616c616e636520666f6044820152651c8818d85b1b60d21b60648201526084016106fc565b600080866001600160a01b03168587604051614b11919061592a565b60006040518083038185875af1925050503d8060008114614b4e576040519150601f19603f3d011682016040523d82523d6000602084013e614b53565b606091505b5091509150614b6487838387614b6f565b979650505050505050565b60608315614bde578251600003614bd7576001600160a01b0385163b614bd75760405162461bcd60e51b815260206004820152601d60248201527f416464726573733a2063616c6c20746f206e6f6e2d636f6e747261637400000060448201526064016106fc565b5081610833565b6108338383815115614bf35781518083602001fd5b8060405162461bcd60e51b81526004016106fc9190615946565b600060208284031215614c1f57600080fd5b81356001600160e01b031981168114614c3757600080fd5b9392505050565b600060208284031215614c5057600080fd5b5035919050565b6001600160a01b0381168114610b5e57600080fd5b8035614c7781614c57565b919050565b60008083601f840112614c8e57600080fd5b5081356001600160401b03811115614ca557600080fd5b602083019150836020828501011115614cbd57600080fd5b9250929050565b60008060008060608587031215614cda57600080fd5b8435614ce581614c57565b93506020850135925060408501356001600160401b03811115614d0757600080fd5b614d1387828801614c7c565b95989497509550505050565b634e487b7160e01b600052604160045260246000fd5b60405161010081016001600160401b0381118282101715614d5857614d58614d1f565b60405290565b60405160e081016001600160401b0381118282101715614d5857614d58614d1f565b604051601f8201601f191681016001600160401b0381118282101715614da857614da8614d1f565b604052919050565b600082601f830112614dc157600080fd5b81356001600160401b03811115614dda57614dda614d1f565b614ded601f8201601f1916602001614d80565b818152846020838601011115614e0257600080fd5b816020850160208301376000918101602001919091529392505050565b60008060008060808587031215614e3557600080fd5b8435614e4081614c57565b93506020850135614e5081614c57565b92506040850135915060608501356001600160401b03811115614e7257600080fd5b614e7e87828801614db0565b91505092959194509250565b60008083601f840112614e9c57600080fd5b5081356001600160401b03811115614eb357600080fd5b6020830191508360208260051b8501011115614cbd57600080fd5b60008060008060008060608789031215614ee757600080fd5b86356001600160401b0380821115614efe57600080fd5b614f0a8a838b01614e8a565b90985096506020890135915080821115614f2357600080fd5b614f2f8a838b01614e8a565b90965094506040890135915080821115614f4857600080fd5b50614f5589828a01614e8a565b979a9699509497509295939492505050565b60008060008060008060006080888a031215614f8257600080fd5b8735614f8d81614c57565b965060208801356001600160401b0380821115614fa957600080fd5b614fb58b838c01614e8a565b909850965060408a0135915080821115614fce57600080fd5b614fda8b838c01614e8a565b909650945060608a0135915080821115614ff357600080fd5b506150008a828b01614c7c565b989b979a50959850939692959293505050565b60006020828403121561502557600080fd5b8135614c3781614c57565b6000806020838503121561504357600080fd5b82356001600160401b0381111561505957600080fd5b61506585828601614e8a565b90969095509350505050565b6000806040838503121561508457600080fd5b823561508f81614c57565b946020939093013593505050565b600080602083850312156150b057600080fd5b82356001600160401b038111156150c657600080fd5b61506585828601614c7c565b60006001600160401b038211156150eb576150eb614d1f565b5060051b60200190565b600082601f83011261510657600080fd5b8135602061511b615116836150d2565b614d80565b82815260059290921b8401810191818101908684111561513a57600080fd5b8286015b84811015615155578035835291830191830161513e565b509695505050505050565b600080600080600060a0868803121561517857600080fd5b853561518381614c57565b9450602086013561519381614c57565b935060408601356001600160401b03808211156151af57600080fd5b6151bb89838a016150f5565b945060608801359150808211156151d157600080fd5b6151dd89838a016150f5565b935060808801359150808211156151f357600080fd5b5061520088828901614db0565b9150509295509295909350565b6000806000806040858703121561522357600080fd5b84356001600160401b038082111561523a57600080fd5b61524688838901614e8a565b9096509450602087013591508082111561525f57600080fd5b50614d1387828801614e8a565b600080600080600060a0868803121561528457600080fd5b853561528f81614c57565b9450602086013561529f81614c57565b9350604086013592506060860135915060808601356001600160401b038111156152c857600080fd5b61520088828901614db0565b6000602082840312156152e657600080fd5b8151614c3781614c57565b81835281816020850137506000828201602090810191909152601f909101601f19169091010190565b6001600160a01b0386811682528516602082015260408101849052608060608201819052600090614b6490830184866152f1565b634e487b7160e01b600052603260045260246000fd5b6000808335601e1984360301811261537b57600080fd5b8301803591506001600160401b0382111561539557600080fd5b602001915036819003821315614cbd57600080fd5b634e487b7160e01b600052601160045260246000fd5b6000600182016153d2576153d26153aa565b5060010190565b60208082526025908201527f5a69766f654f776e61626c654c6f636b65643a3a756e6c6f636b65642829206c6040820152641bd8dad95960da1b606082015260800190565b60006020828403121561543057600080fd5b5051919050565b6001600160a01b0392831681529116602082015260400190565b808201808211156105d4576105d46153aa565b6001600160a01b039788168152958716602087015260408601949094526060850192909252608084015290921660a082015260c081019190915260e00190565b600080604083850312156154b757600080fd5b505080516020909101519092909150565b634e487b7160e01b600052600160045260246000fd5b6000602082840312156154f057600080fd5b81518015158114614c3757600080fd5b600081600019048311821515161561551a5761551a6153aa565b500290565b60008261553c57634e487b7160e01b600052601260045260246000fd5b500490565b60008060006060848603121561555657600080fd5b8351925060208401519150604084015190509250925092565b818103818111156105d4576105d46153aa565b6000808585111561559257600080fd5b8386111561559f57600080fd5b5050820193919092039150565b6001600160e01b031981358181169160048510156155d45780818660040360031b1b83161692505b505092915050565b8183823760009101908152919050565b60008060006060848603121561560157600080fd5b833561560c81614c57565b925060208401356001600160401b038082111561562857600080fd5b90850190610100828803121561563d57600080fd5b615645614d35565b61564e83614c6c565b815261565c60208401614c6c565b602082015261566d60408401614c6c565b604082015261567e60608401614c6c565b60608201526080830135608082015260a083013560a082015260c083013560c082015260e0830135828111156156b357600080fd5b6156bf89828601614db0565b60e083015250935060408601359150808211156156db57600080fd5b506156e886828701614db0565b9150509250925092565b60008060006060848603121561570757600080fd5b833592506020840135915060408401356001600160401b0381111561572b57600080fd5b6156e8868287016150f5565b6000806000806080858703121561574d57600080fd5b843561575881614c57565b935060208581013593506040860135925060608601356001600160401b0381111561578257600080fd5b8601601f8101881361579357600080fd5b80356157a1615116826150d2565b81815260059190911b8201830190838101908a8311156157c057600080fd5b928401925b828410156157de578335825292840192908401906157c5565b979a9699509497505050505050565b60008060008084860361014081121561580557600080fd5b60e081121561581357600080fd5b5061581c614d5e565b85358152602086013561582e81614c57565b6020820152604086013561584181614c57565b6040820152606086013561585481614c57565b6060820152608086013561586781614c57565b608082015260a0868101359082015260c08087013590820152935060e08501356001600160401b0381111561589b57600080fd5b6158a787828801614db0565b9497949650505050610100830135926101200135919050565b600080600080608085870312156158d657600080fd5b84356158e181614c57565b935060208501356158f181614c57565b93969395505050506040820135916060013590565b60005b83811015615921578181015183820152602001615909565b50506000910152565b6000825161593c818460208701615906565b9190910192915050565b6020815260008251806020840152615965816040850160208701615906565b601f01601f1916919091016040019291505056fe5a69766f65537761707065723a3a68616e646c655f76616c69646174696f6e5f326539356236633828292049556e69737761705632506f6f6c5f5a69766f6553653434393032326528292049556e69737761705633506f6f6c5f5a69766f655377617070657228616464726573732875696e743136302875696e74323536285fa2646970667358221220cb3da53a279dbab16abac78fd724f7eac35072f48b9dcb6518b75022d8c3ecf464736f6c63430008100033",
    "linkReferences": {}
  },
  "methodIdentifiers": {
    "GBL()": "3ce8d432",
    "amountForConversion()": "d2abc6ef",
    "baseline()": "ab2637af",
    "canPull()": "215cccdd",
    "canPullERC1155()": "b0607cf8",
    "canPullERC721()": "3c117244",
    "canPullMulti()": "3eda81ad",
    "canPullMultiERC721()": "1852b383",
    "canPullMultiPartial()": "2f08d48b",
    "canPullPartial()": "64c77735",
    "canPush()": "e7f44629",
    "canPushERC1155()": "cf10b7ab",
    "canPushERC721()": "8b648ee2",
    "canPushMulti()": "a4a3e79d",
    "canPushMultiERC721()": "dd913bdb",
    "compoundingRateBIPS()": "7efee3a8",
    "factory()": "c45a0155",
    "forwardYield()": "ff4a6761",
    "forwardYieldKeeper(bytes)": "964acd35",
    "locked()": "cf309012",
    "nextYieldDistribution()": "f988dc3f",
    "onERC1155BatchReceived(address,address,uint256[],uint256[],bytes)": "bc197c81",
    "onERC1155Received(address,address,uint256,uint256,bytes)": "f23a6e61",
    "onERC721Received(address,address,uint256,bytes)": "150b7a02",
    "owner()": "8da5cb5b",
    "pairAsset()": "e94eafe1",
    "pairAssetConvertible()": "a08ec277",
    "pullFromLocker(address)": "7dbcdbc1",
    "pullFromLockerERC1155(address,uint256[],uint256[],bytes)": "422b2018",
    "pullFromLockerERC721(address,uint256,bytes)": "12052176",
    "pullFromLockerMulti(address[])": "607cd649",
    "pullFromLockerMultiERC721(address[],uint256[],bytes[])": "15e98744",
    "pullFromLockerMultiPartial(address[],uint256[])": "ff0459ba",
    "pullFromLockerPartial(address,uint256)": "d9821e3b",
    "pushToLocker(address,uint256)": "84476591",
    "pushToLockerERC1155(address,uint256[],uint256[],bytes)": "fd76f59d",
    "pushToLockerERC721(address,uint256,bytes)": "1d9389e9",
    "pushToLockerMulti(address[],uint256[])": "c9c6a414",
    "pushToLockerMultiERC721(address[],uint256[],bytes[])": "b892bcc0",
    "renounceOwnership()": "715018a6",
    "router()": "f887ea40",
    "router1INCH_V4()": "19ce95f4",
    "supportsInterface(bytes4)": "01ffc9a7",
    "transferOwnership(address)": "f2fde38b",
    "transferOwnershipAndLock(address)": "58289c7e",
    "uniswapOrSushi()": "14ba5029",
    "updateCompoundingRateBIPS(uint256)": "082b0097"
  },
  "id": 67
}