{
  "abi": [
    {
      "inputs": [
        {
          "internalType": "uint256",
          "name": "_start",
          "type": "uint256"
        },
        {
          "internalType": "uint256",
          "name": "_end",
          "type": "uint256"
        },
        {
          "internalType": "address",
          "name": "_GBL",
          "type": "address"
        }
      ],
      "stateMutability": "nonpayable",
      "type": "constructor"
    },
    {
      "anonymous": false,
      "inputs": [
        {
          "indexed": true,
          "internalType": "address",
          "name": "account",
          "type": "address"
        },
        {
          "indexed": false,
          "internalType": "uint256",
          "name": "zSTTClaimed",
          "type": "uint256"
        },
        {
          "indexed": false,
          "internalType": "uint256",
          "name": "zJTTClaimed",
          "type": "uint256"
        },
        {
          "indexed": false,
          "internalType": "uint256",
          "name": "ZVEClaimed",
          "type": "uint256"
        }
      ],
      "name": "AirdropClaimed",
      "type": "event"
    },
    {
      "anonymous": false,
      "inputs": [
        {
          "indexed": false,
          "internalType": "uint256",
          "name": "DAI",
          "type": "uint256"
        },
        {
          "indexed": false,
          "internalType": "uint256",
          "name": "FRAX",
          "type": "uint256"
        },
        {
          "indexed": false,
          "internalType": "uint256",
          "name": "USDC",
          "type": "uint256"
        },
        {
          "indexed": false,
          "internalType": "uint256",
          "name": "USDT",
          "type": "uint256"
        }
      ],
      "name": "DepositsMigrated",
      "type": "event"
    },
    {
      "anonymous": false,
      "inputs": [
        {
          "indexed": true,
          "internalType": "address",
          "name": "account",
          "type": "address"
        },
        {
          "indexed": true,
          "internalType": "address",
          "name": "asset",
          "type": "address"
        },
        {
          "indexed": false,
          "internalType": "uint256",
          "name": "amount",
          "type": "uint256"
        },
        {
          "indexed": false,
          "internalType": "uint256",
          "name": "credits",
          "type": "uint256"
        },
        {
          "indexed": false,
          "internalType": "uint256",
          "name": "trancheTokens",
          "type": "uint256"
        }
      ],
      "name": "JuniorDeposit",
      "type": "event"
    },
    {
      "anonymous": false,
      "inputs": [
        {
          "indexed": true,
          "internalType": "address",
          "name": "account",
          "type": "address"
        },
        {
          "indexed": true,
          "internalType": "address",
          "name": "asset",
          "type": "address"
        },
        {
          "indexed": false,
          "internalType": "uint256",
          "name": "amount",
          "type": "uint256"
        },
        {
          "indexed": false,
          "internalType": "uint256",
          "name": "credits",
          "type": "uint256"
        },
        {
          "indexed": false,
          "internalType": "uint256",
          "name": "trancheTokens",
          "type": "uint256"
        }
      ],
      "name": "SeniorDeposit",
      "type": "event"
    },
    {
      "inputs": [],
      "name": "GBL",
      "outputs": [
        {
          "internalType": "address",
          "name": "",
          "type": "address"
        }
      ],
      "stateMutability": "view",
      "type": "function"
    },
    {
      "inputs": [
        {
          "internalType": "address",
          "name": "",
          "type": "address"
        }
      ],
      "name": "airdropClaimed",
      "outputs": [
        {
          "internalType": "bool",
          "name": "",
          "type": "bool"
        }
      ],
      "stateMutability": "view",
      "type": "function"
    },
    {
      "inputs": [],
      "name": "claim",
      "outputs": [
        {
          "internalType": "uint256",
          "name": "zSTTClaimed",
          "type": "uint256"
        },
        {
          "internalType": "uint256",
          "name": "zJTTClaimed",
          "type": "uint256"
        },
        {
          "internalType": "uint256",
          "name": "ZVEClaimed",
          "type": "uint256"
        }
      ],
      "stateMutability": "nonpayable",
      "type": "function"
    },
    {
      "inputs": [
        {
          "internalType": "uint256",
          "name": "amount",
          "type": "uint256"
        },
        {
          "internalType": "address",
          "name": "asset",
          "type": "address"
        }
      ],
      "name": "depositJunior",
      "outputs": [],
      "stateMutability": "nonpayable",
      "type": "function"
    },
    {
      "inputs": [
        {
          "internalType": "uint256",
          "name": "amount",
          "type": "uint256"
        },
        {
          "internalType": "address",
          "name": "asset",
          "type": "address"
        }
      ],
      "name": "depositSenior",
      "outputs": [],
      "stateMutability": "nonpayable",
      "type": "function"
    },
    {
      "inputs": [],
      "name": "end",
      "outputs": [
        {
          "internalType": "uint256",
          "name": "",
          "type": "uint256"
        }
      ],
      "stateMutability": "view",
      "type": "function"
    },
    {
      "inputs": [
        {
          "internalType": "address",
          "name": "",
          "type": "address"
        }
      ],
      "name": "juniorCredits",
      "outputs": [
        {
          "internalType": "uint256",
          "name": "",
          "type": "uint256"
        }
      ],
      "stateMutability": "view",
      "type": "function"
    },
    {
      "inputs": [],
      "name": "migrateDeposits",
      "outputs": [],
      "stateMutability": "nonpayable",
      "type": "function"
    },
    {
      "inputs": [],
      "name": "migrated",
      "outputs": [
        {
          "internalType": "bool",
          "name": "",
          "type": "bool"
        }
      ],
      "stateMutability": "view",
      "type": "function"
    },
    {
      "inputs": [
        {
          "internalType": "address",
          "name": "",
          "type": "address"
        }
      ],
      "name": "seniorCredits",
      "outputs": [
        {
          "internalType": "uint256",
          "name": "",
          "type": "uint256"
        }
      ],
      "stateMutability": "view",
      "type": "function"
    },
    {
      "inputs": [
        {
          "internalType": "address",
          "name": "",
          "type": "address"
        }
      ],
      "name": "stablecoinWhitelist",
      "outputs": [
        {
          "internalType": "bool",
          "name": "",
          "type": "bool"
        }
      ],
      "stateMutability": "view",
      "type": "function"
    },
    {
      "inputs": [],
      "name": "start",
      "outputs": [
        {
          "internalType": "uint256",
          "name": "",
          "type": "uint256"
        }
      ],
      "stateMutability": "view",
      "type": "function"
    }
  ],
  "bytecode": {
    "object": "0x60a06040523480156200001157600080fd5b506040516200254c3803806200254c833981016040819052620000349162000179565b818310620000975760405162461bcd60e51b815260206004820152602660248201527f5a69766f6549544f3a3a636f6e7374727563746f722829205f7374617274203e6044820152650f4817d95b9960d21b606482015260840160405180910390fd5b600092835560019182556001600160a01b031660805260036020527f441e47f386d1abf8865df2cb7ba5c4249e128119a8946908f73d644d268dacef805460ff1990811683179091557f75fe5de2e2c86ac08c4b88a5396dc9f5b41d0050d31990a94c7ee83eb193702080548216831790557f37c5eec85d84da1cf053e48828b531c27553684966639a8ba393ecfe725880fd805482168317905573dac17f958d2ee523a2206206994597c13d831ec79092527f82a5f3f697c19feba90e97eb50cf7817270ec4e8adf5c43afb6668e726e6e6718054909216179055620001c1565b6000806000606084860312156200018f57600080fd5b83516020850151604086015191945092506001600160a01b0381168114620001b657600080fd5b809150509250925092565b6080516122dd6200026f6000396000818160e00152818161042201528181610513015281816105f60152818161075f015281816108000152818161087701528181610aee01528181610bf301528181610ec401528181610fda01528181611038015281816113bd015281816114ec0152818161161b0152818161174a015281816118790152818161197101528181611a6901528181611b6101528181611c560152611d2a01526122dd6000f3fe608060405234801561001057600080fd5b50600436106100b45760003560e01c8063a9c2181b11610071578063a9c2181b14610193578063be9a65551461019b578063d1b6dd30146101a4578063dd1db201146101c7578063efbe1c1c146101ea578063ff896ba1146101f357600080fd5b80632c678c64146100b95780633ce8d432146100db578063482f67ac1461011a5780634e71d92d146101485780638097be041461016b5780638a2ba9d214610180575b600080fd5b6002546100c69060ff1681565b60405190151581526020015b60405180910390f35b6101027f000000000000000000000000000000000000000000000000000000000000000081565b6040516001600160a01b0390911681526020016100d2565b61013a610128366004612118565b60056020526000908152604090205481565b6040519081526020016100d2565b610150610213565b604080519384526020840192909252908201526060016100d2565b61017e61017936600461213c565b610905565b005b61017e61018e36600461213c565b610cdb565b61017e611036565b61013a60005481565b6100c66101b2366004612118565b60046020526000908152604090205460ff1681565b6100c66101d5366004612118565b60036020526000908152604090205460ff1681565b61013a60015481565b61013a610201366004612118565b60066020526000908152604090205481565b600080600060015442118061022a575060025460ff165b6102995760405162461bcd60e51b815260206004820152603560248201527f5a69766f6549544f3a3a636c61696d282920626c6f636b2e74696d657374616d6044820152741c080f0f48195b9908098988085b5a59dc985d1959605a1b60648201526084015b60405180910390fd5b3360008181526004602052604090205460ff161561030c5760405162461bcd60e51b815260206004820152602a60248201527f5a69766f6549544f3a3a636c61696d28292061697264726f70436c61696d656460448201526965645b63616c6c65725d60b01b6064820152608401610290565b6001600160a01b03811660009081526006602052604090205415158061034957506001600160a01b03811660009081526005602052604090205415155b6103ce5760405162461bcd60e51b815260206004820152604a60248201527f5a69766f6549544f3a3a636c61696d28292073656e696f72437265646974735b60448201527f63616c6c65725d203d3d2030202626206a756e696f72437265646974735b636160648201526906c6c65725d203d3d20360b41b608482015260a401610290565b6001600160a01b0381166000908152600460209081526040808320805460ff191660011790556006825280832080546005909352908320805491849055839055909161041a8284612182565b90506000600a7f00000000000000000000000000000000000000000000000000000000000000006001600160a01b0316639af6c40e6040518163ffffffff1660e01b8152600401602060405180830381865afa15801561047e573d6000803e3d6000fd5b505050506040513d601f19601f820116820180604052508101906104a2919061219b565b6001600160a01b03166318160ddd6040518163ffffffff1660e01b8152600401602060405180830381865afa1580156104df573d6000803e3d6000fd5b505050506040513d601f19601f8201168201806040525081019061050391906121b8565b61050d91906121d1565b905060007f00000000000000000000000000000000000000000000000000000000000000006001600160a01b0316639699177c6040518163ffffffff1660e01b8152600401602060405180830381865afa15801561056f573d6000803e3d6000fd5b505050506040513d601f19601f82011682018060405250810190610593919061219b565b6001600160a01b03166318160ddd6040518163ffffffff1660e01b8152600401602060405180830381865afa1580156105d0573d6000803e3d6000fd5b505050506040513d601f19601f820116820180604052508101906105f491906121b8565b7f00000000000000000000000000000000000000000000000000000000000000006001600160a01b031663c5f4f7b06040518163ffffffff1660e01b8152600401602060405180830381865afa158015610652573d6000803e3d6000fd5b505050506040513d601f19601f82011682018060405250810190610676919061219b565b6001600160a01b03166318160ddd6040518163ffffffff1660e01b8152600401602060405180830381865afa1580156106b3573d6000803e3d6000fd5b505050506040513d601f19601f820116820180604052508101906106d791906121b8565b6106e29060036121f3565b6106ec9190612182565b90506001600160a01b0386167ffedf0b5680f1b4c33012be9dc9002760386b67e06ee715d4e62ded585fb312ee6107246003886121d1565b868461073087896121f3565b61073a91906121d1565b6040805193845260208401929092529082015260600160405180910390a26107ef86857f00000000000000000000000000000000000000000000000000000000000000006001600160a01b0316639699177c6040518163ffffffff1660e01b8152600401602060405180830381865afa1580156107bb573d6000803e3d6000fd5b505050506040513d601f19601f820116820180604052508101906107df919061219b565b6001600160a01b03169190611dfe565b61085c866107fe6003886121d1565b7f00000000000000000000000000000000000000000000000000000000000000006001600160a01b031663c5f4f7b06040518163ffffffff1660e01b8152600401602060405180830381865afa1580156107bb573d6000803e3d6000fd5b6108d3868261086b85876121f3565b61087591906121d1565b7f00000000000000000000000000000000000000000000000000000000000000006001600160a01b0316639af6c40e6040518163ffffffff1660e01b8152600401602060405180830381865afa1580156107bb573d6000803e3d6000fd5b6108de6003866121d1565b84826108ea85876121f3565b6108f491906121d1565b985098509850505050505050909192565b6000544210156109715760405162461bcd60e51b815260206004820152603160248201527f5a69766f6549544f3a3a6465706f7369744a756e696f72282920626c6f636b2e6044820152701d1a5b595cdd185b5c080f081cdd185c9d607a1b6064820152608401610290565b60015442106109db5760405162461bcd60e51b815260206004820152603060248201527f5a69766f6549544f3a3a6465706f7369744a756e696f72282920626c6f636b2e60448201526f1d1a5b595cdd185b5c080f8f48195b9960821b6064820152608401610290565b60025460ff1615610a395760405162461bcd60e51b815260206004820152602260248201527f5a69766f6549544f3a3a6465706f7369744a756e696f722829206d6967726174604482015261195960f21b6064820152608401610290565b6001600160a01b03811660009081526003602052604090205460ff16610abf5760405162461bcd60e51b815260206004820152603560248201527f5a69766f6549544f3a3a6465706f7369744a756e696f7228292021737461626c60448201527465636f696e57686974656c6973745b61737365745d60581b6064820152608401610290565b60003360405163dc3c1da560e01b8152600481018590526001600160a01b0384811660248301529192506000917f0000000000000000000000000000000000000000000000000000000000000000169063dc3c1da590604401602060405180830381865afa158015610b35573d6000803e3d6000fd5b505050506040513d601f19601f82011682018060405250810190610b5991906121b8565b6001600160a01b038316600090815260056020526040812080549293508392909190610b86908490612182565b909155505060408051858152602081018390529081018290526001600160a01b0380851691908416907f6c52275fad84119b5dfe46d82cd74fbdbb5664009f4cde769c628977e4cf52259060600160405180910390a3610bf16001600160a01b038416833087611e66565b7f00000000000000000000000000000000000000000000000000000000000000006001600160a01b0316639699177c6040518163ffffffff1660e01b8152600401602060405180830381865afa158015610c4f573d6000803e3d6000fd5b505050506040513d601f19601f82011682018060405250810190610c73919061219b565b6040516340c10f1960e01b8152306004820152602481018390526001600160a01b0391909116906340c10f1990604401600060405180830381600087803b158015610cbd57600080fd5b505af1158015610cd1573d6000803e3d6000fd5b5050505050505050565b600054421015610d475760405162461bcd60e51b815260206004820152603160248201527f5a69766f6549544f3a3a6465706f73697453656e696f72282920626c6f636b2e6044820152701d1a5b595cdd185b5c080f081cdd185c9d607a1b6064820152608401610290565b6001544210610db15760405162461bcd60e51b815260206004820152603060248201527f5a69766f6549544f3a3a6465706f73697453656e696f72282920626c6f636b2e60448201526f1d1a5b595cdd185b5c080f8f48195b9960821b6064820152608401610290565b60025460ff1615610e0f5760405162461bcd60e51b815260206004820152602260248201527f5a69766f6549544f3a3a6465706f73697453656e696f722829206d6967726174604482015261195960f21b6064820152608401610290565b6001600160a01b03811660009081526003602052604090205460ff16610e955760405162461bcd60e51b815260206004820152603560248201527f5a69766f6549544f3a3a6465706f73697453656e696f7228292021737461626c60448201527465636f696e57686974656c6973745b61737365745d60581b6064820152608401610290565b60003360405163dc3c1da560e01b8152600481018590526001600160a01b0384811660248301529192506000917f0000000000000000000000000000000000000000000000000000000000000000169063dc3c1da590604401602060405180830381865afa158015610f0b573d6000803e3d6000fd5b505050506040513d601f19601f82011682018060405250810190610f2f91906121b8565b9050610f3c8160036121f3565b6001600160a01b03831660009081526006602052604081208054909190610f64908490612182565b90915550506001600160a01b038084169083167f2d888b2edfcd05d527c440642c72ce96181e9551df85078df0e501801efca17386610fa48560036121f3565b604080519283526020830191909152810185905260600160405180910390a3610fd86001600160a01b038416833087611e66565b7f00000000000000000000000000000000000000000000000000000000000000006001600160a01b031663c5f4f7b06040518163ffffffff1660e01b8152600401602060405180830381865afa158015610c4f573d6000803e3d6000fd5b7f00000000000000000000000000000000000000000000000000000000000000006001600160a01b0316620960456040518163ffffffff1660e01b8152600401602060405180830381865afa158015611093573d6000803e3d6000fd5b505050506040513d601f19601f820116820180604052508101906110b7919061219b565b6001600160a01b0316336001600160a01b03161461113b57600154421161113b5760405162461bcd60e51b815260206004820152603260248201527f5a69766f6549544f3a3a6d6967726174654465706f73697473282920626c6f636044820152711acb9d1a5b595cdd185b5c080f0f48195b9960721b6064820152608401610290565b60025460ff161561119a5760405162461bcd60e51b8152602060048201526024808201527f5a69766f6549544f3a3a6d6967726174654465706f736974732829206d696772604482015263185d195960e21b6064820152608401610290565b6002805460ff191660011790556040516370a0823160e01b81523060048201527f7e12ec6e3cb4b1968f710d8b1b28e1226ace53ef2fcf769d666f9bc27d39a24690736b175474e89094c44da98b954eedeac495271d0f906370a0823190602401602060405180830381865afa158015611218573d6000803e3d6000fd5b505050506040513d601f19601f8201168201806040525081019061123c91906121b8565b6040516370a0823160e01b815230600482015273853d955acef822db058eb8505911ed77f175b99e906370a0823190602401602060405180830381865afa15801561128b573d6000803e3d6000fd5b505050506040513d601f19601f820116820180604052508101906112af91906121b8565b6040516370a0823160e01b815230600482015273a0b86991c6218b36c1d19d4a2e9eb0ce3606eb48906370a0823190602401602060405180830381865afa1580156112fe573d6000803e3d6000fd5b505050506040513d601f19601f8201168201806040525081019061132291906121b8565b6040516370a0823160e01b815230600482015273dac17f958d2ee523a2206206994597c13d831ec7906370a0823190602401602060405180830381865afa158015611371573d6000803e3d6000fd5b505050506040513d601f19601f8201168201806040525081019061139591906121b8565b60408051948552602085019390935291830152606082015260800160405180910390a16114e77f00000000000000000000000000000000000000000000000000000000000000006001600160a01b0316620960456040518163ffffffff1660e01b8152600401602060405180830381865afa158015611418573d6000803e3d6000fd5b505050506040513d601f19601f8201168201806040525081019061143c919061219b565b6040516370a0823160e01b8152306004820152612710906103e890736b175474e89094c44da98b954eedeac495271d0f906370a0823190602401602060405180830381865afa158015611493573d6000803e3d6000fd5b505050506040513d601f19601f820116820180604052508101906114b791906121b8565b6114c191906121f3565b6114cb91906121d1565b736b175474e89094c44da98b954eedeac495271d0f9190611dfe565b6116167f00000000000000000000000000000000000000000000000000000000000000006001600160a01b0316620960456040518163ffffffff1660e01b8152600401602060405180830381865afa158015611547573d6000803e3d6000fd5b505050506040513d601f19601f8201168201806040525081019061156b919061219b565b6040516370a0823160e01b8152306004820152612710906103e89073853d955acef822db058eb8505911ed77f175b99e906370a0823190602401602060405180830381865afa1580156115c2573d6000803e3d6000fd5b505050506040513d601f19601f820116820180604052508101906115e691906121b8565b6115f091906121f3565b6115fa91906121d1565b73853d955acef822db058eb8505911ed77f175b99e9190611dfe565b6117457f00000000000000000000000000000000000000000000000000000000000000006001600160a01b0316620960456040518163ffffffff1660e01b8152600401602060405180830381865afa158015611676573d6000803e3d6000fd5b505050506040513d601f19601f8201168201806040525081019061169a919061219b565b6040516370a0823160e01b8152306004820152612710906103e89073a0b86991c6218b36c1d19d4a2e9eb0ce3606eb48906370a0823190602401602060405180830381865afa1580156116f1573d6000803e3d6000fd5b505050506040513d601f19601f8201168201806040525081019061171591906121b8565b61171f91906121f3565b61172991906121d1565b73a0b86991c6218b36c1d19d4a2e9eb0ce3606eb489190611dfe565b6118747f00000000000000000000000000000000000000000000000000000000000000006001600160a01b0316620960456040518163ffffffff1660e01b8152600401602060405180830381865afa1580156117a5573d6000803e3d6000fd5b505050506040513d601f19601f820116820180604052508101906117c9919061219b565b6040516370a0823160e01b8152306004820152612710906103e89073dac17f958d2ee523a2206206994597c13d831ec7906370a0823190602401602060405180830381865afa158015611820573d6000803e3d6000fd5b505050506040513d601f19601f8201168201806040525081019061184491906121b8565b61184e91906121f3565b61185891906121d1565b73dac17f958d2ee523a2206206994597c13d831ec79190611dfe565b61196c7f00000000000000000000000000000000000000000000000000000000000000006001600160a01b03166398fabd3a6040518163ffffffff1660e01b8152600401602060405180830381865afa1580156118d5573d6000803e3d6000fd5b505050506040513d601f19601f820116820180604052508101906118f9919061219b565b6040516370a0823160e01b8152306004820152736b175474e89094c44da98b954eedeac495271d0f906370a0823190602401602060405180830381865afa158015611948573d6000803e3d6000fd5b505050506040513d601f19601f820116820180604052508101906114cb91906121b8565b611a647f00000000000000000000000000000000000000000000000000000000000000006001600160a01b03166398fabd3a6040518163ffffffff1660e01b8152600401602060405180830381865afa1580156119cd573d6000803e3d6000fd5b505050506040513d601f19601f820116820180604052508101906119f1919061219b565b6040516370a0823160e01b815230600482015273853d955acef822db058eb8505911ed77f175b99e906370a0823190602401602060405180830381865afa158015611a40573d6000803e3d6000fd5b505050506040513d601f19601f820116820180604052508101906115fa91906121b8565b611b5c7f00000000000000000000000000000000000000000000000000000000000000006001600160a01b03166398fabd3a6040518163ffffffff1660e01b8152600401602060405180830381865afa158015611ac5573d6000803e3d6000fd5b505050506040513d601f19601f82011682018060405250810190611ae9919061219b565b6040516370a0823160e01b815230600482015273a0b86991c6218b36c1d19d4a2e9eb0ce3606eb48906370a0823190602401602060405180830381865afa158015611b38573d6000803e3d6000fd5b505050506040513d601f19601f8201168201806040525081019061172991906121b8565b611c547f00000000000000000000000000000000000000000000000000000000000000006001600160a01b03166398fabd3a6040518163ffffffff1660e01b8152600401602060405180830381865afa158015611bbd573d6000803e3d6000fd5b505050506040513d601f19601f82011682018060405250810190611be1919061219b565b6040516370a0823160e01b815230600482015273dac17f958d2ee523a2206206994597c13d831ec7906370a0823190602401602060405180830381865afa158015611c30573d6000803e3d6000fd5b505050506040513d601f19601f8201168201806040525081019061185891906121b8565b7f00000000000000000000000000000000000000000000000000000000000000006001600160a01b03166372d6724a6040518163ffffffff1660e01b8152600401602060405180830381865afa158015611cb2573d6000803e3d6000fd5b505050506040513d601f19601f82011682018060405250810190611cd6919061219b565b6001600160a01b031663a69df4b56040518163ffffffff1660e01b8152600401600060405180830381600087803b158015611d1057600080fd5b505af1158015611d24573d6000803e3d6000fd5b505050507f00000000000000000000000000000000000000000000000000000000000000006001600160a01b0316638aa256526040518163ffffffff1660e01b8152600401602060405180830381865afa158015611d86573d6000803e3d6000fd5b505050506040513d601f19601f82011682018060405250810190611daa919061219b565b6001600160a01b031663a69df4b56040518163ffffffff1660e01b8152600401600060405180830381600087803b158015611de457600080fd5b505af1158015611df8573d6000803e3d6000fd5b50505050565b6040516001600160a01b038316602482015260448101829052611e6190849063a9059cbb60e01b906064015b60408051601f198184030181529190526020810180516001600160e01b03166001600160e01b031990931692909217909152611e9e565b505050565b6040516001600160a01b0380851660248301528316604482015260648101829052611df89085906323b872dd60e01b90608401611e2a565b6000611ef3826040518060400160405280602081526020017f5361666545524332303a206c6f772d6c6576656c2063616c6c206661696c6564815250856001600160a01b0316611f709092919063ffffffff16565b805190915015611e615780806020019051810190611f119190612212565b611e615760405162461bcd60e51b815260206004820152602a60248201527f5361666545524332303a204552433230206f7065726174696f6e20646964206e6044820152691bdd081cdd58d8d9595960b21b6064820152608401610290565b6060611f7f8484600085611f87565b949350505050565b606082471015611fe85760405162461bcd60e51b815260206004820152602660248201527f416464726573733a20696e73756666696369656e742062616c616e636520666f6044820152651c8818d85b1b60d21b6064820152608401610290565b600080866001600160a01b031685876040516120049190612258565b60006040518083038185875af1925050503d8060008114612041576040519150601f19603f3d011682016040523d82523d6000602084013e612046565b606091505b509150915061205787838387612062565b979650505050505050565b606083156120d15782516000036120ca576001600160a01b0385163b6120ca5760405162461bcd60e51b815260206004820152601d60248201527f416464726573733a2063616c6c20746f206e6f6e2d636f6e74726163740000006044820152606401610290565b5081611f7f565b611f7f83838151156120e65781518083602001fd5b8060405162461bcd60e51b81526004016102909190612274565b6001600160a01b038116811461211557600080fd5b50565b60006020828403121561212a57600080fd5b813561213581612100565b9392505050565b6000806040838503121561214f57600080fd5b82359150602083013561216181612100565b809150509250929050565b634e487b7160e01b600052601160045260246000fd5b808201808211156121955761219561216c565b92915050565b6000602082840312156121ad57600080fd5b815161213581612100565b6000602082840312156121ca57600080fd5b5051919050565b6000826121ee57634e487b7160e01b600052601260045260246000fd5b500490565b600081600019048311821515161561220d5761220d61216c565b500290565b60006020828403121561222457600080fd5b8151801515811461213557600080fd5b60005b8381101561224f578181015183820152602001612237565b50506000910152565b6000825161226a818460208701612234565b9190910192915050565b6020815260008251806020840152612293816040850160208701612234565b601f01601f1916919091016040019291505056fea26469706673582212201e4cfc23ad3ab4bfe002fc8e211ccfc5ce370c6490cde38e60aa50007cbbfde464736f6c63430008100033",
    "linkReferences": {}
  },
  "methodIdentifiers": {
    "GBL()": "3ce8d432",
    "airdropClaimed(address)": "d1b6dd30",
    "claim()": "4e71d92d",
    "depositJunior(uint256,address)": "8097be04",
    "depositSenior(uint256,address)": "8a2ba9d2",
    "end()": "efbe1c1c",
    "juniorCredits(address)": "482f67ac",
    "migrateDeposits()": "a9c2181b",
    "migrated()": "2c678c64",
    "seniorCredits(address)": "ff896ba1",
    "stablecoinWhitelist(address)": "dd1db201",
    "start()": "be9a6555"
  },
  "id": 54
}