{
  "abi": [
    {
      "inputs": [
        {
          "internalType": "address",
          "name": "_GBL",
          "type": "address"
        },
        {
          "internalType": "address",
          "name": "_distributedAsset",
          "type": "address"
        }
      ],
      "stateMutability": "nonpayable",
      "type": "constructor"
    },
    {
      "anonymous": false,
      "inputs": [
        {
          "indexed": true,
          "internalType": "address",
          "name": "asset",
          "type": "address"
        },
        {
          "indexed": false,
          "internalType": "uint256",
          "name": "amount",
          "type": "uint256"
        }
      ],
      "name": "AssetRecovered",
      "type": "event"
    },
    {
      "anonymous": false,
      "inputs": [
        {
          "indexed": true,
          "internalType": "address",
          "name": "previousOwner",
          "type": "address"
        },
        {
          "indexed": true,
          "internalType": "address",
          "name": "newOwner",
          "type": "address"
        }
      ],
      "name": "OwnershipTransferred",
      "type": "event"
    },
    {
      "anonymous": false,
      "inputs": [
        {
          "indexed": true,
          "internalType": "address",
          "name": "oldAsset",
          "type": "address"
        },
        {
          "indexed": true,
          "internalType": "address",
          "name": "newAsset",
          "type": "address"
        }
      ],
      "name": "UpdatedDistributedAsset",
      "type": "event"
    },
    {
      "anonymous": false,
      "inputs": [
        {
          "indexed": false,
          "internalType": "uint256",
          "name": "oldValue",
          "type": "uint256"
        },
        {
          "indexed": false,
          "internalType": "uint256",
          "name": "newValue",
          "type": "uint256"
        }
      ],
      "name": "UpdatedProtocolEarningsRateBIPS",
      "type": "event"
    },
    {
      "anonymous": false,
      "inputs": [
        {
          "indexed": false,
          "internalType": "address[]",
          "name": "recipients",
          "type": "address[]"
        },
        {
          "indexed": false,
          "internalType": "uint256[]",
          "name": "proportion",
          "type": "uint256[]"
        }
      ],
      "name": "UpdatedProtocolRecipients",
      "type": "event"
    },
    {
      "anonymous": false,
      "inputs": [
        {
          "indexed": false,
          "internalType": "address[]",
          "name": "recipients",
          "type": "address[]"
        },
        {
          "indexed": false,
          "internalType": "uint256[]",
          "name": "proportion",
          "type": "uint256[]"
        }
      ],
      "name": "UpdatedResidualRecipients",
      "type": "event"
    },
    {
      "anonymous": false,
      "inputs": [
        {
          "indexed": false,
          "internalType": "uint256",
          "name": "oldValue",
          "type": "uint256"
        },
        {
          "indexed": false,
          "internalType": "uint256",
          "name": "newValue",
          "type": "uint256"
        }
      ],
      "name": "UpdatedTargetAPYBIPS",
      "type": "event"
    },
    {
      "anonymous": false,
      "inputs": [
        {
          "indexed": false,
          "internalType": "uint256",
          "name": "oldValue",
          "type": "uint256"
        },
        {
          "indexed": false,
          "internalType": "uint256",
          "name": "newValue",
          "type": "uint256"
        }
      ],
      "name": "UpdatedTargetRatioBIPS",
      "type": "event"
    },
    {
      "anonymous": false,
      "inputs": [
        {
          "indexed": false,
          "internalType": "uint256[]",
          "name": "protocol",
          "type": "uint256[]"
        },
        {
          "indexed": false,
          "internalType": "uint256",
          "name": "senior",
          "type": "uint256"
        },
        {
          "indexed": false,
          "internalType": "uint256",
          "name": "junior",
          "type": "uint256"
        },
        {
          "indexed": false,
          "internalType": "uint256[]",
          "name": "residual",
          "type": "uint256[]"
        }
      ],
      "name": "YieldDistributed",
      "type": "event"
    },
    {
      "anonymous": false,
      "inputs": [
        {
          "indexed": true,
          "internalType": "address",
          "name": "asset",
          "type": "address"
        },
        {
          "indexed": true,
          "internalType": "address",
          "name": "recipient",
          "type": "address"
        },
        {
          "indexed": false,
          "internalType": "uint256",
          "name": "amount",
          "type": "uint256"
        }
      ],
      "name": "YieldDistributedSingle",
      "type": "event"
    },
    {
      "anonymous": false,
      "inputs": [
        {
          "indexed": false,
          "internalType": "uint256",
          "name": "senior",
          "type": "uint256"
        },
        {
          "indexed": false,
          "internalType": "uint256",
          "name": "junior",
          "type": "uint256"
        }
      ],
      "name": "YieldSupplemented",
      "type": "event"
    },
    {
      "inputs": [],
      "name": "GBL",
      "outputs": [
        {
          "internalType": "address",
          "name": "",
          "type": "address"
        }
      ],
      "stateMutability": "view",
      "type": "function"
    },
    {
      "inputs": [],
      "name": "daysBetweenDistributions",
      "outputs": [
        {
          "internalType": "uint256",
          "name": "",
          "type": "uint256"
        }
      ],
      "stateMutability": "view",
      "type": "function"
    },
    {
      "inputs": [],
      "name": "distributeYield",
      "outputs": [],
      "stateMutability": "nonpayable",
      "type": "function"
    },
    {
      "inputs": [],
      "name": "distributedAsset",
      "outputs": [
        {
          "internalType": "address",
          "name": "",
          "type": "address"
        }
      ],
      "stateMutability": "view",
      "type": "function"
    },
    {
      "inputs": [
        {
          "internalType": "uint256",
          "name": "seniorTrancheSize",
          "type": "uint256"
        },
        {
          "internalType": "uint256",
          "name": "juniorTrancheSize",
          "type": "uint256"
        }
      ],
      "name": "earningsTrancheuse",
      "outputs": [
        {
          "internalType": "uint256[]",
          "name": "protocol",
          "type": "uint256[]"
        },
        {
          "internalType": "uint256",
          "name": "senior",
          "type": "uint256"
        },
        {
          "internalType": "uint256",
          "name": "junior",
          "type": "uint256"
        },
        {
          "internalType": "uint256[]",
          "name": "residual",
          "type": "uint256[]"
        }
      ],
      "stateMutability": "view",
      "type": "function"
    },
    {
      "inputs": [
        {
          "internalType": "uint256",
          "name": "avg",
          "type": "uint256"
        },
        {
          "internalType": "uint256",
          "name": "newval",
          "type": "uint256"
        },
        {
          "internalType": "uint256",
          "name": "N",
          "type": "uint256"
        },
        {
          "internalType": "uint256",
          "name": "t",
          "type": "uint256"
        }
      ],
      "name": "ema",
      "outputs": [
        {
          "internalType": "uint256",
          "name": "nextavg",
          "type": "uint256"
        }
      ],
      "stateMutability": "pure",
      "type": "function"
    },
    {
      "inputs": [],
      "name": "emaJTT",
      "outputs": [
        {
          "internalType": "uint256",
          "name": "",
          "type": "uint256"
        }
      ],
      "stateMutability": "view",
      "type": "function"
    },
    {
      "inputs": [],
      "name": "emaSTT",
      "outputs": [
        {
          "internalType": "uint256",
          "name": "",
          "type": "uint256"
        }
      ],
      "stateMutability": "view",
      "type": "function"
    },
    {
      "inputs": [],
      "name": "emaYield",
      "outputs": [
        {
          "internalType": "uint256",
          "name": "",
          "type": "uint256"
        }
      ],
      "stateMutability": "view",
      "type": "function"
    },
    {
      "inputs": [],
      "name": "lastDistribution",
      "outputs": [
        {
          "internalType": "uint256",
          "name": "",
          "type": "uint256"
        }
      ],
      "stateMutability": "view",
      "type": "function"
    },
    {
      "inputs": [],
      "name": "numDistributions",
      "outputs": [
        {
          "internalType": "uint256",
          "name": "",
          "type": "uint256"
        }
      ],
      "stateMutability": "view",
      "type": "function"
    },
    {
      "inputs": [],
      "name": "owner",
      "outputs": [
        {
          "internalType": "address",
          "name": "",
          "type": "address"
        }
      ],
      "stateMutability": "view",
      "type": "function"
    },
    {
      "inputs": [],
      "name": "protocolEarningsRateBIPS",
      "outputs": [
        {
          "internalType": "uint256",
          "name": "",
          "type": "uint256"
        }
      ],
      "stateMutability": "view",
      "type": "function"
    },
    {
      "inputs": [
        {
          "internalType": "uint256",
          "name": "sSTT",
          "type": "uint256"
        },
        {
          "internalType": "uint256",
          "name": "sJTT",
          "type": "uint256"
        },
        {
          "internalType": "uint256",
          "name": "Y",
          "type": "uint256"
        },
        {
          "internalType": "uint256",
          "name": "Q",
          "type": "uint256"
        }
      ],
      "name": "rateJunior_RAY",
      "outputs": [
        {
          "internalType": "uint256",
          "name": "rateJunior",
          "type": "uint256"
        }
      ],
      "stateMutability": "pure",
      "type": "function"
    },
    {
      "inputs": [
        {
          "internalType": "uint256",
          "name": "postFeeYield",
          "type": "uint256"
        },
        {
          "internalType": "uint256",
          "name": "sSTT",
          "type": "uint256"
        },
        {
          "internalType": "uint256",
          "name": "sJTT",
          "type": "uint256"
        },
        {
          "internalType": "uint256",
          "name": "Y",
          "type": "uint256"
        },
        {
          "internalType": "uint256",
          "name": "Q",
          "type": "uint256"
        },
        {
          "internalType": "uint256",
          "name": "T",
          "type": "uint256"
        },
        {
          "internalType": "uint256",
          "name": "R",
          "type": "uint256"
        }
      ],
      "name": "rateSenior_RAY",
      "outputs": [
        {
          "internalType": "uint256",
          "name": "rateSenior",
          "type": "uint256"
        }
      ],
      "stateMutability": "view",
      "type": "function"
    },
    {
      "inputs": [
        {
          "internalType": "address",
          "name": "asset",
          "type": "address"
        }
      ],
      "name": "recoverAsset",
      "outputs": [],
      "stateMutability": "nonpayable",
      "type": "function"
    },
    {
      "inputs": [],
      "name": "renounceOwnership",
      "outputs": [],
      "stateMutability": "nonpayable",
      "type": "function"
    },
    {
      "inputs": [],
      "name": "retrospectiveDistributions",
      "outputs": [
        {
          "internalType": "uint256",
          "name": "",
          "type": "uint256"
        }
      ],
      "stateMutability": "view",
      "type": "function"
    },
    {
      "inputs": [
        {
          "internalType": "uint256",
          "name": "postFeeYield",
          "type": "uint256"
        },
        {
          "internalType": "uint256",
          "name": "yT",
          "type": "uint256"
        },
        {
          "internalType": "uint256",
          "name": "sSTT",
          "type": "uint256"
        },
        {
          "internalType": "uint256",
          "name": "sJTT",
          "type": "uint256"
        },
        {
          "internalType": "uint256",
          "name": "R",
          "type": "uint256"
        },
        {
          "internalType": "uint256",
          "name": "Q",
          "type": "uint256"
        }
      ],
      "name": "seniorRateCatchup_RAY",
      "outputs": [
        {
          "internalType": "uint256",
          "name": "seniorRateCatchup",
          "type": "uint256"
        }
      ],
      "stateMutability": "view",
      "type": "function"
    },
    {
      "inputs": [
        {
          "internalType": "uint256",
          "name": "postFeeYield",
          "type": "uint256"
        },
        {
          "internalType": "uint256",
          "name": "sSTT",
          "type": "uint256"
        },
        {
          "internalType": "uint256",
          "name": "Y",
          "type": "uint256"
        },
        {
          "internalType": "uint256",
          "name": "T",
          "type": "uint256"
        }
      ],
      "name": "seniorRateNominal_RAY",
      "outputs": [
        {
          "internalType": "uint256",
          "name": "seniorRateNominal",
          "type": "uint256"
        }
      ],
      "stateMutability": "pure",
      "type": "function"
    },
    {
      "inputs": [
        {
          "internalType": "uint256",
          "name": "sSTT",
          "type": "uint256"
        },
        {
          "internalType": "uint256",
          "name": "sJTT",
          "type": "uint256"
        },
        {
          "internalType": "uint256",
          "name": "Q",
          "type": "uint256"
        }
      ],
      "name": "seniorRateShortfall_RAY",
      "outputs": [
        {
          "internalType": "uint256",
          "name": "seniorRateShortfall",
          "type": "uint256"
        }
      ],
      "stateMutability": "pure",
      "type": "function"
    },
    {
      "inputs": [
        {
          "internalType": "address",
          "name": "_distributedAsset",
          "type": "address"
        }
      ],
      "name": "setDistributedAsset",
      "outputs": [],
      "stateMutability": "nonpayable",
      "type": "function"
    },
    {
      "inputs": [
        {
          "internalType": "uint256",
          "name": "_protocolEarningsRateBIPS",
          "type": "uint256"
        }
      ],
      "name": "setProtocolEarningsRateBIPS",
      "outputs": [],
      "stateMutability": "nonpayable",
      "type": "function"
    },
    {
      "inputs": [
        {
          "internalType": "uint256",
          "name": "_targetAPYBIPS",
          "type": "uint256"
        }
      ],
      "name": "setTargetAPYBIPS",
      "outputs": [],
      "stateMutability": "nonpayable",
      "type": "function"
    },
    {
      "inputs": [
        {
          "internalType": "uint256",
          "name": "_targetRatioBIPS",
          "type": "uint256"
        }
      ],
      "name": "setTargetRatioBIPS",
      "outputs": [],
      "stateMutability": "nonpayable",
      "type": "function"
    },
    {
      "inputs": [
        {
          "internalType": "uint256",
          "name": "amount",
          "type": "uint256"
        }
      ],
      "name": "supplementYield",
      "outputs": [],
      "stateMutability": "nonpayable",
      "type": "function"
    },
    {
      "inputs": [],
      "name": "targetAPYBIPS",
      "outputs": [
        {
          "internalType": "uint256",
          "name": "",
          "type": "uint256"
        }
      ],
      "stateMutability": "view",
      "type": "function"
    },
    {
      "inputs": [],
      "name": "targetRatioBIPS",
      "outputs": [
        {
          "internalType": "uint256",
          "name": "",
          "type": "uint256"
        }
      ],
      "stateMutability": "view",
      "type": "function"
    },
    {
      "inputs": [
        {
          "internalType": "address",
          "name": "newOwner",
          "type": "address"
        }
      ],
      "name": "transferOwnership",
      "outputs": [],
      "stateMutability": "nonpayable",
      "type": "function"
    },
    {
      "inputs": [],
      "name": "unlock",
      "outputs": [],
      "stateMutability": "nonpayable",
      "type": "function"
    },
    {
      "inputs": [],
      "name": "unlocked",
      "outputs": [
        {
          "internalType": "bool",
          "name": "",
          "type": "bool"
        }
      ],
      "stateMutability": "view",
      "type": "function"
    },
    {
      "inputs": [
        {
          "internalType": "address[]",
          "name": "recipients",
          "type": "address[]"
        },
        {
          "internalType": "uint256[]",
          "name": "proportions",
          "type": "uint256[]"
        }
      ],
      "name": "updateProtocolRecipients",
      "outputs": [],
      "stateMutability": "nonpayable",
      "type": "function"
    },
    {
      "inputs": [
        {
          "internalType": "address[]",
          "name": "recipients",
          "type": "address[]"
        },
        {
          "internalType": "uint256[]",
          "name": "proportions",
          "type": "uint256[]"
        }
      ],
      "name": "updateResidualRecipients",
      "outputs": [],
      "stateMutability": "nonpayable",
      "type": "function"
    },
    {
      "inputs": [],
      "name": "viewDistributions",
      "outputs": [
        {
          "internalType": "address[]",
          "name": "protocolEarningsRecipients",
          "type": "address[]"
        },
        {
          "internalType": "uint256[]",
          "name": "protocolEarningsProportion",
          "type": "uint256[]"
        },
        {
          "internalType": "address[]",
          "name": "residualEarningsRecipients",
          "type": "address[]"
        },
        {
          "internalType": "uint256[]",
          "name": "residualEarningsProportion",
          "type": "uint256[]"
        }
      ],
      "stateMutability": "view",
      "type": "function"
    },
    {
      "inputs": [
        {
          "internalType": "uint256",
          "name": "sSTT",
          "type": "uint256"
        },
        {
          "internalType": "uint256",
          "name": "sJTT",
          "type": "uint256"
        },
        {
          "internalType": "uint256",
          "name": "Y",
          "type": "uint256"
        },
        {
          "internalType": "uint256",
          "name": "Q",
          "type": "uint256"
        },
        {
          "internalType": "uint256",
          "name": "T",
          "type": "uint256"
        }
      ],
      "name": "yieldTarget",
      "outputs": [
        {
          "internalType": "uint256",
          "name": "",
          "type": "uint256"
        }
      ],
      "stateMutability": "pure",
      "type": "function"
    }
  ],
  "bytecode": {
    "object": "0x60a0604052610320600b55613f7a600c556107d0600d55601e600e556006600f553480156200002d57600080fd5b5060405162005b9a38038062005b9a8339810160408190526200005091620000f1565b6200005b3362000084565b6001600160a01b03918216608052600580546001600160a01b0319169190921617905562000129565b600080546001600160a01b038381166001600160a01b0319831681178455604051919092169283917f8be0079c531659141344cd1fd0a4f28419497f9722a3daafe3b4186f6b6457e09190a35050565b80516001600160a01b0381168114620000ec57600080fd5b919050565b600080604083850312156200010557600080fd5b6200011083620000d4565b91506200012060208401620000d4565b90509250929050565b6080516158cd620002cd6000396000818161029d015281816104910152818161093d01528181610a5a01528181610b9c01528181610fb60152818161111d0152818161123c015281816112d401528181611369015281816114500152818161153e0152818161195301528181611af601528181611be401528181611c8001528181611e2e01528181611eca01528181611fad0152818161209d0152818161219901528181612263015281816123040152818161242b0152818161254d01528181612649015281816127dc01528181612874015281816128d2015281816129b901528181612aa001528181612b5601528181612c7301528181612d0f01528181612e9f01528181612f3b0152818161301e0152818161310e0152818161320a015281816132a5015281816133460152818161346d0152818161358f0152818161368b015281816138060152818161393d01528181613a1501528181613b4001528181613c1701528181613d8501528181613e5c01528181613f330152818161400a015281816142bc01528181614573015281816146ff015261494801526158cd6000f3fe608060405234801561001057600080fd5b50600436106102115760003560e01c80638a570a1211610125578063c3de90bf116100ad578063d8992f3d1161007c578063d8992f3d14610444578063e3bdf02e1461044d578063e68c728914610460578063f2fde38b14610469578063f9aadfdd1461047c57600080fd5b8063c3de90bf1461040c578063c78f912a1461041f578063c81a176614610428578063d4fc434e1461043157600080fd5b8063a8e60c99116100f4578063a8e60c99146103b1578063ab314e86146103d4578063b25695d3146103e7578063b9f54344146103fa578063c2e63afa1461040357600080fd5b80638a570a12146103875780638da5cb5b1461038f578063a69df4b5146103a0578063a717639c146103a857600080fd5b806344be3e7c116101a8578063671dbb3f11610177578063671dbb3f14610322578063679cc45f146103355780636a5e265014610348578063715018a61461036c578063782afa2e1461037457600080fd5b806344be3e7c146102e057806349667afa146102f35780635df8d168146103065780636635e82c1461031957600080fd5b806336b774a2116101e457806336b774a21461026d57806337d20fff146102855780633ce8d432146102985780634472287e146102d757600080fd5b806307061b94146102165780631792e0551461023257806323d82416146102475780632ef7abd11461025a575b600080fd5b61021f600f5481565b6040519081526020015b60405180910390f35b61024561024036600461530b565b61048f565b005b61021f6102553660046153cd565b610843565b6102456102683660046153ff565b6108a9565b610275610cbd565b6040516102299493929190615490565b6102456102933660046153ff565b610e37565b6102bf7f000000000000000000000000000000000000000000000000000000000000000081565b6040516001600160a01b039091168152602001610229565b61021f60095481565b6102456102ee3660046154dd565b6110b2565b6102456103013660046154dd565b61153c565b6005546102bf906001600160a01b031681565b61021f600b5481565b61021f6103303660046154f6565b61167c565b61021f610343366004615522565b6116e3565b60055461035c90600160a01b900460ff1681565b6040519015158152602001610229565b6102456117b7565b61021f610382366004615565565b6117cb565b610245611825565b6000546001600160a01b03166102bf565b610245613804565b61021f600a5481565b6103c46103bf3660046155a0565b61412b565b60405161022994939291906155c2565b61021f6103e23660046153cd565b614476565b61021f6103f53660046155f3565b61450e565b61021f600e5481565b61021f600c5481565b61024561041a3660046154dd565b614571565b61021f60065481565b61021f60075481565b61021f61043f3660046153cd565b6146af565b61021f60085481565b61024561045b3660046154dd565b6146fd565b61021f600d5481565b6102456104773660046153ff565b6148d0565b61024561048a36600461530b565b614946565b7f00000000000000000000000000000000000000000000000000000000000000006001600160a01b031663c76d41c86040518163ffffffff1660e01b8152600401602060405180830381865afa1580156104ed573d6000803e3d6000fd5b505050506040513d601f19601f82011682018060405250810190610511919061563f565b6001600160a01b0316336001600160a01b03161461058a5760405162461bcd60e51b815260206004820152603a602482015260008051602061585883398151915260448201527f74732829205f6d736753656e646572282920213d20544c43282900000000000060648201526084015b60405180910390fd5b8051825114801561059c575060008251115b6106315760405162461bcd60e51b8152602060048201526066602482015260008051602061585883398151915260448201527f7473282920726563697069656e74732e6c656e67746820213d2070726f706f7260648201527f74696f6e732e6c656e677468207c7c20726563697069656e74732e6c656e6774608482015265068203d3d20360d41b60a482015260c401610581565b600554600160a01b900460ff1661068f5760405162461bcd60e51b815260206004820152602e602482015260008051602061585883398151915260448201526d1d1cca0a48085d5b9b1bd8dad95960921b6064820152608401610581565b6000805b835181101561074d578281815181106106ae576106ae61565c565b6020026020010151826106c19190615688565b915060008382815181106106d7576106d761565c565b60200260200101511161073b5760405162461bcd60e51b815260206004820152603860248201526000805160206158588339815191526044820152770747328292070726f706f7274696f6e735b695d203d3d20360441b6064820152608401610581565b806107458161569b565b915050610693565b5061271081146107c15760405162461bcd60e51b8152602060048201526045602482015260008051602061585883398151915260448201527f747328292070726f706f7274696f6e546f74616c20213d2042495053202831306064820152642c3030302960d81b608482015260a401610581565b7fb11a4b2b83a8e60adf2dadcbb51133b2ab7ce63ea9dc74f0621a7dcd41a578c383836040516107f29291906156b4565b60405180910390a1604080518082019091528381526020808201849052845160019161082291839188019061516b565b50602082810151805161083b92600185019201906151d0565b505050505050565b600061089e676765c793fa10079d601b1b6108988761016f612710878a61086a8b886156e2565b61087491906156e2565b61087e91906156e2565b6108889190615717565b6108929190615717565b90614cd4565b90614d0f565b90505b949350505050565b6005546001600160a01b039081169082160361093b5760405162461bcd60e51b815260206004820152604560248201527f5a69766f6559444c3a3a7365744469737472696275746564417373657428292060448201527f5f64697374726962757465644173736574203d3d206469737472696275746564606482015264105cdcd95d60da1b608482015260a401610581565b7f00000000000000000000000000000000000000000000000000000000000000006001600160a01b031663c76d41c86040518163ffffffff1660e01b8152600401602060405180830381865afa158015610999573d6000803e3d6000fd5b505050506040513d601f19601f820116820180604052508101906109bd919061563f565b6001600160a01b0316336001600160a01b031614610a3b5760405162461bcd60e51b815260206004820152603560248201527f5a69766f6559444c3a3a736574446973747269627574656441737365742829206044820152745f6d736753656e646572282920213d20544c43282960581b6064820152608401610581565b60405163dd1db20160e01b81526001600160a01b0382811660048301527f0000000000000000000000000000000000000000000000000000000000000000169063dd1db20190602401602060405180830381865afa158015610aa1573d6000803e3d6000fd5b505050506040513d601f19601f82011682018060405250810190610ac59190615739565b610b5d5760405162461bcd60e51b815260206004820152605e60248201527f5a69766f6559444c3a3a7365744469737472696275746564417373657428292060448201527f21495a69766f65476c6f62616c735f59444c2847424c292e737461626c65636f60648201527f696e57686974656c697374285f64697374726962757465644173736574290000608482015260a401610581565b6005546040516001600160a01b038084169216907f76e11df14bab23221508ffe147fedc0fe05ee9bea25dc226aba71fe59992b52d90600090a3610c9b7f00000000000000000000000000000000000000000000000000000000000000006001600160a01b03166398fabd3a6040518163ffffffff1660e01b8152600401602060405180830381865afa158015610bf8573d6000803e3d6000fd5b505050506040513d601f19601f82011682018060405250810190610c1c919061563f565b6005546040516370a0823160e01b81523060048201526001600160a01b03909116906370a0823190602401602060405180830381865afa158015610c64573d6000803e3d6000fd5b505050506040513d601f19601f82011682018060405250810190610c88919061575b565b6005546001600160a01b03169190614d27565b600580546001600160a01b0319166001600160a01b0392909216919091179055565b6001805460408051602080840282018101909252828152606093849384938493600292600392600492918691830182828015610d2257602002820191906000526020600020905b81546001600160a01b03168152600190910190602001808311610d04575b5050505050935082805480602002602001604051908101604052809291908181526020018280548015610d7457602002820191906000526020600020905b815481526020019060010190808311610d60575b5050505050925081805480602002602001604051908101604052809291908181526020018280548015610dd057602002820191906000526020600020905b81546001600160a01b03168152600190910190602001808311610db2575b5050505050915080805480602002602001604051908101604052809291908181526020018280548015610e2257602002820191906000526020600020905b815481526020019060010190808311610e0e575b50505050509050935093509350935090919293565b600554600160a01b900460ff16610e9b5760405162461bcd60e51b815260206004820152602260248201527f5a69766f6559444c3a3a7265636f766572417373657428292021756e6c6f636b604482015261195960f21b6064820152608401610581565b6005546001600160a01b0390811690821603610f145760405162461bcd60e51b815260206004820152603260248201527f5a69766f6559444c3a3a7265636f76657241737365742829206173736574203d6044820152710f48191a5cdd1c9a589d5d1959105cdcd95d60721b6064820152608401610581565b6040516370a0823160e01b81523060048201526001600160a01b038216907f5347122d45cc119db0100ab07899ccfff9554809b18acedfd014cb74eceef0dc9082906370a0823190602401602060405180830381865afa158015610f7c573d6000803e3d6000fd5b505050506040513d601f19601f82011682018060405250810190610fa0919061575b565b60405190815260200160405180910390a26110af7f00000000000000000000000000000000000000000000000000000000000000006001600160a01b03166398fabd3a6040518163ffffffff1660e01b8152600401602060405180830381865afa158015611012573d6000803e3d6000fd5b505050506040513d601f19601f82011682018060405250810190611036919061563f565b6040516370a0823160e01b81523060048201526001600160a01b038416906370a0823190602401602060405180830381865afa15801561107a573d6000803e3d6000fd5b505050506040513d601f19601f8201168201806040525081019061109e919061575b565b6001600160a01b0384169190614d27565b50565b600554600160a01b900460ff166111195760405162461bcd60e51b815260206004820152602560248201527f5a69766f6559444c3a3a737570706c656d656e745969656c6428292021756e6c6044820152641bd8dad95960da1b6064820152608401610581565b60007f00000000000000000000000000000000000000000000000000000000000000006001600160a01b0316635351d09b6040518163ffffffff1660e01b81526004016040805180830381865afa158015611178573d6000803e3d6000fd5b505050506040513d601f19601f8201168201806040525081019061119c9190615774565b50905060006111b18383600b54600e54610843565b90506000676765c793fa10079d601b1b6111cb83866156e2565b6111d59190615717565b905060006111e38583614d82565b60408051848152602081018390529192507f740b3e6f34598019cbe1b1efbe4471c7eb620cc5cacbd6012b9b920d55ed5bbe910160405180910390a1600554611237906001600160a01b0316333088614d9a565b6112cf7f00000000000000000000000000000000000000000000000000000000000000006001600160a01b03166372ad4ba06040518163ffffffff1660e01b8152600401602060405180830381865afa158015611298573d6000803e3d6000fd5b505050506040513d601f19601f820116820180604052508101906112bc919061563f565b6005546001600160a01b03169084614dd8565b6113677f00000000000000000000000000000000000000000000000000000000000000006001600160a01b031663d8c58b6a6040518163ffffffff1660e01b8152600401602060405180830381865afa158015611330573d6000803e3d6000fd5b505050506040513d601f19601f82011682018060405250810190611354919061563f565b6005546001600160a01b03169083614dd8565b7f00000000000000000000000000000000000000000000000000000000000000006001600160a01b03166372ad4ba06040518163ffffffff1660e01b8152600401602060405180830381865afa1580156113c5573d6000803e3d6000fd5b505050506040513d601f19601f820116820180604052508101906113e9919061563f565b600554604051637db4e28f60e01b81526001600160a01b0392831692637db4e28f9261141c929116908690600401615798565b600060405180830381600087803b15801561143657600080fd5b505af115801561144a573d6000803e3d6000fd5b505050507f00000000000000000000000000000000000000000000000000000000000000006001600160a01b031663d8c58b6a6040518163ffffffff1660e01b8152600401602060405180830381865afa1580156114ac573d6000803e3d6000fd5b505050506040513d601f19601f820116820180604052508101906114d0919061563f565b600554604051637db4e28f60e01b81526001600160a01b0392831692637db4e28f92611503929116908590600401615798565b600060405180830381600087803b15801561151d57600080fd5b505af1158015611531573d6000803e3d6000fd5b505050505050505050565b7f00000000000000000000000000000000000000000000000000000000000000006001600160a01b031663c76d41c86040518163ffffffff1660e01b8152600401602060405180830381865afa15801561159a573d6000803e3d6000fd5b505050506040513d601f19601f820116820180604052508101906115be919061563f565b6001600160a01b0316336001600160a01b03161461163b5760405162461bcd60e51b815260206004820152603460248201527f5a69766f6559444c3a3a736574546172676574526174696f424950532829205f6044820152736d736753656e646572282920213d20544c43282960601b6064820152608401610581565b600c5460408051918252602082018390527f6d7b1eed474977b0e6e6e3a4111193aef795ab0c6e024383b30132d72d72564d910160405180910390a1600c55565b60006108a1676765c793fa10079d601b1b6108986116b487612710670de0b6b3a76400006116aa8a8a6156e2565b61088891906156e2565b6116c690670de0b6b3a7640000615688565b610892676765c793fa10079d601b1b670de0b6b3a76400006156e2565b60006117ac676765c793fa10079d601b1b61089861171188612710670de0b6b3a76400006116aa8b8a6156e2565b61172390670de0b6b3a7640000615688565b61172d908b6156e2565b610892670de0b6b3a7640000676765c793fa10079d601b1b6008548a61175391906156e2565b61175d91906156e2565b61176791906156e2565b670de0b6b3a7640000676765c793fa10079d601b1b8d6117888c6001615688565b61179291906156e2565b61179c91906156e2565b6117a691906156e2565b90614d82565b979650505050505050565b6117bf614edc565b6117c96000614f36565b565b600061016f61271083816117df878a6156e2565b6117e99190615717565b6117f3908a615688565b6117fd90886156e2565b61180791906156e2565b6118119190615717565b61181b9190615717565b9695505050505050565b600554600160a01b900460ff1661188c5760405162461bcd60e51b815260206004820152602560248201527f5a69766f6559444c3a3a646973747269627574655969656c6428292021756e6c6044820152641bd8dad95960da1b6064820152608401610581565b600e5461189c90620151806156e2565b600a546118a99190615688565b42101561194e5760405162461bcd60e51b815260206004820152606160248201527f5a69766f6559444c3a3a646973747269627574655969656c64282920626c6f6360448201527f6b2e74696d657374616d70203c206c617374446973747269627574696f6e202b60648201527f20646179734265747765656e446973747269627574696f6e73202a20383634306084820152600360fc1b60a482015260c401610581565b6000807f00000000000000000000000000000000000000000000000000000000000000006001600160a01b0316635351d09b6040518163ffffffff1660e01b81526004016040805180830381865afa1580156119ae573d6000803e3d6000fd5b505050506040513d601f19601f820116820180604052508101906119d29190615774565b915091506000806000806119e6868661412b565b93509350935093507fe51adb54e755c91701c15d94aa9a41d83c012ffd78f3acd465309018a69f39ce84848484604051611a2394939291906155c2565b60405180910390a1600160096000828254611a3e9190615688565b909155505042600a55600854600003611ac5576005546040516370a0823160e01b81523060048201526001600160a01b03909116906370a0823190602401602060405180830381865afa158015611a99573d6000803e3d6000fd5b505050506040513d601f19601f82011682018060405250810190611abd919061575b565b600855611b70565b60085460055460405163dc3c1da560e01b8152600481018690526001600160a01b039182166024820152611b6c92917f0000000000000000000000000000000000000000000000000000000000000000169063dc3c1da590604401602060405180830381865afa158015611b3d573d6000803e3d6000fd5b505050506040513d601f19601f82011682018060405250810190611b61919061575b565b600f54600954614476565b6008555b611b8260075486600f54600954614476565b600781905550611b9a60065487600f54600954614476565b60065560005b6001548110156127d657600060016000018281548110611bc257611bc261565c565b9060005260206000200160009054906101000a90046001600160a01b031690507f00000000000000000000000000000000000000000000000000000000000000006001600160a01b03166372ad4ba06040518163ffffffff1660e01b8152600401602060405180830381865afa158015611c40573d6000803e3d6000fd5b505050506040513d601f19601f82011682018060405250810190611c64919061563f565b6001600160a01b0316816001600160a01b03161480611d1557507f00000000000000000000000000000000000000000000000000000000000000006001600160a01b031663d8c58b6a6040518163ffffffff1660e01b8152600401602060405180830381865afa158015611cdc573d6000803e3d6000fd5b505050506040513d601f19601f82011682018060405250810190611d00919061563f565b6001600160a01b0316816001600160a01b0316145b15611e2c57611d4e81878481518110611d3057611d3061565c565b60209081029190910101516005546001600160a01b03169190614dd8565b60055486516001600160a01b0380841692637db4e28f92911690899086908110611d7a57611d7a61565c565b60200260200101516040518363ffffffff1660e01b8152600401611d9f929190615798565b600060405180830381600087803b158015611db957600080fd5b505af1158015611dcd573d6000803e3d6000fd5b505060055488516001600160a01b038581169450909116915060008051602061587883398151915290899086908110611e0857611e0861565c565b6020026020010151604051611e1f91815260200190565b60405180910390a36127c3565b7f00000000000000000000000000000000000000000000000000000000000000006001600160a01b031663d9fa86ed6040518163ffffffff1660e01b8152600401602060405180830381865afa158015611e8a573d6000803e3d6000fd5b505050506040513d601f19601f82011682018060405250810190611eae919061563f565b6001600160a01b0316816001600160a01b03160361273a5760007f00000000000000000000000000000000000000000000000000000000000000006001600160a01b031663201d620a6040518163ffffffff1660e01b8152600401602060405180830381865afa158015611f26573d6000803e3d6000fd5b505050506040513d601f19601f82011682018060405250810190611f4a919061563f565b6001600160a01b03166318160ddd6040518163ffffffff1660e01b8152600401602060405180830381865afa158015611f87573d6000803e3d6000fd5b505050506040513d601f19601f82011682018060405250810190611fab919061575b565b7f00000000000000000000000000000000000000000000000000000000000000006001600160a01b031663d9fa86ed6040518163ffffffff1660e01b8152600401602060405180830381865afa158015612009573d6000803e3d6000fd5b505050506040513d601f19601f8201168201806040525081019061202d919061563f565b6001600160a01b03166318160ddd6040518163ffffffff1660e01b8152600401602060405180830381865afa15801561206a573d6000803e3d6000fd5b505050506040513d601f19601f8201168201806040525081019061208e919061575b565b6120989190615688565b6127107f00000000000000000000000000000000000000000000000000000000000000006001600160a01b031663d9fa86ed6040518163ffffffff1660e01b8152600401602060405180830381865afa1580156120f9573d6000803e3d6000fd5b505050506040513d601f19601f8201168201806040525081019061211d919061563f565b6001600160a01b03166318160ddd6040518163ffffffff1660e01b8152600401602060405180830381865afa15801561215a573d6000803e3d6000fd5b505050506040513d601f19601f8201168201806040525081019061217e919061575b565b61218891906156e2565b6121929190615717565b905061225e7f00000000000000000000000000000000000000000000000000000000000000006001600160a01b031663d9fa86ed6040518163ffffffff1660e01b8152600401602060405180830381865afa1580156121f5573d6000803e3d6000fd5b505050506040513d601f19601f82011682018060405250810190612219919061563f565b612710838a878151811061222f5761222f61565c565b602002602001015161224191906156e2565b61224b9190615717565b6005546001600160a01b03169190614dd8565b6123027f00000000000000000000000000000000000000000000000000000000000000006001600160a01b031663201d620a6040518163ffffffff1660e01b8152600401602060405180830381865afa1580156122bf573d6000803e3d6000fd5b505050506040513d601f19601f820116820180604052508101906122e3919061563f565b6127106122f084826157b1565b8a878151811061222f5761222f61565c565b7f00000000000000000000000000000000000000000000000000000000000000006001600160a01b031663d9fa86ed6040518163ffffffff1660e01b8152600401602060405180830381865afa158015612360573d6000803e3d6000fd5b505050506040513d601f19601f82011682018060405250810190612384919061563f565b6001600160a01b0316637db4e28f600560009054906101000a90046001600160a01b0316612710848b88815181106123be576123be61565c565b60200260200101516123d091906156e2565b6123da9190615717565b6040518363ffffffff1660e01b81526004016123f7929190615798565b600060405180830381600087803b15801561241157600080fd5b505af1158015612425573d6000803e3d6000fd5b505050507f00000000000000000000000000000000000000000000000000000000000000006001600160a01b031663201d620a6040518163ffffffff1660e01b8152600401602060405180830381865afa158015612487573d6000803e3d6000fd5b505050506040513d601f19601f820116820180604052508101906124ab919061563f565b6005546001600160a01b0391821691637db4e28f91166127106124ce85826157b1565b8b88815181106124e0576124e061565c565b60200260200101516124f291906156e2565b6124fc9190615717565b6040518363ffffffff1660e01b8152600401612519929190615798565b600060405180830381600087803b15801561253357600080fd5b505af1158015612547573d6000803e3d6000fd5b505050507f00000000000000000000000000000000000000000000000000000000000000006001600160a01b031663d9fa86ed6040518163ffffffff1660e01b8152600401602060405180830381865afa1580156125a9573d6000803e3d6000fd5b505050506040513d601f19601f820116820180604052508101906125cd919061563f565b6001600160a01b0316600560009054906101000a90046001600160a01b03166001600160a01b0316600080516020615878833981519152612710848b888151811061261a5761261a61565c565b602002602001015161262c91906156e2565b6126369190615717565b60405190815260200160405180910390a37f00000000000000000000000000000000000000000000000000000000000000006001600160a01b031663201d620a6040518163ffffffff1660e01b8152600401602060405180830381865afa1580156126a5573d6000803e3d6000fd5b505050506040513d601f19601f820116820180604052508101906126c9919061563f565b6005546001600160a01b0391821691166000805160206158788339815191526127106126f585826157b1565b8b88815181106127075761270761565c565b602002602001015161271991906156e2565b6127239190615717565b60405190815260200160405180910390a3506127c3565b61276e818784815181106127505761275061565c565b60209081029190910101516005546001600160a01b03169190614d27565b60055486516001600160a01b03808416921690600080516020615878833981519152908990869081106127a3576127a361565c565b60200260200101516040516127ba91815260200190565b60405180910390a35b50806127ce8161569b565b915050611ba0565b5061286f7f00000000000000000000000000000000000000000000000000000000000000006001600160a01b03166372ad4ba06040518163ffffffff1660e01b8152600401602060405180830381865afa158015612838573d6000803e3d6000fd5b505050506040513d601f19601f8201168201806040525081019061285c919061563f565b6005546001600160a01b03169085614dd8565b6128d07f00000000000000000000000000000000000000000000000000000000000000006001600160a01b031663d8c58b6a6040518163ffffffff1660e01b8152600401602060405180830381865afa158015611298573d6000803e3d6000fd5b7f00000000000000000000000000000000000000000000000000000000000000006001600160a01b03166372ad4ba06040518163ffffffff1660e01b8152600401602060405180830381865afa15801561292e573d6000803e3d6000fd5b505050506040513d601f19601f82011682018060405250810190612952919061563f565b600554604051637db4e28f60e01b81526001600160a01b0392831692637db4e28f92612985929116908790600401615798565b600060405180830381600087803b15801561299f57600080fd5b505af11580156129b3573d6000803e3d6000fd5b505050507f00000000000000000000000000000000000000000000000000000000000000006001600160a01b031663d8c58b6a6040518163ffffffff1660e01b8152600401602060405180830381865afa158015612a15573d6000803e3d6000fd5b505050506040513d601f19601f82011682018060405250810190612a39919061563f565b600554604051637db4e28f60e01b81526001600160a01b0392831692637db4e28f92612a6c929116908690600401615798565b600060405180830381600087803b158015612a8657600080fd5b505af1158015612a9a573d6000803e3d6000fd5b505050507f00000000000000000000000000000000000000000000000000000000000000006001600160a01b03166372ad4ba06040518163ffffffff1660e01b8152600401602060405180830381865afa158015612afc573d6000803e3d6000fd5b505050506040513d601f19601f82011682018060405250810190612b20919061563f565b6005546040518581526001600160a01b0392831692909116906000805160206158788339815191529060200160405180910390a37f00000000000000000000000000000000000000000000000000000000000000006001600160a01b031663d8c58b6a6040518163ffffffff1660e01b8152600401602060405180830381865afa158015612bb2573d6000803e3d6000fd5b505050506040513d601f19601f82011682018060405250810190612bd6919061563f565b6005546040518481526001600160a01b0392831692909116906000805160206158788339815191529060200160405180910390a360005b6003548110156137fb576000828281518110612c2b57612c2b61565c565b602002602001015111156137e957600060036000018281548110612c5157612c5161565c565b9060005260206000200160009054906101000a90046001600160a01b031690507f00000000000000000000000000000000000000000000000000000000000000006001600160a01b03166372ad4ba06040518163ffffffff1660e01b8152600401602060405180830381865afa158015612ccf573d6000803e3d6000fd5b505050506040513d601f19601f82011682018060405250810190612cf3919061563f565b6001600160a01b0316816001600160a01b03161480612da457507f00000000000000000000000000000000000000000000000000000000000000006001600160a01b031663d8c58b6a6040518163ffffffff1660e01b8152600401602060405180830381865afa158015612d6b573d6000803e3d6000fd5b505050506040513d601f19601f82011682018060405250810190612d8f919061563f565b6001600160a01b0316816001600160a01b0316145b15612e9d57612dbf81848481518110611d3057611d3061565c565b60055483516001600160a01b0380841692637db4e28f92911690869086908110612deb57612deb61565c565b60200260200101516040518363ffffffff1660e01b8152600401612e10929190615798565b600060405180830381600087803b158015612e2a57600080fd5b505af1158015612e3e573d6000803e3d6000fd5b505060055488516001600160a01b038581169450909116915060008051602061587883398151915290899086908110612e7957612e7961565c565b6020026020010151604051612e9091815260200190565b60405180910390a36137e7565b7f00000000000000000000000000000000000000000000000000000000000000006001600160a01b031663d9fa86ed6040518163ffffffff1660e01b8152600401602060405180830381865afa158015612efb573d6000803e3d6000fd5b505050506040513d601f19601f82011682018060405250810190612f1f919061563f565b6001600160a01b0316816001600160a01b03160361377c5760007f00000000000000000000000000000000000000000000000000000000000000006001600160a01b031663201d620a6040518163ffffffff1660e01b8152600401602060405180830381865afa158015612f97573d6000803e3d6000fd5b505050506040513d601f19601f82011682018060405250810190612fbb919061563f565b6001600160a01b03166318160ddd6040518163ffffffff1660e01b8152600401602060405180830381865afa158015612ff8573d6000803e3d6000fd5b505050506040513d601f19601f8201168201806040525081019061301c919061575b565b7f00000000000000000000000000000000000000000000000000000000000000006001600160a01b031663d9fa86ed6040518163ffffffff1660e01b8152600401602060405180830381865afa15801561307a573d6000803e3d6000fd5b505050506040513d601f19601f8201168201806040525081019061309e919061563f565b6001600160a01b03166318160ddd6040518163ffffffff1660e01b8152600401602060405180830381865afa1580156130db573d6000803e3d6000fd5b505050506040513d601f19601f820116820180604052508101906130ff919061575b565b6131099190615688565b6127107f00000000000000000000000000000000000000000000000000000000000000006001600160a01b031663d9fa86ed6040518163ffffffff1660e01b8152600401602060405180830381865afa15801561316a573d6000803e3d6000fd5b505050506040513d601f19601f8201168201806040525081019061318e919061563f565b6001600160a01b03166318160ddd6040518163ffffffff1660e01b8152600401602060405180830381865afa1580156131cb573d6000803e3d6000fd5b505050506040513d601f19601f820116820180604052508101906131ef919061575b565b6131f991906156e2565b6132039190615717565b90506132a07f00000000000000000000000000000000000000000000000000000000000000006001600160a01b031663d9fa86ed6040518163ffffffff1660e01b8152600401602060405180830381865afa158015613266573d6000803e3d6000fd5b505050506040513d601f19601f8201168201806040525081019061328a919061563f565b6127108387878151811061222f5761222f61565c565b6133447f00000000000000000000000000000000000000000000000000000000000000006001600160a01b031663201d620a6040518163ffffffff1660e01b8152600401602060405180830381865afa158015613301573d6000803e3d6000fd5b505050506040513d601f19601f82011682018060405250810190613325919061563f565b61271061333284826157b1565b87878151811061222f5761222f61565c565b7f00000000000000000000000000000000000000000000000000000000000000006001600160a01b031663d9fa86ed6040518163ffffffff1660e01b8152600401602060405180830381865afa1580156133a2573d6000803e3d6000fd5b505050506040513d601f19601f820116820180604052508101906133c6919061563f565b6001600160a01b0316637db4e28f600560009054906101000a90046001600160a01b0316612710848888815181106134005761340061565c565b602002602001015161341291906156e2565b61341c9190615717565b6040518363ffffffff1660e01b8152600401613439929190615798565b600060405180830381600087803b15801561345357600080fd5b505af1158015613467573d6000803e3d6000fd5b505050507f00000000000000000000000000000000000000000000000000000000000000006001600160a01b031663201d620a6040518163ffffffff1660e01b8152600401602060405180830381865afa1580156134c9573d6000803e3d6000fd5b505050506040513d601f19601f820116820180604052508101906134ed919061563f565b6005546001600160a01b0391821691637db4e28f911661271061351085826157b1565b8888815181106135225761352261565c565b602002602001015161353491906156e2565b61353e9190615717565b6040518363ffffffff1660e01b815260040161355b929190615798565b600060405180830381600087803b15801561357557600080fd5b505af1158015613589573d6000803e3d6000fd5b505050507f00000000000000000000000000000000000000000000000000000000000000006001600160a01b031663d9fa86ed6040518163ffffffff1660e01b8152600401602060405180830381865afa1580156135eb573d6000803e3d6000fd5b505050506040513d601f19601f8201168201806040525081019061360f919061563f565b6001600160a01b0316600560009054906101000a90046001600160a01b03166001600160a01b03166000805160206158788339815191526127108488888151811061365c5761365c61565c565b602002602001015161366e91906156e2565b6136789190615717565b60405190815260200160405180910390a37f00000000000000000000000000000000000000000000000000000000000000006001600160a01b031663201d620a6040518163ffffffff1660e01b8152600401602060405180830381865afa1580156136e7573d6000803e3d6000fd5b505050506040513d601f19601f8201168201806040525081019061370b919061563f565b6005546001600160a01b03918216911660008051602061587883398151915261271061373785826157b1565b8888815181106137495761374961565c565b602002602001015161375b91906156e2565b6137659190615717565b60405190815260200160405180910390a3506137e7565b613792818484815181106127505761275061565c565b60055483516001600160a01b03808416921690600080516020615878833981519152908690869081106137c7576137c761565c565b60200260200101516040516137de91815260200190565b60405180910390a35b505b806137f38161569b565b915050612c0d565b50505050505050565b7f00000000000000000000000000000000000000000000000000000000000000006001600160a01b03166315154aff6040518163ffffffff1660e01b8152600401602060405180830381865afa158015613862573d6000803e3d6000fd5b505050506040513d601f19601f82011682018060405250810190613886919061563f565b6001600160a01b0316336001600160a01b03161461390c5760405162461bcd60e51b815260206004820152603f60248201527f5a69766f6559444c3a3a756e6c6f636b2829205f6d736753656e64657228292060448201527f213d20495a69766f65476c6f62616c735f59444c2847424c292e49544f2829006064820152608401610581565b6005805460ff60a01b1916600160a01b17905542600a5560408051630c5f4f7b60e41b815290516001600160a01b037f0000000000000000000000000000000000000000000000000000000000000000169163c5f4f7b09160048083019260209291908290030181865afa158015613988573d6000803e3d6000fd5b505050506040513d601f19601f820116820180604052508101906139ac919061563f565b6001600160a01b03166318160ddd6040518163ffffffff1660e01b8152600401602060405180830381865afa1580156139e9573d6000803e3d6000fd5b505050506040513d601f19601f82011682018060405250810190613a0d919061575b565b6006819055507f00000000000000000000000000000000000000000000000000000000000000006001600160a01b0316639699177c6040518163ffffffff1660e01b8152600401602060405180830381865afa158015613a71573d6000803e3d6000fd5b505050506040513d601f19601f82011682018060405250810190613a95919061563f565b6001600160a01b03166318160ddd6040518163ffffffff1660e01b8152600401602060405180830381865afa158015613ad2573d6000803e3d6000fd5b505050506040513d601f19601f82011682018060405250810190613af6919061575b565b6007556040805160028082526060820183526000926020830190803683375050604080516002808252606082018352939450600093909250906020830190803683370190505090507f00000000000000000000000000000000000000000000000000000000000000006001600160a01b03166398fabd3a6040518163ffffffff1660e01b8152600401602060405180830381865afa158015613b9c573d6000803e3d6000fd5b505050506040513d601f19601f82011682018060405250810190613bc0919061563f565b82600081518110613bd357613bd361565c565b60200260200101906001600160a01b031690816001600160a01b031681525050611d4c81600081518110613c0957613c0961565c565b6020026020010181815250507f00000000000000000000000000000000000000000000000000000000000000006001600160a01b031663d9fa86ed6040518163ffffffff1660e01b8152600401602060405180830381865afa158015613c73573d6000803e3d6000fd5b505050506040513d601f19601f82011682018060405250810190613c97919061563f565b82600181518110613caa57613caa61565c565b60200260200101906001600160a01b031690816001600160a01b0316815250506109c481600181518110613ce057613ce061565c565b60200260200101818152505060405180604001604052808381526020018281525060016000820151816000019080519060200190613d1f92919061516b565b506020828101518051613d3892600185019201906151d0565b505060408051600480825260a08201909252600092509060208201608080368337505060408051600480825260a082019092529293506000929150602082016080803683370190505090507f00000000000000000000000000000000000000000000000000000000000000006001600160a01b031663d8c58b6a6040518163ffffffff1660e01b8152600401602060405180830381865afa158015613de1573d6000803e3d6000fd5b505050506040513d601f19601f82011682018060405250810190613e05919061563f565b82600081518110613e1857613e1861565c565b60200260200101906001600160a01b031690816001600160a01b0316815250506109c481600081518110613e4e57613e4e61565c565b6020026020010181815250507f00000000000000000000000000000000000000000000000000000000000000006001600160a01b03166372ad4ba06040518163ffffffff1660e01b8152600401602060405180830381865afa158015613eb8573d6000803e3d6000fd5b505050506040513d601f19601f82011682018060405250810190613edc919061563f565b82600181518110613eef57613eef61565c565b60200260200101906001600160a01b031690816001600160a01b0316815250506109c481600181518110613f2557613f2561565c565b6020026020010181815250507f00000000000000000000000000000000000000000000000000000000000000006001600160a01b031663d9fa86ed6040518163ffffffff1660e01b8152600401602060405180830381865afa158015613f8f573d6000803e3d6000fd5b505050506040513d601f19601f82011682018060405250810190613fb3919061563f565b82600281518110613fc657613fc661565c565b60200260200101906001600160a01b031690816001600160a01b0316815250506109c481600281518110613ffc57613ffc61565c565b6020026020010181815250507f00000000000000000000000000000000000000000000000000000000000000006001600160a01b03166398fabd3a6040518163ffffffff1660e01b8152600401602060405180830381865afa158015614066573d6000803e3d6000fd5b505050506040513d601f19601f8201168201806040525081019061408a919061563f565b8260038151811061409d5761409d61565c565b60200260200101906001600160a01b031690816001600160a01b0316815250506109c4816003815181106140d3576140d361565c565b6020026020010181815250506040518060400160405280838152602001828152506003600082015181600001908051906020019061411292919061516b565b5060208281015180516137fb92600185019201906151d0565b6005546040516370a0823160e01b81523060048201526060916000918291849183916001600160a01b0316906370a0823190602401602060405180830381865afa15801561417d573d6000803e3d6000fd5b505050506040513d601f19601f820116820180604052508101906141a1919061575b565b60015490915067ffffffffffffffff8111156141bf576141bf615220565b6040519080825280602002602001820160405280156141e8578160200160208202803683370190505b509450600061271082600d546141fe91906156e2565b6142089190615717565b905060005b60015481101561427e57612710826001800183815481106142305761423061565c565b906000526020600020015461424591906156e2565b61424f9190615717565b8782815181106142615761426161565c565b6020908102919091010152806142768161569b565b91505061420d565b506142898282614d82565b60055460405163dc3c1da560e01b8152600481018390526001600160a01b03918216602482015291935060009161433a917f0000000000000000000000000000000000000000000000000000000000000000169063dc3c1da590604401602060405180830381865afa158015614303573d6000803e3d6000fd5b505050506040513d601f19601f82011682018060405250810190614327919061575b565b8a8a600b54600c54600e54600f5461450e565b9050600061434c8a8a84600c546146af565b9050676765c793fa10079d601b1b61436483866156e2565b61436e9190615717565b9650676765c793fa10079d601b1b61438682866156e2565b6143909190615717565b60035490965067ffffffffffffffff8111156143ae576143ae615220565b6040519080825280602002602001820160405280156143d7578160200160208202803683370190505b50945060006143f06143e9888a615688565b8690614d82565b905060005b6003548110156144675761271082600360010183815481106144195761441961565c565b906000526020600020015461442e91906156e2565b6144389190615717565b87828151811061444a5761444a61565c565b60209081029190910101528061445f8161569b565b9150506143f5565b50505050505092959194509250565b600081831015614484578291505b60006144a6836144948789614d82565b61089290670de0b6b3a76400006156e2565b9050806000036144e1576144be836144948888614d82565b90506144da670de0b6b3a7640000610892836117a6838b6156e2565b9150614505565b614502670de0b6b3a7640000826144f8828a6156e2565b6108929190615688565b91505b50949350505050565b6000806145226006546007548888886117cb565b90508881111561453f5761453788888761167c565b9150506117ac565b6008548110158015614552575060085415155b156145655761453789828a8a878a6116e3565b61453789898887610843565b7f00000000000000000000000000000000000000000000000000000000000000006001600160a01b031663c76d41c86040518163ffffffff1660e01b8152600401602060405180830381865afa1580156145cf573d6000803e3d6000fd5b505050506040513d601f19601f820116820180604052508101906145f3919061563f565b6001600160a01b0316336001600160a01b03161461466e5760405162461bcd60e51b815260206004820152603260248201527f5a69766f6559444c3a3a736574546172676574415059424950532829205f6d736044820152716753656e646572282920213d20544c43282960701b6064820152608401610581565b600b5460408051918252602082018390527f73e93c22ac34c14a7ecb6aa5ccbdd0e0bd71c015f2bd9ac9018f84950ad37f1e910160405180910390a1600b55565b6000676765c793fa10079d601b1b8311156146cc575060006108a1565b6146f66146e484676765c793fa10079d601b1b6157b1565b61089887612710876116aa8a896156e2565b90506108a1565b7f00000000000000000000000000000000000000000000000000000000000000006001600160a01b031663c76d41c86040518163ffffffff1660e01b8152600401602060405180830381865afa15801561475b573d6000803e3d6000fd5b505050506040513d601f19601f8201168201806040525081019061477f919061563f565b6001600160a01b0316336001600160a01b0316146148055760405162461bcd60e51b815260206004820152603d60248201527f5a69766f6559444c3a3a73657450726f746f636f6c4561726e696e677352617460448201527f65424950532829205f6d736753656e646572282920213d20544c4328290000006064820152608401610581565b61271081111561488f5760405162461bcd60e51b815260206004820152604960248201527f5a69766f6559444c3a3a73657450726f746f636f6c4561726e696e677352617460448201527f65424950532829205f70726f746f636f6c4561726e696e677352617465424950606482015268053203e2031303030360bc1b608482015260a401610581565b600d5460408051918252602082018390527f4fc744850bd93e9f01c96ffba23c38cd46e64cfc8b77e26df28f598a92f4895a910160405180910390a1600d55565b6148d8614edc565b6001600160a01b03811661493d5760405162461bcd60e51b815260206004820152602660248201527f4f776e61626c653a206e6577206f776e657220697320746865207a65726f206160448201526564647265737360d01b6064820152608401610581565b6110af81614f36565b7f00000000000000000000000000000000000000000000000000000000000000006001600160a01b031663c76d41c86040518163ffffffff1660e01b8152600401602060405180830381865afa1580156149a4573d6000803e3d6000fd5b505050506040513d601f19601f820116820180604052508101906149c8919061563f565b6001600160a01b0316336001600160a01b031614614a3c5760405162461bcd60e51b815260206004820152603a602482015260008051602061583883398151915260448201527f74732829205f6d736753656e646572282920213d20544c4328290000000000006064820152608401610581565b80518251148015614a4e575060008251115b614ae35760405162461bcd60e51b8152602060048201526066602482015260008051602061583883398151915260448201527f7473282920726563697069656e74732e6c656e67746820213d2070726f706f7260648201527f74696f6e732e6c656e677468207c7c20726563697069656e74732e6c656e6774608482015265068203d3d20360d41b60a482015260c401610581565b600554600160a01b900460ff16614b415760405162461bcd60e51b815260206004820152602e602482015260008051602061583883398151915260448201526d1d1cca0a48085d5b9b1bd8dad95960921b6064820152608401610581565b6000805b8351811015614bff57828181518110614b6057614b6061565c565b602002602001015182614b739190615688565b91506000838281518110614b8957614b8961565c565b602002602001015111614bed5760405162461bcd60e51b815260206004820152603860248201526000805160206158388339815191526044820152770747328292070726f706f7274696f6e735b695d203d3d20360441b6064820152608401610581565b80614bf78161569b565b915050614b45565b506127108114614c735760405162461bcd60e51b8152602060048201526045602482015260008051602061583883398151915260448201527f747328292070726f706f7274696f6e546f74616c20213d2042495053202831306064820152642c3030302960d81b608482015260a401610581565b7fabde01bf2c50450e2dcb78815018bae0c080de9172fbcd2d6ecf9496558d2d218383604051614ca49291906156b4565b60405180910390a1604080518082019091528381526020808201849052845160039161082291839188019061516b565b600081600003614ce657506000614d09565b82821115614cf657506000614d09565b818381614d0557614d05615701565b0490505b92915050565b6000818310614d1e5781614d20565b825b9392505050565b614d7d8363a9059cbb60e01b8484604051602401614d46929190615798565b60408051601f198184030181529190526020810180516001600160e01b03166001600160e01b031990931692909217909152614f86565b505050565b600082821115614d9457506000614d09565b50900390565b6040516001600160a01b0380851660248301528316604482015260648101829052614dd29085906323b872dd60e01b90608401614d46565b50505050565b801580614e525750604051636eb1769f60e11b81523060048201526001600160a01b03838116602483015284169063dd62ed3e90604401602060405180830381865afa158015614e2c573d6000803e3d6000fd5b505050506040513d601f19601f82011682018060405250810190614e50919061575b565b155b614ebd5760405162461bcd60e51b815260206004820152603660248201527f5361666545524332303a20617070726f76652066726f6d206e6f6e2d7a65726f60448201527520746f206e6f6e2d7a65726f20616c6c6f77616e636560501b6064820152608401610581565b614d7d8363095ea7b360e01b8484604051602401614d46929190615798565b6000546001600160a01b031633146117c95760405162461bcd60e51b815260206004820181905260248201527f4f776e61626c653a2063616c6c6572206973206e6f7420746865206f776e65726044820152606401610581565b600080546001600160a01b038381166001600160a01b0319831681178455604051919092169283917f8be0079c531659141344cd1fd0a4f28419497f9722a3daafe3b4186f6b6457e09190a35050565b6000614fdb826040518060400160405280602081526020017f5361666545524332303a206c6f772d6c6576656c2063616c6c206661696c6564815250856001600160a01b03166150589092919063ffffffff16565b805190915015614d7d5780806020019051810190614ff99190615739565b614d7d5760405162461bcd60e51b815260206004820152602a60248201527f5361666545524332303a204552433230206f7065726174696f6e20646964206e6044820152691bdd081cdd58d8d9595960b21b6064820152608401610581565b60606108a1848460008585600080866001600160a01b0316858760405161507f91906157e8565b60006040518083038185875af1925050503d80600081146150bc576040519150601f19603f3d011682016040523d82523d6000602084013e6150c1565b606091505b50915091506117ac878383876060831561513c578251600003615135576001600160a01b0385163b6151355760405162461bcd60e51b815260206004820152601d60248201527f416464726573733a2063616c6c20746f206e6f6e2d636f6e74726163740000006044820152606401610581565b50816108a1565b6108a183838151156151515781518083602001fd5b8060405162461bcd60e51b81526004016105819190615804565b8280548282559060005260206000209081019282156151c0579160200282015b828111156151c057825182546001600160a01b0319166001600160a01b0390911617825560209092019160019091019061518b565b506151cc92915061520b565b5090565b8280548282559060005260206000209081019282156151c0579160200282015b828111156151c05782518255916020019190600101906151f0565b5b808211156151cc576000815560010161520c565b634e487b7160e01b600052604160045260246000fd5b604051601f8201601f1916810167ffffffffffffffff8111828210171561525f5761525f615220565b604052919050565b600067ffffffffffffffff82111561528157615281615220565b5060051b60200190565b6001600160a01b03811681146110af57600080fd5b600082601f8301126152b157600080fd5b813560206152c66152c183615267565b615236565b82815260059290921b840181019181810190868411156152e557600080fd5b8286015b8481101561530057803583529183019183016152e9565b509695505050505050565b6000806040838503121561531e57600080fd5b823567ffffffffffffffff8082111561533657600080fd5b818501915085601f83011261534a57600080fd5b8135602061535a6152c183615267565b82815260059290921b8401810191818101908984111561537957600080fd5b948201945b838610156153a05785356153918161528b565b8252948201949082019061537e565b965050860135925050808211156153b657600080fd5b506153c3858286016152a0565b9150509250929050565b600080600080608085870312156153e357600080fd5b5050823594602084013594506040840135936060013592509050565b60006020828403121561541157600080fd5b8135614d208161528b565b600081518084526020808501945080840160005b838110156154555781516001600160a01b031687529582019590820190600101615430565b509495945050505050565b600081518084526020808501945080840160005b8381101561545557815187529582019590820190600101615474565b6080815260006154a3608083018761541c565b82810360208401526154b58187615460565b905082810360408401526154c9818661541c565b905082810360608401526117ac8185615460565b6000602082840312156154ef57600080fd5b5035919050565b60008060006060848603121561550b57600080fd5b505081359360208301359350604090920135919050565b60008060008060008060c0878903121561553b57600080fd5b505084359660208601359650604086013595606081013595506080810135945060a0013592509050565b600080600080600060a0868803121561557d57600080fd5b505083359560208501359550604085013594606081013594506080013592509050565b600080604083850312156155b357600080fd5b50508035926020909101359150565b6080815260006155d56080830187615460565b85602084015284604084015282810360608401526117ac8185615460565b600080600080600080600060e0888a03121561560e57600080fd5b505085359760208701359750604087013596606081013596506080810135955060a0810135945060c0013592509050565b60006020828403121561565157600080fd5b8151614d208161528b565b634e487b7160e01b600052603260045260246000fd5b634e487b7160e01b600052601160045260246000fd5b80820180821115614d0957614d09615672565b6000600182016156ad576156ad615672565b5060010190565b6040815260006156c7604083018561541c565b82810360208401526156d98185615460565b95945050505050565b60008160001904831182151516156156fc576156fc615672565b500290565b634e487b7160e01b600052601260045260246000fd5b60008261573457634e487b7160e01b600052601260045260246000fd5b500490565b60006020828403121561574b57600080fd5b81518015158114614d2057600080fd5b60006020828403121561576d57600080fd5b5051919050565b6000806040838503121561578757600080fd5b505080516020909101519092909150565b6001600160a01b03929092168252602082015260400190565b81810381811115614d0957614d09615672565b60005b838110156157df5781810151838201526020016157c7565b50506000910152565b600082516157fa8184602087016157c4565b9190910192915050565b60208152600082518060208401526158238160408501602087016157c4565b601f01601f1916919091016040019291505056fe5a69766f6559444c3a3a757064617465526573696475616c526563697069656e5a69766f6559444c3a3a75706461746550726f746f636f6c526563697069656e68321aac2dd94c71686ec859379a0cfd0108e54b95764276b3a39ef1ca7cbe52a2646970667358221220f56efaf7b7211d638eb31143d20632005f54add05f2bdfe6573258d50f747c6564736f6c63430008100033",
    "linkReferences": {}
  },
  "methodIdentifiers": {
    "GBL()": "3ce8d432",
    "daysBetweenDistributions()": "b9f54344",
    "distributeYield()": "8a570a12",
    "distributedAsset()": "5df8d168",
    "earningsTrancheuse(uint256,uint256)": "a8e60c99",
    "ema(uint256,uint256,uint256,uint256)": "ab314e86",
    "emaJTT()": "c81a1766",
    "emaSTT()": "c78f912a",
    "emaYield()": "d8992f3d",
    "lastDistribution()": "a717639c",
    "numDistributions()": "4472287e",
    "owner()": "8da5cb5b",
    "protocolEarningsRateBIPS()": "e68c7289",
    "rateJunior_RAY(uint256,uint256,uint256,uint256)": "d4fc434e",
    "rateSenior_RAY(uint256,uint256,uint256,uint256,uint256,uint256,uint256)": "b25695d3",
    "recoverAsset(address)": "37d20fff",
    "renounceOwnership()": "715018a6",
    "retrospectiveDistributions()": "07061b94",
    "seniorRateCatchup_RAY(uint256,uint256,uint256,uint256,uint256,uint256)": "679cc45f",
    "seniorRateNominal_RAY(uint256,uint256,uint256,uint256)": "23d82416",
    "seniorRateShortfall_RAY(uint256,uint256,uint256)": "671dbb3f",
    "setDistributedAsset(address)": "2ef7abd1",
    "setProtocolEarningsRateBIPS(uint256)": "e3bdf02e",
    "setTargetAPYBIPS(uint256)": "c3de90bf",
    "setTargetRatioBIPS(uint256)": "49667afa",
    "supplementYield(uint256)": "44be3e7c",
    "targetAPYBIPS()": "6635e82c",
    "targetRatioBIPS()": "c2e63afa",
    "transferOwnership(address)": "f2fde38b",
    "unlock()": "a69df4b5",
    "unlocked()": "6a5e2650",
    "updateProtocolRecipients(address[],uint256[])": "1792e055",
    "updateResidualRecipients(address[],uint256[])": "f9aadfdd",
    "viewDistributions()": "36b774a2",
    "yieldTarget(uint256,uint256,uint256,uint256,uint256)": "782afa2e"
  },
  "id": 62
}