{
  "abi": [
    {
      "inputs": [
        {
          "internalType": "address",
          "name": "DAO",
          "type": "address"
        },
        {
          "internalType": "address",
          "name": "_GBL",
          "type": "address"
        }
      ],
      "stateMutability": "nonpayable",
      "type": "constructor"
    },
    {
      "anonymous": false,
      "inputs": [
        {
          "indexed": true,
          "internalType": "address",
          "name": "previousOwner",
          "type": "address"
        },
        {
          "indexed": true,
          "internalType": "address",
          "name": "newOwner",
          "type": "address"
        }
      ],
      "name": "OwnershipTransferred",
      "type": "event"
    },
    {
      "anonymous": false,
      "inputs": [
        {
          "indexed": true,
          "internalType": "address",
          "name": "previousOwner",
          "type": "address"
        },
        {
          "indexed": true,
          "internalType": "address",
          "name": "newOwner",
          "type": "address"
        }
      ],
      "name": "OwnershipTransferredAndLocked",
      "type": "event"
    },
    {
      "inputs": [],
      "name": "GBL",
      "outputs": [
        {
          "internalType": "address",
          "name": "",
          "type": "address"
        }
      ],
      "stateMutability": "view",
      "type": "function"
    },
    {
      "inputs": [],
      "name": "canPull",
      "outputs": [
        {
          "internalType": "bool",
          "name": "",
          "type": "bool"
        }
      ],
      "stateMutability": "view",
      "type": "function"
    },
    {
      "inputs": [],
      "name": "canPullERC1155",
      "outputs": [
        {
          "internalType": "bool",
          "name": "",
          "type": "bool"
        }
      ],
      "stateMutability": "view",
      "type": "function"
    },
    {
      "inputs": [],
      "name": "canPullERC721",
      "outputs": [
        {
          "internalType": "bool",
          "name": "",
          "type": "bool"
        }
      ],
      "stateMutability": "view",
      "type": "function"
    },
    {
      "inputs": [],
      "name": "canPullMulti",
      "outputs": [
        {
          "internalType": "bool",
          "name": "",
          "type": "bool"
        }
      ],
      "stateMutability": "view",
      "type": "function"
    },
    {
      "inputs": [],
      "name": "canPullMultiERC721",
      "outputs": [
        {
          "internalType": "bool",
          "name": "",
          "type": "bool"
        }
      ],
      "stateMutability": "view",
      "type": "function"
    },
    {
      "inputs": [],
      "name": "canPullMultiPartial",
      "outputs": [
        {
          "internalType": "bool",
          "name": "",
          "type": "bool"
        }
      ],
      "stateMutability": "view",
      "type": "function"
    },
    {
      "inputs": [],
      "name": "canPullPartial",
      "outputs": [
        {
          "internalType": "bool",
          "name": "",
          "type": "bool"
        }
      ],
      "stateMutability": "view",
      "type": "function"
    },
    {
      "inputs": [],
      "name": "canPush",
      "outputs": [
        {
          "internalType": "bool",
          "name": "",
          "type": "bool"
        }
      ],
      "stateMutability": "view",
      "type": "function"
    },
    {
      "inputs": [],
      "name": "canPushERC1155",
      "outputs": [
        {
          "internalType": "bool",
          "name": "",
          "type": "bool"
        }
      ],
      "stateMutability": "view",
      "type": "function"
    },
    {
      "inputs": [],
      "name": "canPushERC721",
      "outputs": [
        {
          "internalType": "bool",
          "name": "",
          "type": "bool"
        }
      ],
      "stateMutability": "view",
      "type": "function"
    },
    {
      "inputs": [],
      "name": "canPushMulti",
      "outputs": [
        {
          "internalType": "bool",
          "name": "",
          "type": "bool"
        }
      ],
      "stateMutability": "view",
      "type": "function"
    },
    {
      "inputs": [],
      "name": "canPushMultiERC721",
      "outputs": [
        {
          "internalType": "bool",
          "name": "",
          "type": "bool"
        }
      ],
      "stateMutability": "view",
      "type": "function"
    },
    {
      "inputs": [
        {
          "internalType": "uint256",
          "name": "amount",
          "type": "uint256"
        }
      ],
      "name": "decreaseDefaults",
      "outputs": [],
      "stateMutability": "nonpayable",
      "type": "function"
    },
    {
      "inputs": [
        {
          "internalType": "uint256",
          "name": "amount",
          "type": "uint256"
        }
      ],
      "name": "increaseDefaults",
      "outputs": [],
      "stateMutability": "nonpayable",
      "type": "function"
    },
    {
      "inputs": [],
      "name": "locked",
      "outputs": [
        {
          "internalType": "bool",
          "name": "",
          "type": "bool"
        }
      ],
      "stateMutability": "view",
      "type": "function"
    },
    {
      "inputs": [
        {
          "internalType": "address",
          "name": "",
          "type": "address"
        },
        {
          "internalType": "address",
          "name": "",
          "type": "address"
        },
        {
          "internalType": "uint256[]",
          "name": "",
          "type": "uint256[]"
        },
        {
          "internalType": "uint256[]",
          "name": "",
          "type": "uint256[]"
        },
        {
          "internalType": "bytes",
          "name": "",
          "type": "bytes"
        }
      ],
      "name": "onERC1155BatchReceived",
      "outputs": [
        {
          "internalType": "bytes4",
          "name": "",
          "type": "bytes4"
        }
      ],
      "stateMutability": "nonpayable",
      "type": "function"
    },
    {
      "inputs": [
        {
          "internalType": "address",
          "name": "",
          "type": "address"
        },
        {
          "internalType": "address",
          "name": "",
          "type": "address"
        },
        {
          "internalType": "uint256",
          "name": "",
          "type": "uint256"
        },
        {
          "internalType": "uint256",
          "name": "",
          "type": "uint256"
        },
        {
          "internalType": "bytes",
          "name": "",
          "type": "bytes"
        }
      ],
      "name": "onERC1155Received",
      "outputs": [
        {
          "internalType": "bytes4",
          "name": "",
          "type": "bytes4"
        }
      ],
      "stateMutability": "nonpayable",
      "type": "function"
    },
    {
      "inputs": [
        {
          "internalType": "address",
          "name": "",
          "type": "address"
        },
        {
          "internalType": "address",
          "name": "",
          "type": "address"
        },
        {
          "internalType": "uint256",
          "name": "",
          "type": "uint256"
        },
        {
          "internalType": "bytes",
          "name": "",
          "type": "bytes"
        }
      ],
      "name": "onERC721Received",
      "outputs": [
        {
          "internalType": "bytes4",
          "name": "",
          "type": "bytes4"
        }
      ],
      "stateMutability": "nonpayable",
      "type": "function"
    },
    {
      "inputs": [],
      "name": "owner",
      "outputs": [
        {
          "internalType": "address",
          "name": "",
          "type": "address"
        }
      ],
      "stateMutability": "view",
      "type": "function"
    },
    {
      "inputs": [
        {
          "internalType": "address",
          "name": "asset",
          "type": "address"
        }
      ],
      "name": "pullFromLocker",
      "outputs": [],
      "stateMutability": "nonpayable",
      "type": "function"
    },
    {
      "inputs": [
        {
          "internalType": "address",
          "name": "asset",
          "type": "address"
        },
        {
          "internalType": "uint256[]",
          "name": "ids",
          "type": "uint256[]"
        },
        {
          "internalType": "uint256[]",
          "name": "amounts",
          "type": "uint256[]"
        },
        {
          "internalType": "bytes",
          "name": "data",
          "type": "bytes"
        }
      ],
      "name": "pullFromLockerERC1155",
      "outputs": [],
      "stateMutability": "nonpayable",
      "type": "function"
    },
    {
      "inputs": [
        {
          "internalType": "address",
          "name": "asset",
          "type": "address"
        },
        {
          "internalType": "uint256",
          "name": "tokenId",
          "type": "uint256"
        },
        {
          "internalType": "bytes",
          "name": "data",
          "type": "bytes"
        }
      ],
      "name": "pullFromLockerERC721",
      "outputs": [],
      "stateMutability": "nonpayable",
      "type": "function"
    },
    {
      "inputs": [
        {
          "internalType": "address[]",
          "name": "assets",
          "type": "address[]"
        }
      ],
      "name": "pullFromLockerMulti",
      "outputs": [],
      "stateMutability": "nonpayable",
      "type": "function"
    },
    {
      "inputs": [
        {
          "internalType": "address[]",
          "name": "assets",
          "type": "address[]"
        },
        {
          "internalType": "uint256[]",
          "name": "tokenIds",
          "type": "uint256[]"
        },
        {
          "internalType": "bytes[]",
          "name": "data",
          "type": "bytes[]"
        }
      ],
      "name": "pullFromLockerMultiERC721",
      "outputs": [],
      "stateMutability": "nonpayable",
      "type": "function"
    },
    {
      "inputs": [
        {
          "internalType": "address[]",
          "name": "assets",
          "type": "address[]"
        },
        {
          "internalType": "uint256[]",
          "name": "amounts",
          "type": "uint256[]"
        }
      ],
      "name": "pullFromLockerMultiPartial",
      "outputs": [],
      "stateMutability": "nonpayable",
      "type": "function"
    },
    {
      "inputs": [
        {
          "internalType": "address",
          "name": "asset",
          "type": "address"
        },
        {
          "internalType": "uint256",
          "name": "amount",
          "type": "uint256"
        }
      ],
      "name": "pullFromLockerPartial",
      "outputs": [],
      "stateMutability": "nonpayable",
      "type": "function"
    },
    {
      "inputs": [
        {
          "internalType": "address",
          "name": "asset",
          "type": "address"
        },
        {
          "internalType": "uint256",
          "name": "amount",
          "type": "uint256"
        }
      ],
      "name": "pushToLocker",
      "outputs": [],
      "stateMutability": "nonpayable",
      "type": "function"
    },
    {
      "inputs": [
        {
          "internalType": "address",
          "name": "asset",
          "type": "address"
        },
        {
          "internalType": "uint256[]",
          "name": "ids",
          "type": "uint256[]"
        },
        {
          "internalType": "uint256[]",
          "name": "amounts",
          "type": "uint256[]"
        },
        {
          "internalType": "bytes",
          "name": "data",
          "type": "bytes"
        }
      ],
      "name": "pushToLockerERC1155",
      "outputs": [],
      "stateMutability": "nonpayable",
      "type": "function"
    },
    {
      "inputs": [
        {
          "internalType": "address",
          "name": "asset",
          "type": "address"
        },
        {
          "internalType": "uint256",
          "name": "tokenId",
          "type": "uint256"
        },
        {
          "internalType": "bytes",
          "name": "data",
          "type": "bytes"
        }
      ],
      "name": "pushToLockerERC721",
      "outputs": [],
      "stateMutability": "nonpayable",
      "type": "function"
    },
    {
      "inputs": [
        {
          "internalType": "address[]",
          "name": "assets",
          "type": "address[]"
        },
        {
          "internalType": "uint256[]",
          "name": "amounts",
          "type": "uint256[]"
        }
      ],
      "name": "pushToLockerMulti",
      "outputs": [],
      "stateMutability": "nonpayable",
      "type": "function"
    },
    {
      "inputs": [
        {
          "internalType": "address[]",
          "name": "assets",
          "type": "address[]"
        },
        {
          "internalType": "uint256[]",
          "name": "tokenIds",
          "type": "uint256[]"
        },
        {
          "internalType": "bytes[]",
          "name": "data",
          "type": "bytes[]"
        }
      ],
      "name": "pushToLockerMultiERC721",
      "outputs": [],
      "stateMutability": "nonpayable",
      "type": "function"
    },
    {
      "inputs": [],
      "name": "renounceOwnership",
      "outputs": [],
      "stateMutability": "nonpayable",
      "type": "function"
    },
    {
      "inputs": [
        {
          "internalType": "bytes4",
          "name": "interfaceId",
          "type": "bytes4"
        }
      ],
      "name": "supportsInterface",
      "outputs": [
        {
          "internalType": "bool",
          "name": "",
          "type": "bool"
        }
      ],
      "stateMutability": "view",
      "type": "function"
    },
    {
      "inputs": [
        {
          "internalType": "address",
          "name": "newOwner",
          "type": "address"
        }
      ],
      "name": "transferOwnership",
      "outputs": [],
      "stateMutability": "nonpayable",
      "type": "function"
    },
    {
      "inputs": [
        {
          "internalType": "address",
          "name": "newOwner",
          "type": "address"
        }
      ],
      "name": "transferOwnershipAndLock",
      "outputs": [],
      "stateMutability": "nonpayable",
      "type": "function"
    }
  ],
  "bytecode": {
    "object": "0x60806040523480156200001157600080fd5b5060405162001fef38038062001fef833981016040819052620000349162000266565b6200003f3362000071565b6200004a82620000c1565b600180546001600160a01b0319166001600160a01b0392909216919091179055506200029e565b600080546001600160a01b038381166001600160a01b0319831681178455604051919092169283917f8be0079c531659141344cd1fd0a4f28419497f9722a3daafe3b4186f6b6457e09190a35050565b620000cb620001c5565b600054600160a01b900460ff1615620001395760405162461bcd60e51b815260206004820152602560248201527f5a69766f654f776e61626c654c6f636b65643a3a756e6c6f636b65642829206c6044820152641bd8dad95960da1b60648201526084015b60405180910390fd5b6001600160a01b038116620001b75760405162461bcd60e51b815260206004820152603e60248201527f5a69766f654f776e61626c654c6f636b65643a3a7472616e736665724f776e6560448201527f72736869702829206e65774f776e6572203d3d20616464726573732830290000606482015260840162000130565b620001c28162000071565b50565b6000546001600160a01b03163314620002475760405162461bcd60e51b815260206004820152603760248201527f5a69766f654f776e61626c654c6f636b65643a3a5f636865636b4f776e65722060448201527f6f776e6572282920213d205f6d736753656e6465722829000000000000000000606482015260840162000130565b565b80516001600160a01b03811681146200026157600080fd5b919050565b600080604083850312156200027a57600080fd5b620002858362000249565b9150620002956020840162000249565b90509250929050565b611d4180620002ae6000396000f3fe608060405234801561001057600080fd5b506004361061021c5760003560e01c80637dbcdbc111610125578063cf10b7ab116100ad578063e7f446291161007c578063e7f446291461029d578063f23a6e61146103ec578063f2fde38b1461040b578063fd76f59d1461041e578063ff0459ba1461043157600080fd5b8063cf10b7ab1461029d578063cf309012146103c5578063d9821e3b146103d9578063dd913bdb1461029d57600080fd5b8063a4a3e79d116100f4578063a4a3e79d1461029d578063b0607cf81461029d578063b892bcc014610380578063bc197c8114610393578063c9c6a414146103b257600080fd5b80637dbcdbc114610349578063844765911461035c5780638b648ee21461029d5780638da5cb5b1461036f57600080fd5b80633ce8d432116101a857806359e269ee1161017757806359e269ee14610308578063607cd6491461031b57806364c777351461029d578063715018a61461032e57806379de29271461033657600080fd5b80633ce8d432146102b75780633eda81ad1461029d578063422b2018146102e257806358289c7e146102f557600080fd5b80631852b383116101ef5780631852b3831461029d5780631d9389e9146102a4578063215cccdd1461029d5780632f08d48b1461029d5780633c1172441461029d57600080fd5b806301ffc9a7146102215780631205217614610249578063150b7a021461025e57806315e987441461028a575b600080fd5b61023461022f366004611487565b610444565b60405190151581526020015b60405180910390f35b61025c610257366004611515565b61047b565b005b61027161026c366004611625565b6104ed565b6040516001600160e01b03199091168152602001610240565b61025c6102983660046116d4565b6104fe565b6000610234565b61025c6102b2366004611515565b61066f565b6001546102ca906001600160a01b031681565b6040516001600160a01b039091168152602001610240565b61025c6102f036600461176d565b6106da565b61025c610303366004611819565b610749565b61025c610316366004611836565b610824565b61025c61032936600461184f565b61092d565b61025c610a94565b61025c610344366004611836565b610ad2565b61025c610357366004611819565b610baa565b61025c61036a366004611890565b610c0b565b6000546001600160a01b03166102ca565b61025c61038e3660046116d4565b610c6a565b6102716103a1366004611930565b63bc197c8160e01b95945050505050565b61025c6103c03660046119dd565b610dd2565b60005461023490600160a01b900460ff1681565b61025c6103e7366004611890565b610ebc565b6102716103fa366004611a3c565b63f23a6e6160e01b95945050505050565b61025c610419366004611819565b610f2b565b61025c61042c36600461176d565b610fe2565b61025c61043f3660046119dd565b61104f565b60006001600160e01b03198216630271189760e51b148061047557506301ffc9a760e01b6001600160e01b03198316145b92915050565b610483611121565b60405162461bcd60e51b815260206004820152603460248201527f5a69766f654c6f636b65723a3a70756c6c46726f6d4c6f636b65724552433732604482015273312829202163616e50756c6c455243373231282960601b60648201526084015b60405180910390fd5b630a85bd0160e11b5b949350505050565b610506611121565b60405162461bcd60e51b815260206004820152603e60248201527f5a69766f654c6f636b65723a3a70756c6c46726f6d4c6f636b65724d756c746960448201527f4552433732312829202163616e50756c6c4d756c74694552433732312829000060648201526084016104e4565b858110156106665786868281811061058e5761058e611b01565b90506020020160208101906105a39190611819565b6001600160a01b031663b88d4fde306105c46000546001600160a01b031690565b8888868181106105d6576105d6611b01565b905060200201358787878181106105ef576105ef611b01565b90506020028101906106019190611b17565b6040518663ffffffff1660e01b8152600401610621959493929190611acd565b600060405180830381600087803b15801561063b57600080fd5b505af115801561064f573d6000803e3d6000fd5b50505050808061065e90611b5d565b915050610574565b50505050505050565b610677611121565b60405162461bcd60e51b815260206004820152603260248201527f5a69766f654c6f636b65723a3a70757368546f4c6f636b65724552433732312860448201527129202163616e50757368455243373231282960701b60648201526084016104e4565b6106e2611121565b60405162461bcd60e51b815260206004820152603660248201527f5a69766f654c6f636b65723a3a70756c6c46726f6d4c6f636b6572455243313160448201527535352829202163616e50756c6c45524331313535282960501b60648201526084016104e4565b610751611121565b600054600160a01b900460ff161561077b5760405162461bcd60e51b81526004016104e490611b84565b6001600160a01b0381166108055760405162461bcd60e51b815260206004820152604560248201527f5a69766f654f776e61626c654c6f636b65643a3a7472616e736665724f776e6560448201527f7273686970416e644c6f636b2829206e65774f776e6572203d3d206164647265606482015264737328302960d81b608482015260a4016104e4565b6000805460ff60a01b1916600160a01b179055610821816111a1565b50565b600160009054906101000a90046001600160a01b03166001600160a01b031663c76d41c86040518163ffffffff1660e01b8152600401602060405180830381865afa158015610877573d6000803e3d6000fd5b505050506040513d601f19601f8201168201806040525081019061089b9190611bc9565b6001600160a01b0316336001600160a01b0316146108cb5760405162461bcd60e51b81526004016104e490611be6565b600154604051632cf134f760e11b8152600481018390526001600160a01b03909116906359e269ee906024015b600060405180830381600087803b15801561091257600080fd5b505af1158015610926573d6000803e3d6000fd5b5050505050565b610935611121565b60405162461bcd60e51b815260206004820152603260248201527f5a69766f654c6f636b65723a3a70756c6c46726f6d4c6f636b65724d756c74696044820152712829202163616e50756c6c4d756c7469282960701b60648201526084016104e4565b81811015610a8f57610a7d6109b56000546001600160a01b031690565b8484848181106109c7576109c7611b01565b90506020020160208101906109dc9190611819565b6040516370a0823160e01b81523060048201526001600160a01b0391909116906370a0823190602401602060405180830381865afa158015610a22573d6000803e3d6000fd5b505050506040513d601f19601f82011682018060405250810190610a469190611c5d565b858585818110610a5857610a58611b01565b9050602002016020810190610a6d9190611819565b6001600160a01b031691906111f1565b80610a8781611b5d565b915050610998565b505050565b610a9c611121565b600054600160a01b900460ff1615610ac65760405162461bcd60e51b81526004016104e490611b84565b610ad060006111a1565b565b600160009054906101000a90046001600160a01b03166001600160a01b031663c76d41c86040518163ffffffff1660e01b8152600401602060405180830381865afa158015610b25573d6000803e3d6000fd5b505050506040513d601f19601f82011682018060405250810190610b499190611bc9565b6001600160a01b0316336001600160a01b031614610b795760405162461bcd60e51b81526004016104e490611be6565b6001546040516379de292760e01b8152600481018390526001600160a01b03909116906379de2927906024016108f8565b610bb2611121565b60405162461bcd60e51b815260206004820152602860248201527f5a69766f654c6f636b65723a3a70756c6c46726f6d4c6f636b65722829202163604482015267616e50756c6c282960c01b60648201526084016104e4565b610c13611121565b60405162461bcd60e51b815260206004820152602660248201527f5a69766f654c6f636b65723a3a70757368546f4c6f636b65722829202163616e60448201526550757368282960d01b60648201526084016104e4565b610c72611121565b60405162461bcd60e51b815260206004820152603c60248201527f5a69766f654c6f636b65723a3a70757368546f4c6f636b65724d756c7469455260448201527f433732312829202163616e507573684d756c746945524337323128290000000060648201526084016104e4565b8581101561066657868682818110610cfa57610cfa611b01565b9050602002016020810190610d0f9190611819565b6001600160a01b031663b88d4fde610d2f6000546001600160a01b031690565b30888886818110610d4257610d42611b01565b90506020020135878787818110610d5b57610d5b611b01565b9050602002810190610d6d9190611b17565b6040518663ffffffff1660e01b8152600401610d8d959493929190611acd565b600060405180830381600087803b158015610da757600080fd5b505af1158015610dbb573d6000803e3d6000fd5b505050508080610dca90611b5d565b915050610ce0565b610dda611121565b60405162461bcd60e51b815260206004820152603060248201527f5a69766f654c6f636b65723a3a70757368546f4c6f636b65724d756c7469282960448201526f202163616e507573684d756c7469282960801b60648201526084016104e4565b8381101561092657610eaa610e586000546001600160a01b031690565b30858585818110610e6b57610e6b611b01565b90506020020135888886818110610e8457610e84611b01565b9050602002016020810190610e999190611819565b6001600160a01b0316929190611254565b80610eb481611b5d565b915050610e3b565b610ec4611121565b60405162461bcd60e51b815260206004820152603660248201527f5a69766f654c6f636b65723a3a70756c6c46726f6d4c6f636b65725061727469604482015275616c2829202163616e50756c6c5061727469616c282960501b60648201526084016104e4565b610f33611121565b600054600160a01b900460ff1615610f5d5760405162461bcd60e51b81526004016104e490611b84565b6001600160a01b038116610fd95760405162461bcd60e51b815260206004820152603e60248201527f5a69766f654f776e61626c654c6f636b65643a3a7472616e736665724f776e6560448201527f72736869702829206e65774f776e6572203d3d2061646472657373283029000060648201526084016104e4565b610821816111a1565b610fea611121565b60405162461bcd60e51b815260206004820152603460248201527f5a69766f654c6f636b65723a3a70757368546f4c6f636b6572455243313135356044820152732829202163616e5075736845524331313535282960601b60648201526084016104e4565b611057611121565b6040805162461bcd60e51b81526020600482015260248101919091527f5a69766f654c6f636b65723a3a70756c6c46726f6d4c6f636b65724d756c746960448201527f5061727469616c2829202163616e50756c6c4d756c74695061727469616c282960648201526084016104e4565b838110156109265761110f6110e46000546001600160a01b031690565b8484848181106110f6576110f6611b01565b90506020020135878785818110610a5857610a58611b01565b8061111981611b5d565b9150506110c7565b6000546001600160a01b03163314610ad05760405162461bcd60e51b815260206004820152603760248201527f5a69766f654f776e61626c654c6f636b65643a3a5f636865636b4f776e65722060448201527f6f776e6572282920213d205f6d736753656e646572282900000000000000000060648201526084016104e4565b600080546001600160a01b038381166001600160a01b0319831681178455604051919092169283917f8be0079c531659141344cd1fd0a4f28419497f9722a3daafe3b4186f6b6457e09190a35050565b6040516001600160a01b038316602482015260448101829052610a8f90849063a9059cbb60e01b906064015b60408051601f198184030181529190526020810180516001600160e01b03166001600160e01b031990931692909217909152611292565b6040516001600160a01b038085166024830152831660448201526064810182905261128c9085906323b872dd60e01b9060840161121d565b50505050565b60006112e7826040518060400160405280602081526020017f5361666545524332303a206c6f772d6c6576656c2063616c6c206661696c6564815250856001600160a01b03166113649092919063ffffffff16565b805190915015610a8f57808060200190518101906113059190611c76565b610a8f5760405162461bcd60e51b815260206004820152602a60248201527f5361666545524332303a204552433230206f7065726174696f6e20646964206e6044820152691bdd081cdd58d8d9595960b21b60648201526084016104e4565b60606104f6848460008585600080866001600160a01b0316858760405161138b9190611cbc565b60006040518083038185875af1925050503d80600081146113c8576040519150601f19603f3d011682016040523d82523d6000602084013e6113cd565b606091505b50915091506113de878383876113e9565b979650505050505050565b60608315611458578251600003611451576001600160a01b0385163b6114515760405162461bcd60e51b815260206004820152601d60248201527f416464726573733a2063616c6c20746f206e6f6e2d636f6e747261637400000060448201526064016104e4565b50816104f6565b6104f6838381511561146d5781518083602001fd5b8060405162461bcd60e51b81526004016104e49190611cd8565b60006020828403121561149957600080fd5b81356001600160e01b0319811681146114b157600080fd5b9392505050565b6001600160a01b038116811461082157600080fd5b60008083601f8401126114df57600080fd5b5081356001600160401b038111156114f657600080fd5b60208301915083602082850101111561150e57600080fd5b9250929050565b6000806000806060858703121561152b57600080fd5b8435611536816114b8565b93506020850135925060408501356001600160401b0381111561155857600080fd5b611564878288016114cd565b95989497509550505050565b634e487b7160e01b600052604160045260246000fd5b604051601f8201601f191681016001600160401b03811182821017156115ae576115ae611570565b604052919050565b600082601f8301126115c757600080fd5b81356001600160401b038111156115e0576115e0611570565b6115f3601f8201601f1916602001611586565b81815284602083860101111561160857600080fd5b816020850160208301376000918101602001919091529392505050565b6000806000806080858703121561163b57600080fd5b8435611646816114b8565b93506020850135611656816114b8565b92506040850135915060608501356001600160401b0381111561167857600080fd5b611684878288016115b6565b91505092959194509250565b60008083601f8401126116a257600080fd5b5081356001600160401b038111156116b957600080fd5b6020830191508360208260051b850101111561150e57600080fd5b600080600080600080606087890312156116ed57600080fd5b86356001600160401b038082111561170457600080fd5b6117108a838b01611690565b9098509650602089013591508082111561172957600080fd5b6117358a838b01611690565b9096509450604089013591508082111561174e57600080fd5b5061175b89828a01611690565b979a9699509497509295939492505050565b60008060008060008060006080888a03121561178857600080fd5b8735611793816114b8565b965060208801356001600160401b03808211156117af57600080fd5b6117bb8b838c01611690565b909850965060408a01359150808211156117d457600080fd5b6117e08b838c01611690565b909650945060608a01359150808211156117f957600080fd5b506118068a828b016114cd565b989b979a50959850939692959293505050565b60006020828403121561182b57600080fd5b81356114b1816114b8565b60006020828403121561184857600080fd5b5035919050565b6000806020838503121561186257600080fd5b82356001600160401b0381111561187857600080fd5b61188485828601611690565b90969095509350505050565b600080604083850312156118a357600080fd5b82356118ae816114b8565b946020939093013593505050565b600082601f8301126118cd57600080fd5b813560206001600160401b038211156118e8576118e8611570565b8160051b6118f7828201611586565b928352848101820192828101908785111561191157600080fd5b83870192505b848310156113de57823582529183019190830190611917565b600080600080600060a0868803121561194857600080fd5b8535611953816114b8565b94506020860135611963816114b8565b935060408601356001600160401b038082111561197f57600080fd5b61198b89838a016118bc565b945060608801359150808211156119a157600080fd5b6119ad89838a016118bc565b935060808801359150808211156119c357600080fd5b506119d0888289016115b6565b9150509295509295909350565b600080600080604085870312156119f357600080fd5b84356001600160401b0380821115611a0a57600080fd5b611a1688838901611690565b90965094506020870135915080821115611a2f57600080fd5b5061156487828801611690565b600080600080600060a08688031215611a5457600080fd5b8535611a5f816114b8565b94506020860135611a6f816114b8565b9350604086013592506060860135915060808601356001600160401b03811115611a9857600080fd5b6119d0888289016115b6565b81835281816020850137506000828201602090810191909152601f909101601f19169091010190565b6001600160a01b03868116825285166020820152604081018490526080606082018190526000906113de9083018486611aa4565b634e487b7160e01b600052603260045260246000fd5b6000808335601e19843603018112611b2e57600080fd5b8301803591506001600160401b03821115611b4857600080fd5b60200191503681900382131561150e57600080fd5b600060018201611b7d57634e487b7160e01b600052601160045260246000fd5b5060010190565b60208082526025908201527f5a69766f654f776e61626c654c6f636b65643a3a756e6c6f636b65642829206c6040820152641bd8dad95960da1b606082015260800190565b600060208284031215611bdb57600080fd5b81516114b1816114b8565b60208082526051908201527f4f43475f44656661756c74733a3a6f6e6c79476f7665726e616e63652829205f60408201527f6d736753656e646572213d20495a69766f65476c6f62616c735f4f43475f44656060820152706661756c74732847424c292e544c43282960781b608082015260a00190565b600060208284031215611c6f57600080fd5b5051919050565b600060208284031215611c8857600080fd5b815180151581146114b157600080fd5b60005b83811015611cb3578181015183820152602001611c9b565b50506000910152565b60008251611cce818460208701611c98565b9190910192915050565b6020815260008251806020840152611cf7816040850160208701611c98565b601f01601f1916919091016040019291505056fea2646970667358221220e3f790c503686354d2ed83897ec6c8d70c810985cba885901b3a4b190537896b64736f6c63430008100033",
    "linkReferences": {}
  },
  "methodIdentifiers": {
    "GBL()": "3ce8d432",
    "canPull()": "215cccdd",
    "canPullERC1155()": "b0607cf8",
    "canPullERC721()": "3c117244",
    "canPullMulti()": "3eda81ad",
    "canPullMultiERC721()": "1852b383",
    "canPullMultiPartial()": "2f08d48b",
    "canPullPartial()": "64c77735",
    "canPush()": "e7f44629",
    "canPushERC1155()": "cf10b7ab",
    "canPushERC721()": "8b648ee2",
    "canPushMulti()": "a4a3e79d",
    "canPushMultiERC721()": "dd913bdb",
    "decreaseDefaults(uint256)": "79de2927",
    "increaseDefaults(uint256)": "59e269ee",
    "locked()": "cf309012",
    "onERC1155BatchReceived(address,address,uint256[],uint256[],bytes)": "bc197c81",
    "onERC1155Received(address,address,uint256,uint256,bytes)": "f23a6e61",
    "onERC721Received(address,address,uint256,bytes)": "150b7a02",
    "owner()": "8da5cb5b",
    "pullFromLocker(address)": "7dbcdbc1",
    "pullFromLockerERC1155(address,uint256[],uint256[],bytes)": "422b2018",
    "pullFromLockerERC721(address,uint256,bytes)": "12052176",
    "pullFromLockerMulti(address[])": "607cd649",
    "pullFromLockerMultiERC721(address[],uint256[],bytes[])": "15e98744",
    "pullFromLockerMultiPartial(address[],uint256[])": "ff0459ba",
    "pullFromLockerPartial(address,uint256)": "d9821e3b",
    "pushToLocker(address,uint256)": "84476591",
    "pushToLockerERC1155(address,uint256[],uint256[],bytes)": "fd76f59d",
    "pushToLockerERC721(address,uint256,bytes)": "1d9389e9",
    "pushToLockerMulti(address[],uint256[])": "c9c6a414",
    "pushToLockerMultiERC721(address[],uint256[],bytes[])": "b892bcc0",
    "renounceOwnership()": "715018a6",
    "supportsInterface(bytes4)": "01ffc9a7",
    "transferOwnership(address)": "f2fde38b",
    "transferOwnershipAndLock(address)": "58289c7e"
  },
  "id": 69
}