{
  "abi": [
    {
      "inputs": [
        {
          "internalType": "address",
          "name": "_stakingToken",
          "type": "address"
        },
        {
          "internalType": "address",
          "name": "_GBL",
          "type": "address"
        }
      ],
      "stateMutability": "nonpayable",
      "type": "constructor"
    },
    {
      "anonymous": false,
      "inputs": [
        {
          "indexed": true,
          "internalType": "address",
          "name": "previousOwner",
          "type": "address"
        },
        {
          "indexed": true,
          "internalType": "address",
          "name": "newOwner",
          "type": "address"
        }
      ],
      "name": "OwnershipTransferred",
      "type": "event"
    },
    {
      "anonymous": false,
      "inputs": [
        {
          "indexed": true,
          "internalType": "address",
          "name": "previousOwner",
          "type": "address"
        },
        {
          "indexed": true,
          "internalType": "address",
          "name": "newOwner",
          "type": "address"
        }
      ],
      "name": "OwnershipTransferredAndLocked",
      "type": "event"
    },
    {
      "anonymous": false,
      "inputs": [
        {
          "indexed": true,
          "internalType": "address",
          "name": "reward",
          "type": "address"
        }
      ],
      "name": "RewardAdded",
      "type": "event"
    },
    {
      "anonymous": false,
      "inputs": [
        {
          "indexed": true,
          "internalType": "address",
          "name": "reward",
          "type": "address"
        },
        {
          "indexed": false,
          "internalType": "uint256",
          "name": "amount",
          "type": "uint256"
        },
        {
          "indexed": true,
          "internalType": "address",
          "name": "depositor",
          "type": "address"
        }
      ],
      "name": "RewardDeposited",
      "type": "event"
    },
    {
      "anonymous": false,
      "inputs": [
        {
          "indexed": true,
          "internalType": "address",
          "name": "user",
          "type": "address"
        },
        {
          "indexed": true,
          "internalType": "address",
          "name": "rewardsToken",
          "type": "address"
        },
        {
          "indexed": false,
          "internalType": "uint256",
          "name": "reward",
          "type": "uint256"
        }
      ],
      "name": "RewardDistributed",
      "type": "event"
    },
    {
      "anonymous": false,
      "inputs": [
        {
          "indexed": true,
          "internalType": "address",
          "name": "user",
          "type": "address"
        },
        {
          "indexed": false,
          "internalType": "uint256",
          "name": "amount",
          "type": "uint256"
        }
      ],
      "name": "Staked",
      "type": "event"
    },
    {
      "anonymous": false,
      "inputs": [
        {
          "indexed": true,
          "internalType": "address",
          "name": "account",
          "type": "address"
        },
        {
          "indexed": false,
          "internalType": "uint256",
          "name": "startingUnix",
          "type": "uint256"
        },
        {
          "indexed": false,
          "internalType": "uint256",
          "name": "cliffUnix",
          "type": "uint256"
        },
        {
          "indexed": false,
          "internalType": "uint256",
          "name": "endingUnix",
          "type": "uint256"
        },
        {
          "indexed": false,
          "internalType": "uint256",
          "name": "totalVesting",
          "type": "uint256"
        },
        {
          "indexed": false,
          "internalType": "uint256",
          "name": "vestingPerSecond",
          "type": "uint256"
        },
        {
          "indexed": false,
          "internalType": "bool",
          "name": "revokable",
          "type": "bool"
        }
      ],
      "name": "VestingScheduleAdded",
      "type": "event"
    },
    {
      "anonymous": false,
      "inputs": [
        {
          "indexed": true,
          "internalType": "address",
          "name": "account",
          "type": "address"
        },
        {
          "indexed": false,
          "internalType": "uint256",
          "name": "amountRevoked",
          "type": "uint256"
        },
        {
          "indexed": false,
          "internalType": "uint256",
          "name": "cliffUnix",
          "type": "uint256"
        },
        {
          "indexed": false,
          "internalType": "uint256",
          "name": "endingUnix",
          "type": "uint256"
        },
        {
          "indexed": false,
          "internalType": "uint256",
          "name": "totalVesting",
          "type": "uint256"
        },
        {
          "indexed": false,
          "internalType": "bool",
          "name": "revokable",
          "type": "bool"
        }
      ],
      "name": "VestingScheduleRevoked",
      "type": "event"
    },
    {
      "anonymous": false,
      "inputs": [
        {
          "indexed": true,
          "internalType": "address",
          "name": "user",
          "type": "address"
        },
        {
          "indexed": false,
          "internalType": "uint256",
          "name": "amount",
          "type": "uint256"
        }
      ],
      "name": "Withdrawn",
      "type": "event"
    },
    {
      "inputs": [],
      "name": "GBL",
      "outputs": [
        {
          "internalType": "address",
          "name": "",
          "type": "address"
        }
      ],
      "stateMutability": "view",
      "type": "function"
    },
    {
      "inputs": [
        {
          "internalType": "address",
          "name": "_rewardsToken",
          "type": "address"
        },
        {
          "internalType": "uint256",
          "name": "_rewardsDuration",
          "type": "uint256"
        }
      ],
      "name": "addReward",
      "outputs": [],
      "stateMutability": "nonpayable",
      "type": "function"
    },
    {
      "inputs": [
        {
          "internalType": "address",
          "name": "account",
          "type": "address"
        }
      ],
      "name": "amountWithdrawable",
      "outputs": [
        {
          "internalType": "uint256",
          "name": "amount",
          "type": "uint256"
        }
      ],
      "stateMutability": "view",
      "type": "function"
    },
    {
      "inputs": [
        {
          "internalType": "address",
          "name": "account",
          "type": "address"
        }
      ],
      "name": "balanceOf",
      "outputs": [
        {
          "internalType": "uint256",
          "name": "amount",
          "type": "uint256"
        }
      ],
      "stateMutability": "view",
      "type": "function"
    },
    {
      "inputs": [
        {
          "internalType": "address",
          "name": "_rewardsToken",
          "type": "address"
        },
        {
          "internalType": "uint256",
          "name": "reward",
          "type": "uint256"
        }
      ],
      "name": "depositReward",
      "outputs": [],
      "stateMutability": "nonpayable",
      "type": "function"
    },
    {
      "inputs": [
        {
          "internalType": "address",
          "name": "account",
          "type": "address"
        },
        {
          "internalType": "address",
          "name": "_rewardsToken",
          "type": "address"
        }
      ],
      "name": "earned",
      "outputs": [
        {
          "internalType": "uint256",
          "name": "amount",
          "type": "uint256"
        }
      ],
      "stateMutability": "view",
      "type": "function"
    },
    {
      "inputs": [],
      "name": "fullWithdraw",
      "outputs": [],
      "stateMutability": "nonpayable",
      "type": "function"
    },
    {
      "inputs": [
        {
          "internalType": "uint256",
          "name": "index",
          "type": "uint256"
        }
      ],
      "name": "getRewardAt",
      "outputs": [],
      "stateMutability": "nonpayable",
      "type": "function"
    },
    {
      "inputs": [
        {
          "internalType": "address",
          "name": "_rewardsToken",
          "type": "address"
        }
      ],
      "name": "getRewardForDuration",
      "outputs": [
        {
          "internalType": "uint256",
          "name": "amount",
          "type": "uint256"
        }
      ],
      "stateMutability": "view",
      "type": "function"
    },
    {
      "inputs": [],
      "name": "getRewards",
      "outputs": [],
      "stateMutability": "nonpayable",
      "type": "function"
    },
    {
      "inputs": [
        {
          "internalType": "address",
          "name": "_rewardsToken",
          "type": "address"
        }
      ],
      "name": "lastTimeRewardApplicable",
      "outputs": [
        {
          "internalType": "uint256",
          "name": "timestamp",
          "type": "uint256"
        }
      ],
      "stateMutability": "view",
      "type": "function"
    },
    {
      "inputs": [],
      "name": "locked",
      "outputs": [
        {
          "internalType": "bool",
          "name": "",
          "type": "bool"
        }
      ],
      "stateMutability": "view",
      "type": "function"
    },
    {
      "inputs": [],
      "name": "owner",
      "outputs": [
        {
          "internalType": "address",
          "name": "",
          "type": "address"
        }
      ],
      "stateMutability": "view",
      "type": "function"
    },
    {
      "inputs": [],
      "name": "renounceOwnership",
      "outputs": [],
      "stateMutability": "nonpayable",
      "type": "function"
    },
    {
      "inputs": [
        {
          "internalType": "address",
          "name": "account",
          "type": "address"
        }
      ],
      "name": "revoke",
      "outputs": [],
      "stateMutability": "nonpayable",
      "type": "function"
    },
    {
      "inputs": [
        {
          "internalType": "address",
          "name": "",
          "type": "address"
        }
      ],
      "name": "rewardData",
      "outputs": [
        {
          "internalType": "uint256",
          "name": "rewardsDuration",
          "type": "uint256"
        },
        {
          "internalType": "uint256",
          "name": "periodFinish",
          "type": "uint256"
        },
        {
          "internalType": "uint256",
          "name": "rewardRate",
          "type": "uint256"
        },
        {
          "internalType": "uint256",
          "name": "lastUpdateTime",
          "type": "uint256"
        },
        {
          "internalType": "uint256",
          "name": "rewardPerTokenStored",
          "type": "uint256"
        }
      ],
      "stateMutability": "view",
      "type": "function"
    },
    {
      "inputs": [
        {
          "internalType": "address",
          "name": "_rewardsToken",
          "type": "address"
        }
      ],
      "name": "rewardPerToken",
      "outputs": [
        {
          "internalType": "uint256",
          "name": "amount",
          "type": "uint256"
        }
      ],
      "stateMutability": "view",
      "type": "function"
    },
    {
      "inputs": [
        {
          "internalType": "uint256",
          "name": "",
          "type": "uint256"
        }
      ],
      "name": "rewardTokens",
      "outputs": [
        {
          "internalType": "address",
          "name": "",
          "type": "address"
        }
      ],
      "stateMutability": "view",
      "type": "function"
    },
    {
      "inputs": [
        {
          "internalType": "address",
          "name": "",
          "type": "address"
        },
        {
          "internalType": "address",
          "name": "",
          "type": "address"
        }
      ],
      "name": "rewards",
      "outputs": [
        {
          "internalType": "uint256",
          "name": "",
          "type": "uint256"
        }
      ],
      "stateMutability": "view",
      "type": "function"
    },
    {
      "inputs": [],
      "name": "stakingToken",
      "outputs": [
        {
          "internalType": "contract IERC20",
          "name": "",
          "type": "address"
        }
      ],
      "stateMutability": "view",
      "type": "function"
    },
    {
      "inputs": [],
      "name": "totalSupply",
      "outputs": [
        {
          "internalType": "uint256",
          "name": "amount",
          "type": "uint256"
        }
      ],
      "stateMutability": "view",
      "type": "function"
    },
    {
      "inputs": [
        {
          "internalType": "address",
          "name": "newOwner",
          "type": "address"
        }
      ],
      "name": "transferOwnership",
      "outputs": [],
      "stateMutability": "nonpayable",
      "type": "function"
    },
    {
      "inputs": [
        {
          "internalType": "address",
          "name": "newOwner",
          "type": "address"
        }
      ],
      "name": "transferOwnershipAndLock",
      "outputs": [],
      "stateMutability": "nonpayable",
      "type": "function"
    },
    {
      "inputs": [
        {
          "internalType": "address",
          "name": "",
          "type": "address"
        },
        {
          "internalType": "address",
          "name": "",
          "type": "address"
        }
      ],
      "name": "userRewardPerTokenPaid",
      "outputs": [
        {
          "internalType": "uint256",
          "name": "",
          "type": "uint256"
        }
      ],
      "stateMutability": "view",
      "type": "function"
    },
    {
      "inputs": [
        {
          "internalType": "address",
          "name": "account",
          "type": "address"
        },
        {
          "internalType": "uint256",
          "name": "daysToCliff",
          "type": "uint256"
        },
        {
          "internalType": "uint256",
          "name": "daysToVest",
          "type": "uint256"
        },
        {
          "internalType": "uint256",
          "name": "amountToVest",
          "type": "uint256"
        },
        {
          "internalType": "bool",
          "name": "revokable",
          "type": "bool"
        }
      ],
      "name": "vest",
      "outputs": [],
      "stateMutability": "nonpayable",
      "type": "function"
    },
    {
      "inputs": [
        {
          "internalType": "address",
          "name": "",
          "type": "address"
        }
      ],
      "name": "vestingScheduleOf",
      "outputs": [
        {
          "internalType": "uint256",
          "name": "startingUnix",
          "type": "uint256"
        },
        {
          "internalType": "uint256",
          "name": "cliffUnix",
          "type": "uint256"
        },
        {
          "internalType": "uint256",
          "name": "endingUnix",
          "type": "uint256"
        },
        {
          "internalType": "uint256",
          "name": "totalVesting",
          "type": "uint256"
        },
        {
          "internalType": "uint256",
          "name": "totalWithdrawn",
          "type": "uint256"
        },
        {
          "internalType": "uint256",
          "name": "vestingPerSecond",
          "type": "uint256"
        },
        {
          "internalType": "bool",
          "name": "revokable",
          "type": "bool"
        }
      ],
      "stateMutability": "view",
      "type": "function"
    },
    {
      "inputs": [
        {
          "internalType": "address",
          "name": "",
          "type": "address"
        }
      ],
      "name": "vestingScheduleSet",
      "outputs": [
        {
          "internalType": "bool",
          "name": "",
          "type": "bool"
        }
      ],
      "stateMutability": "view",
      "type": "function"
    },
    {
      "inputs": [],
      "name": "vestingToken",
      "outputs": [
        {
          "internalType": "address",
          "name": "",
          "type": "address"
        }
      ],
      "stateMutability": "view",
      "type": "function"
    },
    {
      "inputs": [],
      "name": "vestingTokenAllocated",
      "outputs": [
        {
          "internalType": "uint256",
          "name": "",
          "type": "uint256"
        }
      ],
      "stateMutability": "view",
      "type": "function"
    },
    {
      "inputs": [
        {
          "internalType": "address",
          "name": "account",
          "type": "address"
        },
        {
          "internalType": "address",
          "name": "rewardAsset",
          "type": "address"
        }
      ],
      "name": "viewRewards",
      "outputs": [
        {
          "internalType": "uint256",
          "name": "amount",
          "type": "uint256"
        }
      ],
      "stateMutability": "view",
      "type": "function"
    },
    {
      "inputs": [
        {
          "internalType": "address",
          "name": "account",
          "type": "address"
        }
      ],
      "name": "viewSchedule",
      "outputs": [
        {
          "internalType": "uint256",
          "name": "startingUnix",
          "type": "uint256"
        },
        {
          "internalType": "uint256",
          "name": "cliffUnix",
          "type": "uint256"
        },
        {
          "internalType": "uint256",
          "name": "endingUnix",
          "type": "uint256"
        },
        {
          "internalType": "uint256",
          "name": "totalVesting",
          "type": "uint256"
        },
        {
          "internalType": "uint256",
          "name": "totalWithdrawn",
          "type": "uint256"
        },
        {
          "internalType": "uint256",
          "name": "vestingPerSecond",
          "type": "uint256"
        },
        {
          "internalType": "bool",
          "name": "revokable",
          "type": "bool"
        }
      ],
      "stateMutability": "view",
      "type": "function"
    },
    {
      "inputs": [
        {
          "internalType": "address",
          "name": "account",
          "type": "address"
        },
        {
          "internalType": "address",
          "name": "rewardAsset",
          "type": "address"
        }
      ],
      "name": "viewUserRewardPerTokenPaid",
      "outputs": [
        {
          "internalType": "uint256",
          "name": "amount",
          "type": "uint256"
        }
      ],
      "stateMutability": "view",
      "type": "function"
    },
    {
      "inputs": [],
      "name": "withdraw",
      "outputs": [],
      "stateMutability": "nonpayable",
      "type": "function"
    }
  ],
  "bytecode": {
    "object": "0x60a06040523480156200001157600080fd5b5060405162002842380380620028428339810160408190526200003491620000e9565b600160005562000044336200007a565b600680546001600160a01b039384166001600160a01b031991821681179092556002805490911690911790551660805262000121565b600180546001600160a01b038381166001600160a01b0319831681179093556040519116919082907f8be0079c531659141344cd1fd0a4f28419497f9722a3daafe3b4186f6b6457e090600090a35050565b80516001600160a01b0381168114620000e457600080fd5b919050565b60008060408385031215620000fd57600080fd5b6200010883620000cc565b91506200011860208401620000cc565b90509250929050565b6080516126fe6200014460003960008181610296015261177001526126fe6000f3fe608060405234801561001057600080fd5b50600436106101fb5760003560e01c8063715018a61161011a5780638da5cb5b116100ad578063cf3090121161007c578063cf30901214610599578063e70b9e27146105ad578063f1229777146105d8578063f2fde38b146105eb578063fa914ed5146105fe57600080fd5b80638da5cb5b1461054f5780639feb8f5014610560578063bcd1101414610573578063cefba7e61461058657600080fd5b806379a7be78116100e957806379a7be78146104c95780637bb7bed1146104d25780637db4e28f146104e5578063893f5e26146104f857600080fd5b8063715018a61461041657806372f702f31461041e57806374a8f103146104315780637828f8a71461044457600080fd5b80634678a9881161019257806358289c7e1161016157806358289c7e1461039c578063638634ee146103af5780637035ab98146103c257806370a08231146103ed57600080fd5b80634678a988146102b857806348e5d9f8146102eb57806352985ac61461035057806357c61fbd1461038957600080fd5b8063211dc32d116101ce578063211dc32d146102635780633a8063a6146102765780633ccfd60b146102895780633ce8d4321461029157600080fd5b80630572b0cc146102005780631737595f1461020a57806318160ddd1461023057806319d152fa14610238575b600080fd5b610208610606565b005b61021d610218366004612412565b61073e565b6040519081526020015b60405180910390f35b60055461021d565b60025461024b906001600160a01b031681565b6040516001600160a01b039091168152602001610227565b61021d610271366004612412565b61076b565b610208610284366004612459565b610804565b610208610bcd565b61024b7f000000000000000000000000000000000000000000000000000000000000000081565b6102db6102c63660046124af565b60076020526000908152604090205460ff1681565b6040519015158152602001610227565b6103286102f93660046124af565b600960205260009081526040902080546001820154600283015460038401546004909401549293919290919085565b604080519586526020860194909452928401919091526060830152608082015260a001610227565b61021d61035e366004612412565b6001600160a01b039182166000908152600b6020908152604080832093909416825291909152205490565b61021d6103973660046124af565b610e37565b6102086103aa3660046124af565b610f5c565b61021d6103bd3660046124af565b611037565b61021d6103d0366004612412565b600c60209081526000928352604080842090915290825290205481565b61021d6103fb3660046124af565b6001600160a01b03166000908152600a602052604090205490565b61020861105e565b60065461024b906001600160a01b031681565b61020861043f3660046124af565b61109a565b6104926104523660046124af565b6008602052600090815260409020805460018201546002830154600384015460048501546005860154600690960154949593949293919290919060ff1687565b604080519788526020880196909652948601939093526060850191909152608084015260a0830152151560c082015260e001610227565b61021d60045481565b61024b6104e03660046124cc565b611492565b6102086104f33660046124e5565b6114bc565b6104926105063660046124af565b6001600160a01b03166000908152600860205260409020805460018201546002830154600384015460048501546005860154600690960154949693959294919390929160ff1690565b6001546001600160a01b031661024b565b61020861056e3660046124e5565b611766565b61021d6105813660046124af565b611a3c565b6102086105943660046124cc565b611a65565b6001546102db90600160a01b900460ff1681565b61021d6105bb366004612412565b600b60209081526000928352604080842090915290825290205481565b61021d6105e63660046124af565b611c25565b6102086105f93660046124af565b611cc6565b610208611d7d565b61060e611d8d565b3360005b6003548110156107075760006003828154811061063157610631612511565b6000918252602090912001546001600160a01b0316905061065181611c25565b6001600160a01b03821660009081526009602052604090206004015561067681611037565b6001600160a01b038083166000908152600960205260409020600301919091558316156106f4576106a7838261076b565b6001600160a01b038085166000818152600b60209081526040808320948716808452948252808320959095556009815284822060040154928252600c815284822093825292909252919020555b50806106ff8161253d565b915050610612565b5060005b6003548110156107305761071e81611a65565b806107288161253d565b91505061070b565b505061073c6001600055565b565b6001600160a01b038083166000908152600c60209081526040808320938516835292905220545b92915050565b6001600160a01b038083166000818152600b6020908152604080832094861680845294825280832054938352600c8252808320948352939052918220546107fd91906107f790670de0b6b3a7640000906107f1906107d2906107cc89611c25565b90611de6565b6001600160a01b0389166000908152600a602052604090205490611df2565b90611dfe565b90611e0a565b9392505050565b61080c611e16565b6001600160a01b03851660009081526007602052604090205460ff16156108a05760405162461bcd60e51b815260206004820152603760248201527f5a69766f655265776172647356657374696e673a3a766573742829207665737460448201527f696e675363686564756c655365745b6163636f756e745d00000000000000000060648201526084015b60405180910390fd5b600480546002546040516370a0823160e01b8152309381019390935284926001600160a01b03909116906370a0823190602401602060405180830381865afa1580156108f0573d6000803e3d6000fd5b505050506040513d601f19601f820116820180604052508101906109149190612556565b61091e919061256f565b10156109d15760405162461bcd60e51b815260206004820152607060248201527f5a69766f655265776172647356657374696e673a3a76657374282920616d6f7560448201527f6e74546f56657374203e204945524332302876657374696e67546f6b656e292e60648201527f62616c616e63654f66286164647265737328746869732929202d20766573746960848201526f1b99d51bdad95b905b1b1bd8d85d195960821b60a482015260c401610897565b82841115610a3e5760405162461bcd60e51b815260206004820152603460248201527f5a69766f655265776172647356657374696e673a3a7665737428292064617973604482015273151bd0db1a5999880f8819185e5cd51bd5995cdd60621b6064820152608401610897565b6001600160a01b0385166000908152600760205260408120805460ff1916600117905560048054849290610a73908490612582565b90915550506001600160a01b0385166000908152600860205260409020429055610aa08462015180612595565b610aaa9042612582565b6001600160a01b038616600090815260086020526040902060010155610ad38362015180612595565b610add9042612582565b6001600160a01b03861660009081526008602052604090206002810191909155600301829055610b108362015180612595565b610b1a90836125b4565b6001600160a01b0386166000818152600860209081526040918290206005810185905560068101805460ff1916871515908117909155815460018301546002840154600390940154865192835294820152938401919091526060830191909152608082019390935260ff909216151560a0830152907f702c5383450d3294a67c6637471fcb4c45d44e9b29fad723775a24479dbc00d29060c00160405180910390a2610bc68286611e96565b5050505050565b610bd5611d8d565b3360005b600354811015610cce57600060038281548110610bf857610bf8612511565b6000918252602090912001546001600160a01b03169050610c1881611c25565b6001600160a01b038216600090815260096020526040902060040155610c3d81611037565b6001600160a01b03808316600090815260096020526040902060030191909155831615610cbb57610c6e838261076b565b6001600160a01b038085166000818152600b60209081526040808320948716808452948252808320959095556009815284822060040154928252600c815284822093825292909252919020555b5080610cc68161253d565b915050610bd9565b506000610cda33610e37565b905060008111610d605760405162461bcd60e51b815260206004820152604560248201527f5a69766f655265776172647356657374696e673a3a776974686472617728292060448201527f616d6f756e74576974686472617761626c65285f6d736753656e6465722829296064820152640203d3d20360dc1b608482015260a401610897565b3360009081526008602052604081206004018054839290610d82908490612582565b925050819055508060046000828254610d9b919061256f565b9091555050600554610dad9082611de6565b600555336000908152600a6020526040902054610dca9082611de6565b336000818152600a6020526040902091909155600654610df6916001600160a01b039091169083612093565b60405181815233907f7084f5476618d8e60b11ef0d7d3f06914655adb8793e28ff7f018d4c76d505d59060200160405180910390a2505061073c6001600055565b6001600160a01b038116600090815260086020526040812060010154421015610e6257506000919050565b6001600160a01b0382166000908152600860205260409020600101544210801590610ea757506001600160a01b03821660009081526008602052604090206002015442105b15610f05576001600160a01b038216600090815260086020526040902060048101549054610ed5904261256f565b6001600160a01b038416600090815260086020526040902060050154610efb9190612595565b610765919061256f565b6001600160a01b0382166000908152600860205260409020600201544210610f54576001600160a01b03821660009081526008602052604090206004810154600390910154610765919061256f565b506000919050565b610f64611e16565b600154600160a01b900460ff1615610f8e5760405162461bcd60e51b8152600401610897906125d6565b6001600160a01b0381166110185760405162461bcd60e51b815260206004820152604560248201527f5a69766f654f776e61626c654c6f636b65643a3a7472616e736665724f776e6560448201527f7273686970416e644c6f636b2829206e65774f776e6572203d3d206164647265606482015264737328302960d81b608482015260a401610897565b6001805460ff60a01b1916600160a01b179055611034816120fb565b50565b6001600160a01b03811660009081526009602052604081206001015461076590429061214d565b611066611e16565b600154600160a01b900460ff16156110905760405162461bcd60e51b8152600401610897906125d6565b61073c60006120fb565b8060005b600354811015611193576000600382815481106110bd576110bd612511565b6000918252602090912001546001600160a01b031690506110dd81611c25565b6001600160a01b03821660009081526009602052604090206004015561110281611037565b6001600160a01b0380831660009081526009602052604090206003019190915583161561118057611133838261076b565b6001600160a01b038085166000818152600b60209081526040808320948716808452948252808320959095556009815284822060040154928252600c815284822093825292909252919020555b508061118b8161253d565b91505061109e565b5061119c611e16565b6001600160a01b03821660009081526007602052604090205460ff1661122a5760405162461bcd60e51b815260206004820152603a60248201527f5a69766f655265776172647356657374696e673a3a7265766f6b65282920217660448201527f657374696e675363686564756c655365745b6163636f756e745d0000000000006064820152608401610897565b6001600160a01b03821660009081526008602052604090206006015460ff166112c75760405162461bcd60e51b815260206004820152604360248201527f5a69766f655265776172647356657374696e673a3a7265766f6b65282920217660448201527f657374696e675363686564756c654f665b6163636f756e745d2e7265766f6b61606482015262626c6560e81b608482015260a401610897565b60006112d283610e37565b6001600160a01b03841660009081526008602052604081206003015460048054939450909284929061130590849061256f565b90915550506001600160a01b03841660009081526008602052604081206004018054849290611335908490612582565b90915550506001600160a01b0384166000908152600860205260409020600481015460039091015561136860014261256f565b6001600160a01b038516600090815260086020526040902060018101919091554260028201556004015461139c908261256f565b600460008282546113ad919061256f565b90915550506005546113bf9082611de6565b6005556001600160a01b038085166000908152600a60205260408120556006546113eb91168584612093565b6001600160a01b038416600081815260086020526040902060068101805460ff19169055600401547f311d98a69ecd1f39d7999858d1316f2dd71d5612ddb061e3523e0f2151f3e4e19061143f908461256f565b6001600160a01b038716600090815260086020908152604080832060018101546002820154600390920154835196875293860152908401526060830152608082015260a00160405180910390a250505050565b600381815481106114a257600080fd5b6000918252602090912001546001600160a01b0316905081565b6000805b6003548110156115b5576000600382815481106114df576114df612511565b6000918252602090912001546001600160a01b031690506114ff81611c25565b6001600160a01b03821660009081526009602052604090206004015561152481611037565b6001600160a01b038083166000908152600960205260409020600301919091558316156115a257611555838261076b565b6001600160a01b038085166000818152600b60209081526040808320948716808452948252808320959095556009815284822060040154928252600c815284822093825292909252919020555b50806115ad8161253d565b9150506114c0565b506115cb6001600160a01b038416333085612163565b6001600160a01b0383166000908152600960205260409020600101544210611632576001600160a01b038316600090815260096020526040902054611611908390611dfe565b6001600160a01b0384166000908152600960205260409020600201556116cc565b6001600160a01b0383166000908152600960205260408120600101546116589042611de6565b6001600160a01b03851660009081526009602052604081206002015491925090611683908390611df2565b6001600160a01b0386166000908152600960205260409020549091506116ad906107f18684611e0a565b6001600160a01b03861660009081526009602052604090206002015550505b6001600160a01b0383166000908152600960205260409020426003820181905590546116f89190611e0a565b6001600160a01b038416600090815260096020526040902060010155336001600160a01b0316836001600160a01b03167fe4d6e9620d2b34b14f93475ba6d7e5ded9f0120d2104f15013d27053300948418460405161175991815260200190565b60405180910390a3505050565b61176e611e16565b7f00000000000000000000000000000000000000000000000000000000000000006001600160a01b0316639af6c40e6040518163ffffffff1660e01b8152600401602060405180830381865afa1580156117cc573d6000803e3d6000fd5b505050506040513d601f19601f820116820180604052508101906117f0919061261b565b6001600160a01b0316826001600160a01b03160361189c5760405162461bcd60e51b815260206004820152605960248201527f5a69766f655265776172647356657374696e673a3a616464526577617264282960448201527f205f72657761726473546f6b656e203d3d20495a69766f65476c6f62616c735f60648201527f5265776172647356657374696e672847424c292e5a5645282900000000000000608482015260a401610897565b6001600160a01b038216600090815260096020526040902054156119405760405162461bcd60e51b815260206004820152604f60248201527f5a69766f655265776172647356657374696e673a3a616464526577617264282960448201527f20726577617264446174615b5f72657761726473546f6b656e5d2e726577617260648201526e064734475726174696f6e20213d203608c1b608482015260a401610897565b600354600a116119b85760405162461bcd60e51b815260206004820152603a60248201527f5a69766f655265776172647356657374696e673a3a616464526577617264282960448201527f20726577617264546f6b656e732e6c656e677468203e3d2031300000000000006064820152608401610897565b60038054600181019091557fc2575a0e9e593c00f959f8c92f12db2869c3395a3b0502d05e2516446f71f85b0180546001600160a01b0319166001600160a01b038416908117909155600081815260096020526040808220849055517fb13fd610fe4e1b384966826794a9b2f6100ad031f352cc5ec6f22667f60749809190a25050565b6001600160a01b0381166000908152600960205260408120805460029091015461076591611df2565b3360005b600354811015611b5e57600060038281548110611a8857611a88612511565b6000918252602090912001546001600160a01b03169050611aa881611c25565b6001600160a01b038216600090815260096020526040902060040155611acd81611037565b6001600160a01b03808316600090815260096020526040902060030191909155831615611b4b57611afe838261076b565b6001600160a01b038085166000818152600b60209081526040808320948716808452948252808320959095556009815284822060040154928252600c815284822093825292909252919020555b5080611b568161253d565b915050611a69565b50600060038381548110611b7457611b74612511565b600091825260208083209190910154338352600b825260408084206001600160a01b03909216808552919092529120549091508015611c1f57336000818152600b602090815260408083206001600160a01b0387168085529252822091909155611bde9183612093565b6040518181526001600160a01b0383169033907f5303cb8fc2ab504b092b4799d2c00f2209ee4eee6b03a168171dc140ed7403ee9060200160405180910390a35b50505050565b6000600554600003611c5057506001600160a01b031660009081526009602052604090206004015490565b6005546001600160a01b0383166000908152600960205260409020600281015460039091015461076592611ca49290916107f191670de0b6b3a764000091611c9e919082906107cc8b611037565b90611df2565b6001600160a01b03841660009081526009602052604090206004015490611e0a565b611cce611e16565b600154600160a01b900460ff1615611cf85760405162461bcd60e51b8152600401610897906125d6565b6001600160a01b038116611d745760405162461bcd60e51b815260206004820152603e60248201527f5a69766f654f776e61626c654c6f636b65643a3a7472616e736665724f776e6560448201527f72736869702829206e65774f776e6572203d3d206164647265737328302900006064820152608401610897565b611034816120fb565b611d85610bcd565b61073c610606565b600260005403611ddf5760405162461bcd60e51b815260206004820152601f60248201527f5265656e7472616e637947756172643a207265656e7472616e742063616c6c006044820152606401610897565b6002600055565b60006107fd828461256f565b60006107fd8284612595565b60006107fd82846125b4565b60006107fd8284612582565b6001546001600160a01b0316331461073c5760405162461bcd60e51b815260206004820152603760248201527f5a69766f654f776e61626c654c6f636b65643a3a5f636865636b4f776e65722060448201527f6f776e6572282920213d205f6d736753656e64657228290000000000000000006064820152608401610897565b611e9e611d8d565b8060005b600354811015611f9757600060038281548110611ec157611ec1612511565b6000918252602090912001546001600160a01b03169050611ee181611c25565b6001600160a01b038216600090815260096020526040902060040155611f0681611037565b6001600160a01b03808316600090815260096020526040902060030191909155831615611f8457611f37838261076b565b6001600160a01b038085166000818152600b60209081526040808320948716808452948252808320959095556009815284822060040154928252600c815284822093825292909252919020555b5080611f8f8161253d565b915050611ea2565b5060008311611ffa5760405162461bcd60e51b815260206004820152602960248201527f5a69766f655265776172647356657374696e673a3a5f7374616b65282920616d60448201526806f756e74203d3d20360bc1b6064820152608401610897565b6005546120079084611e0a565b6005556001600160a01b0382166000908152600a602052604090205461202d9084611e0a565b6001600160a01b0383166000818152600a6020526040908190209290925590517f9e71bc8eea02a63969f509818f2dafb9254532904319f9dbda79b67bd34a5f3d9061207c9086815260200190565b60405180910390a25061208f6001600055565b5050565b6040516001600160a01b0383166024820152604481018290526120f690849063a9059cbb60e01b906064015b60408051601f198184030181529190526020810180516001600160e01b03166001600160e01b03199093169290921790915261219b565b505050565b600180546001600160a01b038381166001600160a01b0319831681179093556040519116919082907f8be0079c531659141344cd1fd0a4f28419497f9722a3daafe3b4186f6b6457e090600090a35050565b600081831061215c57816107fd565b5090919050565b6040516001600160a01b0380851660248301528316604482015260648101829052611c1f9085906323b872dd60e01b906084016120bf565b60006121f0826040518060400160405280602081526020017f5361666545524332303a206c6f772d6c6576656c2063616c6c206661696c6564815250856001600160a01b031661226d9092919063ffffffff16565b8051909150156120f6578080602001905181019061220e9190612638565b6120f65760405162461bcd60e51b815260206004820152602a60248201527f5361666545524332303a204552433230206f7065726174696f6e20646964206e6044820152691bdd081cdd58d8d9595960b21b6064820152608401610897565b606061227c8484600085612284565b949350505050565b6060824710156122e55760405162461bcd60e51b815260206004820152602660248201527f416464726573733a20696e73756666696369656e742062616c616e636520666f6044820152651c8818d85b1b60d21b6064820152608401610897565b600080866001600160a01b031685876040516123019190612679565b60006040518083038185875af1925050503d806000811461233e576040519150601f19603f3d011682016040523d82523d6000602084013e612343565b606091505b50915091506123548783838761235f565b979650505050505050565b606083156123ce5782516000036123c7576001600160a01b0385163b6123c75760405162461bcd60e51b815260206004820152601d60248201527f416464726573733a2063616c6c20746f206e6f6e2d636f6e74726163740000006044820152606401610897565b508161227c565b61227c83838151156123e35781518083602001fd5b8060405162461bcd60e51b81526004016108979190612695565b6001600160a01b038116811461103457600080fd5b6000806040838503121561242557600080fd5b8235612430816123fd565b91506020830135612440816123fd565b809150509250929050565b801515811461103457600080fd5b600080600080600060a0868803121561247157600080fd5b853561247c816123fd565b945060208601359350604086013592506060860135915060808601356124a18161244b565b809150509295509295909350565b6000602082840312156124c157600080fd5b81356107fd816123fd565b6000602082840312156124de57600080fd5b5035919050565b600080604083850312156124f857600080fd5b8235612503816123fd565b946020939093013593505050565b634e487b7160e01b600052603260045260246000fd5b634e487b7160e01b600052601160045260246000fd5b60006001820161254f5761254f612527565b5060010190565b60006020828403121561256857600080fd5b5051919050565b8181038181111561076557610765612527565b8082018082111561076557610765612527565b60008160001904831182151516156125af576125af612527565b500290565b6000826125d157634e487b7160e01b600052601260045260246000fd5b500490565b60208082526025908201527f5a69766f654f776e61626c654c6f636b65643a3a756e6c6f636b65642829206c6040820152641bd8dad95960da1b606082015260800190565b60006020828403121561262d57600080fd5b81516107fd816123fd565b60006020828403121561264a57600080fd5b81516107fd8161244b565b60005b83811015612670578181015183820152602001612658565b50506000910152565b6000825161268b818460208701612655565b9190910192915050565b60208152600082518060208401526126b4816040850160208701612655565b601f01601f1916919091016040019291505056fea2646970667358221220f5b1eb6b26ab942579582a6be168488a3f1f7031be9ea28ff3a313826fd0c21564736f6c63430008100033",
    "linkReferences": {}
  },
  "methodIdentifiers": {
    "GBL()": "3ce8d432",
    "addReward(address,uint256)": "9feb8f50",
    "amountWithdrawable(address)": "57c61fbd",
    "balanceOf(address)": "70a08231",
    "depositReward(address,uint256)": "7db4e28f",
    "earned(address,address)": "211dc32d",
    "fullWithdraw()": "fa914ed5",
    "getRewardAt(uint256)": "cefba7e6",
    "getRewardForDuration(address)": "bcd11014",
    "getRewards()": "0572b0cc",
    "lastTimeRewardApplicable(address)": "638634ee",
    "locked()": "cf309012",
    "owner()": "8da5cb5b",
    "renounceOwnership()": "715018a6",
    "revoke(address)": "74a8f103",
    "rewardData(address)": "48e5d9f8",
    "rewardPerToken(address)": "f1229777",
    "rewardTokens(uint256)": "7bb7bed1",
    "rewards(address,address)": "e70b9e27",
    "stakingToken()": "72f702f3",
    "totalSupply()": "18160ddd",
    "transferOwnership(address)": "f2fde38b",
    "transferOwnershipAndLock(address)": "58289c7e",
    "userRewardPerTokenPaid(address,address)": "7035ab98",
    "vest(address,uint256,uint256,uint256,bool)": "3a8063a6",
    "vestingScheduleOf(address)": "7828f8a7",
    "vestingScheduleSet(address)": "4678a988",
    "vestingToken()": "19d152fa",
    "vestingTokenAllocated()": "79a7be78",
    "viewRewards(address,address)": "52985ac6",
    "viewSchedule(address)": "893f5e26",
    "viewUserRewardPerTokenPaid(address,address)": "1737595f",
    "withdraw()": "3ccfd60b"
  },
  "id": 57
}