{
  "abi": [
    {
      "inputs": [
        {
          "internalType": "address",
          "name": "token",
          "type": "address"
        },
        {
          "internalType": "address",
          "name": "to",
          "type": "address"
        },
        {
          "internalType": "uint256",
          "name": "amount",
          "type": "uint256"
        }
      ],
      "name": "transferToken",
      "outputs": [],
      "stateMutability": "nonpayable",
      "type": "function"
    },
    {
      "inputs": [
        {
          "internalType": "address",
          "name": "stk",
          "type": "address"
        },
        {
          "internalType": "address",
          "name": "_rewardsToken",
          "type": "address"
        },
        {
          "internalType": "uint256",
          "name": "_rewardsDuration",
          "type": "uint256"
        }
      ],
      "name": "try_addReward",
      "outputs": [
        {
          "internalType": "bool",
          "name": "ok",
          "type": "bool"
        }
      ],
      "stateMutability": "nonpayable",
      "type": "function"
    },
    {
      "inputs": [
        {
          "internalType": "address",
          "name": "token",
          "type": "address"
        },
        {
          "internalType": "address",
          "name": "to",
          "type": "address"
        },
        {
          "internalType": "uint256",
          "name": "amount",
          "type": "uint256"
        }
      ],
      "name": "try_approveToken",
      "outputs": [
        {
          "internalType": "bool",
          "name": "ok",
          "type": "bool"
        }
      ],
      "stateMutability": "nonpayable",
      "type": "function"
    },
    {
      "inputs": [
        {
          "internalType": "address",
          "name": "token",
          "type": "address"
        },
        {
          "internalType": "uint256",
          "name": "amount",
          "type": "uint256"
        }
      ],
      "name": "try_burn",
      "outputs": [
        {
          "internalType": "bool",
          "name": "ok",
          "type": "bool"
        }
      ],
      "stateMutability": "nonpayable",
      "type": "function"
    },
    {
      "inputs": [
        {
          "internalType": "address",
          "name": "occ",
          "type": "address"
        },
        {
          "internalType": "uint256",
          "name": "id",
          "type": "uint256"
        }
      ],
      "name": "try_cancelRequest",
      "outputs": [
        {
          "internalType": "bool",
          "name": "ok",
          "type": "bool"
        }
      ],
      "stateMutability": "nonpayable",
      "type": "function"
    },
    {
      "inputs": [
        {
          "internalType": "address",
          "name": "token",
          "type": "address"
        },
        {
          "internalType": "address",
          "name": "account",
          "type": "address"
        },
        {
          "internalType": "bool",
          "name": "allowed",
          "type": "bool"
        }
      ],
      "name": "try_changeMinterRole",
      "outputs": [
        {
          "internalType": "bool",
          "name": "ok",
          "type": "bool"
        }
      ],
      "stateMutability": "nonpayable",
      "type": "function"
    },
    {
      "inputs": [
        {
          "internalType": "address",
          "name": "token",
          "type": "address"
        },
        {
          "internalType": "address",
          "name": "account",
          "type": "address"
        },
        {
          "internalType": "uint256",
          "name": "amount",
          "type": "uint256"
        }
      ],
      "name": "try_decreaseAllowance",
      "outputs": [
        {
          "internalType": "bool",
          "name": "ok",
          "type": "bool"
        }
      ],
      "stateMutability": "nonpayable",
      "type": "function"
    },
    {
      "inputs": [
        {
          "internalType": "address",
          "name": "amp",
          "type": "address"
        },
        {
          "internalType": "address",
          "name": "account",
          "type": "address"
        },
        {
          "internalType": "uint256",
          "name": "amount",
          "type": "uint256"
        }
      ],
      "name": "try_decreaseAmplification",
      "outputs": [
        {
          "internalType": "bool",
          "name": "ok",
          "type": "bool"
        }
      ],
      "stateMutability": "nonpayable",
      "type": "function"
    },
    {
      "inputs": [
        {
          "internalType": "address",
          "name": "zve",
          "type": "address"
        },
        {
          "internalType": "address",
          "name": "delegatee",
          "type": "address"
        }
      ],
      "name": "try_delegate",
      "outputs": [
        {
          "internalType": "bool",
          "name": "ok",
          "type": "bool"
        }
      ],
      "stateMutability": "nonpayable",
      "type": "function"
    },
    {
      "inputs": [
        {
          "internalType": "address",
          "name": "oce",
          "type": "address"
        }
      ],
      "name": "try_forwardEmissions",
      "outputs": [
        {
          "internalType": "bool",
          "name": "ok",
          "type": "bool"
        }
      ],
      "stateMutability": "nonpayable",
      "type": "function"
    },
    {
      "inputs": [
        {
          "internalType": "address",
          "name": "stk",
          "type": "address"
        }
      ],
      "name": "try_fullWithdraw",
      "outputs": [
        {
          "internalType": "bool",
          "name": "ok",
          "type": "bool"
        }
      ],
      "stateMutability": "nonpayable",
      "type": "function"
    },
    {
      "inputs": [
        {
          "internalType": "address",
          "name": "occ",
          "type": "address"
        },
        {
          "internalType": "uint256",
          "name": "id",
          "type": "uint256"
        }
      ],
      "name": "try_fundLoan",
      "outputs": [
        {
          "internalType": "bool",
          "name": "ok",
          "type": "bool"
        }
      ],
      "stateMutability": "nonpayable",
      "type": "function"
    },
    {
      "inputs": [
        {
          "internalType": "address",
          "name": "stk",
          "type": "address"
        },
        {
          "internalType": "uint256",
          "name": "ind",
          "type": "uint256"
        }
      ],
      "name": "try_getRewardAt",
      "outputs": [
        {
          "internalType": "bool",
          "name": "ok",
          "type": "bool"
        }
      ],
      "stateMutability": "nonpayable",
      "type": "function"
    },
    {
      "inputs": [
        {
          "internalType": "address",
          "name": "token",
          "type": "address"
        },
        {
          "internalType": "address",
          "name": "account",
          "type": "address"
        },
        {
          "internalType": "uint256",
          "name": "amount",
          "type": "uint256"
        }
      ],
      "name": "try_increaseAllowance",
      "outputs": [
        {
          "internalType": "bool",
          "name": "ok",
          "type": "bool"
        }
      ],
      "stateMutability": "nonpayable",
      "type": "function"
    },
    {
      "inputs": [
        {
          "internalType": "address",
          "name": "amp",
          "type": "address"
        },
        {
          "internalType": "address",
          "name": "account",
          "type": "address"
        },
        {
          "internalType": "uint256",
          "name": "amount",
          "type": "uint256"
        }
      ],
      "name": "try_increaseAmplification",
      "outputs": [
        {
          "internalType": "bool",
          "name": "ok",
          "type": "bool"
        }
      ],
      "stateMutability": "nonpayable",
      "type": "function"
    },
    {
      "inputs": [
        {
          "internalType": "address",
          "name": "gbl",
          "type": "address"
        },
        {
          "internalType": "uint256",
          "name": "amount",
          "type": "uint256"
        }
      ],
      "name": "try_increaseDefaults",
      "outputs": [
        {
          "internalType": "bool",
          "name": "ok",
          "type": "bool"
        }
      ],
      "stateMutability": "nonpayable",
      "type": "function"
    },
    {
      "inputs": [
        {
          "internalType": "address",
          "name": "token",
          "type": "address"
        },
        {
          "internalType": "address",
          "name": "account",
          "type": "address"
        },
        {
          "internalType": "uint256",
          "name": "amount",
          "type": "uint256"
        }
      ],
      "name": "try_mint",
      "outputs": [
        {
          "internalType": "bool",
          "name": "ok",
          "type": "bool"
        }
      ],
      "stateMutability": "nonpayable",
      "type": "function"
    },
    {
      "inputs": [
        {
          "internalType": "address",
          "name": "tranches",
          "type": "address"
        },
        {
          "internalType": "address",
          "name": "asset",
          "type": "address"
        },
        {
          "internalType": "bool",
          "name": "allowed",
          "type": "bool"
        }
      ],
      "name": "try_modifyStablecoinWhitelist",
      "outputs": [
        {
          "internalType": "bool",
          "name": "ok",
          "type": "bool"
        }
      ],
      "stateMutability": "nonpayable",
      "type": "function"
    },
    {
      "inputs": [
        {
          "internalType": "address",
          "name": "ret",
          "type": "address"
        },
        {
          "internalType": "address",
          "name": "asset",
          "type": "address"
        },
        {
          "internalType": "uint256",
          "name": "amount",
          "type": "uint256"
        },
        {
          "internalType": "address",
          "name": "multi",
          "type": "address"
        }
      ],
      "name": "try_passThroughYDL",
      "outputs": [
        {
          "internalType": "bool",
          "name": "ok",
          "type": "bool"
        }
      ],
      "stateMutability": "nonpayable",
      "type": "function"
    },
    {
      "inputs": [
        {
          "internalType": "address",
          "name": "dao",
          "type": "address"
        },
        {
          "internalType": "address",
          "name": "locker",
          "type": "address"
        },
        {
          "internalType": "address",
          "name": "asset",
          "type": "address"
        }
      ],
      "name": "try_pull",
      "outputs": [
        {
          "internalType": "bool",
          "name": "ok",
          "type": "bool"
        }
      ],
      "stateMutability": "nonpayable",
      "type": "function"
    },
    {
      "inputs": [
        {
          "internalType": "address",
          "name": "dao",
          "type": "address"
        },
        {
          "internalType": "address",
          "name": "locker",
          "type": "address"
        },
        {
          "internalType": "address[]",
          "name": "assets",
          "type": "address[]"
        }
      ],
      "name": "try_pullMulti",
      "outputs": [
        {
          "internalType": "bool",
          "name": "ok",
          "type": "bool"
        }
      ],
      "stateMutability": "nonpayable",
      "type": "function"
    },
    {
      "inputs": [
        {
          "internalType": "address",
          "name": "dao",
          "type": "address"
        },
        {
          "internalType": "address",
          "name": "locker",
          "type": "address"
        },
        {
          "internalType": "address",
          "name": "asset",
          "type": "address"
        },
        {
          "internalType": "uint256",
          "name": "amount",
          "type": "uint256"
        }
      ],
      "name": "try_pullPartial",
      "outputs": [
        {
          "internalType": "bool",
          "name": "ok",
          "type": "bool"
        }
      ],
      "stateMutability": "nonpayable",
      "type": "function"
    },
    {
      "inputs": [
        {
          "internalType": "address",
          "name": "dao",
          "type": "address"
        },
        {
          "internalType": "address",
          "name": "locker",
          "type": "address"
        },
        {
          "internalType": "address",
          "name": "asset",
          "type": "address"
        },
        {
          "internalType": "uint256",
          "name": "amount",
          "type": "uint256"
        }
      ],
      "name": "try_push",
      "outputs": [
        {
          "internalType": "bool",
          "name": "ok",
          "type": "bool"
        }
      ],
      "stateMutability": "nonpayable",
      "type": "function"
    },
    {
      "inputs": [
        {
          "internalType": "address",
          "name": "ret",
          "type": "address"
        },
        {
          "internalType": "address",
          "name": "asset",
          "type": "address"
        },
        {
          "internalType": "address",
          "name": "to",
          "type": "address"
        },
        {
          "internalType": "uint256",
          "name": "amount",
          "type": "uint256"
        }
      ],
      "name": "try_pushAsset",
      "outputs": [
        {
          "internalType": "bool",
          "name": "ok",
          "type": "bool"
        }
      ],
      "stateMutability": "nonpayable",
      "type": "function"
    },
    {
      "inputs": [
        {
          "internalType": "address",
          "name": "dao",
          "type": "address"
        },
        {
          "internalType": "address",
          "name": "locker",
          "type": "address"
        },
        {
          "internalType": "address[]",
          "name": "assets",
          "type": "address[]"
        },
        {
          "internalType": "uint256[]",
          "name": "amounts",
          "type": "uint256[]"
        }
      ],
      "name": "try_pushMulti",
      "outputs": [
        {
          "internalType": "bool",
          "name": "ok",
          "type": "bool"
        }
      ],
      "stateMutability": "nonpayable",
      "type": "function"
    },
    {
      "inputs": [
        {
          "internalType": "address",
          "name": "exit",
          "type": "address"
        }
      ],
      "name": "try_renounceOwnership",
      "outputs": [
        {
          "internalType": "bool",
          "name": "ok",
          "type": "bool"
        }
      ],
      "stateMutability": "nonpayable",
      "type": "function"
    },
    {
      "inputs": [
        {
          "internalType": "address",
          "name": "mrv",
          "type": "address"
        },
        {
          "internalType": "address",
          "name": "account",
          "type": "address"
        }
      ],
      "name": "try_revoke",
      "outputs": [
        {
          "internalType": "bool",
          "name": "ok",
          "type": "bool"
        }
      ],
      "stateMutability": "nonpayable",
      "type": "function"
    },
    {
      "inputs": [
        {
          "internalType": "address",
          "name": "token",
          "type": "address"
        },
        {
          "internalType": "address",
          "name": "from",
          "type": "address"
        },
        {
          "internalType": "address",
          "name": "to",
          "type": "address"
        },
        {
          "internalType": "uint256",
          "name": "amount",
          "type": "uint256"
        }
      ],
      "name": "try_transferFromToken",
      "outputs": [
        {
          "internalType": "bool",
          "name": "ok",
          "type": "bool"
        }
      ],
      "stateMutability": "nonpayable",
      "type": "function"
    },
    {
      "inputs": [
        {
          "internalType": "address",
          "name": "token",
          "type": "address"
        },
        {
          "internalType": "address",
          "name": "to",
          "type": "address"
        },
        {
          "internalType": "uint256",
          "name": "amount",
          "type": "uint256"
        }
      ],
      "name": "try_transferToken",
      "outputs": [
        {
          "internalType": "bool",
          "name": "ok",
          "type": "bool"
        }
      ],
      "stateMutability": "nonpayable",
      "type": "function"
    },
    {
      "inputs": [
        {
          "internalType": "address",
          "name": "gbl",
          "type": "address"
        },
        {
          "internalType": "address",
          "name": "locker",
          "type": "address"
        },
        {
          "internalType": "bool",
          "name": "allowed",
          "type": "bool"
        }
      ],
      "name": "try_updateIsLocker",
      "outputs": [
        {
          "internalType": "bool",
          "name": "ok",
          "type": "bool"
        }
      ],
      "stateMutability": "nonpayable",
      "type": "function"
    },
    {
      "inputs": [
        {
          "internalType": "address",
          "name": "amplifier",
          "type": "address"
        },
        {
          "internalType": "address",
          "name": "account",
          "type": "address"
        },
        {
          "internalType": "bool",
          "name": "allowed",
          "type": "bool"
        }
      ],
      "name": "try_updateWhitelistedAmplifiers",
      "outputs": [
        {
          "internalType": "bool",
          "name": "ok",
          "type": "bool"
        }
      ],
      "stateMutability": "nonpayable",
      "type": "function"
    },
    {
      "inputs": [
        {
          "internalType": "address",
          "name": "vesting",
          "type": "address"
        },
        {
          "internalType": "address",
          "name": "account",
          "type": "address"
        },
        {
          "internalType": "uint256",
          "name": "daysUntilVestingBegins",
          "type": "uint256"
        },
        {
          "internalType": "uint256",
          "name": "daysToVest",
          "type": "uint256"
        },
        {
          "internalType": "uint256",
          "name": "amountToVest",
          "type": "uint256"
        }
      ],
      "name": "try_vest",
      "outputs": [
        {
          "internalType": "bool",
          "name": "ok",
          "type": "bool"
        }
      ],
      "stateMutability": "nonpayable",
      "type": "function"
    },
    {
      "inputs": [
        {
          "internalType": "address",
          "name": "mrv",
          "type": "address"
        },
        {
          "internalType": "address",
          "name": "account",
          "type": "address"
        },
        {
          "internalType": "uint256",
          "name": "daysToCliff",
          "type": "uint256"
        },
        {
          "internalType": "uint256",
          "name": "daysToVest",
          "type": "uint256"
        },
        {
          "internalType": "uint256",
          "name": "amountToVest",
          "type": "uint256"
        },
        {
          "internalType": "bool",
          "name": "revokable",
          "type": "bool"
        }
      ],
      "name": "try_vest",
      "outputs": [
        {
          "internalType": "bool",
          "name": "ok",
          "type": "bool"
        }
      ],
      "stateMutability": "nonpayable",
      "type": "function"
    }
  ],
  "bytecode": {
    "object": "0x608060405234801561001057600080fd5b506119e4806100206000396000f3fe608060405234801561001057600080fd5b50600436106101fb5760003560e01c8063783b7d371161011a57806392d9cb6f116100ad578063e204becd1161007c578063e204becd14610428578063e47702d71461043b578063f5537ede1461044e578063f585d70214610463578063fdf9a8d81461047657600080fd5b806392d9cb6f146103dc578063a59420b5146103ef578063ba2f693514610402578063c4f36c7a1461041557600080fd5b806383671f32116100e957806383671f32146103905780638565f4d8146103a35780638d2b205c146103b65780638ea98996146103c957600080fd5b8063783b7d3714610344578063796a201814610357578063805734521461036a57806380ecd1281461037d57600080fd5b80634c48f915116101925780635af8f714116101615780635af8f714146102f857806367d6ec411461030b5780636d6a44de1461031e57806375cf1fdd1461033157600080fd5b80634c48f915146102ac5780634c731f54146102bf578063547ebea4146102d257806356e0135c146102e557600080fd5b80633cddef99116101ce5780633cddef99146102605780633f18f6861461027357806340c6731614610286578063464dd9d91461029957600080fd5b80630264c332146102005780630c746e1714610227578063241327c41461023a57806328cff5ff1461024d575b600080fd5b61021361020e366004611297565b610489565b604051901515815260200160405180910390f35b6102136102353660046112d3565b61056c565b610213610248366004611306565b610650565b61021361025b3660046112d3565b6106a5565b61021361026e366004611297565b6106f0565b610213610281366004611297565b61074e565b610213610294366004611330565b6107ac565b6102136102a736600461138e565b61089e565b6102136102ba366004611306565b6108fd565b6102136102cd3660046113d5565b61094b565b6102136102e0366004611420565b610a2a565b6102136102f3366004611483565b610b26565b610213610306366004611306565b610bfa565b610213610319366004611306565b610c46565b61021361032c366004611297565b610c8f565b61021361033f3660046113d5565b610cd6565b6102136103523660046114f1565b610d31565b610213610365366004611483565b610d8c565b61021361037836600461138e565b610dd8565b61021361038b366004611306565b610e20565b61021361039e36600461138e565b610e65565b6102136103b1366004611483565b610ec4565b6102136103c4366004611297565b610f14565b6102136103d7366004611297565b610f5b565b6102136103ea36600461138e565b610fb1565b6102136103fd366004611552565b610ff9565b610213610410366004611297565b611048565b61021361042336600461159f565b61108f565b610213610436366004611297565b6110e6565b6102136104493660046113d5565b611144565b61046161045c366004611297565b611182565b005b6102136104713660046113d5565b6111fb565b6102136104843660046115e2565b611239565b6000806040518060600160405280602681526020016118ce602691396040516001600160a01b038681166024830152604482018690529192509086169082906064015b60408051601f1981840301815290829052916104e791611697565b60408051918290039091206020830180516001600160e01b03166001600160e01b03199092169190911790525161051e9190611697565b6000604051808303816000865af19150503d806000811461055b576040519150601f19603f3d011682016040523d82523d6000602084013e610560565b606091505b50909695505050505050565b604080518082018252600f81526e7265766f6b6528616464726573732960881b602082015290516001600160a01b038381166024830152600092919085169082906044015b60408051601f1981840301815290829052916105cc91611697565b60408051918290039091206020830180516001600160e01b03166001600160e01b0319909216919091179052516106039190611697565b6000604051808303816000865af19150503d8060008114610640576040519150601f19603f3d011682016040523d82523d6000602084013e610645565b606091505b509095945050505050565b604080518082018252601981527f696e63726561736544656661756c74732875696e7432353629000000000000006020820152905160248101839052600091906001600160a01b0385169082906044016105b1565b604080518082018252601181527064656c656761746528616464726573732960781b602082015290516001600160a01b038381166024830152600092919085169082906044016105b1565b604080518082018252601881527f617070726f766528616464726573732c75696e74323536290000000000000000602082015290516001600160a01b03848116602483015260448201849052600092919086169082906064016104cc565b604080518082018252601981527f7472616e7366657228616464726573732c75696e743235362900000000000000602082015290516001600160a01b03848116602483015260448201849052600092919086169082906064016104cc565b6000806040518060600160405280602581526020016117c8602591396040516001600160a01b03888116602483015260448201889052606482018790526084820186905291925090881690829060a40160408051601f19818403018152908290529161081791611697565b60408051918290039091206020830180516001600160e01b03166001600160e01b03199092169190911790525161084e9190611697565b6000604051808303816000865af19150503d806000811461088b576040519150601f19603f3d011682016040523d82523d6000602084013e610890565b606091505b509098975050505050505050565b604080518082018252601c81527f75706461746549734c6f636b657228616464726573732c626f6f6c2900000000602082015290516001600160a01b0384811660248301528315156044830152600092919086169082906064016104cc565b604080518082018252601681527563616e63656c526571756573742875696e743235362960501b6020820152905160248101839052600091906001600160a01b0385169082906044016105b1565b6000806040518060600160405280602481526020016118aa602491399050856001600160a01b031681868686604051602401610989939291906116b3565b60408051601f1981840301815290829052916109a491611697565b60408051918290039091206020830180516001600160e01b03166001600160e01b0319909216919091179052516109db9190611697565b6000604051808303816000865af19150503d8060008114610a18576040519150601f19603f3d011682016040523d82523d6000602084013e610a1d565b606091505b5090979650505050505050565b6000806040518060600160405280602a815260200161185a602a91396040516001600160a01b03898116602483015260448201899052606482018890526084820187905285151560a483015291925090891690829060c4015b60408051601f198184030181529082905291610a9e91611697565b60408051918290039091206020830180516001600160e01b03166001600160e01b031990921691909117905251610ad59190611697565b6000604051808303816000865af19150503d8060008114610b12576040519150601f19603f3d011682016040523d82523d6000602084013e610b17565b606091505b50909998505050505050505050565b604080518082018252601381527272656e6f756e63654f776e657273686970282960681b602082015281516004815260248101928390526000926001600160a01b0385169190610b77908490611697565b60408051918290039091206020830180516001600160e01b03166001600160e01b031990921691909117905251610bae9190611697565b6000604051808303816000865af19150503d8060008114610beb576040519150601f19603f3d011682016040523d82523d6000602084013e610bf0565b606091505b5090949350505050565b604080518082018252601481527367657452657761726441742875696e743235362960601b6020820152905160248101839052600091906001600160a01b0385169082906044016105b1565b604080518082018252601181527066756e644c6f616e2875696e743235362960781b6020820152905160248101839052600091906001600160a01b0385169082906044016105b1565b600080604051806060016040528060228152602001611838602291396040516001600160a01b038681166024830152604482018690529192509086169082906064016104cc565b6000806040518060400160405280601d81526020017f7075736828616464726573732c616464726573732c75696e74323536290000008152509050856001600160a01b031681868686604051602401610989939291906116b3565b6000806040518060400160405280601c81526020017f70756c6c4d756c746928616464726573732c616464726573735b5d29000000008152509050856001600160a01b0316818686866040516024016109899392919061171e565b604080518082018252600e81526d66756c6c5769746864726177282960901b602082015281516004815260248101928390526000926001600160a01b0385169190610b77908490611697565b60008060405180606001604052806027815260200161195f602791396040516001600160a01b03868116602483015285151560448301529192509086169082906064016104cc565b604080518082018252600d81526c6275726e2875696e743235362960981b6020820152905160248101839052600091906001600160a01b0385169082906044016105b1565b604080518082018252601e81527f6368616e67654d696e746572526f6c6528616464726573732c626f6f6c290000602082015290516001600160a01b0384811660248301528315156044830152600092919086169082906064016104cc565b6040805180820182526012815271666f7277617264456d697373696f6e73282960701b602082015281516004815260248101928390526000926001600160a01b0385169190610b77908490611697565b600080604051806060016040528060268152602001611884602691396040516001600160a01b038681166024830152604482018690529192509086169082906064016104cc565b60408051808201825260158152746d696e7428616464726573732c75696e743235362960581b602082015290516001600160a01b03848116602483015260448201849052600092919086169082906064016104cc565b600080604051806060016040528060298152602001611986602991396040516001600160a01b03868116602483015285151560448301529192509086169082906064016104cc565b600080604051806060016040528060278152602001611916602791396040516001600160a01b038781166024830152604482018790528581166064830152919250908716908290608401610989565b60008060405180606001604052806022815260200161193d602291396040516001600160a01b038681166024830152604482018690529192509086169082906064016104cc565b604080518082018252601581527470756c6c28616464726573732c616464726573732960581b602082015290516001600160a01b0384811660248301528381166044830152600092919086169082906064016104cc565b604080518082018252601a81527f61646452657761726428616464726573732c75696e7432353629000000000000602082015290516001600160a01b03848116602483015260448201849052600092919086169082906064016104cc565b6000806040518060600160405280602581526020016117ed602591399050856001600160a01b031681868686604051602401610989939291906116b3565b60405163a9059cbb60e01b81526001600160a01b0383811660048301526024820183905284169063a9059cbb906044016020604051808303816000875af11580156111d1573d6000803e3d6000fd5b505050506040513d601f19601f820116820180604052508101906111f5919061174c565b50505050565b6000806040518060600160405280602281526020016118f4602291399050856001600160a01b031681868686604051602401610989939291906116b3565b600080604051806060016040528060268152602001611812602691399050876001600160a01b0316818888888888604051602401610a83959493929190611769565b80356001600160a01b038116811461129257600080fd5b919050565b6000806000606084860312156112ac57600080fd5b6112b58461127b565b92506112c36020850161127b565b9150604084013590509250925092565b600080604083850312156112e657600080fd5b6112ef8361127b565b91506112fd6020840161127b565b90509250929050565b6000806040838503121561131957600080fd5b6113228361127b565b946020939093013593505050565b600080600080600060a0868803121561134857600080fd5b6113518661127b565b945061135f6020870161127b565b94979496505050506040830135926060810135926080909101359150565b801515811461138b57600080fd5b50565b6000806000606084860312156113a357600080fd5b6113ac8461127b565b92506113ba6020850161127b565b915060408401356113ca8161137d565b809150509250925092565b600080600080608085870312156113eb57600080fd5b6113f48561127b565b93506114026020860161127b565b92506114106040860161127b565b9396929550929360600135925050565b60008060008060008060c0878903121561143957600080fd5b6114428761127b565b95506114506020880161127b565b945060408701359350606087013592506080870135915060a08701356114758161137d565b809150509295509295509295565b60006020828403121561149557600080fd5b61149e8261127b565b9392505050565b60008083601f8401126114b757600080fd5b50813567ffffffffffffffff8111156114cf57600080fd5b6020830191508360208260051b85010111156114ea57600080fd5b9250929050565b6000806000806060858703121561150757600080fd5b6115108561127b565b935061151e6020860161127b565b9250604085013567ffffffffffffffff81111561153a57600080fd5b611546878288016114a5565b95989497509550505050565b6000806000806080858703121561156857600080fd5b6115718561127b565b935061157f6020860161127b565b9250604085013591506115946060860161127b565b905092959194509250565b6000806000606084860312156115b457600080fd5b6115bd8461127b565b92506115cb6020850161127b565b91506115d96040850161127b565b90509250925092565b600080600080600080608087890312156115fb57600080fd5b6116048761127b565b95506116126020880161127b565b9450604087013567ffffffffffffffff8082111561162f57600080fd5b61163b8a838b016114a5565b9096509450606089013591508082111561165457600080fd5b5061166189828a016114a5565b979a9699509497509295939492505050565b60005b8381101561168e578181015183820152602001611676565b50506000910152565b600082516116a9818460208701611673565b9190910192915050565b6001600160a01b039384168152919092166020820152604081019190915260600190565b8183526000602080850194508260005b85811015611713576001600160a01b036117008361127b565b16875295820195908201906001016116e7565b509495945050505050565b6001600160a01b038416815260406020820181905260009061174390830184866116d7565b95945050505050565b60006020828403121561175e57600080fd5b815161149e8161137d565b6001600160a01b038616815260606020820181905260009061178e90830186886116d7565b82810360408401528381526001600160fb1b038411156117ad57600080fd5b8360051b808660208401370160200197965050505050505056fe7665737428616464726573732c75696e743235362c75696e743235362c75696e74323536297472616e7366657246726f6d28616464726573732c616464726573732c75696e7432353629707573684d756c746928616464726573732c616464726573735b5d2c75696e743235365b5d29696e637265617365416c6c6f77616e636528616464726573732c75696e74323536297665737428616464726573732c75696e743235362c75696e743235362c75696e743235362c626f6f6c296465637265617365416d706c696669636174696f6e28616464726573732c75696e743235362970756c6c5061727469616c28616464726573732c616464726573732c75696e7432353629696e637265617365416d706c696669636174696f6e28616464726573732c75696e743235362970757368417373657428616464726573732c616464726573732c75696e7432353629706173735468726f75676859444c28616464726573732c75696e743235362c61646472657373296465637265617365416c6c6f77616e636528616464726573732c75696e74323536296d6f64696679537461626c65636f696e57686974656c69737428616464726573732c626f6f6c2975706461746557686974656c6973746564416d706c69666965727328616464726573732c626f6f6c29a2646970667358221220fdd2cb1324b9b89eb298ff460d80a1befc57c734c6d33d52d2f842fe7431bbba64736f6c63430008100033",
    "linkReferences": {}
  },
  "methodIdentifiers": {
    "transferToken(address,address,uint256)": "f5537ede",
    "try_addReward(address,address,uint256)": "e204becd",
    "try_approveToken(address,address,uint256)": "3cddef99",
    "try_burn(address,uint256)": "80ecd128",
    "try_cancelRequest(address,uint256)": "4c48f915",
    "try_changeMinterRole(address,address,bool)": "83671f32",
    "try_decreaseAllowance(address,address,uint256)": "ba2f6935",
    "try_decreaseAmplification(address,address,uint256)": "8d2b205c",
    "try_delegate(address,address)": "28cff5ff",
    "try_forwardEmissions(address)": "8565f4d8",
    "try_fullWithdraw(address)": "796a2018",
    "try_fundLoan(address,uint256)": "67d6ec41",
    "try_getRewardAt(address,uint256)": "5af8f714",
    "try_increaseAllowance(address,address,uint256)": "6d6a44de",
    "try_increaseAmplification(address,address,uint256)": "0264c332",
    "try_increaseDefaults(address,uint256)": "241327c4",
    "try_mint(address,address,uint256)": "8ea98996",
    "try_modifyStablecoinWhitelist(address,address,bool)": "80573452",
    "try_passThroughYDL(address,address,uint256,address)": "a59420b5",
    "try_pull(address,address,address)": "c4f36c7a",
    "try_pullMulti(address,address,address[])": "783b7d37",
    "try_pullPartial(address,address,address,uint256)": "4c731f54",
    "try_push(address,address,address,uint256)": "75cf1fdd",
    "try_pushAsset(address,address,address,uint256)": "f585d702",
    "try_pushMulti(address,address,address[],uint256[])": "fdf9a8d8",
    "try_renounceOwnership(address)": "56e0135c",
    "try_revoke(address,address)": "0c746e17",
    "try_transferFromToken(address,address,address,uint256)": "e47702d7",
    "try_transferToken(address,address,uint256)": "3f18f686",
    "try_updateIsLocker(address,address,bool)": "464dd9d9",
    "try_updateWhitelistedAmplifiers(address,address,bool)": "92d9cb6f",
    "try_vest(address,address,uint256,uint256,uint256)": "40c67316",
    "try_vest(address,address,uint256,uint256,uint256,bool)": "547ebea4"
  },
  "id": 109
}