{
  "abi": [
    {
      "inputs": [
        {
          "internalType": "address",
          "name": "_GBL",
          "type": "address"
        }
      ],
      "stateMutability": "nonpayable",
      "type": "constructor"
    },
    {
      "anonymous": false,
      "inputs": [
        {
          "indexed": true,
          "internalType": "address",
          "name": "previousOwner",
          "type": "address"
        },
        {
          "indexed": true,
          "internalType": "address",
          "name": "newOwner",
          "type": "address"
        }
      ],
      "name": "OwnershipTransferred",
      "type": "event"
    },
    {
      "anonymous": false,
      "inputs": [
        {
          "indexed": true,
          "internalType": "address",
          "name": "previousOwner",
          "type": "address"
        },
        {
          "indexed": true,
          "internalType": "address",
          "name": "newOwner",
          "type": "address"
        }
      ],
      "name": "OwnershipTransferredAndLocked",
      "type": "event"
    },
    {
      "anonymous": false,
      "inputs": [
        {
          "indexed": true,
          "internalType": "address",
          "name": "locker",
          "type": "address"
        },
        {
          "indexed": true,
          "internalType": "address",
          "name": "asset",
          "type": "address"
        }
      ],
      "name": "Pulled",
      "type": "event"
    },
    {
      "anonymous": false,
      "inputs": [
        {
          "indexed": true,
          "internalType": "address",
          "name": "locker",
          "type": "address"
        },
        {
          "indexed": true,
          "internalType": "address",
          "name": "asset",
          "type": "address"
        },
        {
          "indexed": false,
          "internalType": "uint256[]",
          "name": "ids",
          "type": "uint256[]"
        },
        {
          "indexed": false,
          "internalType": "uint256[]",
          "name": "amounts",
          "type": "uint256[]"
        },
        {
          "indexed": false,
          "internalType": "bytes",
          "name": "data",
          "type": "bytes"
        }
      ],
      "name": "PulledERC1155",
      "type": "event"
    },
    {
      "anonymous": false,
      "inputs": [
        {
          "indexed": true,
          "internalType": "address",
          "name": "locker",
          "type": "address"
        },
        {
          "indexed": true,
          "internalType": "address",
          "name": "asset",
          "type": "address"
        },
        {
          "indexed": true,
          "internalType": "uint256",
          "name": "tokenId",
          "type": "uint256"
        },
        {
          "indexed": false,
          "internalType": "bytes",
          "name": "data",
          "type": "bytes"
        }
      ],
      "name": "PulledERC721",
      "type": "event"
    },
    {
      "anonymous": false,
      "inputs": [
        {
          "indexed": true,
          "internalType": "address",
          "name": "locker",
          "type": "address"
        },
        {
          "indexed": false,
          "internalType": "address[]",
          "name": "assets",
          "type": "address[]"
        }
      ],
      "name": "PulledMulti",
      "type": "event"
    },
    {
      "anonymous": false,
      "inputs": [
        {
          "indexed": true,
          "internalType": "address",
          "name": "locker",
          "type": "address"
        },
        {
          "indexed": false,
          "internalType": "address[]",
          "name": "assets",
          "type": "address[]"
        },
        {
          "indexed": false,
          "internalType": "uint256[]",
          "name": "tokenIds",
          "type": "uint256[]"
        },
        {
          "indexed": false,
          "internalType": "bytes[]",
          "name": "data",
          "type": "bytes[]"
        }
      ],
      "name": "PulledMultiERC721",
      "type": "event"
    },
    {
      "anonymous": false,
      "inputs": [
        {
          "indexed": true,
          "internalType": "address",
          "name": "locker",
          "type": "address"
        },
        {
          "indexed": false,
          "internalType": "address[]",
          "name": "assets",
          "type": "address[]"
        },
        {
          "indexed": false,
          "internalType": "uint256[]",
          "name": "amounts",
          "type": "uint256[]"
        }
      ],
      "name": "PulledMultiPartial",
      "type": "event"
    },
    {
      "anonymous": false,
      "inputs": [
        {
          "indexed": true,
          "internalType": "address",
          "name": "locker",
          "type": "address"
        },
        {
          "indexed": true,
          "internalType": "address",
          "name": "asset",
          "type": "address"
        },
        {
          "indexed": false,
          "internalType": "uint256",
          "name": "amount",
          "type": "uint256"
        }
      ],
      "name": "PulledPartial",
      "type": "event"
    },
    {
      "anonymous": false,
      "inputs": [
        {
          "indexed": true,
          "internalType": "address",
          "name": "locker",
          "type": "address"
        },
        {
          "indexed": true,
          "internalType": "address",
          "name": "asset",
          "type": "address"
        },
        {
          "indexed": false,
          "internalType": "uint256",
          "name": "amount",
          "type": "uint256"
        }
      ],
      "name": "Pushed",
      "type": "event"
    },
    {
      "anonymous": false,
      "inputs": [
        {
          "indexed": true,
          "internalType": "address",
          "name": "locker",
          "type": "address"
        },
        {
          "indexed": true,
          "internalType": "address",
          "name": "asset",
          "type": "address"
        },
        {
          "indexed": false,
          "internalType": "uint256[]",
          "name": "ids",
          "type": "uint256[]"
        },
        {
          "indexed": false,
          "internalType": "uint256[]",
          "name": "amounts",
          "type": "uint256[]"
        },
        {
          "indexed": false,
          "internalType": "bytes",
          "name": "data",
          "type": "bytes"
        }
      ],
      "name": "PushedERC1155",
      "type": "event"
    },
    {
      "anonymous": false,
      "inputs": [
        {
          "indexed": true,
          "internalType": "address",
          "name": "locker",
          "type": "address"
        },
        {
          "indexed": true,
          "internalType": "address",
          "name": "asset",
          "type": "address"
        },
        {
          "indexed": true,
          "internalType": "uint256",
          "name": "tokenId",
          "type": "uint256"
        },
        {
          "indexed": false,
          "internalType": "bytes",
          "name": "data",
          "type": "bytes"
        }
      ],
      "name": "PushedERC721",
      "type": "event"
    },
    {
      "anonymous": false,
      "inputs": [
        {
          "indexed": true,
          "internalType": "address",
          "name": "locker",
          "type": "address"
        },
        {
          "indexed": false,
          "internalType": "address[]",
          "name": "assets",
          "type": "address[]"
        },
        {
          "indexed": false,
          "internalType": "uint256[]",
          "name": "amounts",
          "type": "uint256[]"
        }
      ],
      "name": "PushedMulti",
      "type": "event"
    },
    {
      "anonymous": false,
      "inputs": [
        {
          "indexed": true,
          "internalType": "address",
          "name": "locker",
          "type": "address"
        },
        {
          "indexed": false,
          "internalType": "address[]",
          "name": "assets",
          "type": "address[]"
        },
        {
          "indexed": false,
          "internalType": "uint256[]",
          "name": "tokenIds",
          "type": "uint256[]"
        },
        {
          "indexed": false,
          "internalType": "bytes[]",
          "name": "data",
          "type": "bytes[]"
        }
      ],
      "name": "PushedMultiERC721",
      "type": "event"
    },
    {
      "inputs": [],
      "name": "GBL",
      "outputs": [
        {
          "internalType": "address",
          "name": "",
          "type": "address"
        }
      ],
      "stateMutability": "view",
      "type": "function"
    },
    {
      "inputs": [],
      "name": "locked",
      "outputs": [
        {
          "internalType": "bool",
          "name": "",
          "type": "bool"
        }
      ],
      "stateMutability": "view",
      "type": "function"
    },
    {
      "inputs": [
        {
          "internalType": "address",
          "name": "",
          "type": "address"
        },
        {
          "internalType": "address",
          "name": "",
          "type": "address"
        },
        {
          "internalType": "uint256[]",
          "name": "",
          "type": "uint256[]"
        },
        {
          "internalType": "uint256[]",
          "name": "",
          "type": "uint256[]"
        },
        {
          "internalType": "bytes",
          "name": "",
          "type": "bytes"
        }
      ],
      "name": "onERC1155BatchReceived",
      "outputs": [
        {
          "internalType": "bytes4",
          "name": "",
          "type": "bytes4"
        }
      ],
      "stateMutability": "nonpayable",
      "type": "function"
    },
    {
      "inputs": [
        {
          "internalType": "address",
          "name": "",
          "type": "address"
        },
        {
          "internalType": "address",
          "name": "",
          "type": "address"
        },
        {
          "internalType": "uint256",
          "name": "",
          "type": "uint256"
        },
        {
          "internalType": "uint256",
          "name": "",
          "type": "uint256"
        },
        {
          "internalType": "bytes",
          "name": "",
          "type": "bytes"
        }
      ],
      "name": "onERC1155Received",
      "outputs": [
        {
          "internalType": "bytes4",
          "name": "",
          "type": "bytes4"
        }
      ],
      "stateMutability": "nonpayable",
      "type": "function"
    },
    {
      "inputs": [
        {
          "internalType": "address",
          "name": "",
          "type": "address"
        },
        {
          "internalType": "address",
          "name": "",
          "type": "address"
        },
        {
          "internalType": "uint256",
          "name": "",
          "type": "uint256"
        },
        {
          "internalType": "bytes",
          "name": "",
          "type": "bytes"
        }
      ],
      "name": "onERC721Received",
      "outputs": [
        {
          "internalType": "bytes4",
          "name": "",
          "type": "bytes4"
        }
      ],
      "stateMutability": "nonpayable",
      "type": "function"
    },
    {
      "inputs": [],
      "name": "owner",
      "outputs": [
        {
          "internalType": "address",
          "name": "",
          "type": "address"
        }
      ],
      "stateMutability": "view",
      "type": "function"
    },
    {
      "inputs": [
        {
          "internalType": "address",
          "name": "locker",
          "type": "address"
        },
        {
          "internalType": "address",
          "name": "asset",
          "type": "address"
        }
      ],
      "name": "pull",
      "outputs": [],
      "stateMutability": "nonpayable",
      "type": "function"
    },
    {
      "inputs": [
        {
          "internalType": "address",
          "name": "locker",
          "type": "address"
        },
        {
          "internalType": "address",
          "name": "asset",
          "type": "address"
        },
        {
          "internalType": "uint256[]",
          "name": "ids",
          "type": "uint256[]"
        },
        {
          "internalType": "uint256[]",
          "name": "amounts",
          "type": "uint256[]"
        },
        {
          "internalType": "bytes",
          "name": "data",
          "type": "bytes"
        }
      ],
      "name": "pullERC1155Batch",
      "outputs": [],
      "stateMutability": "nonpayable",
      "type": "function"
    },
    {
      "inputs": [
        {
          "internalType": "address",
          "name": "locker",
          "type": "address"
        },
        {
          "internalType": "address",
          "name": "asset",
          "type": "address"
        },
        {
          "internalType": "uint256",
          "name": "tokenId",
          "type": "uint256"
        },
        {
          "internalType": "bytes",
          "name": "data",
          "type": "bytes"
        }
      ],
      "name": "pullERC721",
      "outputs": [],
      "stateMutability": "nonpayable",
      "type": "function"
    },
    {
      "inputs": [
        {
          "internalType": "address",
          "name": "locker",
          "type": "address"
        },
        {
          "internalType": "address[]",
          "name": "assets",
          "type": "address[]"
        }
      ],
      "name": "pullMulti",
      "outputs": [],
      "stateMutability": "nonpayable",
      "type": "function"
    },
    {
      "inputs": [
        {
          "internalType": "address",
          "name": "locker",
          "type": "address"
        },
        {
          "internalType": "address[]",
          "name": "assets",
          "type": "address[]"
        },
        {
          "internalType": "uint256[]",
          "name": "tokenIds",
          "type": "uint256[]"
        },
        {
          "internalType": "bytes[]",
          "name": "data",
          "type": "bytes[]"
        }
      ],
      "name": "pullMultiERC721",
      "outputs": [],
      "stateMutability": "nonpayable",
      "type": "function"
    },
    {
      "inputs": [
        {
          "internalType": "address",
          "name": "locker",
          "type": "address"
        },
        {
          "internalType": "address[]",
          "name": "assets",
          "type": "address[]"
        },
        {
          "internalType": "uint256[]",
          "name": "amounts",
          "type": "uint256[]"
        }
      ],
      "name": "pullMultiPartial",
      "outputs": [],
      "stateMutability": "nonpayable",
      "type": "function"
    },
    {
      "inputs": [
        {
          "internalType": "address",
          "name": "locker",
          "type": "address"
        },
        {
          "internalType": "address",
          "name": "asset",
          "type": "address"
        },
        {
          "internalType": "uint256",
          "name": "amount",
          "type": "uint256"
        }
      ],
      "name": "pullPartial",
      "outputs": [],
      "stateMutability": "nonpayable",
      "type": "function"
    },
    {
      "inputs": [
        {
          "internalType": "address",
          "name": "locker",
          "type": "address"
        },
        {
          "internalType": "address",
          "name": "asset",
          "type": "address"
        },
        {
          "internalType": "uint256",
          "name": "amount",
          "type": "uint256"
        }
      ],
      "name": "push",
      "outputs": [],
      "stateMutability": "nonpayable",
      "type": "function"
    },
    {
      "inputs": [
        {
          "internalType": "address",
          "name": "locker",
          "type": "address"
        },
        {
          "internalType": "address",
          "name": "asset",
          "type": "address"
        },
        {
          "internalType": "uint256[]",
          "name": "ids",
          "type": "uint256[]"
        },
        {
          "internalType": "uint256[]",
          "name": "amounts",
          "type": "uint256[]"
        },
        {
          "internalType": "bytes",
          "name": "data",
          "type": "bytes"
        }
      ],
      "name": "pushERC1155Batch",
      "outputs": [],
      "stateMutability": "nonpayable",
      "type": "function"
    },
    {
      "inputs": [
        {
          "internalType": "address",
          "name": "locker",
          "type": "address"
        },
        {
          "internalType": "address",
          "name": "asset",
          "type": "address"
        },
        {
          "internalType": "uint256",
          "name": "tokenId",
          "type": "uint256"
        },
        {
          "internalType": "bytes",
          "name": "data",
          "type": "bytes"
        }
      ],
      "name": "pushERC721",
      "outputs": [],
      "stateMutability": "nonpayable",
      "type": "function"
    },
    {
      "inputs": [
        {
          "internalType": "address",
          "name": "locker",
          "type": "address"
        },
        {
          "internalType": "address[]",
          "name": "assets",
          "type": "address[]"
        },
        {
          "internalType": "uint256[]",
          "name": "amounts",
          "type": "uint256[]"
        }
      ],
      "name": "pushMulti",
      "outputs": [],
      "stateMutability": "nonpayable",
      "type": "function"
    },
    {
      "inputs": [
        {
          "internalType": "address",
          "name": "locker",
          "type": "address"
        },
        {
          "internalType": "address[]",
          "name": "assets",
          "type": "address[]"
        },
        {
          "internalType": "uint256[]",
          "name": "tokenIds",
          "type": "uint256[]"
        },
        {
          "internalType": "bytes[]",
          "name": "data",
          "type": "bytes[]"
        }
      ],
      "name": "pushMultiERC721",
      "outputs": [],
      "stateMutability": "nonpayable",
      "type": "function"
    },
    {
      "inputs": [],
      "name": "renounceOwnership",
      "outputs": [],
      "stateMutability": "nonpayable",
      "type": "function"
    },
    {
      "inputs": [
        {
          "internalType": "bytes4",
          "name": "interfaceId",
          "type": "bytes4"
        }
      ],
      "name": "supportsInterface",
      "outputs": [
        {
          "internalType": "bool",
          "name": "",
          "type": "bool"
        }
      ],
      "stateMutability": "view",
      "type": "function"
    },
    {
      "inputs": [
        {
          "internalType": "address",
          "name": "newOwner",
          "type": "address"
        }
      ],
      "name": "transferOwnership",
      "outputs": [],
      "stateMutability": "nonpayable",
      "type": "function"
    },
    {
      "inputs": [
        {
          "internalType": "address",
          "name": "newOwner",
          "type": "address"
        }
      ],
      "name": "transferOwnershipAndLock",
      "outputs": [],
      "stateMutability": "nonpayable",
      "type": "function"
    }
  ],
  "bytecode": {
    "object": "0x60a06040523480156200001157600080fd5b50604051620035a3380380620035a38339810160408190526200003491620000a1565b6200003f3362000051565b6001600160a01b0316608052620000d3565b600080546001600160a01b038381166001600160a01b0319831681178455604051919092169283917f8be0079c531659141344cd1fd0a4f28419497f9722a3daafe3b4186f6b6457e09190a35050565b600060208284031215620000b457600080fd5b81516001600160a01b0381168114620000cc57600080fd5b9392505050565b60805161349162000112600039600081816101db015281816103c20152818161069a0152818161121a015281816114bc0152611b0e01526134916000f3fe608060405234801561001057600080fd5b50600436106101425760003560e01c8063715018a6116100b8578063aeb340871161007c578063aeb34087146102c6578063bc197c81146102d9578063cf309012146102f8578063e23e373c1461030c578063f23a6e611461031f578063f2fde38b1461033e57600080fd5b8063715018a61461027457806374ef15a91461027c578063794143ff1461028f5780638a000836146102a25780638da5cb5b146102b557600080fd5b80633ce8d4321161010a5780633ce8d432146101d657806358289c7e14610215578063606d049d1461022857806366b3bcb01461023b578063702407691461024e57806370defbad1461026157600080fd5b806301ffc9a714610147578063150b7a021461016f57806326e8eda21461019b5780632951b06e146101b05780633811641a146101c3575b600080fd5b61015a610155366004612968565b610351565b60405190151581526020015b60405180910390f35b61018261017d366004612a6a565b610388565b6040516001600160e01b03199091168152602001610166565b6101ae6101a9366004612ad1565b610399565b005b6101ae6101be366004612b58565b610671565b6101ae6101d1366004612b58565b610aeb565b6101fd7f000000000000000000000000000000000000000000000000000000000000000081565b6040516001600160a01b039091168152602001610166565b6101ae610223366004612bd8565b610daa565b6101ae610236366004612bf3565b610e85565b6101ae610249366004612c45565b611084565b6101ae61025c366004612cb9565b6111f1565b6101ae61026f366004612d16565b611493565b6101ae611949565b6101ae61028a366004612ad1565b611987565b6101ae61029d366004612dc0565b611ae5565b6101ae6102b0366004612d16565b611e13565b6000546001600160a01b03166101fd565b6101ae6102d4366004612cb9565b61216f565b6101826102e7366004612eee565b63bc197c8160e01b95945050505050565b60005461015a90600160a01b900460ff1681565b6101ae61031a366004612dc0565b6122cb565b61018261032d366004612f97565b63f23a6e6160e01b95945050505050565b6101ae61034c366004612bd8565b6124b0565b60006001600160e01b03198216630271189760e51b148061038257506301ffc9a760e01b6001600160e01b03198316145b92915050565b630a85bd0160e11b5b949350505050565b6103a1612567565b604051630bb18f5f60e21b81526001600160a01b03808516600483015284917f000000000000000000000000000000000000000000000000000000000000000090911690632ec63d7c90602401602060405180830381865afa15801561040b573d6000803e3d6000fd5b505050506040513d601f19601f8201168201806040525081019061042f9190612ffb565b6104545760405162461bcd60e51b815260040161044b9061301d565b60405180910390fd5b836001600160a01b031663e7f446296040518163ffffffff1660e01b8152600401602060405180830381865afa158015610492573d6000803e3d6000fd5b505050506040513d601f19601f820116820180604052508101906104b69190612ffb565b61051a5760405162461bcd60e51b815260206004820152602f60248201527f5a69766f6544414f3a3a7075736828292021494552433130345f44414f286c6f60448201526e636b6572292e63616e50757368282960881b606482015260840161044b565b826001600160a01b0316846001600160a01b03167f309b6ff7c796d92b2e93ed2e36f9e0a60c6f15ad0baea02f68da16974159af538460405161055f91815260200190565b60405180910390a361057b6001600160a01b03841685846125e7565b604051638447659160e01b81526001600160a01b03848116600483015260248201849052851690638447659190604401600060405180830381600087803b1580156105c557600080fd5b505af11580156105d9573d6000803e3d6000fd5b5050604051636eb1769f60e11b81523060048201526001600160a01b038781166024830152600093508616915063dd62ed3e90604401602060405180830381865afa15801561062c573d6000803e3d6000fd5b505050506040513d601f19601f82011682018060405250810190610650919061307a565b111561066b5761066b6001600160a01b0384168560006125e7565b50505050565b610679612567565b604051630bb18f5f60e21b81526001600160a01b03808716600483015286917f000000000000000000000000000000000000000000000000000000000000000090911690632ec63d7c90602401602060405180830381865afa1580156106e3573d6000803e3d6000fd5b505050506040513d601f19601f820116820180604052508101906107079190612ffb565b6107235760405162461bcd60e51b815260040161044b9061301d565b8382146107905760405162461bcd60e51b815260206004820152603560248201527f5a69766f6544414f3a3a707573684d756c74692829206173736574732e6c656e6044820152740cee8d040427a40c2dadeeadce8e65cd8cadccee8d605b1b606482015260840161044b565b856001600160a01b031663a4a3e79d6040518163ffffffff1660e01b8152600401602060405180830381865afa1580156107ce573d6000803e3d6000fd5b505050506040513d601f19601f820116820180604052508101906107f29190612ffb565b6108645760405162461bcd60e51b815260206004820152603960248201527f5a69766f6544414f3a3a707573684d756c746928292021494552433130345f4460448201527f414f286c6f636b6572292e63616e507573684d756c7469282900000000000000606482015260840161044b565b856001600160a01b03167fd8c64f81b80044324d6b33e97d1b2db56ff9d3d7354d50d0177c2e2b073a5a73868686866040516108a3949392919061310c565b60405180910390a260005b848110156109a75761090a878585848181106108cc576108cc613133565b905060200201358888858181106108e5576108e5613133565b90506020020160208101906108fa9190612bd8565b6001600160a01b031691906125e7565b85858281811061091c5761091c613133565b90506020020160208101906109319190612bd8565b6001600160a01b0316876001600160a01b03167f309b6ff7c796d92b2e93ed2e36f9e0a60c6f15ad0baea02f68da16974159af5386868581811061097757610977613133565b9050602002013560405161098d91815260200190565b60405180910390a38061099f81613149565b9150506108ae565b50604051633271a90560e21b81526001600160a01b0387169063c9c6a414906109da90889088908890889060040161310c565b600060405180830381600087803b1580156109f457600080fd5b505af1158015610a08573d6000803e3d6000fd5b5050505060005b84811015610ae2576000868683818110610a2b57610a2b613133565b9050602002016020810190610a409190612bd8565b604051636eb1769f60e11b81523060048201526001600160a01b038a81166024830152919091169063dd62ed3e90604401602060405180830381865afa158015610a8e573d6000803e3d6000fd5b505050506040513d601f19601f82011682018060405250810190610ab2919061307a565b1115610ad057610ad08760008888858181106108e5576108e5613133565b80610ada81613149565b915050610a0f565b50505050505050565b610af3612567565b846001600160a01b0316632f08d48b6040518163ffffffff1660e01b8152600401602060405180830381865afa158015610b31573d6000803e3d6000fd5b505050506040513d601f19601f82011682018060405250810190610b559190612ffb565b610bd75760405162461bcd60e51b815260206004820152604760248201527f5a69766f6544414f3a3a70756c6c4d756c74695061727469616c28292021494560448201527f52433130345f44414f286c6f636b6572292e63616e50756c6c4d756c74695061606482015266727469616c282960c81b608482015260a40161044b565b828114610c4c5760405162461bcd60e51b815260206004820152603c60248201527f5a69766f6544414f3a3a70756c6c4d756c74695061727469616c28292061737360448201527f6574732e6c656e67746820213d20616d6f756e74732e6c656e67746800000000606482015260840161044b565b846001600160a01b03167f52fed3882a599cf3e685ebb3655286e185b8d908c84aaa7e9b4bd65d4f8210e385858585604051610c8b949392919061310c565b60405180910390a260005b83811015610d3b57848482818110610cb057610cb0613133565b9050602002016020810190610cc59190612bd8565b6001600160a01b0316866001600160a01b03167fa156c7bb8602010d235ec016570d7dd6efbbca35debe0f9bf91574be31f5b1b7858585818110610d0b57610d0b613133565b90506020020135604051610d2191815260200190565b60405180910390a380610d3381613149565b915050610c96565b506040516001627dd32360e11b031981526001600160a01b0386169063ff0459ba90610d7190879087908790879060040161310c565b600060405180830381600087803b158015610d8b57600080fd5b505af1158015610d9f573d6000803e3d6000fd5b505050505050505050565b610db2612567565b600054600160a01b900460ff1615610ddc5760405162461bcd60e51b815260040161044b90613170565b6001600160a01b038116610e665760405162461bcd60e51b815260206004820152604560248201527f5a69766f654f776e61626c654c6f636b65643a3a7472616e736665724f776e6560448201527f7273686970416e644c6f636b2829206e65774f776e6572203d3d206164647265606482015264737328302960d81b608482015260a40161044b565b6000805460ff60a01b1916600160a01b179055610e8281612723565b50565b610e8d612567565b826001600160a01b0316633eda81ad6040518163ffffffff1660e01b8152600401602060405180830381865afa158015610ecb573d6000803e3d6000fd5b505050506040513d601f19601f82011682018060405250810190610eef9190612ffb565b610f615760405162461bcd60e51b815260206004820152603960248201527f5a69766f6544414f3a3a70756c6c4d756c746928292021494552433130345f4460448201527f414f286c6f636b6572292e63616e50756c6c4d756c7469282900000000000000606482015260840161044b565b826001600160a01b03167f234915826537c85bcff82447abe45e54a92ac1d2ac4e37903371d2a71669f0be8383604051610f9c9291906131b5565b60405180910390a260005b8181101561102757828282818110610fc157610fc1613133565b9050602002016020810190610fd69190612bd8565b6001600160a01b0316846001600160a01b03167fcd6684b104f5ea37039828873747c542c51d1d38e7a8185d66e75306642868c560405160405180910390a38061101f81613149565b915050610fa7565b5060405163607cd64960e01b81526001600160a01b0384169063607cd6499061105690859085906004016131b5565b600060405180830381600087803b15801561107057600080fd5b505af1158015610ae2573d6000803e3d6000fd5b61108c612567565b816001600160a01b031663215cccdd6040518163ffffffff1660e01b8152600401602060405180830381865afa1580156110ca573d6000803e3d6000fd5b505050506040513d601f19601f820116820180604052508101906110ee9190612ffb565b6111525760405162461bcd60e51b815260206004820152602f60248201527f5a69766f6544414f3a3a70756c6c28292021494552433130345f44414f286c6f60448201526e636b6572292e63616e50756c6c282960881b606482015260840161044b565b806001600160a01b0316826001600160a01b03167fcd6684b104f5ea37039828873747c542c51d1d38e7a8185d66e75306642868c560405160405180910390a3604051637dbcdbc160e01b81526001600160a01b038281166004830152831690637dbcdbc190602401600060405180830381600087803b1580156111d557600080fd5b505af11580156111e9573d6000803e3d6000fd5b505050505050565b6111f9612567565b604051630bb18f5f60e21b81526001600160a01b03808716600483015286917f000000000000000000000000000000000000000000000000000000000000000090911690632ec63d7c90602401602060405180830381865afa158015611263573d6000803e3d6000fd5b505050506040513d601f19601f820116820180604052508101906112879190612ffb565b6112a35760405162461bcd60e51b815260040161044b9061301d565b856001600160a01b0316638b648ee26040518163ffffffff1660e01b8152600401602060405180830381865afa1580156112e1573d6000803e3d6000fd5b505050506040513d601f19601f820116820180604052508101906113059190612ffb565b6113775760405162461bcd60e51b815260206004820152603b60248201527f5a69766f6544414f3a3a7075736845524337323128292021494552433130345f60448201527f44414f286c6f636b6572292e63616e5075736845524337323128290000000000606482015260840161044b565b83856001600160a01b0316876001600160a01b03167fcceb6f80504f6106e3c6300bbfad14fee293050b503ea55c5d0e6bea3977174986866040516113bd9291906131f2565b60405180910390a460405163095ea7b360e01b81526001600160a01b0387811660048301526024820186905286169063095ea7b390604401600060405180830381600087803b15801561140f57600080fd5b505af1158015611423573d6000803e3d6000fd5b5050604051631d9389e960e01b81526001600160a01b0389169250631d9389e99150611459908890889088908890600401613206565b600060405180830381600087803b15801561147357600080fd5b505af1158015611487573d6000803e3d6000fd5b50505050505050505050565b61149b612567565b604051630bb18f5f60e21b81526001600160a01b03808916600483015288917f000000000000000000000000000000000000000000000000000000000000000090911690632ec63d7c90602401602060405180830381865afa158015611505573d6000803e3d6000fd5b505050506040513d601f19601f820116820180604052508101906115299190612ffb565b6115455760405162461bcd60e51b815260040161044b9061301d565b8584146115ba5760405162461bcd60e51b815260206004820152603c60248201527f5a69766f6544414f3a3a707573684d756c74694552433732312829206173736560448201527f74732e6c656e67746820213d20746f6b656e4964732e6c656e67746800000000606482015260840161044b565b83821461162f5760405162461bcd60e51b815260206004820152603a60248201527f5a69766f6544414f3a3a707573684d756c7469455243373231282920746f6b6560448201527f6e4964732e6c656e67746820213d20646174612e6c656e677468000000000000606482015260840161044b565b876001600160a01b031663dd913bdb6040518163ffffffff1660e01b8152600401602060405180830381865afa15801561166d573d6000803e3d6000fd5b505050506040513d601f19601f820116820180604052508101906116919190612ffb565b6117115760405162461bcd60e51b815260206004820152604560248201527f5a69766f6544414f3a3a707573684d756c74694552433732312829202149455260448201527f433130345f44414f286c6f636b6572292e63616e507573684d756c7469455243606482015264373231282960d81b608482015260a40161044b565b876001600160a01b03167f7928fcd827567eafd0739b2a6b89dad3dded5f17c3940b61be4ded49f783f11e88888888888860405161175496959493929190613238565b60405180910390a260005b868110156118d65787878281811061177957611779613133565b905060200201602081019061178e9190612bd8565b6001600160a01b031663095ea7b38a8888858181106117af576117af613133565b6040516001600160e01b031960e087901b1681526001600160a01b0390941660048501526020029190910135602483015250604401600060405180830381600087803b1580156117fe57600080fd5b505af1158015611812573d6000803e3d6000fd5b5050505085858281811061182857611828613133565b9050602002013588888381811061184157611841613133565b90506020020160208101906118569190612bd8565b6001600160a01b03168a6001600160a01b03167fcceb6f80504f6106e3c6300bbfad14fee293050b503ea55c5d0e6bea3977174987878681811061189c5761189c613133565b90506020028101906118ae91906132fe565b6040516118bc9291906131f2565b60405180910390a4806118ce81613149565b91505061175f565b506040516302e24af360e61b81526001600160a01b0389169063b892bcc09061190d908a908a908a908a908a908a90600401613238565b600060405180830381600087803b15801561192757600080fd5b505af115801561193b573d6000803e3d6000fd5b505050505050505050505050565b611951612567565b600054600160a01b900460ff161561197b5760405162461bcd60e51b815260040161044b90613170565b6119856000612723565b565b61198f612567565b826001600160a01b03166364c777356040518163ffffffff1660e01b8152600401602060405180830381865afa1580156119cd573d6000803e3d6000fd5b505050506040513d601f19601f820116820180604052508101906119f19190612ffb565b611a635760405162461bcd60e51b815260206004820152603d60248201527f5a69766f6544414f3a3a70756c6c5061727469616c282920214945524331303460448201527f5f44414f286c6f636b6572292e63616e50756c6c5061727469616c2829000000606482015260840161044b565b816001600160a01b0316836001600160a01b03167fa156c7bb8602010d235ec016570d7dd6efbbca35debe0f9bf91574be31f5b1b783604051611aa891815260200190565b60405180910390a360405163d9821e3b60e01b81526001600160a01b0383811660048301526024820183905284169063d9821e3b90604401611056565b611aed612567565b604051630bb18f5f60e21b81526001600160a01b03808a16600483015289917f000000000000000000000000000000000000000000000000000000000000000090911690632ec63d7c90602401602060405180830381865afa158015611b57573d6000803e3d6000fd5b505050506040513d601f19601f82011682018060405250810190611b7b9190612ffb565b611b975760405162461bcd60e51b815260040161044b9061301d565b858414611c085760405162461bcd60e51b815260206004820152603960248201527f5a69766f6544414f3a3a7075736845524331313535426174636828292069647360448201527805cd8cadccee8d040427a40c2dadeeadce8e65cd8cadccee8d603b1b606482015260840161044b565b886001600160a01b031663cf10b7ab6040518163ffffffff1660e01b8152600401602060405180830381865afa158015611c46573d6000803e3d6000fd5b505050506040513d601f19601f82011682018060405250810190611c6a9190612ffb565b611ce75760405162461bcd60e51b815260206004820152604260248201527f5a69766f6544414f3a3a7075736845524331313535426174636828292021494560448201527f52433130345f44414f286c6f636b6572292e63616e5075736845524331313535606482015261282960f01b608482015260a40161044b565b876001600160a01b0316896001600160a01b03167f57fb18048adcacd0dbc30815547d4f9d7c564e0e63dfa2a2b27999bcf941bbe0898989898989604051611d3496959493929190613344565b60405180910390a360405163a22cb46560e01b81526001600160a01b038a811660048301526001602483015289169063a22cb46590604401600060405180830381600087803b158015611d8657600080fd5b505af1158015611d9a573d6000803e3d6000fd5b505060405163fd76f59d60e01b81526001600160a01b038c16925063fd76f59d9150611dd6908b908b908b908b908b908b908b9060040161338d565b600060405180830381600087803b158015611df057600080fd5b505af1158015611e04573d6000803e3d6000fd5b50505050505050505050505050565b611e1b612567565b866001600160a01b0316631852b3836040518163ffffffff1660e01b8152600401602060405180830381865afa158015611e59573d6000803e3d6000fd5b505050506040513d601f19601f82011682018060405250810190611e7d9190612ffb565b611efd5760405162461bcd60e51b815260206004820152604560248201527f5a69766f6544414f3a3a70756c6c4d756c74694552433732312829202149455260448201527f433130345f44414f286c6f636b6572292e63616e50756c6c4d756c7469455243606482015264373231282960d81b608482015260a40161044b565b848314611f725760405162461bcd60e51b815260206004820152603c60248201527f5a69766f6544414f3a3a70756c6c4d756c74694552433732312829206173736560448201527f74732e6c656e67746820213d20746f6b656e4964732e6c656e67746800000000606482015260840161044b565b828114611fe75760405162461bcd60e51b815260206004820152603a60248201527f5a69766f6544414f3a3a70756c6c4d756c7469455243373231282920746f6b6560448201527f6e4964732e6c656e67746820213d20646174612e6c656e677468000000000000606482015260840161044b565b866001600160a01b03167f54613fdc55bd761d02881b475b5443a1812a30df2392c5d31150747635fb5def87878787878760405161202a96959493929190613238565b60405180910390a260005b858110156120fd5784848281811061204f5761204f613133565b9050602002013587878381811061206857612068613133565b905060200201602081019061207d9190612bd8565b6001600160a01b0316896001600160a01b03167f16c8e5e1e7bd6ca58a21983a6d3e782beecebb9a3a96b8045315114442f1e2688686868181106120c3576120c3613133565b90506020028101906120d591906132fe565b6040516120e39291906131f2565b60405180910390a4806120f581613149565b915050612035565b5060405163057a61d160e21b81526001600160a01b038816906315e987449061213490899089908990899089908990600401613238565b600060405180830381600087803b15801561214e57600080fd5b505af1158015612162573d6000803e3d6000fd5b5050505050505050505050565b612177612567565b846001600160a01b0316633c1172446040518163ffffffff1660e01b8152600401602060405180830381865afa1580156121b5573d6000803e3d6000fd5b505050506040513d601f19601f820116820180604052508101906121d99190612ffb565b61224b5760405162461bcd60e51b815260206004820152603b60248201527f5a69766f6544414f3a3a70756c6c45524337323128292021494552433130345f60448201527f44414f286c6f636b6572292e63616e50756c6c45524337323128290000000000606482015260840161044b565b82846001600160a01b0316866001600160a01b03167f16c8e5e1e7bd6ca58a21983a6d3e782beecebb9a3a96b8045315114442f1e26885856040516122919291906131f2565b60405180910390a460405163090290bb60e11b81526001600160a01b03861690631205217690610d71908790879087908790600401613206565b6122d3612567565b876001600160a01b031663b0607cf86040518163ffffffff1660e01b8152600401602060405180830381865afa158015612311573d6000803e3d6000fd5b505050506040513d601f19601f820116820180604052508101906123359190612ffb565b6123b25760405162461bcd60e51b815260206004820152604260248201527f5a69766f6544414f3a3a70756c6c45524331313535426174636828292021494560448201527f52433130345f44414f286c6f636b6572292e63616e50756c6c45524331313535606482015261282960f01b608482015260a40161044b565b8483146124235760405162461bcd60e51b815260206004820152603960248201527f5a69766f6544414f3a3a70756c6c45524331313535426174636828292069647360448201527805cd8cadccee8d040427a40c2dadeeadce8e65cd8cadccee8d603b1b606482015260840161044b565b866001600160a01b0316886001600160a01b03167fb84de6f38f3772af791fe710e181e9fae3fdfbe871593408d624cefdc818e5e488888888888860405161247096959493929190613344565b60405180910390a3604051630845640360e31b81526001600160a01b0389169063422b20189061190d908a908a908a908a908a908a908a9060040161338d565b6124b8612567565b600054600160a01b900460ff16156124e25760405162461bcd60e51b815260040161044b90613170565b6001600160a01b03811661255e5760405162461bcd60e51b815260206004820152603e60248201527f5a69766f654f776e61626c654c6f636b65643a3a7472616e736665724f776e6560448201527f72736869702829206e65774f776e6572203d3d20616464726573732830290000606482015260840161044b565b610e8281612723565b6000546001600160a01b031633146119855760405162461bcd60e51b815260206004820152603760248201527f5a69766f654f776e61626c654c6f636b65643a3a5f636865636b4f776e65722060448201527f6f776e6572282920213d205f6d736753656e6465722829000000000000000000606482015260840161044b565b8015806126615750604051636eb1769f60e11b81523060048201526001600160a01b03838116602483015284169063dd62ed3e90604401602060405180830381865afa15801561263b573d6000803e3d6000fd5b505050506040513d601f19601f8201168201806040525081019061265f919061307a565b155b6126cc5760405162461bcd60e51b815260206004820152603660248201527f5361666545524332303a20617070726f76652066726f6d206e6f6e2d7a65726f60448201527520746f206e6f6e2d7a65726f20616c6c6f77616e636560501b606482015260840161044b565b604080516001600160a01b038416602482015260448082018490528251808303909101815260649091019091526020810180516001600160e01b031663095ea7b360e01b17905261271e908490612773565b505050565b600080546001600160a01b038381166001600160a01b0319831681178455604051919092169283917f8be0079c531659141344cd1fd0a4f28419497f9722a3daafe3b4186f6b6457e09190a35050565b60006127c8826040518060400160405280602081526020017f5361666545524332303a206c6f772d6c6576656c2063616c6c206661696c6564815250856001600160a01b03166128459092919063ffffffff16565b80519091501561271e57808060200190518101906127e69190612ffb565b61271e5760405162461bcd60e51b815260206004820152602a60248201527f5361666545524332303a204552433230206f7065726174696f6e20646964206e6044820152691bdd081cdd58d8d9595960b21b606482015260840161044b565b6060610391848460008585600080866001600160a01b0316858760405161286c919061340c565b60006040518083038185875af1925050503d80600081146128a9576040519150601f19603f3d011682016040523d82523d6000602084013e6128ae565b606091505b50915091506128bf878383876128ca565b979650505050505050565b60608315612939578251600003612932576001600160a01b0385163b6129325760405162461bcd60e51b815260206004820152601d60248201527f416464726573733a2063616c6c20746f206e6f6e2d636f6e7472616374000000604482015260640161044b565b5081610391565b610391838381511561294e5781518083602001fd5b8060405162461bcd60e51b815260040161044b9190613428565b60006020828403121561297a57600080fd5b81356001600160e01b03198116811461299257600080fd5b9392505050565b80356001600160a01b03811681146129b057600080fd5b919050565b634e487b7160e01b600052604160045260246000fd5b604051601f8201601f191681016001600160401b03811182821017156129f3576129f36129b5565b604052919050565b600082601f830112612a0c57600080fd5b81356001600160401b03811115612a2557612a256129b5565b612a38601f8201601f19166020016129cb565b818152846020838601011115612a4d57600080fd5b816020850160208301376000918101602001919091529392505050565b60008060008060808587031215612a8057600080fd5b612a8985612999565b9350612a9760208601612999565b92506040850135915060608501356001600160401b03811115612ab957600080fd5b612ac5878288016129fb565b91505092959194509250565b600080600060608486031215612ae657600080fd5b612aef84612999565b9250612afd60208501612999565b9150604084013590509250925092565b60008083601f840112612b1f57600080fd5b5081356001600160401b03811115612b3657600080fd5b6020830191508360208260051b8501011115612b5157600080fd5b9250929050565b600080600080600060608688031215612b7057600080fd5b612b7986612999565b945060208601356001600160401b0380821115612b9557600080fd5b612ba189838a01612b0d565b90965094506040880135915080821115612bba57600080fd5b50612bc788828901612b0d565b969995985093965092949392505050565b600060208284031215612bea57600080fd5b61299282612999565b600080600060408486031215612c0857600080fd5b612c1184612999565b925060208401356001600160401b03811115612c2c57600080fd5b612c3886828701612b0d565b9497909650939450505050565b60008060408385031215612c5857600080fd5b612c6183612999565b9150612c6f60208401612999565b90509250929050565b60008083601f840112612c8a57600080fd5b5081356001600160401b03811115612ca157600080fd5b602083019150836020828501011115612b5157600080fd5b600080600080600060808688031215612cd157600080fd5b612cda86612999565b9450612ce860208701612999565b93506040860135925060608601356001600160401b03811115612d0a57600080fd5b612bc788828901612c78565b60008060008060008060006080888a031215612d3157600080fd5b612d3a88612999565b965060208801356001600160401b0380821115612d5657600080fd5b612d628b838c01612b0d565b909850965060408a0135915080821115612d7b57600080fd5b612d878b838c01612b0d565b909650945060608a0135915080821115612da057600080fd5b50612dad8a828b01612b0d565b989b979a50959850939692959293505050565b60008060008060008060008060a0898b031215612ddc57600080fd5b612de589612999565b9750612df360208a01612999565b965060408901356001600160401b0380821115612e0f57600080fd5b612e1b8c838d01612b0d565b909850965060608b0135915080821115612e3457600080fd5b612e408c838d01612b0d565b909650945060808b0135915080821115612e5957600080fd5b50612e668b828c01612c78565b999c989b5096995094979396929594505050565b600082601f830112612e8b57600080fd5b813560206001600160401b03821115612ea657612ea66129b5565b8160051b612eb58282016129cb565b9283528481018201928281019087851115612ecf57600080fd5b83870192505b848310156128bf57823582529183019190830190612ed5565b600080600080600060a08688031215612f0657600080fd5b612f0f86612999565b9450612f1d60208701612999565b935060408601356001600160401b0380821115612f3957600080fd5b612f4589838a01612e7a565b94506060880135915080821115612f5b57600080fd5b612f6789838a01612e7a565b93506080880135915080821115612f7d57600080fd5b50612f8a888289016129fb565b9150509295509295909350565b600080600080600060a08688031215612faf57600080fd5b612fb886612999565b9450612fc660208701612999565b9350604086013592506060860135915060808601356001600160401b03811115612fef57600080fd5b612f8a888289016129fb565b60006020828403121561300d57600080fd5b8151801515811461299257600080fd5b6020808252603d908201527f5a69766f6544414f3a3a69734c6f636b657228292021495a69766f65476c6f6260408201527f616c735f44414f2847424c292e69734c6f636b6572286c6f636b657229000000606082015260800190565b60006020828403121561308c57600080fd5b5051919050565b8183526000602080850194508260005b858110156130cf576001600160a01b036130bc83612999565b16875295820195908201906001016130a3565b509495945050505050565b81835260006001600160fb1b038311156130f357600080fd5b8260051b80836020870137939093016020019392505050565b604081526000613120604083018688613093565b82810360208401526128bf8185876130da565b634e487b7160e01b600052603260045260246000fd5b60006001820161316957634e487b7160e01b600052601160045260246000fd5b5060010190565b60208082526025908201527f5a69766f654f776e61626c654c6f636b65643a3a756e6c6f636b65642829206c6040820152641bd8dad95960da1b606082015260800190565b602081526000610391602083018486613093565b81835281816020850137506000828201602090810191909152601f909101601f19169091010190565b6020815260006103916020830184866131c9565b60018060a01b038516815283602082015260606040820152600061322e6060830184866131c9565b9695505050505050565b60608152600061324c60608301888a613093565b60208382038185015261326082888a6130da565b84810360408601528581529150808201600586901b830182018760005b888110156132ec57858303601f190184528135368b9003601e190181126132a357600080fd5b8a0185810190356001600160401b038111156132be57600080fd5b8036038213156132cd57600080fd5b6132d88582846131c9565b95870195945050509084019060010161327d565b50909c9b505050505050505050505050565b6000808335601e1984360301811261331557600080fd5b8301803591506001600160401b0382111561332f57600080fd5b602001915036819003821315612b5157600080fd5b60608152600061335860608301888a6130da565b828103602084015261336b8187896130da565b905082810360408401526133808185876131c9565b9998505050505050505050565b6001600160a01b03881681526080602082018190526000906133b2908301888a6130da565b82810360408401526133c58187896130da565b905082810360608401526133da8185876131c9565b9a9950505050505050505050565b60005b838110156134035781810151838201526020016133eb565b50506000910152565b6000825161341e8184602087016133e8565b9190910192915050565b60208152600082518060208401526134478160408501602087016133e8565b601f01601f1916919091016040019291505056fea264697066735822122091ffe0eec166d3d708c4b45a92ed741d9d926b7964da71dbbc50ef8578597adb64736f6c63430008100033",
    "linkReferences": {}
  },
  "methodIdentifiers": {
    "GBL()": "3ce8d432",
    "locked()": "cf309012",
    "onERC1155BatchReceived(address,address,uint256[],uint256[],bytes)": "bc197c81",
    "onERC1155Received(address,address,uint256,uint256,bytes)": "f23a6e61",
    "onERC721Received(address,address,uint256,bytes)": "150b7a02",
    "owner()": "8da5cb5b",
    "pull(address,address)": "66b3bcb0",
    "pullERC1155Batch(address,address,uint256[],uint256[],bytes)": "e23e373c",
    "pullERC721(address,address,uint256,bytes)": "aeb34087",
    "pullMulti(address,address[])": "606d049d",
    "pullMultiERC721(address,address[],uint256[],bytes[])": "8a000836",
    "pullMultiPartial(address,address[],uint256[])": "3811641a",
    "pullPartial(address,address,uint256)": "74ef15a9",
    "push(address,address,uint256)": "26e8eda2",
    "pushERC1155Batch(address,address,uint256[],uint256[],bytes)": "794143ff",
    "pushERC721(address,address,uint256,bytes)": "70240769",
    "pushMulti(address,address[],uint256[])": "2951b06e",
    "pushMultiERC721(address,address[],uint256[],bytes[])": "70defbad",
    "renounceOwnership()": "715018a6",
    "supportsInterface(bytes4)": "01ffc9a7",
    "transferOwnership(address)": "f2fde38b",
    "transferOwnershipAndLock(address)": "58289c7e"
  },
  "id": 12
}