{
  "abi": [
    {
      "inputs": [],
      "stateMutability": "nonpayable",
      "type": "constructor"
    },
    {
      "anonymous": false,
      "inputs": [
        {
          "indexed": true,
          "internalType": "address",
          "name": "owner",
          "type": "address"
        },
        {
          "indexed": true,
          "internalType": "address",
          "name": "approved",
          "type": "address"
        },
        {
          "indexed": true,
          "internalType": "uint256",
          "name": "tokenId",
          "type": "uint256"
        }
      ],
      "name": "Approval",
      "type": "event"
    },
    {
      "anonymous": false,
      "inputs": [
        {
          "indexed": true,
          "internalType": "address",
          "name": "owner",
          "type": "address"
        },
        {
          "indexed": true,
          "internalType": "address",
          "name": "operator",
          "type": "address"
        },
        {
          "indexed": false,
          "internalType": "bool",
          "name": "approved",
          "type": "bool"
        }
      ],
      "name": "ApprovalForAll",
      "type": "event"
    },
    {
      "anonymous": false,
      "inputs": [
        {
          "indexed": true,
          "internalType": "address",
          "name": "from",
          "type": "address"
        },
        {
          "indexed": true,
          "internalType": "address",
          "name": "to",
          "type": "address"
        },
        {
          "indexed": true,
          "internalType": "uint256",
          "name": "tokenId",
          "type": "uint256"
        }
      ],
      "name": "Transfer",
      "type": "event"
    },
    {
      "inputs": [
        {
          "internalType": "address",
          "name": "to",
          "type": "address"
        },
        {
          "internalType": "uint256",
          "name": "tokenId",
          "type": "uint256"
        }
      ],
      "name": "approve",
      "outputs": [],
      "stateMutability": "nonpayable",
      "type": "function"
    },
    {
      "inputs": [
        {
          "internalType": "address",
          "name": "owner",
          "type": "address"
        }
      ],
      "name": "balanceOf",
      "outputs": [
        {
          "internalType": "uint256",
          "name": "",
          "type": "uint256"
        }
      ],
      "stateMutability": "view",
      "type": "function"
    },
    {
      "inputs": [
        {
          "internalType": "uint256",
          "name": "tokenId",
          "type": "uint256"
        }
      ],
      "name": "getApproved",
      "outputs": [
        {
          "internalType": "address",
          "name": "",
          "type": "address"
        }
      ],
      "stateMutability": "view",
      "type": "function"
    },
    {
      "inputs": [
        {
          "internalType": "address",
          "name": "owner",
          "type": "address"
        },
        {
          "internalType": "address",
          "name": "operator",
          "type": "address"
        }
      ],
      "name": "isApprovedForAll",
      "outputs": [
        {
          "internalType": "bool",
          "name": "",
          "type": "bool"
        }
      ],
      "stateMutability": "view",
      "type": "function"
    },
    {
      "inputs": [
        {
          "internalType": "address",
          "name": "receiver",
          "type": "address"
        },
        {
          "internalType": "string",
          "name": "tokenURI",
          "type": "string"
        }
      ],
      "name": "mintGenericNFT",
      "outputs": [
        {
          "internalType": "uint256",
          "name": "",
          "type": "uint256"
        }
      ],
      "stateMutability": "nonpayable",
      "type": "function"
    },
    {
      "inputs": [],
      "name": "name",
      "outputs": [
        {
          "internalType": "string",
          "name": "",
          "type": "string"
        }
      ],
      "stateMutability": "view",
      "type": "function"
    },
    {
      "inputs": [
        {
          "internalType": "uint256",
          "name": "tokenId",
          "type": "uint256"
        }
      ],
      "name": "ownerOf",
      "outputs": [
        {
          "internalType": "address",
          "name": "",
          "type": "address"
        }
      ],
      "stateMutability": "view",
      "type": "function"
    },
    {
      "inputs": [
        {
          "internalType": "address",
          "name": "from",
          "type": "address"
        },
        {
          "internalType": "address",
          "name": "to",
          "type": "address"
        },
        {
          "internalType": "uint256",
          "name": "tokenId",
          "type": "uint256"
        }
      ],
      "name": "safeTransferFrom",
      "outputs": [],
      "stateMutability": "nonpayable",
      "type": "function"
    },
    {
      "inputs": [
        {
          "internalType": "address",
          "name": "from",
          "type": "address"
        },
        {
          "internalType": "address",
          "name": "to",
          "type": "address"
        },
        {
          "internalType": "uint256",
          "name": "tokenId",
          "type": "uint256"
        },
        {
          "internalType": "bytes",
          "name": "data",
          "type": "bytes"
        }
      ],
      "name": "safeTransferFrom",
      "outputs": [],
      "stateMutability": "nonpayable",
      "type": "function"
    },
    {
      "inputs": [
        {
          "internalType": "address",
          "name": "operator",
          "type": "address"
        },
        {
          "internalType": "bool",
          "name": "approved",
          "type": "bool"
        }
      ],
      "name": "setApprovalForAll",
      "outputs": [],
      "stateMutability": "nonpayable",
      "type": "function"
    },
    {
      "inputs": [
        {
          "internalType": "bytes4",
          "name": "interfaceId",
          "type": "bytes4"
        }
      ],
      "name": "supportsInterface",
      "outputs": [
        {
          "internalType": "bool",
          "name": "",
          "type": "bool"
        }
      ],
      "stateMutability": "view",
      "type": "function"
    },
    {
      "inputs": [],
      "name": "symbol",
      "outputs": [
        {
          "internalType": "string",
          "name": "",
          "type": "string"
        }
      ],
      "stateMutability": "view",
      "type": "function"
    },
    {
      "inputs": [
        {
          "internalType": "uint256",
          "name": "tokenId",
          "type": "uint256"
        }
      ],
      "name": "tokenURI",
      "outputs": [
        {
          "internalType": "string",
          "name": "",
          "type": "string"
        }
      ],
      "stateMutability": "view",
      "type": "function"
    },
    {
      "inputs": [
        {
          "internalType": "address",
          "name": "from",
          "type": "address"
        },
        {
          "internalType": "address",
          "name": "to",
          "type": "address"
        },
        {
          "internalType": "uint256",
          "name": "tokenId",
          "type": "uint256"
        }
      ],
      "name": "transferFrom",
      "outputs": [],
      "stateMutability": "nonpayable",
      "type": "function"
    }
  ],
  "bytecode": {
    "object": "0x60806040523480156200001157600080fd5b5060405180604001604052806008815260200167169a5d9bd953919560c21b8152506040518060400160405280600381526020016216919560ea1b81525081600090816200006091906200011d565b5060016200006f82826200011d565b505050620001e9565b634e487b7160e01b600052604160045260246000fd5b600181811c90821680620000a357607f821691505b602082108103620000c457634e487b7160e01b600052602260045260246000fd5b50919050565b601f8211156200011857600081815260208120601f850160051c81016020861015620000f35750805b601f850160051c820191505b818110156200011457828155600101620000ff565b5050505b505050565b81516001600160401b0381111562000139576200013962000078565b62000151816200014a84546200008e565b84620000ca565b602080601f831160018114620001895760008415620001705750858301515b600019600386901b1c1916600185901b17855562000114565b600085815260208120601f198616915b82811015620001ba5788860151825594840194600190910190840162000199565b5085821015620001d95787850151600019600388901b60f8161c191681555b5050505050600190811b01905550565b61170580620001f96000396000f3fe608060405234801561001057600080fd5b50600436106100ea5760003560e01c806370a082311161008c578063ad03b62a11610066578063ad03b62a146101e1578063b88d4fde146101f4578063c87b56dd14610207578063e985e9c51461021a57600080fd5b806370a08231146101a557806395d89b41146101c6578063a22cb465146101ce57600080fd5b8063095ea7b3116100c8578063095ea7b31461015757806323b872dd1461016c57806342842e0e1461017f5780636352211e1461019257600080fd5b806301ffc9a7146100ef57806306fdde0314610117578063081812fc1461012c575b600080fd5b6101026100fd3660046110cf565b610256565b60405190151581526020015b60405180910390f35b61011f6102a8565b60405161010e919061113c565b61013f61013a36600461114f565b61033a565b6040516001600160a01b03909116815260200161010e565b61016a610165366004611184565b610361565b005b61016a61017a3660046111ae565b61047b565b61016a61018d3660046111ae565b6104ac565b61013f6101a036600461114f565b6104c7565b6101b86101b33660046111ea565b610527565b60405190815260200161010e565b61011f6105ad565b61016a6101dc366004611205565b6105bc565b6101b86101ef3660046112cd565b6105cb565b61016a61020236600461132f565b610602565b61011f61021536600461114f565b61063a565b6101026102283660046113ab565b6001600160a01b03918216600090815260056020908152604080832093909416825291909152205460ff1690565b60006001600160e01b031982166380ac58cd60e01b148061028757506001600160e01b03198216635b5e139f60e01b145b806102a257506301ffc9a760e01b6001600160e01b03198316145b92915050565b6060600080546102b7906113de565b80601f01602080910402602001604051908101604052809291908181526020018280546102e3906113de565b80156103305780601f1061030557610100808354040283529160200191610330565b820191906000526020600020905b81548152906001019060200180831161031357829003601f168201915b5050505050905090565b600061034582610758565b506000908152600460205260409020546001600160a01b031690565b600061036c826104c7565b9050806001600160a01b0316836001600160a01b0316036103de5760405162461bcd60e51b815260206004820152602160248201527f4552433732313a20617070726f76616c20746f2063757272656e74206f776e656044820152603960f91b60648201526084015b60405180910390fd5b336001600160a01b03821614806103fa57506103fa8133610228565b61046c5760405162461bcd60e51b815260206004820152603d60248201527f4552433732313a20617070726f76652063616c6c6572206973206e6f7420746f60448201527f6b656e206f776e6572206f7220617070726f76656420666f7220616c6c00000060648201526084016103d5565b61047683836107ba565b505050565b6104853382610828565b6104a15760405162461bcd60e51b81526004016103d590611418565b6104768383836108a6565b61047683838360405180602001604052806000815250610602565b6000818152600260205260408120546001600160a01b0316806102a25760405162461bcd60e51b8152602060048201526018602482015277115490cdcc8c4e881a5b9d985b1a59081d1bdad95b88125160421b60448201526064016103d5565b60006001600160a01b0382166105915760405162461bcd60e51b815260206004820152602960248201527f4552433732313a2061646472657373207a65726f206973206e6f7420612076616044820152683634b21037bbb732b960b91b60648201526084016103d5565b506001600160a01b031660009081526003602052604090205490565b6060600180546102b7906113de565b6105c7338383610a17565b5050565b6000806105d760075490565b90506105e38482610ae5565b6105ed8184610c7e565b6105fb600780546001019055565b9392505050565b61060c3383610828565b6106285760405162461bcd60e51b81526004016103d590611418565b61063484848484610d11565b50505050565b606061064582610758565b6000828152600660205260408120805461065e906113de565b80601f016020809104026020016040519081016040528092919081815260200182805461068a906113de565b80156106d75780601f106106ac576101008083540402835291602001916106d7565b820191906000526020600020905b8154815290600101906020018083116106ba57829003601f168201915b50505050509050600061070360408051808201909152600681526534b833399d1d60d11b602082015290565b90508051600003610715575092915050565b81511561074757808260405160200161072f929190611465565b60405160208183030381529060405292505050919050565b61075084610d44565b949350505050565b6000818152600260205260409020546001600160a01b03166107b75760405162461bcd60e51b8152602060048201526018602482015277115490cdcc8c4e881a5b9d985b1a59081d1bdad95b88125160421b60448201526064016103d5565b50565b600081815260046020526040902080546001600160a01b0319166001600160a01b03841690811790915581906107ef826104c7565b6001600160a01b03167f8c5be1e5ebec7d5bd14f71427d1e84f3dd0314c0f7b2291e5b200ac8c7c3b92560405160405180910390a45050565b600080610834836104c7565b9050806001600160a01b0316846001600160a01b0316148061087b57506001600160a01b0380821660009081526005602090815260408083209388168352929052205460ff165b806107505750836001600160a01b03166108948461033a565b6001600160a01b031614949350505050565b826001600160a01b03166108b9826104c7565b6001600160a01b0316146108df5760405162461bcd60e51b81526004016103d590611494565b6001600160a01b0382166109415760405162461bcd60e51b8152602060048201526024808201527f4552433732313a207472616e7366657220746f20746865207a65726f206164646044820152637265737360e01b60648201526084016103d5565b61094e8383836001610dc5565b826001600160a01b0316610961826104c7565b6001600160a01b0316146109875760405162461bcd60e51b81526004016103d590611494565b600081815260046020908152604080832080546001600160a01b03199081169091556001600160a01b0387811680865260038552838620805460001901905590871680865283862080546001019055868652600290945282852080549092168417909155905184937fddf252ad1be2c89b69c2b068fc378daa952ba7f163c4a11628f55a4df523b3ef91a4505050565b816001600160a01b0316836001600160a01b031603610a785760405162461bcd60e51b815260206004820152601960248201527f4552433732313a20617070726f766520746f2063616c6c65720000000000000060448201526064016103d5565b6001600160a01b03838116600081815260056020908152604080832094871680845294825291829020805460ff191686151590811790915591519182527f17307eab39ab6107e8899845ad3d59bd9653f200f220920489ca2b5937696c31910160405180910390a3505050565b6001600160a01b038216610b3b5760405162461bcd60e51b815260206004820181905260248201527f4552433732313a206d696e7420746f20746865207a65726f206164647265737360448201526064016103d5565b6000818152600260205260409020546001600160a01b031615610ba05760405162461bcd60e51b815260206004820152601c60248201527f4552433732313a20746f6b656e20616c7265616479206d696e7465640000000060448201526064016103d5565b610bae600083836001610dc5565b6000818152600260205260409020546001600160a01b031615610c135760405162461bcd60e51b815260206004820152601c60248201527f4552433732313a20746f6b656e20616c7265616479206d696e7465640000000060448201526064016103d5565b6001600160a01b038216600081815260036020908152604080832080546001019055848352600290915280822080546001600160a01b0319168417905551839291907fddf252ad1be2c89b69c2b068fc378daa952ba7f163c4a11628f55a4df523b3ef908290a45050565b6000828152600260205260409020546001600160a01b0316610cf95760405162461bcd60e51b815260206004820152602e60248201527f45524337323155524953746f726167653a2055524920736574206f66206e6f6e60448201526d32bc34b9ba32b73a103a37b5b2b760911b60648201526084016103d5565b60008281526006602052604090206104768282611527565b610d1c8484846108a6565b610d2884848484610e4d565b6106345760405162461bcd60e51b81526004016103d5906115e7565b6060610d4f82610758565b6000610d7460408051808201909152600681526534b833399d1d60d11b602082015290565b90506000815111610d9457604051806020016040528060008152506105fb565b80610d9e84610f4e565b604051602001610daf929190611465565b6040516020818303038152906040529392505050565b6001811115610634576001600160a01b03841615610e0b576001600160a01b03841660009081526003602052604081208054839290610e0590849061164f565b90915550505b6001600160a01b03831615610634576001600160a01b03831660009081526003602052604081208054839290610e42908490611662565b909155505050505050565b60006001600160a01b0384163b15610f4357604051630a85bd0160e11b81526001600160a01b0385169063150b7a0290610e91903390899088908890600401611675565b6020604051808303816000875af1925050508015610ecc575060408051601f3d908101601f19168201909252610ec9918101906116b2565b60015b610f29573d808015610efa576040519150601f19603f3d011682016040523d82523d6000602084013e610eff565b606091505b508051600003610f215760405162461bcd60e51b81526004016103d5906115e7565b805181602001fd5b6001600160e01b031916630a85bd0160e11b149050610750565b506001949350505050565b60606000610f5b83610fe1565b600101905060008167ffffffffffffffff811115610f7b57610f7b611241565b6040519080825280601f01601f191660200182016040528015610fa5576020820181803683370190505b5090508181016020015b600019016f181899199a1a9b1b9c1cb0b131b232b360811b600a86061a8153600a8504945084610faf57509392505050565b60008072184f03e93ff9f4daa797ed6e38ed64bf6a1f0160401b83106110205772184f03e93ff9f4daa797ed6e38ed64bf6a1f0160401b830492506040015b6d04ee2d6d415b85acef8100000000831061104c576d04ee2d6d415b85acef8100000000830492506020015b662386f26fc10000831061106a57662386f26fc10000830492506010015b6305f5e1008310611082576305f5e100830492506008015b612710831061109657612710830492506004015b606483106110a8576064830492506002015b600a83106102a25760010192915050565b6001600160e01b0319811681146107b757600080fd5b6000602082840312156110e157600080fd5b81356105fb816110b9565b60005b838110156111075781810151838201526020016110ef565b50506000910152565b600081518084526111288160208601602086016110ec565b601f01601f19169290920160200192915050565b6020815260006105fb6020830184611110565b60006020828403121561116157600080fd5b5035919050565b80356001600160a01b038116811461117f57600080fd5b919050565b6000806040838503121561119757600080fd5b6111a083611168565b946020939093013593505050565b6000806000606084860312156111c357600080fd5b6111cc84611168565b92506111da60208501611168565b9150604084013590509250925092565b6000602082840312156111fc57600080fd5b6105fb82611168565b6000806040838503121561121857600080fd5b61122183611168565b91506020830135801515811461123657600080fd5b809150509250929050565b634e487b7160e01b600052604160045260246000fd5b600067ffffffffffffffff8084111561127257611272611241565b604051601f8501601f19908116603f0116810190828211818310171561129a5761129a611241565b816040528093508581528686860111156112b357600080fd5b858560208301376000602087830101525050509392505050565b600080604083850312156112e057600080fd5b6112e983611168565b9150602083013567ffffffffffffffff81111561130557600080fd5b8301601f8101851361131657600080fd5b61132585823560208401611257565b9150509250929050565b6000806000806080858703121561134557600080fd5b61134e85611168565b935061135c60208601611168565b925060408501359150606085013567ffffffffffffffff81111561137f57600080fd5b8501601f8101871361139057600080fd5b61139f87823560208401611257565b91505092959194509250565b600080604083850312156113be57600080fd5b6113c783611168565b91506113d560208401611168565b90509250929050565b600181811c908216806113f257607f821691505b60208210810361141257634e487b7160e01b600052602260045260246000fd5b50919050565b6020808252602d908201527f4552433732313a2063616c6c6572206973206e6f7420746f6b656e206f776e6560408201526c1c881bdc88185c1c1c9bdd9959609a1b606082015260800190565b600083516114778184602088016110ec565b83519083019061148b8183602088016110ec565b01949350505050565b60208082526025908201527f4552433732313a207472616e736665722066726f6d20696e636f72726563742060408201526437bbb732b960d91b606082015260800190565b601f82111561047657600081815260208120601f850160051c810160208610156115005750805b601f850160051c820191505b8181101561151f5782815560010161150c565b505050505050565b815167ffffffffffffffff81111561154157611541611241565b6115558161154f84546113de565b846114d9565b602080601f83116001811461158a57600084156115725750858301515b600019600386901b1c1916600185901b17855561151f565b600085815260208120601f198616915b828110156115b95788860151825594840194600190910190840161159a565b50858210156115d75787850151600019600388901b60f8161c191681555b5050505050600190811b01905550565b60208082526032908201527f4552433732313a207472616e7366657220746f206e6f6e20455243373231526560408201527131b2b4bb32b91034b6b83632b6b2b73a32b960711b606082015260800190565b634e487b7160e01b600052601160045260246000fd5b818103818111156102a2576102a2611639565b808201808211156102a2576102a2611639565b6001600160a01b03858116825284166020820152604081018390526080606082018190526000906116a890830184611110565b9695505050505050565b6000602082840312156116c457600080fd5b81516105fb816110b956fea2646970667358221220f54c02087e453bd6c619dfc624d95bba84bf7c6bc54fb86ee6ad6516708d1cdb64736f6c63430008100033",
    "linkReferences": {}
  },
  "methodIdentifiers": {
    "approve(address,uint256)": "095ea7b3",
    "balanceOf(address)": "70a08231",
    "getApproved(uint256)": "081812fc",
    "isApprovedForAll(address,address)": "e985e9c5",
    "mintGenericNFT(address,string)": "ad03b62a",
    "name()": "06fdde03",
    "ownerOf(uint256)": "6352211e",
    "safeTransferFrom(address,address,uint256)": "42842e0e",
    "safeTransferFrom(address,address,uint256,bytes)": "b88d4fde",
    "setApprovalForAll(address,bool)": "a22cb465",
    "supportsInterface(bytes4)": "01ffc9a7",
    "symbol()": "95d89b41",
    "tokenURI(uint256)": "c87b56dd",
    "transferFrom(address,address,uint256)": "23b872dd"
  },
  "id": 105
}