{
  "abi": [
    {
      "inputs": [
        {
          "internalType": "address",
          "name": "DAO",
          "type": "address"
        },
        {
          "internalType": "address",
          "name": "_GBL",
          "type": "address"
        }
      ],
      "stateMutability": "nonpayable",
      "type": "constructor"
    },
    {
      "anonymous": false,
      "inputs": [
        {
          "indexed": true,
          "internalType": "address",
          "name": "previousOwner",
          "type": "address"
        },
        {
          "indexed": true,
          "internalType": "address",
          "name": "newOwner",
          "type": "address"
        }
      ],
      "name": "OwnershipTransferred",
      "type": "event"
    },
    {
      "anonymous": false,
      "inputs": [
        {
          "indexed": true,
          "internalType": "address",
          "name": "previousOwner",
          "type": "address"
        },
        {
          "indexed": true,
          "internalType": "address",
          "name": "newOwner",
          "type": "address"
        }
      ],
      "name": "OwnershipTransferredAndLocked",
      "type": "event"
    },
    {
      "inputs": [],
      "name": "AAVE_V2_LendingPool",
      "outputs": [
        {
          "internalType": "address",
          "name": "",
          "type": "address"
        }
      ],
      "stateMutability": "view",
      "type": "function"
    },
    {
      "inputs": [],
      "name": "AAVE_V2_aUSDC",
      "outputs": [
        {
          "internalType": "address",
          "name": "",
          "type": "address"
        }
      ],
      "stateMutability": "view",
      "type": "function"
    },
    {
      "inputs": [],
      "name": "CRV_PP",
      "outputs": [
        {
          "internalType": "address",
          "name": "",
          "type": "address"
        }
      ],
      "stateMutability": "view",
      "type": "function"
    },
    {
      "inputs": [],
      "name": "DAI",
      "outputs": [
        {
          "internalType": "address",
          "name": "",
          "type": "address"
        }
      ],
      "stateMutability": "view",
      "type": "function"
    },
    {
      "inputs": [],
      "name": "FRAX",
      "outputs": [
        {
          "internalType": "address",
          "name": "",
          "type": "address"
        }
      ],
      "stateMutability": "view",
      "type": "function"
    },
    {
      "inputs": [],
      "name": "FRAX3CRV_MP",
      "outputs": [
        {
          "internalType": "address",
          "name": "",
          "type": "address"
        }
      ],
      "stateMutability": "view",
      "type": "function"
    },
    {
      "inputs": [],
      "name": "GBL",
      "outputs": [
        {
          "internalType": "address",
          "name": "",
          "type": "address"
        }
      ],
      "stateMutability": "view",
      "type": "function"
    },
    {
      "inputs": [],
      "name": "USDC",
      "outputs": [
        {
          "internalType": "address",
          "name": "",
          "type": "address"
        }
      ],
      "stateMutability": "view",
      "type": "function"
    },
    {
      "inputs": [],
      "name": "USDT",
      "outputs": [
        {
          "internalType": "address",
          "name": "",
          "type": "address"
        }
      ],
      "stateMutability": "view",
      "type": "function"
    },
    {
      "inputs": [],
      "name": "canPull",
      "outputs": [
        {
          "internalType": "bool",
          "name": "",
          "type": "bool"
        }
      ],
      "stateMutability": "pure",
      "type": "function"
    },
    {
      "inputs": [],
      "name": "canPullERC1155",
      "outputs": [
        {
          "internalType": "bool",
          "name": "",
          "type": "bool"
        }
      ],
      "stateMutability": "view",
      "type": "function"
    },
    {
      "inputs": [],
      "name": "canPullERC721",
      "outputs": [
        {
          "internalType": "bool",
          "name": "",
          "type": "bool"
        }
      ],
      "stateMutability": "view",
      "type": "function"
    },
    {
      "inputs": [],
      "name": "canPullMulti",
      "outputs": [
        {
          "internalType": "bool",
          "name": "",
          "type": "bool"
        }
      ],
      "stateMutability": "view",
      "type": "function"
    },
    {
      "inputs": [],
      "name": "canPullMultiERC721",
      "outputs": [
        {
          "internalType": "bool",
          "name": "",
          "type": "bool"
        }
      ],
      "stateMutability": "view",
      "type": "function"
    },
    {
      "inputs": [],
      "name": "canPullMultiPartial",
      "outputs": [
        {
          "internalType": "bool",
          "name": "",
          "type": "bool"
        }
      ],
      "stateMutability": "view",
      "type": "function"
    },
    {
      "inputs": [],
      "name": "canPullPartial",
      "outputs": [
        {
          "internalType": "bool",
          "name": "",
          "type": "bool"
        }
      ],
      "stateMutability": "pure",
      "type": "function"
    },
    {
      "inputs": [],
      "name": "canPush",
      "outputs": [
        {
          "internalType": "bool",
          "name": "",
          "type": "bool"
        }
      ],
      "stateMutability": "pure",
      "type": "function"
    },
    {
      "inputs": [],
      "name": "canPushERC1155",
      "outputs": [
        {
          "internalType": "bool",
          "name": "",
          "type": "bool"
        }
      ],
      "stateMutability": "view",
      "type": "function"
    },
    {
      "inputs": [],
      "name": "canPushERC721",
      "outputs": [
        {
          "internalType": "bool",
          "name": "",
          "type": "bool"
        }
      ],
      "stateMutability": "view",
      "type": "function"
    },
    {
      "inputs": [],
      "name": "canPushMulti",
      "outputs": [
        {
          "internalType": "bool",
          "name": "",
          "type": "bool"
        }
      ],
      "stateMutability": "view",
      "type": "function"
    },
    {
      "inputs": [],
      "name": "canPushMultiERC721",
      "outputs": [
        {
          "internalType": "bool",
          "name": "",
          "type": "bool"
        }
      ],
      "stateMutability": "view",
      "type": "function"
    },
    {
      "inputs": [],
      "name": "forwardYield",
      "outputs": [],
      "stateMutability": "nonpayable",
      "type": "function"
    },
    {
      "inputs": [],
      "name": "locked",
      "outputs": [
        {
          "internalType": "bool",
          "name": "",
          "type": "bool"
        }
      ],
      "stateMutability": "view",
      "type": "function"
    },
    {
      "inputs": [
        {
          "internalType": "address",
          "name": "",
          "type": "address"
        },
        {
          "internalType": "address",
          "name": "",
          "type": "address"
        },
        {
          "internalType": "uint256[]",
          "name": "",
          "type": "uint256[]"
        },
        {
          "internalType": "uint256[]",
          "name": "",
          "type": "uint256[]"
        },
        {
          "internalType": "bytes",
          "name": "",
          "type": "bytes"
        }
      ],
      "name": "onERC1155BatchReceived",
      "outputs": [
        {
          "internalType": "bytes4",
          "name": "",
          "type": "bytes4"
        }
      ],
      "stateMutability": "nonpayable",
      "type": "function"
    },
    {
      "inputs": [
        {
          "internalType": "address",
          "name": "",
          "type": "address"
        },
        {
          "internalType": "address",
          "name": "",
          "type": "address"
        },
        {
          "internalType": "uint256",
          "name": "",
          "type": "uint256"
        },
        {
          "internalType": "uint256",
          "name": "",
          "type": "uint256"
        },
        {
          "internalType": "bytes",
          "name": "",
          "type": "bytes"
        }
      ],
      "name": "onERC1155Received",
      "outputs": [
        {
          "internalType": "bytes4",
          "name": "",
          "type": "bytes4"
        }
      ],
      "stateMutability": "nonpayable",
      "type": "function"
    },
    {
      "inputs": [
        {
          "internalType": "address",
          "name": "",
          "type": "address"
        },
        {
          "internalType": "address",
          "name": "",
          "type": "address"
        },
        {
          "internalType": "uint256",
          "name": "",
          "type": "uint256"
        },
        {
          "internalType": "bytes",
          "name": "",
          "type": "bytes"
        }
      ],
      "name": "onERC721Received",
      "outputs": [
        {
          "internalType": "bytes4",
          "name": "",
          "type": "bytes4"
        }
      ],
      "stateMutability": "nonpayable",
      "type": "function"
    },
    {
      "inputs": [],
      "name": "owner",
      "outputs": [
        {
          "internalType": "address",
          "name": "",
          "type": "address"
        }
      ],
      "stateMutability": "view",
      "type": "function"
    },
    {
      "inputs": [
        {
          "internalType": "address",
          "name": "asset",
          "type": "address"
        }
      ],
      "name": "pullFromLocker",
      "outputs": [],
      "stateMutability": "nonpayable",
      "type": "function"
    },
    {
      "inputs": [
        {
          "internalType": "address",
          "name": "asset",
          "type": "address"
        },
        {
          "internalType": "uint256[]",
          "name": "ids",
          "type": "uint256[]"
        },
        {
          "internalType": "uint256[]",
          "name": "amounts",
          "type": "uint256[]"
        },
        {
          "internalType": "bytes",
          "name": "data",
          "type": "bytes"
        }
      ],
      "name": "pullFromLockerERC1155",
      "outputs": [],
      "stateMutability": "nonpayable",
      "type": "function"
    },
    {
      "inputs": [
        {
          "internalType": "address",
          "name": "asset",
          "type": "address"
        },
        {
          "internalType": "uint256",
          "name": "tokenId",
          "type": "uint256"
        },
        {
          "internalType": "bytes",
          "name": "data",
          "type": "bytes"
        }
      ],
      "name": "pullFromLockerERC721",
      "outputs": [],
      "stateMutability": "nonpayable",
      "type": "function"
    },
    {
      "inputs": [
        {
          "internalType": "address[]",
          "name": "assets",
          "type": "address[]"
        }
      ],
      "name": "pullFromLockerMulti",
      "outputs": [],
      "stateMutability": "nonpayable",
      "type": "function"
    },
    {
      "inputs": [
        {
          "internalType": "address[]",
          "name": "assets",
          "type": "address[]"
        },
        {
          "internalType": "uint256[]",
          "name": "tokenIds",
          "type": "uint256[]"
        },
        {
          "internalType": "bytes[]",
          "name": "data",
          "type": "bytes[]"
        }
      ],
      "name": "pullFromLockerMultiERC721",
      "outputs": [],
      "stateMutability": "nonpayable",
      "type": "function"
    },
    {
      "inputs": [
        {
          "internalType": "address[]",
          "name": "assets",
          "type": "address[]"
        },
        {
          "internalType": "uint256[]",
          "name": "amounts",
          "type": "uint256[]"
        }
      ],
      "name": "pullFromLockerMultiPartial",
      "outputs": [],
      "stateMutability": "nonpayable",
      "type": "function"
    },
    {
      "inputs": [
        {
          "internalType": "address",
          "name": "asset",
          "type": "address"
        },
        {
          "internalType": "uint256",
          "name": "amount",
          "type": "uint256"
        }
      ],
      "name": "pullFromLockerPartial",
      "outputs": [],
      "stateMutability": "nonpayable",
      "type": "function"
    },
    {
      "inputs": [
        {
          "internalType": "address",
          "name": "asset",
          "type": "address"
        },
        {
          "internalType": "uint256",
          "name": "amount",
          "type": "uint256"
        }
      ],
      "name": "pushToLocker",
      "outputs": [],
      "stateMutability": "nonpayable",
      "type": "function"
    },
    {
      "inputs": [
        {
          "internalType": "address",
          "name": "asset",
          "type": "address"
        },
        {
          "internalType": "uint256[]",
          "name": "ids",
          "type": "uint256[]"
        },
        {
          "internalType": "uint256[]",
          "name": "amounts",
          "type": "uint256[]"
        },
        {
          "internalType": "bytes",
          "name": "data",
          "type": "bytes"
        }
      ],
      "name": "pushToLockerERC1155",
      "outputs": [],
      "stateMutability": "nonpayable",
      "type": "function"
    },
    {
      "inputs": [
        {
          "internalType": "address",
          "name": "asset",
          "type": "address"
        },
        {
          "internalType": "uint256",
          "name": "tokenId",
          "type": "uint256"
        },
        {
          "internalType": "bytes",
          "name": "data",
          "type": "bytes"
        }
      ],
      "name": "pushToLockerERC721",
      "outputs": [],
      "stateMutability": "nonpayable",
      "type": "function"
    },
    {
      "inputs": [
        {
          "internalType": "address[]",
          "name": "assets",
          "type": "address[]"
        },
        {
          "internalType": "uint256[]",
          "name": "amounts",
          "type": "uint256[]"
        }
      ],
      "name": "pushToLockerMulti",
      "outputs": [],
      "stateMutability": "nonpayable",
      "type": "function"
    },
    {
      "inputs": [
        {
          "internalType": "address[]",
          "name": "assets",
          "type": "address[]"
        },
        {
          "internalType": "uint256[]",
          "name": "tokenIds",
          "type": "uint256[]"
        },
        {
          "internalType": "bytes[]",
          "name": "data",
          "type": "bytes[]"
        }
      ],
      "name": "pushToLockerMultiERC721",
      "outputs": [],
      "stateMutability": "nonpayable",
      "type": "function"
    },
    {
      "inputs": [],
      "name": "renounceOwnership",
      "outputs": [],
      "stateMutability": "nonpayable",
      "type": "function"
    },
    {
      "inputs": [
        {
          "internalType": "bytes4",
          "name": "interfaceId",
          "type": "bytes4"
        }
      ],
      "name": "supportsInterface",
      "outputs": [
        {
          "internalType": "bool",
          "name": "",
          "type": "bool"
        }
      ],
      "stateMutability": "view",
      "type": "function"
    },
    {
      "inputs": [
        {
          "internalType": "address",
          "name": "newOwner",
          "type": "address"
        }
      ],
      "name": "transferOwnership",
      "outputs": [],
      "stateMutability": "nonpayable",
      "type": "function"
    },
    {
      "inputs": [
        {
          "internalType": "address",
          "name": "newOwner",
          "type": "address"
        }
      ],
      "name": "transferOwnershipAndLock",
      "outputs": [],
      "stateMutability": "nonpayable",
      "type": "function"
    }
  ],
  "bytecode": {
    "object": "0x60a06040523480156200001157600080fd5b5060405162002e1238038062002e12833981016040819052620000349162000252565b6200003f336200005d565b6200004a82620000ad565b6001600160a01b0316608052506200028a565b600080546001600160a01b038381166001600160a01b0319831681178455604051919092169283917f8be0079c531659141344cd1fd0a4f28419497f9722a3daafe3b4186f6b6457e09190a35050565b620000b7620001b1565b600054600160a01b900460ff1615620001255760405162461bcd60e51b815260206004820152602560248201527f5a69766f654f776e61626c654c6f636b65643a3a756e6c6f636b65642829206c6044820152641bd8dad95960da1b60648201526084015b60405180910390fd5b6001600160a01b038116620001a35760405162461bcd60e51b815260206004820152603e60248201527f5a69766f654f776e61626c654c6f636b65643a3a7472616e736665724f776e6560448201527f72736869702829206e65774f776e6572203d3d2061646472657373283029000060648201526084016200011c565b620001ae816200005d565b50565b6000546001600160a01b03163314620002335760405162461bcd60e51b815260206004820152603760248201527f5a69766f654f776e61626c654c6f636b65643a3a5f636865636b4f776e65722060448201527f6f776e6572282920213d205f6d736753656e646572282900000000000000000060648201526084016200011c565b565b80516001600160a01b03811681146200024d57600080fd5b919050565b600080604083850312156200026657600080fd5b620002718362000235565b9150620002816020840162000235565b90509250929050565b608051612b57620002bb6000396000818161035e0152818161176b01528181611c260152611fb30152612b576000f3fe608060405234801561001057600080fd5b50600436106102695760003560e01c80638b648ee211610151578063cf309012116100c3578063f23a6e6111610087578063f23a6e61146104eb578063f2fde38b1461050a578063f6886cb31461051d578063fd76f59d14610538578063ff0459ba1461054b578063ff4a67611461055e57600080fd5b8063cf309012146104a9578063d9821e3b146104bd578063dd913bdb1461031d578063e0bab4c4146104d0578063e7f446291461033757600080fd5b8063b892bcc011610115578063b892bcc01461042e578063bc197c8114610441578063c54e44eb14610460578063c598b0641461047b578063c9c6a41414610496578063cf10b7ab1461031d57600080fd5b80638b648ee21461031d5780638da5cb5b14610402578063a4a3e79d1461031d578063b0607cf81461031d578063b0e4556f1461041357600080fd5b80633c117244116101ea578063607cd649116101ae578063607cd649146103a657806364c7773514610337578063715018a6146103b95780637dbcdbc1146103c157806384476591146103d457806389a30271146103e757600080fd5b80633c1172441461031d5780633ce8d432146103595780633eda81ad1461031d578063422b20181461038057806358289c7e1461039357600080fd5b80631852b383116102315780631852b3831461031d5780631d9389e914610324578063215cccdd146103375780632f08d48b1461031d57806339dd2b451461033e57600080fd5b806301ffc9a71461026e5780631205217614610296578063150b7a02146102ab5780631570b3b6146102d757806315e987441461030a575b600080fd5b61028161027c3660046122b7565b610566565b60405190151581526020015b60405180910390f35b6102a96102a4366004612345565b61059d565b005b6102be6102b9366004612455565b61060f565b6040516001600160e01b0319909116815260200161028d565b6102f273bebc44782c7db0a1a60cb6fe97d0b483032ff1c781565b6040516001600160a01b03909116815260200161028d565b6102a9610318366004612504565b610620565b6000610281565b6102a9610332366004612345565b610791565b6001610281565b6102f273d632f22692fac7611d2aa1c0d552930d43caed3b81565b6102f27f000000000000000000000000000000000000000000000000000000000000000081565b6102a961038e36600461259d565b6107fc565b6102a96103a1366004612649565b61086b565b6102a96103b4366004612666565b610946565b6102a9610aad565b6102a96103cf366004612649565b610aeb565b6102a96103e23660046126a7565b610b37565b6102f273a0b86991c6218b36c1d19d4a2e9eb0ce3606eb4881565b6000546001600160a01b03166102f2565b6102f273853d955acef822db058eb8505911ed77f175b99e81565b6102a961043c366004612504565b61104e565b6102be61044f366004612747565b63bc197c8160e01b95945050505050565b6102f273dac17f958d2ee523a2206206994597c13d831ec781565b6102f2737d2768de32b0b80b7a3454c06bdac94a69ddc7a981565b6102a96104a43660046127f4565b6111b6565b60005461028190600160a01b900460ff1681565b6102a96104cb3660046126a7565b6112a7565b6102f2736b175474e89094c44da98b954eedeac495271d0f81565b6102be6104f9366004612853565b63f23a6e6160e01b95945050505050565b6102a9610518366004612649565b6112f4565b6102f273bcca60bb61934080951369a648fb03df4f96263c81565b6102a961054636600461259d565b6113ab565b6102a96105593660046127f4565b611418565b6102a96114ea565b60006001600160e01b03198216630271189760e51b148061059757506301ffc9a760e01b6001600160e01b03198316145b92915050565b6105a56115fb565b60405162461bcd60e51b815260206004820152603460248201527f5a69766f654c6f636b65723a3a70756c6c46726f6d4c6f636b65724552433732604482015273312829202163616e50756c6c455243373231282960601b60648201526084015b60405180910390fd5b630a85bd0160e11b5b949350505050565b6106286115fb565b60405162461bcd60e51b815260206004820152603e60248201527f5a69766f654c6f636b65723a3a70756c6c46726f6d4c6f636b65724d756c746960448201527f4552433732312829202163616e50756c6c4d756c7469455243373231282900006064820152608401610606565b85811015610788578686828181106106b0576106b0612918565b90506020020160208101906106c59190612649565b6001600160a01b031663b88d4fde306106e66000546001600160a01b031690565b8888868181106106f8576106f8612918565b9050602002013587878781811061071157610711612918565b9050602002810190610723919061292e565b6040518663ffffffff1660e01b81526004016107439594939291906128e4565b600060405180830381600087803b15801561075d57600080fd5b505af1158015610771573d6000803e3d6000fd5b5050505080806107809061298a565b915050610696565b50505050505050565b6107996115fb565b60405162461bcd60e51b815260206004820152603260248201527f5a69766f654c6f636b65723a3a70757368546f4c6f636b65724552433732312860448201527129202163616e50757368455243373231282960701b6064820152608401610606565b6108046115fb565b60405162461bcd60e51b815260206004820152603660248201527f5a69766f654c6f636b65723a3a70756c6c46726f6d4c6f636b6572455243313160448201527535352829202163616e50756c6c45524331313535282960501b6064820152608401610606565b6108736115fb565b600054600160a01b900460ff161561089d5760405162461bcd60e51b8152600401610606906129a3565b6001600160a01b0381166109275760405162461bcd60e51b815260206004820152604560248201527f5a69766f654f776e61626c654c6f636b65643a3a7472616e736665724f776e6560448201527f7273686970416e644c6f636b2829206e65774f776e6572203d3d206164647265606482015264737328302960d81b608482015260a401610606565b6000805460ff60a01b1916600160a01b1790556109438161167b565b50565b61094e6115fb565b60405162461bcd60e51b815260206004820152603260248201527f5a69766f654c6f636b65723a3a70756c6c46726f6d4c6f636b65724d756c74696044820152712829202163616e50756c6c4d756c7469282960701b6064820152608401610606565b81811015610aa857610a966109ce6000546001600160a01b031690565b8484848181106109e0576109e0612918565b90506020020160208101906109f59190612649565b6040516370a0823160e01b81523060048201526001600160a01b0391909116906370a0823190602401602060405180830381865afa158015610a3b573d6000803e3d6000fd5b505050506040513d601f19601f82011682018060405250810190610a5f91906129e8565b858585818110610a7157610a71612918565b9050602002016020810190610a869190612649565b6001600160a01b031691906116cb565b80610aa08161298a565b9150506109b1565b505050565b610ab56115fb565b600054600160a01b900460ff1615610adf5760405162461bcd60e51b8152600401610606906129a3565b610ae9600061167b565b565b610af36115fb565b6001600160a01b03811673a0b86991c6218b36c1d19d4a2e9eb0ce3606eb4814610b2f5760405162461bcd60e51b815260040161060690612a01565b61094361172e565b610b3f6115fb565b60008111610b9b5760405162461bcd60e51b8152602060048201526024808201527f4f43595f414156453a3a70757368546f4c6f636b6572282920616d6f756e742060448201526303d3d20360e41b6064820152608401610606565b610ba84262278d00612a49565b600255610bd2610bc06000546001600160a01b031690565b6001600160a01b03841690308461186d565b73a0b86991c6218b36c1d19d4a2e9eb0ce3606eb47196001600160a01b03831601610c0357610bff6118ab565b5050565b736b175474e89094c44da98b954eedeac495271d0e196001600160a01b03831601610dba576040516370a0823160e01b8152306004820152610cbc9073bebc44782c7db0a1a60cb6fe97d0b483032ff1c7906001600160a01b038516906370a08231906024015b602060405180830381865afa158015610c87573d6000803e3d6000fd5b505050506040513d601f19601f82011682018060405250810190610cab91906129e8565b6001600160a01b0385169190611ad6565b6040516370a0823160e01b815230600482015273bebc44782c7db0a1a60cb6fe97d0b483032ff1c790633df02124906000906001906001600160a01b038716906370a08231906024015b602060405180830381865afa158015610d23573d6000803e3d6000fd5b505050506040513d601f19601f82011682018060405250810190610d4791906129e8565b6040516001600160e01b031960e086901b168152600f93840b60048201529190920b6024820152604481019190915260006064820152608401600060405180830381600087803b158015610d9a57600080fd5b505af1158015610dae573d6000803e3d6000fd5b50505050610bff6118ab565b73dac17f958d2ee523a2206206994597c13d831ec6196001600160a01b03831601610e73576040516370a0823160e01b8152306004820152610e259073bebc44782c7db0a1a60cb6fe97d0b483032ff1c7906001600160a01b038516906370a0823190602401610c6a565b6040516370a0823160e01b815230600482015273bebc44782c7db0a1a60cb6fe97d0b483032ff1c790633df02124906002906001906001600160a01b038716906370a0823190602401610d06565b73853d955acef822db058eb8505911ed77f175b99d196001600160a01b03831601610fed576040516370a0823160e01b8152306004820152610ede9073d632f22692fac7611d2aa1c0d552930d43caed3b906001600160a01b038516906370a0823190602401610c6a565b6040516370a0823160e01b815230600482015273d632f22692fac7611d2aa1c0d552930d43caed3b9063a6417ed6906000906002906001600160a01b038716906370a0823190602401602060405180830381865afa158015610f44573d6000803e3d6000fd5b505050506040513d601f19601f82011682018060405250810190610f6891906129e8565b6040516001600160e01b031960e086901b168152600f93840b60048201529190920b60248201526044810191909152600060648201526084016020604051808303816000875af1158015610fc0573d6000803e3d6000fd5b505050506040513d601f19601f82011682018060405250810190610fe491906129e8565b50610bff6118ab565b60405162461bcd60e51b815260206004820152603060248201527f4f43595f414156452e736f6c3a3a70757368546f4c6f636b657228292061737360448201526f195d081b9bdd081cdd5c1c1bdc9d195960821b6064820152608401610606565b6110566115fb565b60405162461bcd60e51b815260206004820152603c60248201527f5a69766f654c6f636b65723a3a70757368546f4c6f636b65724d756c7469455260448201527f433732312829202163616e507573684d756c74694552433732312829000000006064820152608401610606565b85811015610788578686828181106110de576110de612918565b90506020020160208101906110f39190612649565b6001600160a01b031663b88d4fde6111136000546001600160a01b031690565b3088888681811061112657611126612918565b9050602002013587878781811061113f5761113f612918565b9050602002810190611151919061292e565b6040518663ffffffff1660e01b81526004016111719594939291906128e4565b600060405180830381600087803b15801561118b57600080fd5b505af115801561119f573d6000803e3d6000fd5b5050505080806111ae9061298a565b9150506110c4565b6111be6115fb565b60405162461bcd60e51b815260206004820152603060248201527f5a69766f654c6f636b65723a3a70757368546f4c6f636b65724d756c7469282960448201526f202163616e507573684d756c7469282960801b6064820152608401610606565b838110156112a05761128e61123c6000546001600160a01b031690565b3085858581811061124f5761124f612918565b9050602002013588888681811061126857611268612918565b905060200201602081019061127d9190612649565b6001600160a01b031692919061186d565b806112988161298a565b91505061121f565b5050505050565b6112af6115fb565b6001600160a01b03821673a0b86991c6218b36c1d19d4a2e9eb0ce3606eb48146112eb5760405162461bcd60e51b815260040161060690612a01565b610bff81611beb565b6112fc6115fb565b600054600160a01b900460ff16156113265760405162461bcd60e51b8152600401610606906129a3565b6001600160a01b0381166113a25760405162461bcd60e51b815260206004820152603e60248201527f5a69766f654f776e61626c654c6f636b65643a3a7472616e736665724f776e6560448201527f72736869702829206e65774f776e6572203d3d206164647265737328302900006064820152608401610606565b6109438161167b565b6113b36115fb565b60405162461bcd60e51b815260206004820152603460248201527f5a69766f654c6f636b65723a3a70757368546f4c6f636b6572455243313135356044820152732829202163616e5075736845524331313535282960601b6064820152608401610606565b6114206115fb565b6040805162461bcd60e51b81526020600482015260248101919091527f5a69766f654c6f636b65723a3a70756c6c46726f6d4c6f636b65724d756c746960448201527f5061727469616c2829202163616e50756c6c4d756c74695061727469616c28296064820152608401610606565b838110156112a0576114d86114ad6000546001600160a01b031690565b8484848181106114bf576114bf612918565b90506020020135878785818110610a7157610a71612918565b806114e28161298a565b915050611490565b600254421161156b5760405162461bcd60e51b815260206004820152604160248201527f4f43595f414156453a3a666f72776172645969656c64282920626c6f636b2e7460448201527f696d657374616d70203c3d206e6578745969656c64446973747269627574696f6064820152603760f91b608482015260a401610606565b6115784262278d00612a49565b600255611583611d29565b6040516370a0823160e01b815230600482015273bcca60bb61934080951369a648fb03df4f96263c906370a0823190602401602060405180830381865afa1580156115d2573d6000803e3d6000fd5b505050506040513d601f19601f820116820180604052508101906115f691906129e8565b600155565b6000546001600160a01b03163314610ae95760405162461bcd60e51b815260206004820152603760248201527f5a69766f654f776e61626c654c6f636b65643a3a5f636865636b4f776e65722060448201527f6f776e6572282920213d205f6d736753656e64657228290000000000000000006064820152608401610606565b600080546001600160a01b038381166001600160a01b0319831681178455604051919092169283917f8be0079c531659141344cd1fd0a4f28419497f9722a3daafe3b4186f6b6457e09190a35050565b6040516001600160a01b038316602482015260448101829052610aa890849063a9059cbb60e01b906064015b60408051601f198184030181529190526020810180516001600160e01b03166001600160e01b0319909316929092179091526120c2565b737d2768de32b0b80b7a3454c06bdac94a69ddc7a96001600160a01b03166369328dec73a0b86991c6218b36c1d19d4a2e9eb0ce3606eb486000197f00000000000000000000000000000000000000000000000000000000000000006001600160a01b03166398fabd3a6040518163ffffffff1660e01b8152600401602060405180830381865afa1580156117c7573d6000803e3d6000fd5b505050506040513d601f19601f820116820180604052508101906117eb9190612a5c565b60405160e085901b6001600160e01b03191681526001600160a01b039384166004820152602481019290925290911660448201526064016020604051808303816000875af1158015611841573d6000803e3d6000fd5b505050506040513d601f19601f8201168201806040525081019061186591906129e8565b506000600155565b6040516001600160a01b03808516602483015283166044820152606481018290526118a59085906323b872dd60e01b906084016116f7565b50505050565b6040516370a0823160e01b815230600482015273a0b86991c6218b36c1d19d4a2e9eb0ce3606eb48906370a0823190602401602060405180830381865afa1580156118fa573d6000803e3d6000fd5b505050506040513d601f19601f8201168201806040525081019061191e91906129e8565b6001600082825461192f9190612a49565b90915550506040516370a0823160e01b81523060048201526119de90737d2768de32b0b80b7a3454c06bdac94a69ddc7a99073a0b86991c6218b36c1d19d4a2e9eb0ce3606eb48906370a08231906024015b602060405180830381865afa15801561199e573d6000803e3d6000fd5b505050506040513d601f19601f820116820180604052508101906119c291906129e8565b73a0b86991c6218b36c1d19d4a2e9eb0ce3606eb489190611ad6565b6040516370a0823160e01b8152306004820152737d2768de32b0b80b7a3454c06bdac94a69ddc7a99063e8eda9df9073a0b86991c6218b36c1d19d4a2e9eb0ce3606eb489081906370a0823190602401602060405180830381865afa158015611a4b573d6000803e3d6000fd5b505050506040513d601f19601f82011682018060405250810190611a6f91906129e8565b6040516001600160e01b031960e085901b1681526001600160a01b039092166004830152602482015230604482015260006064820152608401600060405180830381600087803b158015611ac257600080fd5b505af11580156118a5573d6000803e3d6000fd5b801580611b505750604051636eb1769f60e11b81523060048201526001600160a01b03838116602483015284169063dd62ed3e90604401602060405180830381865afa158015611b2a573d6000803e3d6000fd5b505050506040513d601f19601f82011682018060405250810190611b4e91906129e8565b155b611bbb5760405162461bcd60e51b815260206004820152603660248201527f5361666545524332303a20617070726f76652066726f6d206e6f6e2d7a65726f60448201527520746f206e6f6e2d7a65726f20616c6c6f77616e636560501b6064820152608401610606565b6040516001600160a01b038316602482015260448101829052610aa890849063095ea7b360e01b906064016116f7565b737d2768de32b0b80b7a3454c06bdac94a69ddc7a96001600160a01b03166369328dec73a0b86991c6218b36c1d19d4a2e9eb0ce3606eb48837f00000000000000000000000000000000000000000000000000000000000000006001600160a01b03166398fabd3a6040518163ffffffff1660e01b8152600401602060405180830381865afa158015611c82573d6000803e3d6000fd5b505050506040513d601f19601f82011682018060405250810190611ca69190612a5c565b60405160e085901b6001600160e01b03191681526001600160a01b039384166004820152602481019290925290911660448201526064016020604051808303816000875af1158015611cfc573d6000803e3d6000fd5b505050506040513d601f19601f82011682018060405250810190611d2091906129e8565b50506000600155565b6040516370a0823160e01b815230600482015260009073bcca60bb61934080951369a648fb03df4f96263c906370a0823190602401602060405180830381865afa158015611d7b573d6000803e3d6000fd5b505050506040513d601f19601f82011682018060405250810190611d9f91906129e8565b9050600060015482611db19190612a79565b604051631a4ca37b60e21b815273a0b86991c6218b36c1d19d4a2e9eb0ce3606eb48600482015260248101829052306044820152909150737d2768de32b0b80b7a3454c06bdac94a69ddc7a9906369328dec906064016020604051808303816000875af1158015611e26573d6000803e3d6000fd5b505050506040513d601f19601f82011682018060405250810190611e4a91906129e8565b506040516370a0823160e01b8152306004820152611e9c9073d632f22692fac7611d2aa1c0d552930d43caed3b9073a0b86991c6218b36c1d19d4a2e9eb0ce3606eb48906370a0823190602401611981565b6040516370a0823160e01b815230600482015273d632f22692fac7611d2aa1c0d552930d43caed3b9063a6417ed69060029060009073a0b86991c6218b36c1d19d4a2e9eb0ce3606eb48906370a0823190602401602060405180830381865afa158015611f0d573d6000803e3d6000fd5b505050506040513d601f19601f82011682018060405250810190611f3191906129e8565b6040516001600160e01b031960e086901b168152600f93840b60048201529190920b60248201526044810191909152600060648201526084016020604051808303816000875af1158015611f89573d6000803e3d6000fd5b505050506040513d601f19601f82011682018060405250810190611fad91906129e8565b50610bff7f00000000000000000000000000000000000000000000000000000000000000006001600160a01b03166372d6724a6040518163ffffffff1660e01b8152600401602060405180830381865afa15801561200f573d6000803e3d6000fd5b505050506040513d601f19601f820116820180604052508101906120339190612a5c565b6040516370a0823160e01b815230600482015273853d955acef822db058eb8505911ed77f175b99e906370a0823190602401602060405180830381865afa158015612082573d6000803e3d6000fd5b505050506040513d601f19601f820116820180604052508101906120a691906129e8565b73853d955acef822db058eb8505911ed77f175b99e9190611ad6565b6000612117826040518060400160405280602081526020017f5361666545524332303a206c6f772d6c6576656c2063616c6c206661696c6564815250856001600160a01b03166121949092919063ffffffff16565b805190915015610aa857808060200190518101906121359190612a8c565b610aa85760405162461bcd60e51b815260206004820152602a60248201527f5361666545524332303a204552433230206f7065726174696f6e20646964206e6044820152691bdd081cdd58d8d9595960b21b6064820152608401610606565b6060610618848460008585600080866001600160a01b031685876040516121bb9190612ad2565b60006040518083038185875af1925050503d80600081146121f8576040519150601f19603f3d011682016040523d82523d6000602084013e6121fd565b606091505b509150915061220e87838387612219565b979650505050505050565b60608315612288578251600003612281576001600160a01b0385163b6122815760405162461bcd60e51b815260206004820152601d60248201527f416464726573733a2063616c6c20746f206e6f6e2d636f6e74726163740000006044820152606401610606565b5081610618565b610618838381511561229d5781518083602001fd5b8060405162461bcd60e51b81526004016106069190612aee565b6000602082840312156122c957600080fd5b81356001600160e01b0319811681146122e157600080fd5b9392505050565b6001600160a01b038116811461094357600080fd5b60008083601f84011261230f57600080fd5b5081356001600160401b0381111561232657600080fd5b60208301915083602082850101111561233e57600080fd5b9250929050565b6000806000806060858703121561235b57600080fd5b8435612366816122e8565b93506020850135925060408501356001600160401b0381111561238857600080fd5b612394878288016122fd565b95989497509550505050565b634e487b7160e01b600052604160045260246000fd5b604051601f8201601f191681016001600160401b03811182821017156123de576123de6123a0565b604052919050565b600082601f8301126123f757600080fd5b81356001600160401b03811115612410576124106123a0565b612423601f8201601f19166020016123b6565b81815284602083860101111561243857600080fd5b816020850160208301376000918101602001919091529392505050565b6000806000806080858703121561246b57600080fd5b8435612476816122e8565b93506020850135612486816122e8565b92506040850135915060608501356001600160401b038111156124a857600080fd5b6124b4878288016123e6565b91505092959194509250565b60008083601f8401126124d257600080fd5b5081356001600160401b038111156124e957600080fd5b6020830191508360208260051b850101111561233e57600080fd5b6000806000806000806060878903121561251d57600080fd5b86356001600160401b038082111561253457600080fd5b6125408a838b016124c0565b9098509650602089013591508082111561255957600080fd5b6125658a838b016124c0565b9096509450604089013591508082111561257e57600080fd5b5061258b89828a016124c0565b979a9699509497509295939492505050565b60008060008060008060006080888a0312156125b857600080fd5b87356125c3816122e8565b965060208801356001600160401b03808211156125df57600080fd5b6125eb8b838c016124c0565b909850965060408a013591508082111561260457600080fd5b6126108b838c016124c0565b909650945060608a013591508082111561262957600080fd5b506126368a828b016122fd565b989b979a50959850939692959293505050565b60006020828403121561265b57600080fd5b81356122e1816122e8565b6000806020838503121561267957600080fd5b82356001600160401b0381111561268f57600080fd5b61269b858286016124c0565b90969095509350505050565b600080604083850312156126ba57600080fd5b82356126c5816122e8565b946020939093013593505050565b600082601f8301126126e457600080fd5b813560206001600160401b038211156126ff576126ff6123a0565b8160051b61270e8282016123b6565b928352848101820192828101908785111561272857600080fd5b83870192505b8483101561220e5782358252918301919083019061272e565b600080600080600060a0868803121561275f57600080fd5b853561276a816122e8565b9450602086013561277a816122e8565b935060408601356001600160401b038082111561279657600080fd5b6127a289838a016126d3565b945060608801359150808211156127b857600080fd5b6127c489838a016126d3565b935060808801359150808211156127da57600080fd5b506127e7888289016123e6565b9150509295509295909350565b6000806000806040858703121561280a57600080fd5b84356001600160401b038082111561282157600080fd5b61282d888389016124c0565b9096509450602087013591508082111561284657600080fd5b50612394878288016124c0565b600080600080600060a0868803121561286b57600080fd5b8535612876816122e8565b94506020860135612886816122e8565b9350604086013592506060860135915060808601356001600160401b038111156128af57600080fd5b6127e7888289016123e6565b81835281816020850137506000828201602090810191909152601f909101601f19169091010190565b6001600160a01b038681168252851660208201526040810184905260806060820181905260009061220e90830184866128bb565b634e487b7160e01b600052603260045260246000fd5b6000808335601e1984360301811261294557600080fd5b8301803591506001600160401b0382111561295f57600080fd5b60200191503681900382131561233e57600080fd5b634e487b7160e01b600052601160045260246000fd5b60006001820161299c5761299c612974565b5060010190565b60208082526025908201527f5a69766f654f776e61626c654c6f636b65643a3a756e6c6f636b65642829206c6040820152641bd8dad95960da1b606082015260800190565b6000602082840312156129fa57600080fd5b5051919050565b60208082526028908201527f4f43595f414156453a3a70756c6c46726f6d4c6f636b6572282920617373657460408201526720213d205553444360c01b606082015260800190565b8082018082111561059757610597612974565b600060208284031215612a6e57600080fd5b81516122e1816122e8565b8181038181111561059757610597612974565b600060208284031215612a9e57600080fd5b815180151581146122e157600080fd5b60005b83811015612ac9578181015183820152602001612ab1565b50506000910152565b60008251612ae4818460208701612aae565b9190910192915050565b6020815260008251806020840152612b0d816040850160208701612aae565b601f01601f1916919091016040019291505056fea2646970667358221220c1ed56784d2b19ef9801fdcadb7f130ced78df59d1f19397ab66cd8a97f8c39c64736f6c63430008100033",
    "linkReferences": {}
  },
  "methodIdentifiers": {
    "AAVE_V2_LendingPool()": "c598b064",
    "AAVE_V2_aUSDC()": "f6886cb3",
    "CRV_PP()": "1570b3b6",
    "DAI()": "e0bab4c4",
    "FRAX()": "b0e4556f",
    "FRAX3CRV_MP()": "39dd2b45",
    "GBL()": "3ce8d432",
    "USDC()": "89a30271",
    "USDT()": "c54e44eb",
    "canPull()": "215cccdd",
    "canPullERC1155()": "b0607cf8",
    "canPullERC721()": "3c117244",
    "canPullMulti()": "3eda81ad",
    "canPullMultiERC721()": "1852b383",
    "canPullMultiPartial()": "2f08d48b",
    "canPullPartial()": "64c77735",
    "canPush()": "e7f44629",
    "canPushERC1155()": "cf10b7ab",
    "canPushERC721()": "8b648ee2",
    "canPushMulti()": "a4a3e79d",
    "canPushMultiERC721()": "dd913bdb",
    "forwardYield()": "ff4a6761",
    "locked()": "cf309012",
    "onERC1155BatchReceived(address,address,uint256[],uint256[],bytes)": "bc197c81",
    "onERC1155Received(address,address,uint256,uint256,bytes)": "f23a6e61",
    "onERC721Received(address,address,uint256,bytes)": "150b7a02",
    "owner()": "8da5cb5b",
    "pullFromLocker(address)": "7dbcdbc1",
    "pullFromLockerERC1155(address,uint256[],uint256[],bytes)": "422b2018",
    "pullFromLockerERC721(address,uint256,bytes)": "12052176",
    "pullFromLockerMulti(address[])": "607cd649",
    "pullFromLockerMultiERC721(address[],uint256[],bytes[])": "15e98744",
    "pullFromLockerMultiPartial(address[],uint256[])": "ff0459ba",
    "pullFromLockerPartial(address,uint256)": "d9821e3b",
    "pushToLocker(address,uint256)": "84476591",
    "pushToLockerERC1155(address,uint256[],uint256[],bytes)": "fd76f59d",
    "pushToLockerERC721(address,uint256,bytes)": "1d9389e9",
    "pushToLockerMulti(address[],uint256[])": "c9c6a414",
    "pushToLockerMultiERC721(address[],uint256[],bytes[])": "b892bcc0",
    "renounceOwnership()": "715018a6",
    "supportsInterface(bytes4)": "01ffc9a7",
    "transferOwnership(address)": "f2fde38b",
    "transferOwnershipAndLock(address)": "58289c7e"
  },
  "id": 76
}