{
  "abi": [
    {
      "inputs": [
        {
          "internalType": "address",
          "name": "DAO",
          "type": "address"
        }
      ],
      "stateMutability": "nonpayable",
      "type": "constructor"
    },
    {
      "anonymous": false,
      "inputs": [
        {
          "indexed": true,
          "internalType": "address",
          "name": "previousOwner",
          "type": "address"
        },
        {
          "indexed": true,
          "internalType": "address",
          "name": "newOwner",
          "type": "address"
        }
      ],
      "name": "OwnershipTransferred",
      "type": "event"
    },
    {
      "anonymous": false,
      "inputs": [
        {
          "indexed": true,
          "internalType": "address",
          "name": "previousOwner",
          "type": "address"
        },
        {
          "indexed": true,
          "internalType": "address",
          "name": "newOwner",
          "type": "address"
        }
      ],
      "name": "OwnershipTransferredAndLocked",
      "type": "event"
    },
    {
      "inputs": [],
      "name": "canPull",
      "outputs": [
        {
          "internalType": "bool",
          "name": "",
          "type": "bool"
        }
      ],
      "stateMutability": "view",
      "type": "function"
    },
    {
      "inputs": [],
      "name": "canPullERC1155",
      "outputs": [
        {
          "internalType": "bool",
          "name": "",
          "type": "bool"
        }
      ],
      "stateMutability": "pure",
      "type": "function"
    },
    {
      "inputs": [],
      "name": "canPullERC721",
      "outputs": [
        {
          "internalType": "bool",
          "name": "",
          "type": "bool"
        }
      ],
      "stateMutability": "view",
      "type": "function"
    },
    {
      "inputs": [],
      "name": "canPullMulti",
      "outputs": [
        {
          "internalType": "bool",
          "name": "",
          "type": "bool"
        }
      ],
      "stateMutability": "view",
      "type": "function"
    },
    {
      "inputs": [],
      "name": "canPullMultiERC721",
      "outputs": [
        {
          "internalType": "bool",
          "name": "",
          "type": "bool"
        }
      ],
      "stateMutability": "view",
      "type": "function"
    },
    {
      "inputs": [],
      "name": "canPullMultiPartial",
      "outputs": [
        {
          "internalType": "bool",
          "name": "",
          "type": "bool"
        }
      ],
      "stateMutability": "view",
      "type": "function"
    },
    {
      "inputs": [],
      "name": "canPullPartial",
      "outputs": [
        {
          "internalType": "bool",
          "name": "",
          "type": "bool"
        }
      ],
      "stateMutability": "view",
      "type": "function"
    },
    {
      "inputs": [],
      "name": "canPush",
      "outputs": [
        {
          "internalType": "bool",
          "name": "",
          "type": "bool"
        }
      ],
      "stateMutability": "view",
      "type": "function"
    },
    {
      "inputs": [],
      "name": "canPushERC1155",
      "outputs": [
        {
          "internalType": "bool",
          "name": "",
          "type": "bool"
        }
      ],
      "stateMutability": "pure",
      "type": "function"
    },
    {
      "inputs": [],
      "name": "canPushERC721",
      "outputs": [
        {
          "internalType": "bool",
          "name": "",
          "type": "bool"
        }
      ],
      "stateMutability": "view",
      "type": "function"
    },
    {
      "inputs": [],
      "name": "canPushMulti",
      "outputs": [
        {
          "internalType": "bool",
          "name": "",
          "type": "bool"
        }
      ],
      "stateMutability": "view",
      "type": "function"
    },
    {
      "inputs": [],
      "name": "canPushMultiERC721",
      "outputs": [
        {
          "internalType": "bool",
          "name": "",
          "type": "bool"
        }
      ],
      "stateMutability": "view",
      "type": "function"
    },
    {
      "inputs": [],
      "name": "locked",
      "outputs": [
        {
          "internalType": "bool",
          "name": "",
          "type": "bool"
        }
      ],
      "stateMutability": "view",
      "type": "function"
    },
    {
      "inputs": [
        {
          "internalType": "address",
          "name": "",
          "type": "address"
        },
        {
          "internalType": "address",
          "name": "",
          "type": "address"
        },
        {
          "internalType": "uint256[]",
          "name": "",
          "type": "uint256[]"
        },
        {
          "internalType": "uint256[]",
          "name": "",
          "type": "uint256[]"
        },
        {
          "internalType": "bytes",
          "name": "",
          "type": "bytes"
        }
      ],
      "name": "onERC1155BatchReceived",
      "outputs": [
        {
          "internalType": "bytes4",
          "name": "",
          "type": "bytes4"
        }
      ],
      "stateMutability": "nonpayable",
      "type": "function"
    },
    {
      "inputs": [
        {
          "internalType": "address",
          "name": "",
          "type": "address"
        },
        {
          "internalType": "address",
          "name": "",
          "type": "address"
        },
        {
          "internalType": "uint256",
          "name": "",
          "type": "uint256"
        },
        {
          "internalType": "uint256",
          "name": "",
          "type": "uint256"
        },
        {
          "internalType": "bytes",
          "name": "",
          "type": "bytes"
        }
      ],
      "name": "onERC1155Received",
      "outputs": [
        {
          "internalType": "bytes4",
          "name": "",
          "type": "bytes4"
        }
      ],
      "stateMutability": "nonpayable",
      "type": "function"
    },
    {
      "inputs": [
        {
          "internalType": "address",
          "name": "",
          "type": "address"
        },
        {
          "internalType": "address",
          "name": "",
          "type": "address"
        },
        {
          "internalType": "uint256",
          "name": "",
          "type": "uint256"
        },
        {
          "internalType": "bytes",
          "name": "",
          "type": "bytes"
        }
      ],
      "name": "onERC721Received",
      "outputs": [
        {
          "internalType": "bytes4",
          "name": "",
          "type": "bytes4"
        }
      ],
      "stateMutability": "nonpayable",
      "type": "function"
    },
    {
      "inputs": [],
      "name": "owner",
      "outputs": [
        {
          "internalType": "address",
          "name": "",
          "type": "address"
        }
      ],
      "stateMutability": "view",
      "type": "function"
    },
    {
      "inputs": [
        {
          "internalType": "address",
          "name": "asset",
          "type": "address"
        }
      ],
      "name": "pullFromLocker",
      "outputs": [],
      "stateMutability": "nonpayable",
      "type": "function"
    },
    {
      "inputs": [
        {
          "internalType": "address",
          "name": "asset",
          "type": "address"
        },
        {
          "internalType": "uint256[]",
          "name": "ids",
          "type": "uint256[]"
        },
        {
          "internalType": "uint256[]",
          "name": "amounts",
          "type": "uint256[]"
        },
        {
          "internalType": "bytes",
          "name": "data",
          "type": "bytes"
        }
      ],
      "name": "pullFromLockerERC1155",
      "outputs": [],
      "stateMutability": "nonpayable",
      "type": "function"
    },
    {
      "inputs": [
        {
          "internalType": "address",
          "name": "asset",
          "type": "address"
        },
        {
          "internalType": "uint256",
          "name": "tokenId",
          "type": "uint256"
        },
        {
          "internalType": "bytes",
          "name": "data",
          "type": "bytes"
        }
      ],
      "name": "pullFromLockerERC721",
      "outputs": [],
      "stateMutability": "nonpayable",
      "type": "function"
    },
    {
      "inputs": [
        {
          "internalType": "address[]",
          "name": "assets",
          "type": "address[]"
        }
      ],
      "name": "pullFromLockerMulti",
      "outputs": [],
      "stateMutability": "nonpayable",
      "type": "function"
    },
    {
      "inputs": [
        {
          "internalType": "address[]",
          "name": "assets",
          "type": "address[]"
        },
        {
          "internalType": "uint256[]",
          "name": "tokenIds",
          "type": "uint256[]"
        },
        {
          "internalType": "bytes[]",
          "name": "data",
          "type": "bytes[]"
        }
      ],
      "name": "pullFromLockerMultiERC721",
      "outputs": [],
      "stateMutability": "nonpayable",
      "type": "function"
    },
    {
      "inputs": [
        {
          "internalType": "address[]",
          "name": "assets",
          "type": "address[]"
        },
        {
          "internalType": "uint256[]",
          "name": "amounts",
          "type": "uint256[]"
        }
      ],
      "name": "pullFromLockerMultiPartial",
      "outputs": [],
      "stateMutability": "nonpayable",
      "type": "function"
    },
    {
      "inputs": [
        {
          "internalType": "address",
          "name": "asset",
          "type": "address"
        },
        {
          "internalType": "uint256",
          "name": "amount",
          "type": "uint256"
        }
      ],
      "name": "pullFromLockerPartial",
      "outputs": [],
      "stateMutability": "nonpayable",
      "type": "function"
    },
    {
      "inputs": [
        {
          "internalType": "address",
          "name": "asset",
          "type": "address"
        },
        {
          "internalType": "uint256",
          "name": "amount",
          "type": "uint256"
        }
      ],
      "name": "pushToLocker",
      "outputs": [],
      "stateMutability": "nonpayable",
      "type": "function"
    },
    {
      "inputs": [
        {
          "internalType": "address",
          "name": "asset",
          "type": "address"
        },
        {
          "internalType": "uint256[]",
          "name": "ids",
          "type": "uint256[]"
        },
        {
          "internalType": "uint256[]",
          "name": "amounts",
          "type": "uint256[]"
        },
        {
          "internalType": "bytes",
          "name": "data",
          "type": "bytes"
        }
      ],
      "name": "pushToLockerERC1155",
      "outputs": [],
      "stateMutability": "nonpayable",
      "type": "function"
    },
    {
      "inputs": [
        {
          "internalType": "address",
          "name": "asset",
          "type": "address"
        },
        {
          "internalType": "uint256",
          "name": "tokenId",
          "type": "uint256"
        },
        {
          "internalType": "bytes",
          "name": "data",
          "type": "bytes"
        }
      ],
      "name": "pushToLockerERC721",
      "outputs": [],
      "stateMutability": "nonpayable",
      "type": "function"
    },
    {
      "inputs": [
        {
          "internalType": "address[]",
          "name": "assets",
          "type": "address[]"
        },
        {
          "internalType": "uint256[]",
          "name": "amounts",
          "type": "uint256[]"
        }
      ],
      "name": "pushToLockerMulti",
      "outputs": [],
      "stateMutability": "nonpayable",
      "type": "function"
    },
    {
      "inputs": [
        {
          "internalType": "address[]",
          "name": "assets",
          "type": "address[]"
        },
        {
          "internalType": "uint256[]",
          "name": "tokenIds",
          "type": "uint256[]"
        },
        {
          "internalType": "bytes[]",
          "name": "data",
          "type": "bytes[]"
        }
      ],
      "name": "pushToLockerMultiERC721",
      "outputs": [],
      "stateMutability": "nonpayable",
      "type": "function"
    },
    {
      "inputs": [],
      "name": "renounceOwnership",
      "outputs": [],
      "stateMutability": "nonpayable",
      "type": "function"
    },
    {
      "inputs": [
        {
          "internalType": "bytes4",
          "name": "interfaceId",
          "type": "bytes4"
        }
      ],
      "name": "supportsInterface",
      "outputs": [
        {
          "internalType": "bool",
          "name": "",
          "type": "bool"
        }
      ],
      "stateMutability": "view",
      "type": "function"
    },
    {
      "inputs": [
        {
          "internalType": "address",
          "name": "newOwner",
          "type": "address"
        }
      ],
      "name": "transferOwnership",
      "outputs": [],
      "stateMutability": "nonpayable",
      "type": "function"
    },
    {
      "inputs": [
        {
          "internalType": "address",
          "name": "newOwner",
          "type": "address"
        }
      ],
      "name": "transferOwnershipAndLock",
      "outputs": [],
      "stateMutability": "nonpayable",
      "type": "function"
    }
  ],
  "bytecode": {
    "object": "0x60806040523480156200001157600080fd5b5060405162001d5238038062001d52833981016040819052620000349162000229565b6200003f3362000051565b6200004a81620000a1565b506200025b565b600080546001600160a01b038381166001600160a01b0319831681178455604051919092169283917f8be0079c531659141344cd1fd0a4f28419497f9722a3daafe3b4186f6b6457e09190a35050565b620000ab620001a5565b600054600160a01b900460ff1615620001195760405162461bcd60e51b815260206004820152602560248201527f5a69766f654f776e61626c654c6f636b65643a3a756e6c6f636b65642829206c6044820152641bd8dad95960da1b60648201526084015b60405180910390fd5b6001600160a01b038116620001975760405162461bcd60e51b815260206004820152603e60248201527f5a69766f654f776e61626c654c6f636b65643a3a7472616e736665724f776e6560448201527f72736869702829206e65774f776e6572203d3d20616464726573732830290000606482015260840162000110565b620001a28162000051565b50565b6000546001600160a01b03163314620002275760405162461bcd60e51b815260206004820152603760248201527f5a69766f654f776e61626c654c6f636b65643a3a5f636865636b4f776e65722060448201527f6f776e6572282920213d205f6d736753656e6465722829000000000000000000606482015260840162000110565b565b6000602082840312156200023c57600080fd5b81516001600160a01b03811681146200025457600080fd5b9392505050565b611ae7806200026b6000396000f3fe608060405234801561001057600080fd5b50600436106101fb5760003560e01c8063844765911161011a578063cf10b7ab116100ad578063e7f446291161007c578063e7f446291461027c578063f23a6e611461038b578063f2fde38b146103aa578063fd76f59d146103bd578063ff0459ba146103d057600080fd5b8063cf10b7ab14610318578063cf30901214610364578063d9821e3b14610378578063dd913bdb1461027c57600080fd5b8063b0607cf8116100e9578063b0607cf814610318578063b892bcc01461031f578063bc197c8114610332578063c9c6a4141461035157600080fd5b806384476591146102ea5780638b648ee21461027c5780638da5cb5b146102fd578063a4a3e79d1461027c57600080fd5b80633c11724411610192578063607cd64911610161578063607cd649146102bc57806364c777351461027c578063715018a6146102cf5780637dbcdbc1146102d757600080fd5b80633c1172441461027c5780633eda81ad1461027c578063422b20181461029657806358289c7e146102a957600080fd5b80631852b383116101ce5780631852b3831461027c5780631d9389e914610283578063215cccdd1461027c5780632f08d48b1461027c57600080fd5b806301ffc9a7146102005780631205217614610228578063150b7a021461023d57806315e9874414610269575b600080fd5b61021361020e366004611251565b6103e3565b60405190151581526020015b60405180910390f35b61023b6102363660046112e6565b61041a565b005b61025061024b3660046113f4565b61048c565b6040516001600160e01b0319909116815260200161021f565b61023b61027736600461149f565b61049d565b6000610213565b61023b6102913660046112e6565b61060e565b61023b6102a4366004611538565b610679565b61023b6102b73660046115e2565b610707565b61023b6102ca3660046115fd565b6107e2565b61023b610949565b61023b6102e53660046115e2565b610987565b61023b6102f836600461163e565b6109e8565b6000546040516001600160a01b03909116815260200161021f565b6001610213565b61023b61032d36600461149f565b610a47565b6102506103403660046116dc565b63bc197c8160e01b95945050505050565b61023b61035f366004611785565b610baf565b60005461021390600160a01b900460ff1681565b61023b61038636600461163e565b610ca0565b6102506103993660046117e4565b63f23a6e6160e01b95945050505050565b61023b6103b83660046115e2565b610d0f565b61023b6103cb366004611538565b610dc6565b61023b6103de366004611785565b610e19565b60006001600160e01b03198216630271189760e51b148061041457506301ffc9a760e01b6001600160e01b03198316145b92915050565b610422610eeb565b60405162461bcd60e51b815260206004820152603460248201527f5a69766f654c6f636b65723a3a70756c6c46726f6d4c6f636b65724552433732604482015273312829202163616e50756c6c455243373231282960601b60648201526084015b60405180910390fd5b630a85bd0160e11b5b949350505050565b6104a5610eeb565b60405162461bcd60e51b815260206004820152603e60248201527f5a69766f654c6f636b65723a3a70756c6c46726f6d4c6f636b65724d756c746960448201527f4552433732312829202163616e50756c6c4d756c7469455243373231282900006064820152608401610483565b858110156106055786868281811061052d5761052d6118a5565b905060200201602081019061054291906115e2565b6001600160a01b031663b88d4fde306105636000546001600160a01b031690565b888886818110610575576105756118a5565b9050602002013587878781811061058e5761058e6118a5565b90506020028101906105a091906118bb565b6040518663ffffffff1660e01b81526004016105c0959493929190611871565b600060405180830381600087803b1580156105da57600080fd5b505af11580156105ee573d6000803e3d6000fd5b5050505080806105fd90611901565b915050610513565b50505050505050565b610616610eeb565b60405162461bcd60e51b815260206004820152603260248201527f5a69766f654c6f636b65723a3a70757368546f4c6f636b65724552433732312860448201527129202163616e50757368455243373231282960701b6064820152608401610483565b610681610eeb565b866001600160a01b0316632eb2c2d6306106a36000546001600160a01b031690565b8989898989896040518963ffffffff1660e01b81526004016106cc98979695949392919061195a565b600060405180830381600087803b1580156106e657600080fd5b505af11580156106fa573d6000803e3d6000fd5b5050505050505050505050565b61070f610eeb565b600054600160a01b900460ff16156107395760405162461bcd60e51b8152600401610483906119be565b6001600160a01b0381166107c35760405162461bcd60e51b815260206004820152604560248201527f5a69766f654f776e61626c654c6f636b65643a3a7472616e736665724f776e6560448201527f7273686970416e644c6f636b2829206e65774f776e6572203d3d206164647265606482015264737328302960d81b608482015260a401610483565b6000805460ff60a01b1916600160a01b1790556107df81610f6b565b50565b6107ea610eeb565b60405162461bcd60e51b815260206004820152603260248201527f5a69766f654c6f636b65723a3a70756c6c46726f6d4c6f636b65724d756c74696044820152712829202163616e50756c6c4d756c7469282960701b6064820152608401610483565b818110156109445761093261086a6000546001600160a01b031690565b84848481811061087c5761087c6118a5565b905060200201602081019061089191906115e2565b6040516370a0823160e01b81523060048201526001600160a01b0391909116906370a0823190602401602060405180830381865afa1580156108d7573d6000803e3d6000fd5b505050506040513d601f19601f820116820180604052508101906108fb9190611a03565b85858581811061090d5761090d6118a5565b905060200201602081019061092291906115e2565b6001600160a01b03169190610fbb565b8061093c81611901565b91505061084d565b505050565b610951610eeb565b600054600160a01b900460ff161561097b5760405162461bcd60e51b8152600401610483906119be565b6109856000610f6b565b565b61098f610eeb565b60405162461bcd60e51b815260206004820152602860248201527f5a69766f654c6f636b65723a3a70756c6c46726f6d4c6f636b65722829202163604482015267616e50756c6c282960c01b6064820152608401610483565b6109f0610eeb565b60405162461bcd60e51b815260206004820152602660248201527f5a69766f654c6f636b65723a3a70757368546f4c6f636b65722829202163616e60448201526550757368282960d01b6064820152608401610483565b610a4f610eeb565b60405162461bcd60e51b815260206004820152603c60248201527f5a69766f654c6f636b65723a3a70757368546f4c6f636b65724d756c7469455260448201527f433732312829202163616e507573684d756c74694552433732312829000000006064820152608401610483565b8581101561060557868682818110610ad757610ad76118a5565b9050602002016020810190610aec91906115e2565b6001600160a01b031663b88d4fde610b0c6000546001600160a01b031690565b30888886818110610b1f57610b1f6118a5565b90506020020135878787818110610b3857610b386118a5565b9050602002810190610b4a91906118bb565b6040518663ffffffff1660e01b8152600401610b6a959493929190611871565b600060405180830381600087803b158015610b8457600080fd5b505af1158015610b98573d6000803e3d6000fd5b505050508080610ba790611901565b915050610abd565b610bb7610eeb565b60405162461bcd60e51b815260206004820152603060248201527f5a69766f654c6f636b65723a3a70757368546f4c6f636b65724d756c7469282960448201526f202163616e507573684d756c7469282960801b6064820152608401610483565b83811015610c9957610c87610c356000546001600160a01b031690565b30858585818110610c4857610c486118a5565b90506020020135888886818110610c6157610c616118a5565b9050602002016020810190610c7691906115e2565b6001600160a01b031692919061101e565b80610c9181611901565b915050610c18565b5050505050565b610ca8610eeb565b60405162461bcd60e51b815260206004820152603660248201527f5a69766f654c6f636b65723a3a70756c6c46726f6d4c6f636b65725061727469604482015275616c2829202163616e50756c6c5061727469616c282960501b6064820152608401610483565b610d17610eeb565b600054600160a01b900460ff1615610d415760405162461bcd60e51b8152600401610483906119be565b6001600160a01b038116610dbd5760405162461bcd60e51b815260206004820152603e60248201527f5a69766f654f776e61626c654c6f636b65643a3a7472616e736665724f776e6560448201527f72736869702829206e65774f776e6572203d3d206164647265737328302900006064820152608401610483565b6107df81610f6b565b610dce610eeb565b866001600160a01b0316632eb2c2d6610def6000546001600160a01b031690565b308989898989896040518963ffffffff1660e01b81526004016106cc98979695949392919061195a565b610e21610eeb565b6040805162461bcd60e51b81526020600482015260248101919091527f5a69766f654c6f636b65723a3a70756c6c46726f6d4c6f636b65724d756c746960448201527f5061727469616c2829202163616e50756c6c4d756c74695061727469616c28296064820152608401610483565b83811015610c9957610ed9610eae6000546001600160a01b031690565b848484818110610ec057610ec06118a5565b9050602002013587878581811061090d5761090d6118a5565b80610ee381611901565b915050610e91565b6000546001600160a01b031633146109855760405162461bcd60e51b815260206004820152603760248201527f5a69766f654f776e61626c654c6f636b65643a3a5f636865636b4f776e65722060448201527f6f776e6572282920213d205f6d736753656e64657228290000000000000000006064820152608401610483565b600080546001600160a01b038381166001600160a01b0319831681178455604051919092169283917f8be0079c531659141344cd1fd0a4f28419497f9722a3daafe3b4186f6b6457e09190a35050565b6040516001600160a01b03831660248201526044810182905261094490849063a9059cbb60e01b906064015b60408051601f198184030181529190526020810180516001600160e01b03166001600160e01b03199093169290921790915261105c565b6040516001600160a01b03808516602483015283166044820152606481018290526110569085906323b872dd60e01b90608401610fe7565b50505050565b60006110b1826040518060400160405280602081526020017f5361666545524332303a206c6f772d6c6576656c2063616c6c206661696c6564815250856001600160a01b031661112e9092919063ffffffff16565b80519091501561094457808060200190518101906110cf9190611a1c565b6109445760405162461bcd60e51b815260206004820152602a60248201527f5361666545524332303a204552433230206f7065726174696f6e20646964206e6044820152691bdd081cdd58d8d9595960b21b6064820152608401610483565b6060610495848460008585600080866001600160a01b031685876040516111559190611a62565b60006040518083038185875af1925050503d8060008114611192576040519150601f19603f3d011682016040523d82523d6000602084013e611197565b606091505b50915091506111a8878383876111b3565b979650505050505050565b6060831561122257825160000361121b576001600160a01b0385163b61121b5760405162461bcd60e51b815260206004820152601d60248201527f416464726573733a2063616c6c20746f206e6f6e2d636f6e74726163740000006044820152606401610483565b5081610495565b61049583838151156112375781518083602001fd5b8060405162461bcd60e51b81526004016104839190611a7e565b60006020828403121561126357600080fd5b81356001600160e01b03198116811461127b57600080fd5b9392505050565b80356001600160a01b038116811461129957600080fd5b919050565b60008083601f8401126112b057600080fd5b5081356001600160401b038111156112c757600080fd5b6020830191508360208285010111156112df57600080fd5b9250929050565b600080600080606085870312156112fc57600080fd5b61130585611282565b93506020850135925060408501356001600160401b0381111561132757600080fd5b6113338782880161129e565b95989497509550505050565b634e487b7160e01b600052604160045260246000fd5b604051601f8201601f191681016001600160401b038111828210171561137d5761137d61133f565b604052919050565b600082601f83011261139657600080fd5b81356001600160401b038111156113af576113af61133f565b6113c2601f8201601f1916602001611355565b8181528460208386010111156113d757600080fd5b816020850160208301376000918101602001919091529392505050565b6000806000806080858703121561140a57600080fd5b61141385611282565b935061142160208601611282565b92506040850135915060608501356001600160401b0381111561144357600080fd5b61144f87828801611385565b91505092959194509250565b60008083601f84011261146d57600080fd5b5081356001600160401b0381111561148457600080fd5b6020830191508360208260051b85010111156112df57600080fd5b600080600080600080606087890312156114b857600080fd5b86356001600160401b03808211156114cf57600080fd5b6114db8a838b0161145b565b909850965060208901359150808211156114f457600080fd5b6115008a838b0161145b565b9096509450604089013591508082111561151957600080fd5b5061152689828a0161145b565b979a9699509497509295939492505050565b60008060008060008060006080888a03121561155357600080fd5b61155c88611282565b965060208801356001600160401b038082111561157857600080fd5b6115848b838c0161145b565b909850965060408a013591508082111561159d57600080fd5b6115a98b838c0161145b565b909650945060608a01359150808211156115c257600080fd5b506115cf8a828b0161129e565b989b979a50959850939692959293505050565b6000602082840312156115f457600080fd5b61127b82611282565b6000806020838503121561161057600080fd5b82356001600160401b0381111561162657600080fd5b6116328582860161145b565b90969095509350505050565b6000806040838503121561165157600080fd5b61165a83611282565b946020939093013593505050565b600082601f83011261167957600080fd5b813560206001600160401b038211156116945761169461133f565b8160051b6116a3828201611355565b92835284810182019282810190878511156116bd57600080fd5b83870192505b848310156111a8578235825291830191908301906116c3565b600080600080600060a086880312156116f457600080fd5b6116fd86611282565b945061170b60208701611282565b935060408601356001600160401b038082111561172757600080fd5b61173389838a01611668565b9450606088013591508082111561174957600080fd5b61175589838a01611668565b9350608088013591508082111561176b57600080fd5b5061177888828901611385565b9150509295509295909350565b6000806000806040858703121561179b57600080fd5b84356001600160401b03808211156117b257600080fd5b6117be8883890161145b565b909650945060208701359150808211156117d757600080fd5b506113338782880161145b565b600080600080600060a086880312156117fc57600080fd5b61180586611282565b945061181360208701611282565b9350604086013592506060860135915060808601356001600160401b0381111561183c57600080fd5b61177888828901611385565b81835281816020850137506000828201602090810191909152601f909101601f19169091010190565b6001600160a01b03868116825285166020820152604081018490526080606082018190526000906111a89083018486611848565b634e487b7160e01b600052603260045260246000fd5b6000808335601e198436030181126118d257600080fd5b8301803591506001600160401b038211156118ec57600080fd5b6020019150368190038213156112df57600080fd5b60006001820161192157634e487b7160e01b600052601160045260246000fd5b5060010190565b81835260006001600160fb1b0383111561194157600080fd5b8260051b80836020870137939093016020019392505050565b6001600160a01b0389811682528816602082015260a060408201819052600090611987908301888a611928565b828103606084015261199a818789611928565b905082810360808401526119af818587611848565b9b9a5050505050505050505050565b60208082526025908201527f5a69766f654f776e61626c654c6f636b65643a3a756e6c6f636b65642829206c6040820152641bd8dad95960da1b606082015260800190565b600060208284031215611a1557600080fd5b5051919050565b600060208284031215611a2e57600080fd5b8151801515811461127b57600080fd5b60005b83811015611a59578181015183820152602001611a41565b50506000910152565b60008251611a74818460208701611a3e565b9190910192915050565b6020815260008251806020840152611a9d816040850160208701611a3e565b601f01601f1916919091016040019291505056fea26469706673582212209ef41d714bba438825742d2ee4a484d295fe70dfb8a1babf4ffaf1e0cf6f8d0c64736f6c63430008100033",
    "linkReferences": {}
  },
  "methodIdentifiers": {
    "canPull()": "215cccdd",
    "canPullERC1155()": "b0607cf8",
    "canPullERC721()": "3c117244",
    "canPullMulti()": "3eda81ad",
    "canPullMultiERC721()": "1852b383",
    "canPullMultiPartial()": "2f08d48b",
    "canPullPartial()": "64c77735",
    "canPush()": "e7f44629",
    "canPushERC1155()": "cf10b7ab",
    "canPushERC721()": "8b648ee2",
    "canPushMulti()": "a4a3e79d",
    "canPushMultiERC721()": "dd913bdb",
    "locked()": "cf309012",
    "onERC1155BatchReceived(address,address,uint256[],uint256[],bytes)": "bc197c81",
    "onERC1155Received(address,address,uint256,uint256,bytes)": "f23a6e61",
    "onERC721Received(address,address,uint256,bytes)": "150b7a02",
    "owner()": "8da5cb5b",
    "pullFromLocker(address)": "7dbcdbc1",
    "pullFromLockerERC1155(address,uint256[],uint256[],bytes)": "422b2018",
    "pullFromLockerERC721(address,uint256,bytes)": "12052176",
    "pullFromLockerMulti(address[])": "607cd649",
    "pullFromLockerMultiERC721(address[],uint256[],bytes[])": "15e98744",
    "pullFromLockerMultiPartial(address[],uint256[])": "ff0459ba",
    "pullFromLockerPartial(address,uint256)": "d9821e3b",
    "pushToLocker(address,uint256)": "84476591",
    "pushToLockerERC1155(address,uint256[],uint256[],bytes)": "fd76f59d",
    "pushToLockerERC721(address,uint256,bytes)": "1d9389e9",
    "pushToLockerMulti(address[],uint256[])": "c9c6a414",
    "pushToLockerMultiERC721(address[],uint256[],bytes[])": "b892bcc0",
    "renounceOwnership()": "715018a6",
    "supportsInterface(bytes4)": "01ffc9a7",
    "transferOwnership(address)": "f2fde38b",
    "transferOwnershipAndLock(address)": "58289c7e"
  },
  "id": 70
}