{
  "abi": [
    {
      "inputs": [
        {
          "internalType": "address",
          "name": "_to",
          "type": "address"
        }
      ],
      "stateMutability": "nonpayable",
      "type": "constructor"
    },
    {
      "anonymous": false,
      "inputs": [
        {
          "indexed": true,
          "internalType": "address",
          "name": "account",
          "type": "address"
        },
        {
          "indexed": true,
          "internalType": "address",
          "name": "operator",
          "type": "address"
        },
        {
          "indexed": false,
          "internalType": "bool",
          "name": "approved",
          "type": "bool"
        }
      ],
      "name": "ApprovalForAll",
      "type": "event"
    },
    {
      "anonymous": false,
      "inputs": [
        {
          "indexed": true,
          "internalType": "address",
          "name": "operator",
          "type": "address"
        },
        {
          "indexed": true,
          "internalType": "address",
          "name": "from",
          "type": "address"
        },
        {
          "indexed": true,
          "internalType": "address",
          "name": "to",
          "type": "address"
        },
        {
          "indexed": false,
          "internalType": "uint256[]",
          "name": "ids",
          "type": "uint256[]"
        },
        {
          "indexed": false,
          "internalType": "uint256[]",
          "name": "values",
          "type": "uint256[]"
        }
      ],
      "name": "TransferBatch",
      "type": "event"
    },
    {
      "anonymous": false,
      "inputs": [
        {
          "indexed": true,
          "internalType": "address",
          "name": "operator",
          "type": "address"
        },
        {
          "indexed": true,
          "internalType": "address",
          "name": "from",
          "type": "address"
        },
        {
          "indexed": true,
          "internalType": "address",
          "name": "to",
          "type": "address"
        },
        {
          "indexed": false,
          "internalType": "uint256",
          "name": "id",
          "type": "uint256"
        },
        {
          "indexed": false,
          "internalType": "uint256",
          "name": "value",
          "type": "uint256"
        }
      ],
      "name": "TransferSingle",
      "type": "event"
    },
    {
      "anonymous": false,
      "inputs": [
        {
          "indexed": false,
          "internalType": "string",
          "name": "value",
          "type": "string"
        },
        {
          "indexed": true,
          "internalType": "uint256",
          "name": "id",
          "type": "uint256"
        }
      ],
      "name": "URI",
      "type": "event"
    },
    {
      "inputs": [],
      "name": "GOLD",
      "outputs": [
        {
          "internalType": "uint256",
          "name": "",
          "type": "uint256"
        }
      ],
      "stateMutability": "view",
      "type": "function"
    },
    {
      "inputs": [],
      "name": "SHIELD",
      "outputs": [
        {
          "internalType": "uint256",
          "name": "",
          "type": "uint256"
        }
      ],
      "stateMutability": "view",
      "type": "function"
    },
    {
      "inputs": [],
      "name": "SILVER",
      "outputs": [
        {
          "internalType": "uint256",
          "name": "",
          "type": "uint256"
        }
      ],
      "stateMutability": "view",
      "type": "function"
    },
    {
      "inputs": [],
      "name": "SWORD",
      "outputs": [
        {
          "internalType": "uint256",
          "name": "",
          "type": "uint256"
        }
      ],
      "stateMutability": "view",
      "type": "function"
    },
    {
      "inputs": [],
      "name": "THORS_HAMMER",
      "outputs": [
        {
          "internalType": "uint256",
          "name": "",
          "type": "uint256"
        }
      ],
      "stateMutability": "view",
      "type": "function"
    },
    {
      "inputs": [
        {
          "internalType": "address",
          "name": "account",
          "type": "address"
        },
        {
          "internalType": "uint256",
          "name": "id",
          "type": "uint256"
        }
      ],
      "name": "balanceOf",
      "outputs": [
        {
          "internalType": "uint256",
          "name": "",
          "type": "uint256"
        }
      ],
      "stateMutability": "view",
      "type": "function"
    },
    {
      "inputs": [
        {
          "internalType": "address[]",
          "name": "accounts",
          "type": "address[]"
        },
        {
          "internalType": "uint256[]",
          "name": "ids",
          "type": "uint256[]"
        }
      ],
      "name": "balanceOfBatch",
      "outputs": [
        {
          "internalType": "uint256[]",
          "name": "",
          "type": "uint256[]"
        }
      ],
      "stateMutability": "view",
      "type": "function"
    },
    {
      "inputs": [
        {
          "internalType": "address",
          "name": "account",
          "type": "address"
        },
        {
          "internalType": "address",
          "name": "operator",
          "type": "address"
        }
      ],
      "name": "isApprovedForAll",
      "outputs": [
        {
          "internalType": "bool",
          "name": "",
          "type": "bool"
        }
      ],
      "stateMutability": "view",
      "type": "function"
    },
    {
      "inputs": [
        {
          "internalType": "address",
          "name": "from",
          "type": "address"
        },
        {
          "internalType": "address",
          "name": "to",
          "type": "address"
        },
        {
          "internalType": "uint256[]",
          "name": "ids",
          "type": "uint256[]"
        },
        {
          "internalType": "uint256[]",
          "name": "amounts",
          "type": "uint256[]"
        },
        {
          "internalType": "bytes",
          "name": "data",
          "type": "bytes"
        }
      ],
      "name": "safeBatchTransferFrom",
      "outputs": [],
      "stateMutability": "nonpayable",
      "type": "function"
    },
    {
      "inputs": [
        {
          "internalType": "address",
          "name": "from",
          "type": "address"
        },
        {
          "internalType": "address",
          "name": "to",
          "type": "address"
        },
        {
          "internalType": "uint256",
          "name": "id",
          "type": "uint256"
        },
        {
          "internalType": "uint256",
          "name": "amount",
          "type": "uint256"
        },
        {
          "internalType": "bytes",
          "name": "data",
          "type": "bytes"
        }
      ],
      "name": "safeTransferFrom",
      "outputs": [],
      "stateMutability": "nonpayable",
      "type": "function"
    },
    {
      "inputs": [
        {
          "internalType": "address",
          "name": "operator",
          "type": "address"
        },
        {
          "internalType": "bool",
          "name": "approved",
          "type": "bool"
        }
      ],
      "name": "setApprovalForAll",
      "outputs": [],
      "stateMutability": "nonpayable",
      "type": "function"
    },
    {
      "inputs": [
        {
          "internalType": "bytes4",
          "name": "interfaceId",
          "type": "bytes4"
        }
      ],
      "name": "supportsInterface",
      "outputs": [
        {
          "internalType": "bool",
          "name": "",
          "type": "bool"
        }
      ],
      "stateMutability": "view",
      "type": "function"
    },
    {
      "inputs": [
        {
          "internalType": "uint256",
          "name": "",
          "type": "uint256"
        }
      ],
      "name": "uri",
      "outputs": [
        {
          "internalType": "string",
          "name": "",
          "type": "string"
        }
      ],
      "stateMutability": "view",
      "type": "function"
    }
  ],
  "bytecode": {
    "object": "0x60806040523480156200001157600080fd5b5060405162001c5138038062001c51833981016040819052620000349162000497565b60405180606001604052806027815260200162001c2a60279139620000598162000132565b5062000086816000670de0b6b3a7640000604051806020016040528060008152506200014460201b60201c565b620000b68160016b033b2e3c9fd0803ce8000000604051806020016040528060008152506200014460201b60201c565b620000db8160026001604051806020016040528060008152506200014460201b60201c565b62000103816003633b9aca00604051806020016040528060008152506200014460201b60201c565b6200012b816004633b9aca00604051806020016040528060008152506200014460201b60201c565b506200081f565b60026200014082826200056a565b5050565b6001600160a01b038416620001aa5760405162461bcd60e51b815260206004820152602160248201527f455243313135353a206d696e7420746f20746865207a65726f206164647265736044820152607360f81b60648201526084015b60405180910390fd5b336000620001b88562000266565b90506000620001c78562000266565b90506000868152602081815260408083206001600160a01b038b16845290915281208054879290620001fb90849062000636565b909155505060408051878152602081018790526001600160a01b03808a1692600092918716917fc3d58168c5ae7397731d063d5bbf3d657854427343f4c083240f7aacaa2d0f62910160405180910390a46200025d83600089898989620002bc565b50505050505050565b60408051600180825281830190925260609160009190602080830190803683370190505090508281600081518110620002a357620002a36200065e565b602090810291909101015292915050565b505050505050565b620002db846001600160a01b03166200048860201b620005421760201c565b15620002b45760405163f23a6e6160e01b81526001600160a01b0385169063f23a6e6190620003179089908990889088908890600401620006bc565b6020604051808303816000875af192505050801562000355575060408051601f3d908101601f19168201909252620003529181019062000703565b60015b6200041557620003646200072f565b806308c379a003620003a457506200037b6200077b565b80620003885750620003a6565b8060405162461bcd60e51b8152600401620001a191906200080a565b505b60405162461bcd60e51b815260206004820152603460248201527f455243313135353a207472616e7366657220746f206e6f6e2d4552433131353560448201527f526563656976657220696d706c656d656e7465720000000000000000000000006064820152608401620001a1565b6001600160e01b0319811663f23a6e6160e01b146200025d5760405162461bcd60e51b815260206004820152602860248201527f455243313135353a204552433131353552656365697665722072656a656374656044820152676420746f6b656e7360c01b6064820152608401620001a1565b6001600160a01b03163b151590565b600060208284031215620004aa57600080fd5b81516001600160a01b0381168114620004c257600080fd5b9392505050565b634e487b7160e01b600052604160045260246000fd5b600181811c90821680620004f457607f821691505b6020821081036200051557634e487b7160e01b600052602260045260246000fd5b50919050565b601f8211156200056557600081815260208120601f850160051c81016020861015620005445750805b601f850160051c820191505b81811015620002b45782815560010162000550565b505050565b81516001600160401b03811115620005865762000586620004c9565b6200059e81620005978454620004df565b846200051b565b602080601f831160018114620005d65760008415620005bd5750858301515b600019600386901b1c1916600185901b178555620002b4565b600085815260208120601f198616915b828110156200060757888601518255948401946001909101908401620005e6565b5085821015620006265787850151600019600388901b60f8161c191681555b5050505050600190811b01905550565b808201808211156200065857634e487b7160e01b600052601160045260246000fd5b92915050565b634e487b7160e01b600052603260045260246000fd5b6000815180845260005b818110156200069c576020818501810151868301820152016200067e565b506000602082860101526020601f19601f83011685010191505092915050565b6001600160a01b03868116825285166020820152604081018490526060810183905260a060808201819052600090620006f89083018462000674565b979650505050505050565b6000602082840312156200071657600080fd5b81516001600160e01b031981168114620004c257600080fd5b600060033d1115620007495760046000803e5060005160e01c5b90565b601f8201601f191681016001600160401b0381118282101715620007745762000774620004c9565b6040525050565b600060443d10156200078a5790565b6040516003193d81016004833e81513d6001600160401b038083116024840183101715620007ba57505050505090565b8285019150815181811115620007d35750505050505090565b843d8701016020828501011115620007ee5750505050505090565b620007ff602082860101876200074c565b509095945050505050565b602081526000620004c2602083018462000674565b6113fb806200082f6000396000f3fe608060405234801561001057600080fd5b50600436106100ce5760003560e01c80634e1273f41161008c578063d562e20411610066578063d562e2041461019c578063e3e55f08146101a4578063e985e9c5146101ac578063f242432a146101e857600080fd5b80634e1273f4146101615780635b2725ed14610181578063a22cb4651461018957600080fd5b8062fdd58e146100d357806301ffc9a7146100f95780630e89341c1461011c57806313dc989f1461013c5780632eb2c2d6146101445780633e4bee3814610159575b600080fd5b6100e66100e1366004610bbe565b6101fb565b6040519081526020015b60405180910390f35b61010c610107366004610c01565b610294565b60405190151581526020016100f0565b61012f61012a366004610c25565b6102e4565b6040516100f09190610c84565b6100e6600381565b610157610152366004610de3565b610378565b005b6100e6600081565b61017461016f366004610e8d565b6103c4565b6040516100f09190610f93565b6100e6600481565b610157610197366004610fa6565b6104ee565b6100e6600281565b6100e6600181565b61010c6101ba366004610fe2565b6001600160a01b03918216600090815260016020908152604080832093909416825291909152205460ff1690565b6101576101f6366004611015565b6104fd565b60006001600160a01b03831661026b5760405162461bcd60e51b815260206004820152602a60248201527f455243313135353a2061646472657373207a65726f206973206e6f742061207660448201526930b634b21037bbb732b960b11b60648201526084015b60405180910390fd5b506000818152602081815260408083206001600160a01b03861684529091529020545b92915050565b60006001600160e01b03198216636cdb3d1360e11b14806102c557506001600160e01b031982166303a24d0760e21b145b8061028e57506301ffc9a760e01b6001600160e01b031983161461028e565b6060600280546102f39061107a565b80601f016020809104026020016040519081016040528092919081815260200182805461031f9061107a565b801561036c5780601f106103415761010080835404028352916020019161036c565b820191906000526020600020905b81548152906001019060200180831161034f57829003601f168201915b50505050509050919050565b6001600160a01b038516331480610394575061039485336101ba565b6103b05760405162461bcd60e51b8152600401610262906110b4565b6103bd8585858585610551565b5050505050565b606081518351146104295760405162461bcd60e51b815260206004820152602960248201527f455243313135353a206163636f756e747320616e6420696473206c656e677468604482015268040dad2e6dac2e8c6d60bb1b6064820152608401610262565b6000835167ffffffffffffffff81111561044557610445610c97565b60405190808252806020026020018201604052801561046e578160200160208202803683370190505b50905060005b84518110156104e6576104b985828151811061049257610492611102565b60200260200101518583815181106104ac576104ac611102565b60200260200101516101fb565b8282815181106104cb576104cb611102565b60209081029190910101526104df8161112e565b9050610474565b509392505050565b6104f933838361072e565b5050565b6001600160a01b038516331480610519575061051985336101ba565b6105355760405162461bcd60e51b8152600401610262906110b4565b6103bd858585858561080e565b6001600160a01b03163b151590565b81518351146105b35760405162461bcd60e51b815260206004820152602860248201527f455243313135353a2069647320616e6420616d6f756e7473206c656e677468206044820152670dad2e6dac2e8c6d60c31b6064820152608401610262565b6001600160a01b0384166105d95760405162461bcd60e51b815260040161026290611147565b3360005b84518110156106c05760008582815181106105fa576105fa611102565b60200260200101519050600085838151811061061857610618611102565b602090810291909101810151600084815280835260408082206001600160a01b038e1683529093529190912054909150818110156106685760405162461bcd60e51b81526004016102629061118c565b6000838152602081815260408083206001600160a01b038e8116855292528083208585039055908b168252812080548492906106a59084906111d6565b92505081905550505050806106b99061112e565b90506105dd565b50846001600160a01b0316866001600160a01b0316826001600160a01b03167f4a39dc06d4c0dbc64b70af90fd698a233a518aa5d07e595d983b8c0526c8f7fb87876040516107109291906111e9565b60405180910390a4610726818787878787610938565b505050505050565b816001600160a01b0316836001600160a01b0316036107a15760405162461bcd60e51b815260206004820152602960248201527f455243313135353a2073657474696e6720617070726f76616c20737461747573604482015268103337b91039b2b63360b91b6064820152608401610262565b6001600160a01b03838116600081815260016020908152604080832094871680845294825291829020805460ff191686151590811790915591519182527f17307eab39ab6107e8899845ad3d59bd9653f200f220920489ca2b5937696c31910160405180910390a3505050565b6001600160a01b0384166108345760405162461bcd60e51b815260040161026290611147565b33600061084085610a9c565b9050600061084d85610a9c565b90506000868152602081815260408083206001600160a01b038c168452909152902054858110156108905760405162461bcd60e51b81526004016102629061118c565b6000878152602081815260408083206001600160a01b038d8116855292528083208985039055908a168252812080548892906108cd9084906111d6565b909155505060408051888152602081018890526001600160a01b03808b16928c821692918816917fc3d58168c5ae7397731d063d5bbf3d657854427343f4c083240f7aacaa2d0f62910160405180910390a461092d848a8a8a8a8a610ae7565b505050505050505050565b6001600160a01b0384163b156107265760405163bc197c8160e01b81526001600160a01b0385169063bc197c819061097c9089908990889088908890600401611217565b6020604051808303816000875af19250505080156109b7575060408051601f3d908101601f191682019092526109b491810190611275565b60015b610a63576109c3611292565b806308c379a0036109fc57506109d76112ae565b806109e257506109fe565b8060405162461bcd60e51b81526004016102629190610c84565b505b60405162461bcd60e51b815260206004820152603460248201527f455243313135353a207472616e7366657220746f206e6f6e2d455243313135356044820152732932b1b2b4bb32b91034b6b83632b6b2b73a32b960611b6064820152608401610262565b6001600160e01b0319811663bc197c8160e01b14610a935760405162461bcd60e51b815260040161026290611338565b50505050505050565b60408051600180825281830190925260609160009190602080830190803683370190505090508281600081518110610ad657610ad6611102565b602090810291909101015292915050565b6001600160a01b0384163b156107265760405163f23a6e6160e01b81526001600160a01b0385169063f23a6e6190610b2b9089908990889088908890600401611380565b6020604051808303816000875af1925050508015610b66575060408051601f3d908101601f19168201909252610b6391810190611275565b60015b610b72576109c3611292565b6001600160e01b0319811663f23a6e6160e01b14610a935760405162461bcd60e51b815260040161026290611338565b80356001600160a01b0381168114610bb957600080fd5b919050565b60008060408385031215610bd157600080fd5b610bda83610ba2565b946020939093013593505050565b6001600160e01b031981168114610bfe57600080fd5b50565b600060208284031215610c1357600080fd5b8135610c1e81610be8565b9392505050565b600060208284031215610c3757600080fd5b5035919050565b6000815180845260005b81811015610c6457602081850181015186830182015201610c48565b506000602082860101526020601f19601f83011685010191505092915050565b602081526000610c1e6020830184610c3e565b634e487b7160e01b600052604160045260246000fd5b601f8201601f1916810167ffffffffffffffff81118282101715610cd357610cd3610c97565b6040525050565b600067ffffffffffffffff821115610cf457610cf4610c97565b5060051b60200190565b600082601f830112610d0f57600080fd5b81356020610d1c82610cda565b604051610d298282610cad565b83815260059390931b8501820192828101915086841115610d4957600080fd5b8286015b84811015610d645780358352918301918301610d4d565b509695505050505050565b600082601f830112610d8057600080fd5b813567ffffffffffffffff811115610d9a57610d9a610c97565b604051610db1601f8301601f191660200182610cad565b818152846020838601011115610dc657600080fd5b816020850160208301376000918101602001919091529392505050565b600080600080600060a08688031215610dfb57600080fd5b610e0486610ba2565b9450610e1260208701610ba2565b9350604086013567ffffffffffffffff80821115610e2f57600080fd5b610e3b89838a01610cfe565b94506060880135915080821115610e5157600080fd5b610e5d89838a01610cfe565b93506080880135915080821115610e7357600080fd5b50610e8088828901610d6f565b9150509295509295909350565b60008060408385031215610ea057600080fd5b823567ffffffffffffffff80821115610eb857600080fd5b818501915085601f830112610ecc57600080fd5b81356020610ed982610cda565b604051610ee68282610cad565b83815260059390931b8501820192828101915089841115610f0657600080fd5b948201945b83861015610f2b57610f1c86610ba2565b82529482019490820190610f0b565b96505086013592505080821115610f4157600080fd5b50610f4e85828601610cfe565b9150509250929050565b600081518084526020808501945080840160005b83811015610f8857815187529582019590820190600101610f6c565b509495945050505050565b602081526000610c1e6020830184610f58565b60008060408385031215610fb957600080fd5b610fc283610ba2565b915060208301358015158114610fd757600080fd5b809150509250929050565b60008060408385031215610ff557600080fd5b610ffe83610ba2565b915061100c60208401610ba2565b90509250929050565b600080600080600060a0868803121561102d57600080fd5b61103686610ba2565b945061104460208701610ba2565b93506040860135925060608601359150608086013567ffffffffffffffff81111561106e57600080fd5b610e8088828901610d6f565b600181811c9082168061108e57607f821691505b6020821081036110ae57634e487b7160e01b600052602260045260246000fd5b50919050565b6020808252602e908201527f455243313135353a2063616c6c6572206973206e6f7420746f6b656e206f776e60408201526d195c881bdc88185c1c1c9bdd995960921b606082015260800190565b634e487b7160e01b600052603260045260246000fd5b634e487b7160e01b600052601160045260246000fd5b60006001820161114057611140611118565b5060010190565b60208082526025908201527f455243313135353a207472616e7366657220746f20746865207a65726f206164604082015264647265737360d81b606082015260800190565b6020808252602a908201527f455243313135353a20696e73756666696369656e742062616c616e636520666f60408201526939103a3930b739b332b960b11b606082015260800190565b8082018082111561028e5761028e611118565b6040815260006111fc6040830185610f58565b828103602084015261120e8185610f58565b95945050505050565b6001600160a01b0386811682528516602082015260a06040820181905260009061124390830186610f58565b82810360608401526112558186610f58565b905082810360808401526112698185610c3e565b98975050505050505050565b60006020828403121561128757600080fd5b8151610c1e81610be8565b600060033d11156112ab5760046000803e5060005160e01c5b90565b600060443d10156112bc5790565b6040516003193d81016004833e81513d67ffffffffffffffff81602484011181841117156112ec57505050505090565b82850191508151818111156113045750505050505090565b843d870101602082850101111561131e5750505050505090565b61132d60208286010187610cad565b509095945050505050565b60208082526028908201527f455243313135353a204552433131353552656365697665722072656a656374656040820152676420746f6b656e7360c01b606082015260800190565b6001600160a01b03868116825285166020820152604081018490526060810183905260a0608082018190526000906113ba90830184610c3e565b97965050505050505056fea26469706673582212208ba0c97d51f96d8ee08e6b9977407ce3df1f89071ed7068227ee3f1ea92cd96564736f6c6343000810003368747470733a2f2f67616d652e6578616d706c652f6170692f6974656d2f7b69647d2e6a736f6e",
    "linkReferences": {}
  },
  "methodIdentifiers": {
    "GOLD()": "3e4bee38",
    "SHIELD()": "5b2725ed",
    "SILVER()": "e3e55f08",
    "SWORD()": "13dc989f",
    "THORS_HAMMER()": "d562e204",
    "balanceOf(address,uint256)": "00fdd58e",
    "balanceOfBatch(address[],uint256[])": "4e1273f4",
    "isApprovedForAll(address,address)": "e985e9c5",
    "safeBatchTransferFrom(address,address,uint256[],uint256[],bytes)": "2eb2c2d6",
    "safeTransferFrom(address,address,uint256,uint256,bytes)": "f242432a",
    "setApprovalForAll(address,bool)": "a22cb465",
    "supportsInterface(bytes4)": "01ffc9a7",
    "uri(uint256)": "0e89341c"
  },
  "id": 104
}