{
  "abi": [
    {
      "inputs": [
        {
          "internalType": "address",
          "name": "_stakingToken",
          "type": "address"
        },
        {
          "internalType": "address",
          "name": "_GBL",
          "type": "address"
        }
      ],
      "stateMutability": "nonpayable",
      "type": "constructor"
    },
    {
      "anonymous": false,
      "inputs": [
        {
          "indexed": true,
          "internalType": "address",
          "name": "previousOwner",
          "type": "address"
        },
        {
          "indexed": true,
          "internalType": "address",
          "name": "newOwner",
          "type": "address"
        }
      ],
      "name": "OwnershipTransferred",
      "type": "event"
    },
    {
      "anonymous": false,
      "inputs": [
        {
          "indexed": true,
          "internalType": "address",
          "name": "previousOwner",
          "type": "address"
        },
        {
          "indexed": true,
          "internalType": "address",
          "name": "newOwner",
          "type": "address"
        }
      ],
      "name": "OwnershipTransferredAndLocked",
      "type": "event"
    },
    {
      "anonymous": false,
      "inputs": [
        {
          "indexed": true,
          "internalType": "address",
          "name": "reward",
          "type": "address"
        }
      ],
      "name": "RewardAdded",
      "type": "event"
    },
    {
      "anonymous": false,
      "inputs": [
        {
          "indexed": true,
          "internalType": "address",
          "name": "reward",
          "type": "address"
        },
        {
          "indexed": false,
          "internalType": "uint256",
          "name": "amount",
          "type": "uint256"
        },
        {
          "indexed": true,
          "internalType": "address",
          "name": "depositor",
          "type": "address"
        }
      ],
      "name": "RewardDeposited",
      "type": "event"
    },
    {
      "anonymous": false,
      "inputs": [
        {
          "indexed": true,
          "internalType": "address",
          "name": "user",
          "type": "address"
        },
        {
          "indexed": true,
          "internalType": "address",
          "name": "rewardsToken",
          "type": "address"
        },
        {
          "indexed": false,
          "internalType": "uint256",
          "name": "reward",
          "type": "uint256"
        }
      ],
      "name": "RewardDistributed",
      "type": "event"
    },
    {
      "anonymous": false,
      "inputs": [
        {
          "indexed": true,
          "internalType": "address",
          "name": "user",
          "type": "address"
        },
        {
          "indexed": false,
          "internalType": "uint256",
          "name": "amount",
          "type": "uint256"
        }
      ],
      "name": "Staked",
      "type": "event"
    },
    {
      "anonymous": false,
      "inputs": [
        {
          "indexed": true,
          "internalType": "address",
          "name": "user",
          "type": "address"
        },
        {
          "indexed": false,
          "internalType": "uint256",
          "name": "amount",
          "type": "uint256"
        }
      ],
      "name": "Withdrawn",
      "type": "event"
    },
    {
      "inputs": [],
      "name": "GBL",
      "outputs": [
        {
          "internalType": "address",
          "name": "",
          "type": "address"
        }
      ],
      "stateMutability": "view",
      "type": "function"
    },
    {
      "inputs": [
        {
          "internalType": "address",
          "name": "_rewardsToken",
          "type": "address"
        },
        {
          "internalType": "uint256",
          "name": "_rewardsDuration",
          "type": "uint256"
        }
      ],
      "name": "addReward",
      "outputs": [],
      "stateMutability": "nonpayable",
      "type": "function"
    },
    {
      "inputs": [
        {
          "internalType": "address",
          "name": "account",
          "type": "address"
        }
      ],
      "name": "balanceOf",
      "outputs": [
        {
          "internalType": "uint256",
          "name": "amount",
          "type": "uint256"
        }
      ],
      "stateMutability": "view",
      "type": "function"
    },
    {
      "inputs": [
        {
          "internalType": "address",
          "name": "_rewardsToken",
          "type": "address"
        },
        {
          "internalType": "uint256",
          "name": "reward",
          "type": "uint256"
        }
      ],
      "name": "depositReward",
      "outputs": [],
      "stateMutability": "nonpayable",
      "type": "function"
    },
    {
      "inputs": [
        {
          "internalType": "address",
          "name": "account",
          "type": "address"
        },
        {
          "internalType": "address",
          "name": "_rewardsToken",
          "type": "address"
        }
      ],
      "name": "earned",
      "outputs": [
        {
          "internalType": "uint256",
          "name": "amount",
          "type": "uint256"
        }
      ],
      "stateMutability": "view",
      "type": "function"
    },
    {
      "inputs": [],
      "name": "fullWithdraw",
      "outputs": [],
      "stateMutability": "nonpayable",
      "type": "function"
    },
    {
      "inputs": [
        {
          "internalType": "uint256",
          "name": "index",
          "type": "uint256"
        }
      ],
      "name": "getRewardAt",
      "outputs": [],
      "stateMutability": "nonpayable",
      "type": "function"
    },
    {
      "inputs": [
        {
          "internalType": "address",
          "name": "_rewardsToken",
          "type": "address"
        }
      ],
      "name": "getRewardForDuration",
      "outputs": [
        {
          "internalType": "uint256",
          "name": "amount",
          "type": "uint256"
        }
      ],
      "stateMutability": "view",
      "type": "function"
    },
    {
      "inputs": [],
      "name": "getRewards",
      "outputs": [],
      "stateMutability": "nonpayable",
      "type": "function"
    },
    {
      "inputs": [
        {
          "internalType": "address",
          "name": "_rewardsToken",
          "type": "address"
        }
      ],
      "name": "lastTimeRewardApplicable",
      "outputs": [
        {
          "internalType": "uint256",
          "name": "timestamp",
          "type": "uint256"
        }
      ],
      "stateMutability": "view",
      "type": "function"
    },
    {
      "inputs": [],
      "name": "locked",
      "outputs": [
        {
          "internalType": "bool",
          "name": "",
          "type": "bool"
        }
      ],
      "stateMutability": "view",
      "type": "function"
    },
    {
      "inputs": [],
      "name": "owner",
      "outputs": [
        {
          "internalType": "address",
          "name": "",
          "type": "address"
        }
      ],
      "stateMutability": "view",
      "type": "function"
    },
    {
      "inputs": [],
      "name": "renounceOwnership",
      "outputs": [],
      "stateMutability": "nonpayable",
      "type": "function"
    },
    {
      "inputs": [
        {
          "internalType": "address",
          "name": "",
          "type": "address"
        }
      ],
      "name": "rewardData",
      "outputs": [
        {
          "internalType": "uint256",
          "name": "rewardsDuration",
          "type": "uint256"
        },
        {
          "internalType": "uint256",
          "name": "periodFinish",
          "type": "uint256"
        },
        {
          "internalType": "uint256",
          "name": "rewardRate",
          "type": "uint256"
        },
        {
          "internalType": "uint256",
          "name": "lastUpdateTime",
          "type": "uint256"
        },
        {
          "internalType": "uint256",
          "name": "rewardPerTokenStored",
          "type": "uint256"
        }
      ],
      "stateMutability": "view",
      "type": "function"
    },
    {
      "inputs": [
        {
          "internalType": "address",
          "name": "_rewardsToken",
          "type": "address"
        }
      ],
      "name": "rewardPerToken",
      "outputs": [
        {
          "internalType": "uint256",
          "name": "amount",
          "type": "uint256"
        }
      ],
      "stateMutability": "view",
      "type": "function"
    },
    {
      "inputs": [
        {
          "internalType": "uint256",
          "name": "",
          "type": "uint256"
        }
      ],
      "name": "rewardTokens",
      "outputs": [
        {
          "internalType": "address",
          "name": "",
          "type": "address"
        }
      ],
      "stateMutability": "view",
      "type": "function"
    },
    {
      "inputs": [
        {
          "internalType": "address",
          "name": "",
          "type": "address"
        },
        {
          "internalType": "address",
          "name": "",
          "type": "address"
        }
      ],
      "name": "rewards",
      "outputs": [
        {
          "internalType": "uint256",
          "name": "",
          "type": "uint256"
        }
      ],
      "stateMutability": "view",
      "type": "function"
    },
    {
      "inputs": [
        {
          "internalType": "uint256",
          "name": "amount",
          "type": "uint256"
        }
      ],
      "name": "stake",
      "outputs": [],
      "stateMutability": "nonpayable",
      "type": "function"
    },
    {
      "inputs": [],
      "name": "stakingToken",
      "outputs": [
        {
          "internalType": "contract IERC20",
          "name": "",
          "type": "address"
        }
      ],
      "stateMutability": "view",
      "type": "function"
    },
    {
      "inputs": [],
      "name": "totalSupply",
      "outputs": [
        {
          "internalType": "uint256",
          "name": "amount",
          "type": "uint256"
        }
      ],
      "stateMutability": "view",
      "type": "function"
    },
    {
      "inputs": [
        {
          "internalType": "address",
          "name": "newOwner",
          "type": "address"
        }
      ],
      "name": "transferOwnership",
      "outputs": [],
      "stateMutability": "nonpayable",
      "type": "function"
    },
    {
      "inputs": [
        {
          "internalType": "address",
          "name": "newOwner",
          "type": "address"
        }
      ],
      "name": "transferOwnershipAndLock",
      "outputs": [],
      "stateMutability": "nonpayable",
      "type": "function"
    },
    {
      "inputs": [
        {
          "internalType": "address",
          "name": "",
          "type": "address"
        },
        {
          "internalType": "address",
          "name": "",
          "type": "address"
        }
      ],
      "name": "userRewardPerTokenPaid",
      "outputs": [
        {
          "internalType": "uint256",
          "name": "",
          "type": "uint256"
        }
      ],
      "stateMutability": "view",
      "type": "function"
    },
    {
      "inputs": [
        {
          "internalType": "address",
          "name": "account",
          "type": "address"
        },
        {
          "internalType": "address",
          "name": "rewardAsset",
          "type": "address"
        }
      ],
      "name": "viewRewards",
      "outputs": [
        {
          "internalType": "uint256",
          "name": "amount",
          "type": "uint256"
        }
      ],
      "stateMutability": "view",
      "type": "function"
    },
    {
      "inputs": [
        {
          "internalType": "address",
          "name": "account",
          "type": "address"
        },
        {
          "internalType": "address",
          "name": "rewardAsset",
          "type": "address"
        }
      ],
      "name": "viewUserRewardPerTokenPaid",
      "outputs": [
        {
          "internalType": "uint256",
          "name": "amount",
          "type": "uint256"
        }
      ],
      "stateMutability": "view",
      "type": "function"
    },
    {
      "inputs": [
        {
          "internalType": "uint256",
          "name": "amount",
          "type": "uint256"
        }
      ],
      "name": "withdraw",
      "outputs": [],
      "stateMutability": "nonpayable",
      "type": "function"
    }
  ],
  "bytecode": {
    "object": "0x60a06040523480156200001157600080fd5b5060405162001b5438038062001b548339810160408190526200003491620000d9565b600160005562000044336200006a565b600880546001600160a01b0319166001600160a01b039384161790551660805262000111565b600180546001600160a01b038381166001600160a01b0319831681179093556040519116919082907f8be0079c531659141344cd1fd0a4f28419497f9722a3daafe3b4186f6b6457e090600090a35050565b80516001600160a01b0381168114620000d457600080fd5b919050565b60008060408385031215620000ed57600080fd5b620000f883620000bc565b91506200010860208401620000bc565b90509250929050565b608051611a276200012d60003960006101f60152611a276000f3fe608060405234801561001057600080fd5b506004361061018e5760003560e01c806372f702f3116100de578063bcd1101411610097578063e70b9e2711610071578063e70b9e271461040b578063f122977714610436578063f2fde38b14610449578063fa914ed51461045c57600080fd5b8063bcd11014146103c1578063cefba7e6146103d4578063cf309012146103e757600080fd5b806372f702f3146103515780637bb7bed1146103645780637db4e28f146103775780638da5cb5b1461038a5780639feb8f501461039b578063a694fc3a146103ae57600080fd5b806348e5d9f81161014b578063638634ee11610125578063638634ee146102e25780637035ab98146102f557806370a0823114610320578063715018a61461034957600080fd5b806348e5d9f81461023057806352985ac61461029657806358289c7e146102cf57600080fd5b80630572b0cc146101935780631737595f1461019d57806318160ddd146101c3578063211dc32d146101cb5780632e1a7d4d146101de5780633ce8d432146101f1575b600080fd5b61019b610464565b005b6101b06101ab3660046117da565b61059c565b6040519081526020015b60405180910390f35b6003546101b0565b6101b06101d93660046117da565b6105c9565b61019b6101ec36600461180d565b610662565b6102187f000000000000000000000000000000000000000000000000000000000000000081565b6040516001600160a01b0390911681526020016101ba565b61026e61023e366004611826565b60046020819052600091825260409091208054600182015460028301546003840154939094015491939092909185565b604080519586526020860194909452928401919091526060830152608082015260a0016101ba565b6101b06102a43660046117da565b6001600160a01b03918216600090815260056020908152604080832093909416825291909152205490565b61019b6102dd366004611826565b61085f565b6101b06102f0366004611826565b610937565b6101b06103033660046117da565b600660209081526000928352604080842090915290825290205481565b6101b061032e366004611826565b6001600160a01b031660009081526007602052604090205490565b61019b61095e565b600854610218906001600160a01b031681565b61021861037236600461180d565b61099a565b61019b610385366004611841565b6109c4565b6001546001600160a01b0316610218565b61019b6103a9366004611841565b610c6e565b61019b6103bc36600461180d565b610e05565b6101b06103cf366004611826565b610fea565b61019b6103e236600461180d565b611013565b6001546103fb90600160a01b900460ff1681565b60405190151581526020016101ba565b6101b06104193660046117da565b600560209081526000928352604080842090915290825290205481565b6101b0610444366004611826565b6111d3565b61019b610457366004611826565b611273565b61019b61132a565b61046c61134b565b3360005b6002548110156105655760006002828154811061048f5761048f61186b565b6000918252602090912001546001600160a01b031690506104af816111d3565b6001600160a01b038216600090815260046020819052604090912001556104d581610937565b6001600160a01b038083166000908152600460205260409020600301919091558316156105525761050683826105c9565b6001600160a01b03808516600081815260056020908152604080832094871680845294825280832095909555600480825285832001549282526006815284822093825292909252919020555b508061055d81611897565b915050610470565b5060005b60025481101561058e5761057c81611013565b8061058681611897565b915050610569565b505061059a6001600055565b565b6001600160a01b038083166000908152600660209081526040808320938516835292905220545b92915050565b6001600160a01b03808316600081815260056020908152604080832094861680845294825280832054938352600682528083209483529390529182205461065b919061065590670de0b6b3a76400009061064f906106309061062a896111d3565b906113a4565b6001600160a01b038916600090815260076020526040902054906113b0565b906113bc565b906113c8565b9392505050565b61066a61134b565b3360005b6002548110156107635760006002828154811061068d5761068d61186b565b6000918252602090912001546001600160a01b031690506106ad816111d3565b6001600160a01b038216600090815260046020819052604090912001556106d381610937565b6001600160a01b038083166000908152600460205260409020600301919091558316156107505761070483826105c9565b6001600160a01b03808516600081815260056020908152604080832094871680845294825280832095909555600480825285832001549282526006815284822093825292909252919020555b508061075b81611897565b91505061066e565b50600082116107c55760405162461bcd60e51b8152602060048201526024808201527f5a69766f65526577617264733a3a7769746864726177282920616d6f756e742060448201526303d3d20360e41b60648201526084015b60405180910390fd5b6003546107d290836113a4565b600355336000908152600760205260409020546107ef90836113a4565b3360008181526007602052604090209190915560085461081b916001600160a01b0390911690846113d4565b60405182815233907f7084f5476618d8e60b11ef0d7d3f06914655adb8793e28ff7f018d4c76d505d5906020015b60405180910390a25061085c6001600055565b50565b61086761143c565b600154600160a01b900460ff16156108915760405162461bcd60e51b81526004016107bc906118b0565b6001600160a01b03811661091b5760405162461bcd60e51b815260206004820152604560248201527f5a69766f654f776e61626c654c6f636b65643a3a7472616e736665724f776e6560448201527f7273686970416e644c6f636b2829206e65774f776e6572203d3d206164647265606482015264737328302960d81b608482015260a4016107bc565b6001805460ff60a01b1916600160a01b17905561085c816114bc565b6001600160a01b0381166000908152600460205260408120600101546105c390429061150e565b61096661143c565b600154600160a01b900460ff16156109905760405162461bcd60e51b81526004016107bc906118b0565b61059a60006114bc565b600281815481106109aa57600080fd5b6000918252602090912001546001600160a01b0316905081565b6000805b600254811015610abd576000600282815481106109e7576109e761186b565b6000918252602090912001546001600160a01b03169050610a07816111d3565b6001600160a01b03821660009081526004602081905260409091200155610a2d81610937565b6001600160a01b03808316600090815260046020526040902060030191909155831615610aaa57610a5e83826105c9565b6001600160a01b03808516600081815260056020908152604080832094871680845294825280832095909555600480825285832001549282526006815284822093825292909252919020555b5080610ab581611897565b9150506109c8565b50610ad36001600160a01b038416333085611524565b6001600160a01b0383166000908152600460205260409020600101544210610b3a576001600160a01b038316600090815260046020526040902054610b199083906113bc565b6001600160a01b038416600090815260046020526040902060020155610bd4565b6001600160a01b038316600090815260046020526040812060010154610b6090426113a4565b6001600160a01b03851660009081526004602052604081206002015491925090610b8b9083906113b0565b6001600160a01b038616600090815260046020526040902054909150610bb59061064f86846113c8565b6001600160a01b03861660009081526004602052604090206002015550505b6001600160a01b038316600090815260046020526040902042600382018190559054610c0091906113c8565b6001600160a01b038416600090815260046020526040902060010155336001600160a01b0316836001600160a01b03167fe4d6e9620d2b34b14f93475ba6d7e5ded9f0120d2104f15013d270533009484184604051610c6191815260200190565b60405180910390a3505050565b610c7661143c565b6001600160a01b03821660009081526004602052604090205415610d135760405162461bcd60e51b815260206004820152604860248201527f5a69766f65526577617264733a3a61646452657761726428292072657761726460448201527f446174615b5f72657761726473546f6b656e5d2e7265776172647344757261746064820152670696f6e20213d20360c41b608482015260a4016107bc565b600254600a11610d815760405162461bcd60e51b815260206004820152603360248201527f5a69766f65526577617264733a3a6164645265776172642829207265776172646044820152720546f6b656e732e6c656e677468203e3d20313606c1b60648201526084016107bc565b60028054600181019091557f405787fa12a823e0f2b7631cc41b3ba8828b3321ca811111fa75cd3aa3bb5ace0180546001600160a01b0319166001600160a01b038416908117909155600081815260046020526040808220849055517fb13fd610fe4e1b384966826794a9b2f6100ad031f352cc5ec6f22667f60749809190a25050565b610e0d61134b565b3360005b600254811015610f0657600060028281548110610e3057610e3061186b565b6000918252602090912001546001600160a01b03169050610e50816111d3565b6001600160a01b03821660009081526004602081905260409091200155610e7681610937565b6001600160a01b03808316600090815260046020526040902060030191909155831615610ef357610ea783826105c9565b6001600160a01b03808516600081815260056020908152604080832094871680845294825280832095909555600480825285832001549282526006815284822093825292909252919020555b5080610efe81611897565b915050610e11565b5060008211610f615760405162461bcd60e51b815260206004820152602160248201527f5a69766f65526577617264733a3a7374616b65282920616d6f756e74203d3d206044820152600360fc1b60648201526084016107bc565b600354610f6e90836113c8565b60035533600090815260076020526040902054610f8b90836113c8565b33600081815260076020526040902091909155600854610fb8916001600160a01b03909116903085611524565b60405182815233907f9e71bc8eea02a63969f509818f2dafb9254532904319f9dbda79b67bd34a5f3d90602001610849565b6001600160a01b038116600090815260046020526040812080546002909101546105c3916113b0565b3360005b60025481101561110c576000600282815481106110365761103661186b565b6000918252602090912001546001600160a01b03169050611056816111d3565b6001600160a01b0382166000908152600460208190526040909120015561107c81610937565b6001600160a01b038083166000908152600460205260409020600301919091558316156110f9576110ad83826105c9565b6001600160a01b03808516600081815260056020908152604080832094871680845294825280832095909555600480825285832001549282526006815284822093825292909252919020555b508061110481611897565b915050611017565b506000600283815481106111225761112261186b565b6000918252602080832091909101543383526005825260408084206001600160a01b039092168085529190925291205490915080156111cd573360008181526005602090815260408083206001600160a01b038716808552925282209190915561118c91836113d4565b6040518181526001600160a01b0383169033907f5303cb8fc2ab504b092b4799d2c00f2209ee4eee6b03a168171dc140ed7403ee9060200160405180910390a35b50505050565b60006003546000036111ff57506001600160a01b03166000908152600460208190526040909120015490565b600380546001600160a01b038416600090815260046020526040902060028101549201546105c392611250929161064f91670de0b6b3a76400009161124a9190829061062a8b610937565b906113b0565b6001600160a01b03841660009081526004602081905260409091200154906113c8565b61127b61143c565b600154600160a01b900460ff16156112a55760405162461bcd60e51b81526004016107bc906118b0565b6001600160a01b0381166113215760405162461bcd60e51b815260206004820152603e60248201527f5a69766f654f776e61626c654c6f636b65643a3a7472616e736665724f776e6560448201527f72736869702829206e65774f776e6572203d3d2061646472657373283029000060648201526084016107bc565b61085c816114bc565b3360009081526007602052604090205461134390610662565b61059a610464565b60026000540361139d5760405162461bcd60e51b815260206004820152601f60248201527f5265656e7472616e637947756172643a207265656e7472616e742063616c6c0060448201526064016107bc565b6002600055565b600061065b82846118f5565b600061065b8284611908565b600061065b8284611927565b600061065b8284611949565b6040516001600160a01b03831660248201526044810182905261143790849063a9059cbb60e01b906064015b60408051601f198184030181529190526020810180516001600160e01b03166001600160e01b03199093169290921790915261155c565b505050565b6001546001600160a01b0316331461059a5760405162461bcd60e51b815260206004820152603760248201527f5a69766f654f776e61626c654c6f636b65643a3a5f636865636b4f776e65722060448201527f6f776e6572282920213d205f6d736753656e646572282900000000000000000060648201526084016107bc565b600180546001600160a01b038381166001600160a01b0319831681179093556040519116919082907f8be0079c531659141344cd1fd0a4f28419497f9722a3daafe3b4186f6b6457e090600090a35050565b600081831061151d578161065b565b5090919050565b6040516001600160a01b03808516602483015283166044820152606481018290526111cd9085906323b872dd60e01b90608401611400565b60006115b1826040518060400160405280602081526020017f5361666545524332303a206c6f772d6c6576656c2063616c6c206661696c6564815250856001600160a01b031661162e9092919063ffffffff16565b80519091501561143757808060200190518101906115cf919061195c565b6114375760405162461bcd60e51b815260206004820152602a60248201527f5361666545524332303a204552433230206f7065726174696f6e20646964206e6044820152691bdd081cdd58d8d9595960b21b60648201526084016107bc565b606061163d8484600085611645565b949350505050565b6060824710156116a65760405162461bcd60e51b815260206004820152602660248201527f416464726573733a20696e73756666696369656e742062616c616e636520666f6044820152651c8818d85b1b60d21b60648201526084016107bc565b600080866001600160a01b031685876040516116c291906119a2565b60006040518083038185875af1925050503d80600081146116ff576040519150601f19603f3d011682016040523d82523d6000602084013e611704565b606091505b509150915061171587838387611720565b979650505050505050565b6060831561178f578251600003611788576001600160a01b0385163b6117885760405162461bcd60e51b815260206004820152601d60248201527f416464726573733a2063616c6c20746f206e6f6e2d636f6e747261637400000060448201526064016107bc565b508161163d565b61163d83838151156117a45781518083602001fd5b8060405162461bcd60e51b81526004016107bc91906119be565b80356001600160a01b03811681146117d557600080fd5b919050565b600080604083850312156117ed57600080fd5b6117f6836117be565b9150611804602084016117be565b90509250929050565b60006020828403121561181f57600080fd5b5035919050565b60006020828403121561183857600080fd5b61065b826117be565b6000806040838503121561185457600080fd5b61185d836117be565b946020939093013593505050565b634e487b7160e01b600052603260045260246000fd5b634e487b7160e01b600052601160045260246000fd5b6000600182016118a9576118a9611881565b5060010190565b60208082526025908201527f5a69766f654f776e61626c654c6f636b65643a3a756e6c6f636b65642829206c6040820152641bd8dad95960da1b606082015260800190565b818103818111156105c3576105c3611881565b600081600019048311821515161561192257611922611881565b500290565b60008261194457634e487b7160e01b600052601260045260246000fd5b500490565b808201808211156105c3576105c3611881565b60006020828403121561196e57600080fd5b8151801515811461065b57600080fd5b60005b83811015611999578181015183820152602001611981565b50506000910152565b600082516119b481846020870161197e565b9190910192915050565b60208152600082518060208401526119dd81604085016020870161197e565b601f01601f1916919091016040019291505056fea2646970667358221220fde5e687a7cee66eb9247951ed48fe794fe262662f4582a7917c784237f83e9264736f6c63430008100033",
    "linkReferences": {}
  },
  "methodIdentifiers": {
    "GBL()": "3ce8d432",
    "addReward(address,uint256)": "9feb8f50",
    "balanceOf(address)": "70a08231",
    "depositReward(address,uint256)": "7db4e28f",
    "earned(address,address)": "211dc32d",
    "fullWithdraw()": "fa914ed5",
    "getRewardAt(uint256)": "cefba7e6",
    "getRewardForDuration(address)": "bcd11014",
    "getRewards()": "0572b0cc",
    "lastTimeRewardApplicable(address)": "638634ee",
    "locked()": "cf309012",
    "owner()": "8da5cb5b",
    "renounceOwnership()": "715018a6",
    "rewardData(address)": "48e5d9f8",
    "rewardPerToken(address)": "f1229777",
    "rewardTokens(uint256)": "7bb7bed1",
    "rewards(address,address)": "e70b9e27",
    "stake(uint256)": "a694fc3a",
    "stakingToken()": "72f702f3",
    "totalSupply()": "18160ddd",
    "transferOwnership(address)": "f2fde38b",
    "transferOwnershipAndLock(address)": "58289c7e",
    "userRewardPerTokenPaid(address,address)": "7035ab98",
    "viewRewards(address,address)": "52985ac6",
    "viewUserRewardPerTokenPaid(address,address)": "1737595f",
    "withdraw(uint256)": "2e1a7d4d"
  },
  "id": 48
}